:020000040800F2
:10000000B0F90020AD0B04085103040853030408A1
:1000100055030408570304085903040800000000AE
:10002000000000000000000000000000D9D9030813
:100030005B030408000000007DD903085D03040889
:10004000691204086D12040871120408751204087C
:10005000791204087D12040881120408851204082C
:10006000891204088D1204089112040895120408DC
:10007000991204089D120408A1120408A51204088C
:10008000A9120408AD120408B1120408B51204083C
:10009000B9120408BD120408C1120408C5120408EC
:1000A000C9120408CD120408D1120408D51204089C
:1000B000D9120408DD120408E1120408E51204084C
:1000C000E9120408ED120408F1120408F5120408FC
:1000D000F9120408FD1204080113040805130408AA
:1000E000091304080D130408111304081513040858
:1000F000191304081D130408211304082513040808
:10010000291304082D1304083113040835130408B7
:10011000391304083D1304088799020841130408A1
:1001200045130408491304084D1304085113040827
:100130005513040861030408591304085D130408E7
:100140006113040865130408691304086D13040897
:100150007113040875130408791304087D13040847
:100160008113040885130408891304088D130408F7
:100170009113040895130408991304080000000063
:100180009D130408A1130408A5130408A913040867
:10019000AD130408B1130408B5130408B913040817
:1001A000BD130408C1130408C5130408C9130408C7
:1001B000CD130408D1130408D5130408D913040877
:1001C000DD130408E113040800000000E51304082F
:1001D000E9130408ED130408F1130408F5130408E7
:1001E000F9130408FD130408011404080514040895
:1001F000091404080D14040800281CBF0068002816
:1002000001D10020704740787047C16B00291CBFA6
:10021000D1F8C011002901D0086870470068816ECC
:100220000029F9D1002070470068D0F8CC10C1F344
:10023000400008B10D207047052070470068D0F8D5
:10024000CC10C1F3400008B10C2070470420704767
:1002500070B503460020002404E01D5D0E5D641CA3
:10026000754028439442F8D3C0B270BD02E000222A
:1002700000F8012B0A46511E002AF8D17047006889
:10028000D0F8CC10C1F3400000B1022070477CB51B
:1002900004460D46606D70B10FF21C060195009684
:1002A000522304F043F9206D636D2A46A90802B079
:1002B000BDE87040184773BD7365745F74696D6500
:1002C0007220746F202564206D7300001CB50446F5
:1002D000A16D61B1206D8847022808D10FF214008A
:1002E0006023009004F022F94FF0FF3016BD00208B
:1002F00016BD000074696D6572206578706972655D
:10030000640000002DE9F047A8B007460E461446E9
:100310009846DDF8C090684605F0A7FC204605F039
:10032000F3FD48441430802888BFDFF81C0D60D8E6
:10033000751C6D08B81969424618204605F0E4FDA1
:100340008246524621460DA805F0E8FD0DA84A4612
:100350004146504405F0E2FD0320D14405F06CFC19
:10036000002844D000F094F8002842D12A463946AB
:1003700068464FF0000A05F0E6FC4A460DA96846BB
:100380000DF10C0805F02FFD09A900F00DF9319CC5
:10039000329F09E018F8003000EB0A0C401C04F80A
:1003A0000C308842F6D39246BA45684619D205F019
:1003B00054FD09F1100200F0F2F800F0F4F868467C
:1003C00005F04BFD102200F0EAF809A900F0ECF866
:1003D0000AF11002974234BF07F00F0110210020EC
:1003E000DFE705F048FC042005F026FC10B9DFF833
:1003F0005C0C4AE000F04CF8002846D12A46314611
:100400006846002505F09FFC4A460DA900F0C8F893
:1004100008A900F0C9F80AE0431918F800C0E65C22
:10042000401C8CEA0606E6548842F5D31546BD42C8
:10043000684620D205F011FD09F1140208A900F068
:10044000AFF800F0B0F8684605F007FD142208A9DF
:1004500000F0A6F808A900F0A7F805F114029742E9
:1004600006D214211420B7FBF1F100FB117100E05A
:1004700014210020D8E705F0FEFB802108A8FFF733
:10048000F5FE142103F0DCFE002028B0BDE8F08763
:1004900001460122684605F008BC2DE9F04FB3B0D3
:1004A0000446884691469A46684605F0DEFB20469B
:1004B00005F0C2FB040008BFDFF8900B6CD03D9D37
:1004C00005F0FEFC0646504605F01EFD8019281872
:1004D000802888BFDFF8700B5ED8504605F014FD09
:1004E000834613A887195A465146384605F016FD2B
:1004F0003C992A4607EB0B005D4405F00FFD0122F5
:100500002146684605F0D1FB002845D14A464146C0
:10051000684605F018FC2A4639466846002705F06B
:1005200062FC13A900F040F8DDF8F8803F9C09E078
:1005300013F800C000EB070E401C08F80EC08842FC
:10054000F6D31746A74268461CD205F086FCAA19C6
:1005500013A900F025F800F026F8684605F07DFCA8
:10056000324613A900F01CF813A900F01DF8F21987
:10057000944203AB3ABFB4FBF6F106FB114131469E
:100580000020DCE705F077FB802113A8FFF76EFE63
:10059000402103F055FE002033B0BDE8F08F09A9DB
:1005A000684605F020BC03A9684605F02CBC7FB561
:1005B00000F00BF8062003E07FB500F006F80720F6
:1005C0000196FFF76AFF04B070BD009313460A4618
:1005D0000A9C099D089E01460394029570470000FD
:1005E0002DE9F04FE3B08046D8F838A0DFF8509DF1
:1005F000D8F84C60D8F83C400FF268650494009538
:1006000040F2F5134A4603F01FFE3468207ADFF803
:10061000384A05F098FC050030680AD1007A0FF2DC
:100620005461009140F2FB1301904A46012140467B
:100630000FE0407A05F000FB069068B9316809F1D7
:10064000AC0040F203234A7A009001214046019217
:100650004A4606F045F844E2049800F20447D8F808
:100660001400032807DADFF8DC0C0FF2AD41B860A4
:10067000DFF8D42C1BE00DD13068417A07290FD167
:10068000DFF8C82C0FF27D50BA60DFF8C41C386068
:1006900079600EE0DFF8BC2C40F232230092D1E109
:1006A000DFF8B40C0FF2FD41B860DFF8B02C396010
:1006B0007A600498049A0FF2D42B00F2144103914B
:1006C000D2F8780800286DD1049940F2432301F252
:1006D00054420592F86805990FF2B85202904046CC
:1006E0000191032100924A4606F055F8D8F83C00E3
:1006F000D0F88C1801293BD10FF2AC5240F24B23B9
:10070000009200F003FAD8F83C2007A94046D2F83E
:1007100004349847D8F81400032808D1D8F84C10AE
:100720000A68507A072814BF2024302400E02424CB
:1007300007A80FF2945101904FF4187300914A46A4
:1007400002940321404606F026F830200AF12C01DD
:1007500002900598019107AB0094F968BC680FF20C
:100760007852A047040017D001944FF41A7349E05F
:1007700030200AF12C01029040220191039B059840
:100780000092F968BC680FF2AC52A047040003D095
:10079000019440F2752335E0059840F22441FFF7BB
:1007A00065FD06E00FF248504FF41F73009000F013
:1007B000ADF90399402253A805F0B0FB039820221D
:1007C0005BA905F0ABFB0498202253A900F234404A
:1007D00005F0A4FB402153A8FFF748FD4FF48070BB
:1007E00013A94022039B02900AF12C0001913021B1
:1007F0000092BC680FF21852A047040005D0019483
:1008000040F29623CDF800B066E1DAF8000006F079
:1008100071FA01900FF20850009040F29B2300F013
:1008200075F930210AF12C000FF208520291019063
:100830004FF4277300924A460321404605F0ABFF70
:10084000402003990FF2FC420290019140F29D2357
:1008500000924A460421404605F09DFF4FF4807007
:1008600013A90FF2F0420290019140F29E230092F0
:100870004A460421404605F08EFF03984021FFF7C9
:10088000F5FC6868C00870606878062818BF0828FA
:1008900033D100200C2170610422F1603261306894
:1008A000017F8A074CBF10201820B060706909F1E1
:1008B000D0030490F1680391B268029270680190CD
:1008C0004A46009340F2FF2300F021F9706913A912
:1008D00001EB40027368D4180F18D8F80010306983
:1008E00091F8CC10C90763D400280392029413AC8A
:1008F00014BF8346D6F80CB04AE00699012206F1EF
:10090000380005F0D2F9040007D10699012206F15A
:10091000440005F0CAF9040006D00FF244400194E7
:10092000009040F2BB23D7E0069805F0C9FA706149
:10093000DAF87400012804BF0A217161E968F160E6
:100940006A787069072AB0D0DAF878306A69012BC2
:1009500002D11018B06004E0B0FBF2F002FB0022FC
:10096000B260D8F81400002818BF01289ED00228D1
:1009700018BF032803D1B0680918B16096E7DFF803
:10098000D41940F2F72300915CE000BF707266005A
:1009900002985A46C11806F1180005F0BFFA029BEA
:1009A00070685A46184400EB0B0106F1280017E066
:1009B0000028039402923C4613AF14BF8346D6F836
:1009C0000CB003985A46C11806F1280005F0A6FAA3
:1009D000039970685A46084400EB0B0106F11800B1
:1009E00005F09CFAD8F81410002926DD726921461A
:1009F00006F1380005F0A7F97269394606F144009E
:100A000005F0A1F9D8F80000C46D4CB1CDF804B0E0
:100A1000716800917369006E13AA0AF12C01A04756
:100A2000294606F1500005F0C5FA04000FF24437DC
:100A300010D0019440F26D3332E0DFF8180940F233
:100A4000493300904A460121404605F049FEDFF84F
:100A5000FC0558E006F1900A2946504605F0AAFA2E
:100A6000040003D001944FF45D7319E06A680399A0
:100A7000012306F150000FF2143705F0B4FA040018
:100A800003D001944FF45F730AE06A68029900236F
:100A9000504605F0A8FA040004D001944FF46173A5
:100AA000009719E0687802281DD1042106F1500052
:100AB00005F016FD04000FF2EC2503D0019440F27E
:100AC0008E3308E00421504605F00AFD04000AD0E8
:100AD000019440F2953300954A460121404605F0C5
:100AE0002EFE20460FE04FF4807113A8FFF7BEFBE7
:100AF0000FF2D02040F2BD3300904A46022140461A
:100B000005F0EEFD002063B0BDE8F08F4A460321FA
:100B1000404605F0E5BD0000F8B5B0B00E46DFF880
:100B200020580FF2B0270446009740F2F9332A46C6
:100B300003F08AFB1AA806F01DF903A806F020FEB0
:100B4000E06B00F502711AA806F022F9E06B00F5DF
:100B5000187103A806F022FE31461AA806F00EFD11
:100B600006F1100103A807F07AFD24200FF2A82156
:100B7000029040F2044300912A4601960321204648
:100B800005F009FE0FF2AC2040F2054300902A4622
:100B900004F04FFC1AA806F0F0F803A806F0F3FDE5
:100BA00031B0F0BD70B59EB004460D4603A807F005
:100BB000E3FD0FF23421DFF88867009140F216431D
:100BC000324604F036FCE06B00F52F7103A807F005
:100BD000E1FD294603A808F05BFA20200FF2382136
:100BE000029040F21B4300F02DF90FF2482040F232
:100BF0001C430090324604F01CFC03A807F0BFFD24
:100C00001EB070BD70B5BAB004460D4604A808F019
:100C10000DFB0FF2EC11DFF82867009140F22B4337
:100C2000324604F006FCE06B00F54A7104A808F0B7
:100C30000BFB294604A809F0AAF930200FF2D811BD
:100C400002904FF4866300F0FDF80FF2E81040F2D6
:100C500031430090324604F0ECFB04A808F0E9FAB6
:100C60003AB070BD3D3E20646572697665206B6563
:100C70007973000063697068657220696E666F2021
:100C8000666F72202564206E6F7420666F756E64C7
:100C9000000000007072656D617374657220736589
:100CA00063726574000000007573696E6720657873
:100CB00074656E646564206D61737465722073651C
:100CC000637265740000000073657373696F6E2052
:100CD0006861736800000000657874656E6465641F
:100CE000206D6173746572207365637265740000B2
:100CF0006E6F207072656D61737465722028736504
:100D00007373696F6E20726573756D656429000079
:100D10006B657920657870616E73696F6E00000095
:100D20006369706865727375697465203D20257309
:100D3000000000006D6173746572207365637265F5
:100D40007400000072616E646F6D20627974657367
:100D5000000000006B657920626C6F636B0000001F
:100D60006D626564746C735F6D645F7365747570D8
:100D7000000000006D626564746C735F6369706885
:100D800065725F7365747570000000006D62656464
:100D9000746C735F6369706865725F7365746B65AB
:100DA000790000006D626564746C735F63697068DC
:100DB00065725F7365745F70616464696E675F6DAF
:100DC0006F6465003C3D20646572697665206B65E3
:100DD000797300003D3E2063616C63207665726923
:100DE000667920746C7300003D3E2063616C632063
:100DF0007665726966792073686132353600000065
:100E00003D3E2063616C632076657269667920736C
:100E1000686133383400000063616C63756C617421
:100E200065642076657269667920726573756C7485
:100E3000000000003C3D2063616C632076657269B0
:100E4000667900000091324601950321204605F0A5
:100E5000A2BC2DE9FE4F05462B68E86B03F1940216
:100E6000D2F800A0576800F5DC7400F254462268FE
:100E700006F224480AB192466768B41C0529A8EB1B
:100E800004024FEA172921D1A8EB060002281BDB38
:100E900086F800907770B61CA04528BFBA4213D3DD
:100EA0003946304609F0F0F9F419A8EB040002289D
:100EB0000ADB84F800906770A41C2046804524BF9C
:100EC000A8EB0001B9425ED25F4868E0072906D16D
:100ED00000203021307006F132047170E5E70629F8
:100EE000DFF85CB421D1D969001D01919B690093A1
:100EF00002ABB11C09F032FB040006D00FF2A400D3
:100F00000194009040F2794323E000F06DF80FF275
:100F1000AC02009201F1440301934FF490635A46EE
:100F20000321284605F0FCFCBFE7082921D1DC6934
:100F300002A901949B6900931346B21C803009F00A
:100F400032FD04000AD00FF27C000194009040F2C0
:100F50008E435A4602F081FF204620E000F044F81C
:100F60000FF27C02009201F5A873019340F29643C0
:100F7000D5E7DFF8E00340F29B4300905A4603F0C8
:100F80006BFF32480BE03A46514604F0C7FFE96B6D
:100F9000E21901F25440121AC1F810240020BDE8F1
:100FA000FE8F00006D626564746C735F64686D5FD2
:100FB00063616C635F7365637265740044484D3AA6
:100FC000204B20006D626564746C735F65636468B8
:100FD0005F63616C635F736563726574000000003A
:100FE000454344483A207A000298B21C000A307007
:100FF000029971700298E96B1418704780B5016806
:10100000AC318A68002A1AD54B6809684FF0010292
:10101000B3FBF1F1491C01E0521C4908FCD1C16845
:10102000D2B2491C8A42C16009DAC54A40F682033D
:1010300002F51971009103F007F9002002BDBDE827
:10104000024003F00DBF0000008FFFFF0094FFFF80
:101050002DE9F84F0E460FF2083184B0DFF8E09228
:10106000009104464FF40A634A460221DFF8845790
:1010700005F036FB226A002A04BF606A002805D109
:1010800009F5237140F6A503009168E00396616EAF
:10109000E06D44F24D18A8EB01014118B14205D2B0
:1010A0000FF2CC2140F6AB03009158E02068DFF846
:1010B00048A70FF2DC2B0FF2E827D0F8CC20C2F3C0
:1010C0004000002800F0EB80616D00291CBFA06D7E
:1010D000002805D109F5327140F6B80300913EE0D1
:1010E000D4F88810DFF8A05D9A4EF9B1D4F88000EA
:1010F000884203D2009640F6CA0330E0401AC4F892
:10110000800010D009F53F700191009040F6D303A4
:101110004A4604F08EF9606ED4F88810D4F8802026
:10112000014409F06FFC0020C4F88800039940F6E0
:10113000DD030291D4F8800001904A46009704F044
:1011400078F9D4F880000399884204D3CDF800B030
:1011500040F6E4039DE038B1009640F6EF034A46BE
:10116000012104F067F98AE02046FFF7AFF808B1E3
:10117000574631E06268616EE06D40F60313102A55
:101180004A46A8EB0108804419BFE06BD0F8E8514B
:101190002168D1F8A85001950FF22020009003F0AB
:1011A000C7F9676AA06A616E1FB12B464246B8470D
:1011B00002E0236A4246984707460FF23420009027
:1011C00040F60B1301974A46022104F037FA002F2C
:1011D00000F0B080574554D10FF2F81040F61313C9
:1011E00000904A4604F025F900F0D6FA20686168BC
:1011F000DFF8985CB03010292BD0E16B0068D1F893
:10120000E82182420AD30FF2D41040F61A1300905C
:101210004A46012104F00EF950463EE05300934245
:101220004A462CBF98420346C1F8E83109F18401CF
:1012300001937E23009103F07BF9204600F0E8F94A
:1012400006001CD00196DFF8480C00904FF41263A2
:1012500010E0007FC10771D5A268032A6ED1204635
:10126000FFF7CCFE06000AD00196DFF8280C0090AC
:1012700040F62C134A4604F0E0F930460DE02846CB
:101280000BE0002F5AD4C4F88070CDF800B040F6BF
:1012900063134A4604F0CDF8002002F05EBD0398C7
:1012A00040F63E130290D4F8801001914A46009710
:1012B000022120460FF2381805F012FA039D05E0CE
:1012C0003BD4D4F880003618C4F88060D4F880602D
:1012D000AE42DAD22046AE1BFEF7F8FF08B1564602
:1012E00013E0D4F824C0606ED4F88010BCF1000F75
:1012F0000144A06A05D02268D2F8A8303246E047FF
:1013000002E0236A3246984706460295D4F88000E8
:10131000019040F6561300974A4604F08AF8019669
:1013200040F65713CDF800804A46022104F086F9B2
:10133000002EC5D1DFF8600BAFE737463846ACE783
:10134000DC360308050300083B410008B905000826
:101350008D430008C0530008AF0500084F42000845
:101360003D3E20666574636820696E707574000088
:1013700072657175657374696E67206D6F72652033
:1013800064617461207468616E2066697473000022
:101390003C3D20666574636820696E70757400005A
:1013A000696E5F6C6566743A2025642C206E625FFE
:1013B00077616E743A20256400000000665F7265F4
:1013C00063765F74696D656F75743A202575206D5D
:1013D0007300000074696D656F75740068616E64F8
:1013E0007368616B652074696D656F7574000000CA
:1013F00073736C2D3E665F72656376285F74696DEA
:10140000656F7574290000002DE9FF41DFF88C8AB3
:101410000FF20014074600944FF41763424602F09F
:1014200013FFFC694CB908F5237040F67513009062
:1014300000F086F8DFF8BC0368E007F1B0060FF2B1
:10144000E404F06930B9009440F67C1359E0F16986
:101450004D1BF561F06978B33846FEF7E5FEF1699A
:1014600040F683130291B26902211018424601909E
:1014700008F54A70009000F065F83846FEF7D4FE93
:10148000F1697368D6F818C00A4649421844FB69E6
:1014900060440144B86A984705460FF298000195E8
:1014A00040F68913009042460221384605F047F97C
:1014B000002DCCDC284629E0082501E06D1EEDB2A8
:1014C0003846FEF7DCFEA84209D23068401E415D76
:1014D000491C41553268531E585D0028EED03846ED
:1014E000FEF7CDFE854209D108F5537140F69813F9
:1014F000009100F025F8DFF8A80907E0009440F615
:101500009C134246022100F01DF8002004B0BDE803
:10151000F08100003D3E20666C757368206F757425
:10152000707574003C3D20666C757368206F75742F
:101530007075740073736C2D3E665F73656E640026
:1015400042460121384605F0CBB838B5040007E023
:101550002068E56809F065FA204609F062FA2C0077
:10156000F6D131BD7FB50446DFF83029E16B606C00
:10157000D1F8FC51A84207D10FF274064FF41F6353
:10158000009602F0D5FF7FBD0FF2780540F6F41308
:10159000009502F0CDFFE26B606C01ABD2F8FC115C
:1015A000616404F1B001C2F8FC01086802F5007240
:1015B00005681D6045685D6013680360536843609B
:1015C000E36B01A803F50072D0E90035C2E90035EC
:1015D000606C50B16269022A07DBCB68C26800699F
:1015E0001A444042104408617FBDCA680A617FBD49
:1015F000736B697020737761702065706F636873B7
:1016000000000000737761702065706F636873007D
:10161000FEB5DFF888680FF2D4040546009440F662
:101620001F2302F010FEEC6B94F8EC01012813D09C
:101630000FF2D00140F6232301F076F803F00DFC01
:10164000E86B00F5F870016841602846FFF78AFFF3
:10165000E96B012081F8EC01E86B00F5F670846815
:1016600084B3207A162802BF21680A78142A04BF9E
:101670002846FFF777FF05F1C007626821683868E0
:1016800004F04CFC6068B860217A7960EA6BE0682D
:101690000C21C2F8F4010FF2840002913B6801931F
:1016A00040F63F2300903246032101F038FF2846E0
:1016B00000F0A4F80400CFD002F018FC40F6432359
:1016C00001F024B86968102902D10322027007E0F2
:1016D00002230370E86BD0F8E8112846FEF7D7FD27
:1016E0000FF258014FF4256301F017B83D3E206D0D
:1016F000626564746C735F73736C5F726573656E3F
:1017000064000000696E697469616C6973652072B8
:101710006573656E64696E670000000072657365CD
:101720006E742068616E647368616B65206D6573AB
:101730007361676520686561646572003C3D206D7A
:10174000626564746C735F73736C5F726573656EEE
:101750006400000010B50446E16BD1F8F001FFF71A
:10176000F4FEE16B002201F5EC7001688261C26158
:10177000016200F011F8A06F162802BF216F0A78ED
:10178000142A04D1E16B032081F8EC0110BDE06B59
:10179000002280F8EC2110BD00212046FEF777BD25
:1017A0007CB50446DFF8F4262068E56B02F1840678
:1017B00087230321D0F8AC00C5F8E801019020464A
:1017C000009604F08DFFE56B2046D5F8E811FEF792
:1017D0005EFDA06F162802BF216F0A78142A04D17B
:1017E000E16B032081F8EC0173BDE06B022280F80D
:1017F000EC2173BD008FFFFF0098FFFF2DE9F84F2C
:1018000006468EB006F1B0040FF29861A769DFF8C2
:101810008CA6009140F68D23524602F015FD3068EB
:10182000DFF86486DFF8C89B01F061FE1CBFF06B37
:10183000002803D090F8EC01012850D061691629E6
:101840004DD121690D785DB1F06B48B9CDF80090AC
:1018500040F69F235246012102F08EFD404610E3E0
:101860003A1F100C48702369110A381F99702169BA
:10187000C87000F09DFB50B320690837011D0C3083
:1018800009F0C0F8A0690830A061206985B1F16B4A
:10189000D1F8D421120A0271F06B2269D0F8D41168
:1018A0005171F06BD0F8D411491CC0F8D41103E089
:1018B0000022027121694A7120690321801D08F00C
:1018C000E3FC20690322411C093004F027FB35B1F9
:1018D000F36B21693A463046D3F80054A84700F02C
:1018E00067FB00281FBFF06B002890F8EC0101286F
:1018F00046D06069142818BF162841D1102103F082
:10190000FBF905000FF2AC5B12D11020CDF800B04E
:1019100001904FF41B635246012102F02DFDDFF8C8
:10192000744D0FF2A850019440F6D7230090CAE1FD
:10193000A16903F0E1F92860A26960B9019240F65B
:10194000B613CDF800B05246012102F015FD28462D
:1019500009F067F8E3E7216904F0E0FAA0690022E2
:10196000686061692972EA60F06BD0F8F01119B90A
:10197000C0F8F05104E00146C8680028FBD1CD60F2
:1019800061686069087030686268D0F8CC103069AE
:10199000531CC1F34002716904F08AF8A168380A47
:1019A0000870A2685770706C002800F052810FF226
:1019B000305140F2EA430091524602F0DCFC306BB9
:1019C000002700281CBF706C002800F03D825030BA
:1019D000FEF712FC0546A069029021690FF2105231
:1019E0000191009240F2F54352460421304604F042
:1019F000D2FE072D05D0022D64D1316B886F0028EF
:101A000068D17169002940F31A82706C216808223C
:101A1000012700F0BDFA706C6168032200F0B8FA8B
:101A2000706CA168022200F0B3FA706CA26921699F
:101A300000F0AEFA216900F0AEFA706C383004F0B4
:101A40000CFA716CDFF8503C486902902269A16978
:101A5000009340F222533046114452460191042132
:101A600004F099FE726CA16950694118072DA161BB
:101A700028D100210AF5807303913046029101F0CC
:101A80003CFD40F23453032104F02AFE2369706CBC
:101A900003A901930291A269009200F083FA050064
:101AA00006D0DFF8F80B0195009040F23C53A0E11E
:101AB000A0690399884200F0BE80CDF8009040F202
:101AC0004253C5E1062D18BF082D00F00581022DF7
:101AD00040F0FD8000200490716CA069C968401C32
:101AE0000A1AB0FBF1FB01FB0B2B8B4508BF4FF033
:101AF000000B0020A26921698218401C834501F86F
:101B000002B0F7D2A5690BF101004519A561216961
:101B100005917069012818DD706C3368C26800F1A6
:101B20001801D8699B69984705002FD1706CC2686D
:101B300000F11801E06804F0F1F920690590726C79
:101B4000A169D0680D464118A1610BF101000AF5A9
:101B50009E730390716CC8680321029001F0CDFC64
:101B600040F2C95302F008FC706C04A9059A029176
:101B70000192059B009500F015FA029038B101F032
:101B8000A3FC40F2D15300F019FA029D66E10498DB
:101B9000854204D0CDF8009040F2D75358E17069E7
:101BA000012806DC706CC26800F17801183004F07E
:101BB000B5F9002F40F03B81DFF8E40A40F2F4531E
:101BC00000905246032102F0D7FB206805A9026865
:101BD0000A6042684A606168032207A804F09EF91F
:101BE000A16905A8DFF8BC3A090AC172A2690273AB
:101BF0000D2005A9029001915246009340F2FB533B
:101C00000421304604F0C7FD706C0D2205A9383060
:101C100004F0E9F8706CA269E16800F0B9F9E168D4
:101C200000F0B9F9706C383004F017F9726CA169E2
:101C300050694118A1610FF2D8214FF4C36300919C
:101C4000524602F098FBA069A268010A1170A368CD
:101C500058703046FEF7E8FAA1690818E061A168FB
:101C600060680A78497841EA0221049183780AF58C
:101C70005C710393427840F616330292007800912B
:101C800052460190032102F077FB3046FEF7CCFA72
:101C9000A1690FF28C2240F6193308180421029032
:101CA0006068019030460092524604F074FD304660
:101CB000FFF7AAFB040000F0DB800194DFF8E809DD
:101CC000009040F61E3300F079F92046D9E0CDF8B7
:101CD000009040F20D63BBE0706C0AAD01682068B3
:101CE0000A7F0AA993070DF1310302680A6042686E
:101CF0004A6062692A7230684CBF4FF0080B4FF09F
:101D0000100BD0F8CC103069C1F34002716903F0B8
:101D1000CFFEA0690AAADFF89439000AE872A16927
:101D20000D2029730290042101F0E8FB40F25B537F
:101D3000304604F030FD706C0169C268521A082AFE
:101D400004D0CDF8009040F2635381E0226808444B
:101D500000F1180110680860506848602368E06866
:101D60001968016059684160706CDFF84439C168D6
:101D70000069091A30460291E26801F0BFFB40F2A7
:101D80006C53042104F007FD2569A2690792706C69
:101D90000023C16800698A180321121A3046A26123
:101DA00001920AF5807202934FF4AF63009252469B
:101DB00004F096FC079809AA079B28440890706CC9
:101DC0000395089901950D25CDF818B0059100F1FE
:101DD0001801049200950293C2680AAB503004F0D7
:101DE000C5FB050008D00FF258100195009040F295
:101DF000855300F0E3F831E009980799884204D050
:101E0000CDF8009040F28B5322E0A0690FF24C1203
:101E100040F292537F1C5844A0610899019104211B
:101E200000925246CDF808B0304604F0B4FC012FC1
:101E30003FF401AFCDF8009040F2146308E0CDF814
:101E4000009040F21C5303E0CDF8009040F2EE43C6
:101E5000524601213046454604F042FC0FF2101074
:101E60000195009040F6083300F0A8F8284608E0F5
:101E70000FF20C1140F622330091524602F07BFA29
:101E800000200FB0BDE8F08F0094FFFF0097FFFF28
:101E9000783400085C5B0008808DFFFFDC360308A7
:101EA0008094FFFF3D3E2077726974652072656300
:101EB0006F726400616C6C6F6320256420627974BA
:101EC0006573206661696C656400000073736C5F04
:101ED000666C696768745F617070656E64000000AD
:101EE0003D3E20656E6372797074206275660000F5
:101EF0006265666F726520656E63727970743A20F0
:101F00006F7574707574207061796C6F6164000016
:101F10003C3D20656E6372797074206275660000C6
:101F20006F7574707574207265636F726420736569
:101F30006E7420746F206E6574776F726B00000092
:101F40006D626564746C735F6369706865725F610C
:101F50007574685F656E637279707400616674652C
:101F60007220656E63727970743A20746167000044
:101F700073736C5F656E63727970745F627566000F
:101F80003C3D207772697465207265636F726400EE
:101F9000383003F028BFA069726C014402F13800A8
:101FA00003F031BFC26800F11801503004F0BDBA2F
:101FB0003068D0F8CC10C1F3400070475246012180
:101FC000304604F0BCBB2DE9F04F85B00446FEF767
:101FD00035F9E16FDFF8DCB6DFF8DC8681420BD241
:101FE0000FF210400191009040F606434246012155
:101FF00003F020FA5846E8E1204604F18806FEF78F
:102000001DF9226FDFF8B496937851781B0243EAEA
:102010000143D1780B431818B06108F59B61039018
:10202000107840F611430290E26F0192424600910F
:1020300002F07EFA00F06CFA00F0C981276FE56BC0
:1020400078793979002D40EA01201EBF05F5EC7141
:102050000A68904229D0096A4B1E984219D13E78ED
:10206000032E16D0019008F5A260029140F6264397
:1020700003F0DDF92046FFF7CBFA060012D0DFF8B7
:1020800040060196009040F62A4303F0D5FA304608
:102090009BE108F25C510292019040F633430091BB
:1020A00003F0C6F9DFF81C068FE1E06FB1698842E2
:1020B00014D30322B81DCDA108F0B6FC70B90322D9
:1020C000791C07F1090008F0AFFC38B9002D1EBFDC
:1020D00005F5EC71C868002800F0768108F5B46257
:1020E00040F64143009203F0A3F9B569E06B0C3D63
:1020F00098B908F56B7040F675330090424601219F
:10210000204604F0EDFA0FF20C31CDF80490009166
:1021100040F6454303F090FA66E1D0F8E40105F09B
:1021200007010491002868D1019508F576700090A8
:1021300040F6813303F07CF9B06944F20101884232
:1021400005D30FF2F02240F685330092D6E70498CB
:1021500000B1012005EBD50151FA80F70C37394663
:1021600002F0CAFDE16BC1F8E40158B901970FF222
:10217000E020009040F68F33424601212046DFF8F0
:102180001495BEE7216F062203F0C8FEE06B032121
:10219000D0F8E421901D08F077F8E06B0322D0F826
:1021A000E401411C093003F0B9FEE06BD0F8E41102
:1021B00001F10C020392216FCA7988798F7A120299
:1021C00042EA0042087A40EA020A4A7A3F02C87AA2
:1021D00047EA0247074307EB0A00854219D20395F5
:1021E00008F20441029740F6B433CDF804A0009100
:1021F000424601212046D94683E7216F042208F098
:1022000013FC0028D1D00FF2602040F69F330090DD
:10221000EEE7E06F07F10C01884206D2029008F564
:102220008660019740F6BB33F1E708F58B610297B2
:1022300000914FF43C63CDF804A003F0F9F8206F4F
:10224000039B3A464FF0010B00F10C0103EB0A002F
:1022500003F064FE534603F00700C0F10800039A40
:102260000828394602EB050A1ED088424FEAD30CF3
:102270000AD389B31AF80C30421A0BFA02F2491E3B
:1022800013430AF80C30F4E7C318091A00280AE0CF
:102290001AF80C20A0F1010E0BFA0EFE401E4EEAB9
:1022A00002020AF80C20F3D111F007000ED0CA1870
:1022B000D208091A1AF802C0C0F1080E0BFA0EFE75
:1022C000401E4EEA0C0C0AF802C0F3D10AEBD30010
:1022D000FF22C90808F0B8FB0020009504E01AF8B6
:1022E0000010FF2911D1401CEA089042F7D30021C9
:1022F00000E0491C049B994211D21AF80200C1F176
:10230000070E0BFA0EF31842F3D10FF2781140F6D4
:10231000CB33009103F08CF8DFF8A893F3E60FF2CB
:10232000801040F6CF3303F082F8E06F0C3787421D
:1023300005D208F2844140F6D8330091DEE6D4F8A5
:1023400080203368934221D2656E206FB769D21A1C
:10235000E91844F24D13A3EB05093844A0EB050C32
:10236000C6F800C09444E36DC4F880C04B44634594
:102370000AD208F2AC4040F6EE3303F051F803F015
:1023800059F8DFF84493BEE608F03CFBE06BB26915
:10239000D0F8E411206F03F0C1FDE06BD0F8E40148
:1023A00008F03FFBE06B002140F6FB33C0F8E4117E
:1023B000B2690292216F0FF204100191009042461F
:1023C0000321204604F0E7F9002001F0C6BCE06FCD
:1023D000B1698842F8D208F5B96240F64F430092DD
:1023E0004246012103F026F84846EEE700000000CF
:1023F000C053000868616E647368616B65206D6529
:10240000737361676520746F6F2073686F72743ABD
:102410002025640073736C5F7265617373656D6210
:102420006C655F64746C735F68616E647368616B24
:102430006500000068616E647368616B65206D659E
:10244000737361676520746F6F206C6172676500DC
:10245000616C6C6F63206661696C6564202825641B
:102460002062797465732900667261676D656E74A8
:1024700020686561646572206D69736D617463685D
:10248000000000006D657373616765206973206EDD
:102490006F7420636F6D706C65746520796574006E
:1024A00068616E647368616B65206D6573736167E5
:1024B0006520636F6D706C6574656400726561732F
:1024C00073656D626C65642068616E647368616BCE
:1024D00065206D65737361676500000010B5044683
:1024E0006068102808D0E36B8BB1D4F8A020216F6E
:1024F000D3F800342046984700F00AF81CBFE06B80
:10250000002804D0D0F8D811491CC0F8D81110BD4B
:102510002068D0F8CC10C1F34000002870479030FC
:102520000022C0E90022C0E902227047F0B54578D8
:102530000278C47845EA022182781706027947EAD0
:102540000446407946EA02273843F0BD10B50446F8
:10255000216E881CFFF7EAFF2268D2F8CC30C3F363
:102560000032B2B19034D4E900238B4202D828BFA4
:1025700082420ED3121A8B41002B07D8402A05D273
:10258000D4E9020108F06AFAC10702D54FF0FF3022
:1025900010BD002010BD70B50646316E881CFFF7D7
:1025A000C5FF0D4631680446D1F8CC00C0F30030B9
:1025B00068B39036D6E90001A94217D828BFA042D7
:1025C00014D2221A65EB0103002B01D8402A02D352
:1025D0000120002105E0D6E9020108F04FFA40F0A1
:1025E0000100C6E90201C6E9004570BD021B61EBAE
:1025F0000503002B0BD8402A09D201200021D6E97F
:10260000024508F03BFA20432943C6E9020170BDA8
:10261000FEB5DFF8AC6C0FF2B4040546009440F64A
:1026200089633246022105F1780704F059F83A6BC4
:102630000ABB284600F07CF804000ED1284600F0C2
:1026400071FF044614F5CD4FF3D06CB10FF28C003E
:102650000194009040F69B6305E00FF28001019425
:10266000009140F6916351E0386816280DD1284654
:10267000FFF734FF09E006F5DC6140F6A66300F0E1
:1026800053F802F0EAFB002038630FF2700140F6C5
:10269000AA6342E00081FFFF28340008D434000818
:1026A0004833000860330008785B0008C83300082E
:1026B000E8330008008EFFFFDC360308808FFFFF41
:1026C000783400080097FFFF0096FFFF3D3E207220
:1026D000656164207265636F726400006D62656499
:1026E000746C735F73736C5F726561645F72656352
:1026F0006F72645F6C617965720000003C3D20720E
:10270000656164207265636F726400003246012166
:10271000284604F014F82046FEBD00F005F82846CF
:1027200003F0DEFF0020FEBD00913246022170471B
:102730002DE9F84F054696B005F18400DFF880AB2F
:10274000C169686F41B350B1DFF8784B40F6D86388
:10275000009402F080FBDFF8700B00F0ADBDEA6F73
:10276000914210D2521AEA67286F014408F04AF9E0
:10277000E86FDFF8582B0290296F019140F6F8635B
:1027800000F0CAFE00E0E867002105F18402D16193
:10279000E86F002801D10BE1002840F08C85E96743
:1027A00006E1284605F18408FDF73EFD0290686EBB
:1027B000DFF81C1B0190009140F69653524604210D
:1027C0002846DFF8109B03F0E6FF686EDFF8086B21
:1027D000DFF808BB0178431CA967A96E0A7849781D
:1027E00041EA0221E9672868D0F8CC1006A8C1F3B5
:1027F000400205A903F069F9E86F0599069A04906B
:1028000003910AF2F4530292A86F0190524600938A
:1028100040F69F5301F01FFCA86F162818BF15281B
:1028200004D0142818BF172840F0D28006982969D0
:10283000884240F0EE802B68059993F8C9008842E1
:10284000C0F2EF802A6FE86DE96F44F24D14A41ACC
:1028500004198C42C0F0EB80286C002840F0F28014
:10286000002900F0E980B1F5804F00F2E580D3F84F
:10287000CC00C0F34000C8B1286E44780178A86F3E
:10288000142844EA012440F0FE8068680A2818BF32
:102890000C2840F0EF80B8F80000844240F0058139
:1028A0002846FFF753FE002840F0CD8102F066FA7B
:1028B000E96F09182846FEF7CBFB040040F0D381EE
:1028C00000F014FE00F0D68102F058FAE96F4018CB
:1028D000C8F8040002F052FAE96FDFF8EC2C40F679
:1028E0004263081804210290686E00F00FFE286C05
:1028F000002800F09C84DFF8800D4FF4C563009041
:102900005246022102F0A9FAE86A002400264FF09C
:102910000109DFF8B07900281CBF286C002800F0FE
:1029200082849030FDF768FCD5F840C0EA6FDCF88F
:1029300008108A4280F0A281DFF8400D02910192D6
:1029400040F23563009002F086FADFF8344DDFF88C
:10295000340D0194009040F6586301F07DFA286828
:10296000DFF81C6D00F0C3FD08D05C4518BFB44211
:1029700040F0998468680B2818BF0D2800F08C84FB
:102980002968D1F8C00038B1A869401CA861D1F805
:10299000C010884280F078840020DFF8EC1CC8F872
:1029A000040040F68273C5F88000009102F053FAEB
:1029B00002F0E4F901462846FEF74AFB04003FF422
:1029C000F0AE0FF66C100194009040F6237350E1C6
:1029D000DFF8B81C40F6A75302F03CFA0A220221A5
:1029E000284600F00BFE5C4600F080FD18BF4C4509
:1029F00000F05984B44240F02B8102F0BFF9E96F36
:102A000040F634734018C8F804000AF204700090CD
:102A1000CCE7DFF87C1C4FF45B63009102F01BFAFB
:102A2000E1E70FF6BC0040F6B6530090F6E7DFF89A
:102A3000641C40F6BE53F0E7DFF8580C40F6C8536C
:102A40000090EBE78068814205D2DFF8480C4FF434
:102A50005D630090E2E76A69002A7FF708AF00F53E
:102A600082408842BFF403AF0FF6F81040F6E553FA
:102A70000090D3E70AF5C66140F6FB53009102F0DF
:102A8000EAF93446B0E717287FF405AF68681028E4
:102A900003D0A968012908BF02283FF4FCAE0AF55B
:102AA000CB6040F609630090E9E70AF27C6101908F
:102AB000009140F61263029402F0CDF9286890F874
:102AC000CC10CA07DDD56868102802BF002CA86F9B
:102AD0001628D6D1D5F880100D29D2D9E86D417BC2
:102AE0000129CED10AF5D66240F623630092524600
:102AF00002F0B3F9D8F82840D5F88030EF6DD8F857
:102B000060100791D8F85C2004922868C16C03918A
:102B1000D0F848C0426C0292002A18BFBCF1000FE6
:102B200066D03D2B61D33978162904BFF878002888
:102B30005BD13979002904BFF87C002855D1397D53
:102B4000002904BF787D00284FD197F83B00A3F1FE
:102B50003D01814221BF381890F83C203C3B934214
:102B600043D30799049B009100F13D010398E0478E
:102B700008B900243EE019223946204603F0CEF978
:102B80000320FE216073FF22617604F11C00A2760F
:102B900007990190049B0398DDF808C0009104F5A3
:102BA000804201A9E04710B1DFF81C4722E00198FC
:102BB000A0EB040BABF11900ABF11C01020C000AF5
:102BC000E176A275A17DE075E07DA173ABF10D0208
:102BD000E073ABF11900120AABF10D0120762074FD
:102BE000E2722173DFF8744C04E0DFF8744C01E00A
:102BF000DFF8704C0FF200700194009040F66353C0
:102C00005246022101F02AF914F5D54F08D1D8F81F
:102C10002810A86AEB695A46DFF8404C9847E3E66B
:102C2000002CFCD10121284601F0C2FF040008D08D
:102C30000FF2E4600194009040F6745301F00CF937
:102C4000D2E64C462FE30FF2D8614FF4636315E7E9
:102C500000200AF22C72C8F8040040F63D73C5F853
:102C600080000092A2E60FF2C8600194009040F646
:102C70004D7306E30021C5F880102BE6072828D104
:102C800003942B6F03A901930291EA6F0092DCF881
:102C90000C200CF128010CF1900003F046FC02908E
:102CA00038B100F011FC40F2476301F0D5F8029C06
:102CB0004DE6E86F0399884200F03081009740F2BA
:102CC0004D63524601212846DFF8FC4503F008FD1C
:102CD0003DE6062818BF082800F08081022840F051
:102CE0007981002204926B69DCF80C00EE6F012BF5
:102CF000C8BFDCF80C2083189E4221BFDCF81410FA
:102D00008A18521C9642C0F05B81296F059103918D
:102D1000E96A8A6F012A64D10FF22C6040F2C9631C
:102D20000090524601F097F9286CE96F06AA4469B1
:102D3000361B0C1BEC67286E240A01681160416881
:102D40005160696E032208A803F0E8F806A806AAF5
:102D5000C472E96F01730D200FF20463029000F05A
:102D6000CDFB40F2D36300F0CDFB286C0D2206A909
:102D7000443003F038F8286CEA6FE96E00F0A1FBEC
:102D8000286C0AA9443003F03EF800F095FB286C4B
:102D90000FF2846341690291EA6EE86F009340F29A
:102DA000DC63042110445246019000F0B8FB286C0B
:102DB0000AAA0FF2746300F079FB40F2DE6300F0C0
:102DC000A1FB286CEB6E0AA94269E86F1844FDF775
:102DD0003FFA28B10FF2985140F2E3630091B2E557
:102DE00001242A6CE96FD268B1FBF2F002FB1010EB
:102DF00030B101910FF29451029240F2F163EDE78C
:102E0000686901280EDD891AB61AE967002005E015
:102E1000EA6E0144135C401C81F82830296CCA68B2
:102E20009042F5D3286C04A9039A0291019200966E
:102E3000059BC26800F12801903003F076FB0290F8
:102E400020B100F041FB40F209732EE7049886425E
:102E500003D0009740F20F7333E76869012806DC5E
:102E6000286CC26800F1B801283003F057F8EA6F07
:102E7000286F0090431E286C9E5C4069761C3118B8
:102E80008A4202D20CB90026B1466969002940F392
:102E90009380012300210293931B5B1E06F1010E18
:102EA00072456CEB0C0C6FEA0C0C00F580404FEA9D
:102EB000DC7C83420CEA0909804109EAD0704FF0BA
:102EC000010901900198434302984E456CEB0C0CAC
:102ED0006FEA0C0C09EB030E00EADC70DDF800C0B1
:102EE00009F101091CF80EC0A6F1010EF4450CBF52
:102EF0004FF0010C4FF0000C1CFB001140F2011CC4
:102F0000E145E2D3B14201990CBF0120002000EA63
:102F10000109C9EB49200640921BEA67E96F0FF2ED
:102F20008C420291286F01904FF4EF6300F0F4FAA5
:102F3000002C40F02281286CE96F4069081AE8678C
:102F4000A96E000A0870AA6EE86F5070EC6F286CCA
:102F500000904269286F011903A802F0DFFF696938
:102F6000002940F3068136191536B6091534A6EB4B
:102F70009416009BC9EB0920296E08220024064004
:102F800003F1440002F02FFF286C696E032200F069
:102F900098FA286CA96E022200F093FA286CEA6F66
:102FA000296F00F08EFA296FE86F2A6C014402F154
:102FB000440002F028FFAFE0009740F2697380E61A
:102FC000DCF81410029003910AF5E07001964FF4BA
:102FD000D763B7E4009740F2737372E6DCF8000041
:102FE000017FDCF810008B07DCF80C104CBF0824C4
:102FF0001024081A23189A4207D202900AF5C670C4
:10300000039440F2656301929CE4121A121B07922A
:10301000296F09910CAA0B910799E967286E0DF1A8
:1030200039030168116041685160A96F8DF838104B
:103030002868D0F8CC102869C1F34002696902F011
:1030400037FDE96F0CA80FF28033090A8DF83B10A9
:10305000EA6F0D218DF83C20029152460190042127
:10306000009340F2766300F04EFA286CE96E036933
:10307000C26818442830D21A02F050FF286C0FF2B0
:10308000683240F27D63C16828300291042100F06B
:103090003DFA09980799029440F27E6301440FF2C9
:1030A00050300891089A01925246009000F036FA8A
:1030B000286C08990AAA06940591079C049209991C
:1030C0000D2201910B9B0294009200F128010393C1
:1030D000C2680CAB903003F084FA04000CD00FF2FD
:1030E0001C300194009040F28B6300F0B5FE14F5A3
:1030F000C64F7FF42CAC28E40A9807990124884233
:103100003FF40CAF009740F29663DAE5286C296F24
:10311000641C443002F0C8FE701C8442F6D300F0F8
:10312000CBF9286C03AA0FF2F02300F0BFF94FF49B
:10313000F86300F0E7F9286C0FF2EC234169029183
:103140002A6FE86F009340F2C27304211044524684
:10315000019000F0E4F9286C296F4269E86F01449E
:1031600003A8FDF775F80028C5D1B9F1000F04D107
:10317000C1E7009740F2BC73A3E5E86F60B9D8F8E7
:103180002000401C0428C8F8200008DB0AF5007065
:103190004FF4FD63009022E60020C8F82000296863
:1031A00001F0E6FBF8B9082400E0641E2846FDF7AC
:1031B00066F8A04209D2286E401E015D491C0155E7
:1031C0002A6E531E185D0028EFD02846FDF757F8E9
:1031D000844208D10AF5107140F2FE7301F03AFE04
:1031E000DFF8144D74E50FF2502040F60303009011
:1031F0005246022101F031FEE86F0FF24C2202909C
:10320000296F019140F65D6300F086F9E86FB0F533
:10321000804F0CD90FF24C2140F6616301F01AFE89
:103220005C46FFF79CBB009740F22C6349E500F039
:103230005DF940D02846FFF7AEF900F057F91CBF02
:10324000E86B002837D06968102934D1A86F162898
:1032500002BF296F0A78142A2AD10AF5EA6040F6DB
:10326000AF7300905246022101F0F7FD2846FEF7A9
:10327000CFF9040019D00FF200200194009040F61D
:10328000B37300F0E9FD0EE00FF2002140F6777312
:1032900001F0E0FD30460FE0B44204D114220221D7
:1032A000284600F0ABF9204606E0DFF8400D03E0C9
:1032B000284601F0F1F8002017B0BDE8F08F0000BB
:1032C000DC360308C05300080094FFFFA4D40308B1
:1032D00038D403088098FFFF0099FFFF008EFFFF9E
:1032E0006D696E6F722076657273696F6E206D699D
:1032F000736D61746368000073736C5F636865630A
:103300006B5F64746C735F636C69686C6F5F636F31
:103310006F6B6965000000007265736574000000E2
:103320007265706C61796564207265636F726400A8
:103330006D626564746C735F73736C5F66657463F0
:10334000685F696E707574007573696E6720656E6D
:103350006372797074207468656E206D616300001B
:103360004D41432764206D6574612D646174610073
:103370006D657373616765206D616320646F65734C
:10338000206E6F74206D6174636800006D73676CEC
:10339000656E20282564292025252069766C656EB8
:1033A000202825642920213D2030000072617720EB
:1033B0006275666665722061667465722064656315
:1033C00072797074696F6E006164646974696F6E9C
:1033D000616C2064617461207573656420666F722E
:1033E0002041454144000000495620757365640042
:1033F0005441472075736564000000006D62656488
:10340000746C735F6369706865725F617574685F1F
:1034100064656372797074006D65737361676520AC
:10342000206D616300000000636F6D7075746564EA
:10343000206D6163000000003C3D2064656372798B
:103440007074206275660000696E7075742070611A
:10345000796C6F6164206166746572206465637263
:1034600079707400626164206D65737361676520B3
:103470006C656E67746800006D626564746C735F80
:1034800073736C5F726573656E640000746F6F2098
:103490006D616E79207265636F72647320776974F1
:1034A0006820626164204D4143000000416901923F
:1034B0000291524600937047296C01F1440002F0DA
:1034C000CCBC443002F08FBC0FF208020190009295
:1034D000704700006D626564746C735F6369706847
:1034E00065725F6372797074000000002868D0F81C
:1034F000CC10C1F3400000287047A26901925246E7
:10350000009370470421284603F045B901902846EE
:103510000092524603F03FB90092524604212846D9
:1035200003F039B93EB50446A06F162804D12046F1
:10353000FEF749FD002845D1A06F152841D1206F25
:10354000DFF8B85C05F2747240F6D57341780291E9
:10355000007800922A46019001F06BFF216F0A78F3
:10356000022A0DD1487805F5F361009140F6DD732C
:1035700001902A46012101F05DFFDFF85C0D3EBDA0
:10358000012A04BF487800280AD10FF2400140F612
:10359000E47300912A4601F04CFFDFF8400D3EBD78
:1035A000012A04BF4878642808D10FF23C0140F694
:1035B000EC7300912A4601F03CFF02E0DFF8200D99
:1035C0003EBD00203EBD000078D403086973206131
:1035D00020636C6F7365206E6F74696679206D650A
:1035E0007373616765000000697320612053534C59
:1035F0007633206E6F5F636572740000FEB5040061
:103600000D4617461CBF2068002801D101F056BFA7
:103610000FF28400DFF8E46B009041F21C033246A5
:1036200001F007FF02970FF28800019541F21D0398
:103630000090324600F07CFF04F1C00015210368C1
:103640000222416082601D70006847702046FEF7CC
:10365000D5F8050007D0DFF8D00D0195009041F2B4
:10366000260301F0CCB80FF2680141F2290301F002
:10367000C1F8FFF755B8000008D4030818D40308B0
:10368000808EFFFF94D40308C0D403084CD40308F1
:1036900060D40308643400083D3E2073656E6420E6
:1036A000616C657274206D657373616765000000FD
:1036B00073656E6420616C657274206C6576656CF0
:1036C0003D2575206D6573736167653D2575000047
:1036D0003C3D2073656E6420616C657274206D657D
:1036E00073736167650000002DE9FE4306460FF223
:1036F0007811F46CDFF8049B41F26B034A462468AE
:10370000009100F0A1FDA07A0FF27412052818BFF5
:10371000062803D0082818BF0B2803D1009241F2D5
:1037200072030DE0316806F1C00591F8CC0010F08D
:10373000010004BF6969002909D1009241F27C03AC
:103740004A4600F018FE7068401C706082E078B154
:103750003046FCF75AFD58B90FF2401041F2990378
:1037600000904A46012100F007FEDFF8CC0D72E020
:1037700030460727FCF749FD01900FF23C100090FE
:1037800041F29F034A460321304603F071F9304667
:10379000FCF73BFD804616E02968200C220AC8553C
:1037A0002B68DB195A70D5F800C02246BC44FF1CB8
:1037B0008CF802402868D8F80810C019E71902F000
:1037C000ADFBD8F83081B8F1000F18D0D8F804401C
:1037D00043F6FD70C01BA042DED24FF48041E719D2
:1037E0000291FF1C01970FF2E002009241F2B30335
:1037F0004A46012100F0C0FDDFF8400D2BE02A68A9
:10380000F81F010C000A11712B68F91F58712A6802
:1038100016230B209171AF606B6029680870726885
:103820003046521C7260FDF7E9FF04000AD000F038
:103830005DFB41F2CF034A460121304602F07FFF93
:10384000204608E00FF2A00141F2D30300914A465E
:1038500000F091FD0020BDE8FE8300008095FFFF91
:103860000087FFFF008FFFFF3D3E20777269746580
:1038700020636572746966696361746500000000A5
:103880003C3D20736B6970207772697465206365B5
:10389000727469666963617465000000676F742003
:1038A0006E6F206365727469666963617465207404
:1038B0006F2073656E6400006F776E2063657274AD
:1038C00069666963617465006365727469666963DA
:1038D00061746520746F6F206C617267652C2025A0
:1038E00064203E20256400003C3D207772697465A9
:1038F0002063657274696669636174650000000025
:103900002DE9F04F85B00446E06CDFF8F0B80FF217
:1039100050474FF487530168049122680221D2F87E
:10392000CC0000975A46C0F3810901F083FD049F43
:103930000FF24442B97A052918BF062903D0082995
:1039400018BF0B2905D1009241F2E7035A46022124
:103950001FE0236893F8CC0010F0010007D007297E
:1039600005D1009241F2F0035A46022111E0E16BC9
:10397000D1F8C411032918BF894680B1B9F1000FED
:103980000DD1A16B802041F2FE0308660221009256
:103990005A4601F04FFD6068401C606042E02046DE
:1039A000FEF736FE029050B1DFF8441C0190009102
:1039B00041F208135A4601F040FE0298CDE16068DA
:1039C00004F1A0070FF2CC35401C6060216891F82B
:1039D000CC20D3072BD5606948B301F025FD3968A9
:1039E000C01C814204BFA06F162820D1216F0A7825
:1039F0000B2A2CD101F018FD236F0322BCA118441F
:103A000007F012F898B90FF2A43041F23313009086
:103A10005A46012101F00EFDA06B4021B9F1010FC2
:103A2000016601D1002098E1DFF8640D95E1A06FF7
:103A300016280CD0009541F245135A46012101F099
:103A4000F9FC0A2201F0F4FDDFF8480D85E1206F52
:103A5000DFF8448D01780B2905D101F0E5FC3A68C7
:103A6000801D824203D2009541F24E1369E001F0BD
:103A7000DBFC8246206F504486784178007846EA25
:103A8000012630B901F0D0FC39688619F61CB14224
:103A900003D0009541F25E1353E0A06BC06D28B1D6
:103AA00008F01FFCA06BC06D06F0BBFF01F022F90F
:103AB000A16BC86588B94FF49A70DFF8E02C0190CB
:103AC00041F26F1300925A46012101F0B3FC5022DB
:103AD00001F0AEFDDFF8C80C3FE108F0FEFB0AF193
:103AE000030102981CE050789278C91C42EA002237
:103AF000802A24BF5618B34220D3A06B6144C06D06
:103B000007F022F801000AD0DFF8982C811A20D0A3
:103B100040F25222891A02D0AE3929D02AE0314629
:103B20003B68994228D2D4F870C00CEB010210789F
:103B30000028D8D0009541F27D1302E0009541F2B3
:103B400089135A46012101F075FC322202212046D8
:103B500048E05022054601F06BFD01950FF26C2004
:103B6000009041F2A5135A4601F067FD2846F4E0A3
:103B70002B22EFE72A22EDE725460446A86B0FF239
:103B8000682241F2AC13C16D009201915A460321A3
:103B9000284602F06DFF2E6896F8CC00C10725D4A8
:103BA000AA68012A22D1686BC06D28B90BF2BC71DA
:103BB00041F2B81300910FE0A96B4268C96D4B68E0
:103BC0009A4204D18968806806F02EFF70B10BF22A
:103BD000E47041F2C41300905A4601F03DF93122DD
:103BE00002212846FFF70AFD4046B6E0B9F1000F72
:103BF00000F0A980E86B00F5E6710868002819BF9D
:103C000082464A68D6F86CA0326FA86BB16B0391FC
:103C1000736B0293514600F160040194BF6B0097EF
:103C2000736EC06D08F074FA040008D00FF2CC1067
:103C30000194009041F2EB135A4600F00EF9A86B84
:103C4000C16D01F1BC070221384608F0FAFBA0B1B2
:103C500078680178284601F0D9FE70B1A86B41F26E
:103C6000FC135A46016E41F4803101660FF2A01038
:103C7000009001F0F1F804B944462968A86BD1F826
:103C8000CC20049900F16003C06D82F0010202F0C3
:103C9000010201F0D5FE48B10BF5016041F20823A5
:103CA00000905A4601F0D8F804B94446B9F1010F22
:103CB0000DD114F51C5F01D1002432E04445FBD046
:103CC0007CB3A86B006EC10514D5312227E0BAF190
:103CD000000F08BFB9F1020FF2D10FF2541041F2F8
:103CE0001C2300905A4601F0B7F8DFF8F44DE8E7DE
:103CF00000000000410748BF2A2210D410F4DC3F26
:103D000018BF2B220BD1C10748BF2D2207D4820731
:103D100048BF2C2203D400074CBF30222E2200F0D3
:103D200094F9A86B006E30B10BF63401019000914C
:103D300041F2432304E00BF6580041F24723009080
:103D40005A4600F088F90FF2F80141F24C23009135
:103D50005A46022101F081F8204605B0BDE8F08FF7
:103D60003D3E207061727365206365727469666997
:103D700063617465000000003C3D20736B69702036
:103D800070617273652063657274696669636174DA
:103D9000650000006261642063657274696669632E
:103DA000617465206D65737361676500544C53766B
:103DB0003120636C69656E7420686173206E6F20BA
:103DC000636572746966696361746500206D62651C
:103DD00064746C735F783530395F6372745F7061DF
:103DE0007273655F646572007065657220636572E9
:103DF0007469666963617465000000007835303964
:103E00005F7665726966795F6365727400000000B1
:103E100062616420636572746966696361746520B8
:103E2000284543206B65792063757276652900000B
:103E3000676F74206E6F20434120636861696E0074
:103E40003C3D2070617273652063657274696669B8
:103E5000636174650000000052460121284602F0AB
:103E60006EBC7CB5E54E0FF24C040546009441F261
:103E70005C2332460221142402F032FC05F1C0001A
:103E8000012144608160006801706B6828465B1CFA
:103E90006B60FDF7B3FC040004D000F027F841F29A
:103EA0006623DCE00FF2280141F26A23009100F062
:103EB000FDBF00003D3E2077726974652063686134
:103EC0006E67652063697068657220737065630052
:103ED0003C3D207772697465206368616E67652078
:103EE000636970686572207370656300DFF8380578
:103EF00001940090704700008094FFFF7CB5BF4E96
:103F00000FF2EC040546009441F2732300F09BF994
:103F10002846FEF77DFB040006D0DFF8D4060194A6
:103F2000009041F277239AE0A96F0FF2E000142984
:103F30000AD0009041F27D23324600F08DFF00F060
:103F400083F8DFF8500876BDE96F012902BF2A6FB8
:103F50001378012B0BD0009041F28523324600F0FC
:103F60007BFF322200F071F8DFF8540D76BD06F5C4
:103F7000086041F28F2300F06CF8E86CA96B2864AC
:103F8000E96201F011F8C0B105F190000022C0E92A
:103F90000022C0E90222B5F88400401CA5F8840084
:103FA00080B270B90FF6140041F29D2300903246A2
:103FB00000F052FFDFF84C0D76BD286E082106F0A8
:103FC00063F96969E86E012904DDE96C00F00CFC15
:103FD000296700E0286768680FF2500141F2C123A9
:103FE00000F02AFB022100F064BF00000097FFFFF1
:103FF0003D3E207061727365206368616E67652065
:104000006369706865722073706563006261642023
:104010006368616E6765206369706865722073709C
:104020006563206D65737361676500003C3D2070BA
:1040300061727365206368616E676520636970688B
:1040400065722073706563000A2202212846FFF71B
:10405000D5BA009032460321284602F041BB3246D1
:104060000121284602F06BFB204676BDC26B4069F9
:104070000328B8BF0FF2850104DB487A072804D172
:104080000FF2AD01C2F8001470470FF29900C2F8A8
:104090000004704710B50446E16B01F5027002F0B0
:1040A0007AFEE26B02F5187003F07BFBE06B0021F7
:1040B00000F52F7004F071FBE06B0121BDE81040AA
:1040C00000F54A7005F0C3B8F8B500F023F8E76BC7
:1040D0003246294607F5187004F088FAE06B32463C
:1040E000294600F52F7004F09AFFE36B324629460B
:1040F00003F54A70BDE8F84005F006BF70B500F062
:1041000009F8E46B3246294604F51870BDE87040A2
:1041100004F06CBA04460D46E36B164603F50270D4
:1041200003F0F3B9C06B00F52F7004F078BF000006
:10413000C06B00F54A7005F0E7BE2DE9F841B9B053
:1041400000F010F90FF2B801DFF8B080009141F2F1
:104150008533424600F078F823A802F00BFE0CA845
:1041600003F00EFBF06B00F5027123A802F010FEC5
:10417000F06B00F518710CA803F010FB102125A8B6
:104180000FF294020291019041F2953300F0DDF8B4
:1041900014200EA90FF294020290019141F29A3379
:1041A00000F0D3F8002D03A923A80CBF0FF2B4250B
:1041B0000FF2C02503F0E2F907A90CA804F04FFAAA
:1041C00000F0BCF8242100F0C6F800F0A5F841F298
:1041D000A73300F0D4F823A802F0CFFD0CA803F019
:1041E000D2FA242100F02CF80FF2982041F2AE33DD
:1041F00000F0BFF83AB0BDE8F0810000DC360308FB
:104200003D3E2063616C63202066696E697368655A
:104210006420746C7300000066696E69736865647D
:1042200020206D64352073746174650066696E6961
:10423000736865642073686131207374617465000C
:1042400003A8FCF713B83246022102F049BA2DE95F
:10425000F041A6B000F086F80BA8DFF8088B04F058
:104260008BFA0FF2800141F2C233009100F082F824
:10427000F06B00F52F710BA804F08CFA20210DA82B
:104280000FF280020291019041F2CE3300F05DF80E
:10429000002D03A90BA80CBF0FF2C8150FF2D415FF
:1042A00004F0F6FE00F04AF8202100F054F800F087
:1042B00033F841F2DA3300F062F80BA804F05FFA49
:1042C0002021FFF7BDFF0FF2BC104FF49F5300F009
:1042D00050F826B0BDE8F0818088FFFF8087FFFF9F
:1042E0008099FFFF3D3E2063616C63202066696E0C
:1042F000697368656420746C732073686132353645
:104300000000000066696E69736865642073686107
:1043100032207374617465005FF00C0001A102909B
:104320007047000063616C632066696E697368653D
:104330006420726573756C74000000000C20019796
:10434000029004F12C002A46704700924246042154
:10435000304602F020BA0091F46B03AB3021D4F860
:104360000C5428470646B46B0F46154604B9746BC7
:104370007047009042460221304602F0B1B90091E8
:10438000424601970321304602F005BA2DE9F0417B
:10439000C6B0FFF7E7FF10A8DFF8C88904F046FFB2
:1043A0000FF2880141F2F3330091FFF7E3FFF06B66
:1043B00000F54A7110A804F047FF402114A80FF23D
:1043C0008C020291019041F2FF33FFF7BEFF002DF6
:1043D00003A910A80CBF0FF28C050FF2980505F089
:1043E000D6FD0C203021029004F12C0001972A46C2
:1043F0000091F46B03ABD4F80C54A847FFF78CFF83
:1044000041F20B43FFF7BBFF10A804F012FF30216D
:10441000FFF716FF0FF26C0041F21143FFF7A9FFFF
:1044200046B0BDE8F0810000D84E00083D3E206354
:10443000616C63202066696E697368656420746CC2
:1044400073207368613338340000000066696E6958
:1044500073686564207368613531322073746174E8
:1044600065000000636C69656E742066696E69732F
:10447000686564007365727665722066696E69733B
:10448000686564003C3D2063616C63202066696E52
:1044900069736865640000002DE97C40DFF8C4584A
:1044A00012A60446009641F218432A46032102F060
:1044B00017F9E06B01F0E0F8E06B06F0B2FA0020CB
:1044C000E063A06C20B101F0C0F8A06C06F0A9FA7E
:1044D000E06C0021A06400BF0CA2E16441F22C4317
:1044E00000922A4600F024F873BD00003D3E20688B
:1044F000616E647368616B65207772617075703A84
:104500002066696E616C2066726565003C3D2068BE
:10451000616E647368616B65207772617075703A63
:104520002066696E616C206672656500DFF834286C
:104530000321204602F0D4B8808AFFFF008BFFFFE2
:10454000F8B50546DFF81C68E86B0FF2A80741F2E2
:10455000334332460321D0F87848009700F07DFCC1
:10456000AF68012F03D102200021A860E960686BC9
:1045700038B1AA6B816F916701F0BDF8686B06F0E6
:1045800050FAA96B00206963A8632B685A6A002A55
:104590001CBF886800280AD04CB9986A904730B18F
:1045A00019A041F256430090324600F055FCFEF748
:1045B0009DFF1EBFEA6BD2F8F00100280AD000214F
:1045C0002846FBF764FE06F6B40041F26243FFF7AB
:1045D00040FD02E02846FFF75FFF686811A141F245
:1045E0006A4300F029F8032102F07AF8F1BD0000D7
:1045F0008C5300083D3E2068616E647368616B6592
:10460000207772617075700063616368652064690A
:1046100064206E6F742073746F726520736573739A
:10462000696F6E003C3D2068616E647368616B6504
:1046300020777261707570003246401C68602846B1
:1046400000917047FEB5DFF81C670FF25C15044659
:10465000009541F271433246022104F1B00502F0A7
:104660003FF86169E868012904DDE16C00F0BCF8FD
:10467000296100E028612068E36B296990F8CC206B
:104680002046D3F80874091D02F00102B84760699A
:10469000002828690CBF24270C27EF633A46011D28
:1046A00004F1F00001F03AFC2A693F1D1620AF61C9
:1046B000686114211170E36BD3F8780868B1206841
:1046C00090F8CC10CA075CBF0F23636090F8CC0051
:1046D000C10705D50A22626002E06068401C606084
:1046E00006F6DC0141F2A74300913246FFF720FFB6
:1046F00000F090FE48B3E06B616CC0F8FC112A68D2
:1047000000F5007011680160516841602B68062156
:10471000981C05F0B9FD02212868401E425C521C1D
:1047200042542B685F1E785C98B9491EC9B20029B3
:10473000F2D10FF2880041F2BD43009032460121D0
:1047400000F078FEDFF8BC05FEBD2868082105F002
:104750009BFDE06CA16B6064216300F05BFE10B117
:104760002046FDF71DF82046FDF748F8050006D065
:10477000DFF810080195009041F2DA433FE000BFF6
:1047800014A141F2DE4300F035F8FDF7C9BF000087
:10479000808BFFFF0089FFFF0086FFFF8C4B000826
:1047A0000081FFFF80D7FFFF3D3E2077726974656F
:1047B0002066696E697368656400000044544C5358
:1047C0002065706F636820776F756C642077726105
:1047D000700000003C3D2077726974652066696E48
:1047E0006973686564000000CA6809691044494239
:1047F00001447047009132460221204670473246FC
:1048000000F01BFF2846FEBD2DE9F84185B0DFF81A
:1048100054650FF21C140546009441F2EF43FFF774
:1048200012FD2F68EB6B02A9284697F8CC20D3F82D
:10483000084402F0010282F00102A0472846FDF779
:10484000E7FE04000AD0DFF8EC070194009041F283
:10485000F5433246FFF701FB204666E0A86F0FF2F2
:10486000E40416280AD0009441F2FB43324600F0DB
:10487000F3FAFFF7E9FBDFF83C0856E0286FDFF8B2
:1048800038780178142909D1284605F1A008FBF7EA
:10489000D5FCD8F800100C30814203D0009441F2CE
:1048A0000C530CE02846FBF7C9FC2B6F0C2202A925
:1048B0001844FBF7CDFC50B1009441F21553324639
:1048C00000F0CAFA3222FFF7C0FB38462DE00C2078
:1048D00002A9C8F84C0005F1FC0291E8190082E831
:1048E0001900EB6B2968D3F8780860B191F8CC20F7
:1048F000D0075CBF0A236B6091F8CC00C20705D5D6
:104900000F236B6002E06868401C686000F030F8BC
:1049100010B12846FCF71EFF10A041F2335300905F
:104920003246022100F099FA002006B0BDE8F0817D
:104930003D3E2070617273652066696E69736865BB
:10494000640000006261642066696E697368656472
:10495000206D657373616765000000003C3D207049
:10496000617273652066696E697368656400000032
:10497000D1F8CC00C0F3400070477C2107F082BE24
:10498000F8B50446E06C08B100F05FFEA06B08B11A
:1049900000F0B1FEE06B08B100F06EFEE06C18B9FB
:1049A000D02100F0A9F9E064A06B18B97C2100F0D7
:1049B000A3F9A063E06B20B94FF4096100F09CF902
:1049C000E063E16B00291CBFE06C002801D0A06B04
:1049D000C8B9DFF8902341F29A5302F51160012122
:1049E000009000F027FDE06B06F01BF8E06C06F08D
:1049F00018F8A06B06F015F80020E063E064A063EF
:104A0000DFF8B806F2BDFFF7B8FFE56CD021284605
:104A100007F038FE05F1500001F0B6FA05F19000FC
:104A200001F0B2FA05F1380001F01FF905F1440078
:104A300001F01BF9E56B4FF40961284607F022FEEF
:104A400005F50276304602F095F905F518773846F7
:104A500002F096FE304605F52F7602F09CF93846B6
:104A600002F09FFE304603F087FE0021304603F03F
:104A700094FE05F54A76304604F0D8FB0121304615
:104A800004F0E5FBDFF838060021C5F800042846ED
:104A900000F08DFF281D05F04AFC05F1800005F0AF
:104AA000BFFE0320C5F8C4012168FFF761FF78B19C
:104AB000E16B626C01F5F6700261236893F8CC102B
:104AC000CA0759BF0023037002210170FCF764FE7E
:104AD0000020F2BD01E0000000BFDFF8E8057047EC
:104AE0008089FFFF4FF4847107F0CCBD7CB504468C
:104AF0000D4644F24D16256000F00BF9E06528B133
:104B000000F007F904F1AC01086088B91FA0019614
:104B1000009041F2F353DFF84C22012100F08AFCAF
:104B2000E06D05F07EFF0020E065DFF8900576BDC2
:104B3000D5F8CC00C0F34000002808680CD088608D
:104B4000C21C00F02FF84A60CB600D614861E06D37
:104B50006066C11C21660DE0486000F1080200F0AB
:104B600021F88A60CB600D614861E06D206600F13C
:104B70000801616600F10B0200F10D030D30A26621
:104B800020672046E366BDE87640F9E6616C6C6F0D
:104B90006328256420627974657329206661696CD5
:104BA0006564000000F10B0300F10D050D30704746
:104BB0002DE9F04105460C46002200216A6005F10E
:104BC000D006FBF764FB00230022AB600020EA6004
:104BD00005F1F001F06181E80D0005F1FC00002114
:104BE00080E80E00B161E86D6A67AA6700F10D0107
:104BF000EB6729670CB9C5F8802005F184072846C2
:104C00007A603A80FDF78BFC00220020FA613A625C
:104C1000BA6A7862386402F10D017864F9630021A0
:104C2000B964305600B13170296444F24D1869649A
:104C3000B86A414605F028FB1CB9E86D414605F00D
:104C400023FBA86C30B100F000FDA86C05F0E9FE74
:104C50000020A864686B30B100F04DFD686B05F072
:104C6000E0FE002068630021F1602CB9306905F096
:104C7000D8FE0020306170612846BDE8F0417FE633
:104C8000002195E7D0F8CC2061F3000203E0D0F8D2
:104C9000CC2061F34102C0F8CC2070478161C26131
:104CA000704701614261704710B5029C8162C26128
:104CB0000362446210BD8162026243627047000079
:104CC0000082FFFF70B504460D4616460C2100F029
:104CD00013F800B913E00560002146608160226886
:104CE00012B9206004E00A4691680029FBD1906067
:104CF000002070BD4FF49A71012008F013BFDFF857
:104D0000BC0370BD8094FFFF6830DBE7C1660267BB
:104D100070473146012008F005BFF8B51646054634
:104D20000A46102105F17C0005F1880709F0CAF850
:104D3000040006D132461021384609F0C3F80400B9
:104D400000D001E00020F2BD05F17C0008F01CFF5E
:104D5000384608F019FF2046F2BD3246214601F0E0
:104D6000DDB80000DC36030800281FBF406B0028B8
:104D7000006801F0BFBF0020704700002846FBF725
:104D800053BA0146DFF85C2A0868096BD0F8CC30CA
:104D9000C3F3C21052F8200031B191F8701052F8EC
:104DA0002110814238BF08467047DFF8E40710BD84
:104DB00010B50400C3481CBF2168002900D1F4E7E6
:104DC00091F8CC10CA075CBF20460AF03FFC21686E
:104DD00091F8CC20D30704D52046BDE810400DF053
:104DE00089B910BD000000007CB505460024002DE7
:104DF0001CBF2868002800D119E100BF0DA02F4E6C
:104E0000009041F69D133246022100F026F86868B2
:104E1000102804D02846FFF7CBFF0400F7D000BFCE
:104E200008A041F6A71300903246022100F015F8C1
:104E3000204676BD3D3E2068616E647368616B6597
:104E4000000000003C3D2068616E647368616B6522
:104E500000000000009152460121284601F040BCAC
:104E60007CB5164E16A40546009441F6B51332469D
:104E70000221042401F034FC05F1C00016218460F5
:104E800000224160006802702846FCF7B7FC04006D
:104E900007D000BF10A10194009141F6BD13FFF7A8
:104EA000DEB800BF13A041F6C113009032460221C4
:104EB000284601F015FC002076BD0000DC36030812
:104EC0003D3E2077726974652068656C6C6F207256
:104ED00065717565737400006D626564746C735FF1
:104EE00073736C5F77726974655F7265636F726408
:104EF000000000003C3D2077726974652068656C95
:104F00006C6F207265717565737400002DE97C40CB
:104F1000DFF8106C1CA40546009441F6D413FFF78B
:104F200092F92846FFF72CFD50BB00F03DF870B118
:104F3000A86803280BD12A68E96B92F8CC3001F5F8
:104F4000EA70D90747BF01220260012343600020B5
:104F5000012168602846A960FFF746FF040007D0DA
:104F60000FF24C600194009041F6EB13FFF777B815
:104F700009A141F6EF13FDF7D7FBFFF76EFF002005
:104F800076BD0000D84E00083D3E2072656E656714
:104F90006F746961746500003C3D2072656E6567E1
:104FA0006F746961746500002868D0F8CC10C1F393
:104FB000400070477CB505001CBF2868002819D048
:104FC00090F8CC00C1070DD56A68102A12D1D5F827
:104FD000CC000321A9600028284600D031E3BDE8B9
:104FE00076403DE7A868DFF83C6B01280FD0696880
:104FF000102900D01BE02846FFF788FF040014D0DA
:105000000FF2D0300194009041F61C230AE02846AC
:10501000FFF7EAFE040008D00FF2945001940090CC
:1050200041F624233246FEF718FF204676BDDFF80E
:10503000600576BD8C5300082DE9FC410446FBF762
:105040001EF905466068102821D1A16803291FBFF9
:105050002068D0F8CC10C1F38030002817D0206829
:10506000C5F10808236E4246284400F1B8063146CF
:10507000581905F0D9FC0746D4F8B000424631462D
:10508000284405F0D1FC002FD8BF002801DC002007
:105090000DE0DFF8902A41F6472302F63410012193
:1050A000009000F0C7F92046BDE8F64182E7BDE870
:1050B000F68100000089FFFF8081FFFF0081FFFF74
:1050C000C9400008808FFFFF2DE9FE4F040089468C
:1050D00092461ABF20680028DFF8B4046DD00FF2A2
:1050E000A420DFF8408A009041F6572300F0A0F991
:1050F00000F090F978B12046FCF786F900285CD1E1
:10510000E06B40B190F8EC01012804D12046FCF797
:105110007FFA002851D12046FFF78EFF054615F58E
:10512000D64F18BF002D06D00FF2684001950090B1
:1051300041F6792302E1606810280FD02046FFF77E
:1051400053FE054615F5D64F18BF002D06D00FF2B9
:1051500060400195009041F68423EFE0606F04F118
:10516000A006002840F0EE80A16D49B1206D88476F
:1051700010F1010F04D12068D0F8A810FCF70DFB46
:1051800020460FF20827FDF743FA0500DFF898B92B
:1051900005D05D4510D0019541F6BA2311E0E06FCE
:1051A000002804BFA16F17290DD12046FDF730FA62
:1051B000050008D05D4501D10020E0E0019541F6F1
:1051C000C9230097BAE0A06FDFF86059DFF8607973
:1051D000162870D10FF2CC1041F6D12300F020F93F
:1051E00000F028F9216891F8CC00C2070CD4216F97
:1051F000087820B900F018F93168814204D008F528
:10520000166041F6DE230CE02068D0F8CC00C10720
:105210000FD5226F1378012B0BD008F6881041F6BA
:10522000ED2300F0FDF800F005F9FDF771F96AD003
:105230005DE0C0F3803048B1B06C2168002802BF47
:10524000D1F8CC00C0F3011000281CD108F51B6177
:1052500041F6033300914246FFF76AF9606900287E
:1052600006DD6422012100F0E4F900283FD086E049
:105270000FF24C1041F61F3300F0D2F800F0DAF8CC
:10528000DFF85C067BE091F8CC0000F00300022818
:10529000204604BF0321A160FFF738FE054615F53F
:1052A000D64F18BF002D22D00FF228100195009084
:1052B00041F6353342E0A168032910D12168D1F8C5
:1052C000B420002A0BD4E268521CE260D1F8B4107A
:1052D000914204DA08F6D81041F643330FE015285E
:1052E00007D108F60C2041F64D3300F0A0F83846FF
:1052F00045E0172808D00FF2F40041F6533300F0D0
:105300008FF800F097F81BE06168206F6067102944
:1053100001D1FCF741FA206890F8CC10CA0711D5EA
:10532000A06803280ED12046FBF768FE050009D0CF
:105330000FF628000195009041F6683300F07CF9E3
:1053400028461CE0E16F48468A4588BF8A46616F5F
:10535000524600F0E3FDE06FB0EB0A00E06703D1D6
:1053600060670021B16002E0606F5044606700BF79
:1053700026A141F68233009100F05AF85046BDE86C
:10538000FE8F00003D3E2072656164006D626564C1
:10539000746C735F73736C5F726561645F72656375
:1053A0006F72640072656365697665642068616E1A
:1053B000647368616B65206D657373616765000078
:1053C00073686F756C64206E6576657220686170B5
:1053D00070656E0073736C5F73746172745F726575
:1053E0006E65676F74696174696F6E0062616420D5
:1053F0006170706C69636174696F6E20646174615F
:10540000206D657373616765000000003C3D20728C
:10541000656164002068D0F8CC10C1F3400070478B
:1054200000904246012170472046FAF707BF0090DE
:1054300042460221204601F053B9FEB505460C460E
:105440001646DFF8E076FFF79CFC0146B14211D228
:105450002868D0F8CC20C2F3400050B107F63420C1
:105460000291009041F6993301963A46FFF7F4FC19
:1054700024E00E4605F1C003D86858B12846FBF772
:10548000C3FF040018D00FF2F0600194009041F6C1
:10549000A6330EE017209E6058601868FFF75DFC89
:1054A0002846FCF7ABF9040006D0FEF71FFD41F6D5
:1054B000B2333A46FDF72BB93046FEBD3448FEBD47
:1054C0002DE9FC410E460FF2CC651746DFF85486F5
:1054D0000446009541F6E7334246FEF7B5FE002C40
:1054E0001ABF2268002A2A484FD02046FFF7A4FDA1
:1054F000050005D027A00195009041F6EF330CE0A0
:10550000606810280CD02046FFF76EFC050007D01D
:1055100027A00195009041F6F83300F08DF833E0B4
:105520002068D0F8CC10C1F3403018B3022F21D33B
:10553000606901281EDC616C01F15000FAF75CFE25
:10554000022817D194F9D00040B9012200F03CF8AC
:105550000546002D12DD012084F8D0007A1E711C52
:1055600000F033F80546002D08DD00206D1C84F89E
:10557000D00003E03A4600F027F805460FF220601D
:1055800041F60343FFF753FF2846BDE8F6810000CC
:10559000008FFFFF73736C5F636865636B5F637499
:1055A000725F72656E65676F746961746500000093
:1055B0006D626564746C735F73736C5F68616E6455
:1055C0007368616B650000003146204635E77CB5A5
:1055D00004001CBF2068002800D128E50FF2CC5041
:1055E000DFF84065009041F612433246FFF721FF95
:1055F000D4F8CC0008B1204623E06068102810D110
:105600000022012100F015F805000AD00FF2B45075
:105610000195009041F61D43324600F00EF82846F1
:1056200076BD0FF2C05141F62243FFF7E3F840E4A4
:1056300002212046FDF7E2BF42460121204601F04B
:105640007EB8BDE87640FBF7DFBE10B5040012D08F
:1056500004F1500000F09BFC04F1900000F097FC76
:1056600004F1380000F007FB04F1440000F003FBF4
:105670002046D02150E010BD70B504003AD004F5AA
:10568000027004F5DA7501F078FB04F5187002F089
:105690007AF804F52F7003F072F804F54A7003F0FD
:1056A000C8FD201D05F04FF804F1800005F0BCF89E
:1056B000286805F0B6F9686828B1A968FAF7D6FD38
:1056C000686805F0AEF9686920B1866805F0A9F947
:1056D0003000FAD1A86A05F0A4F9286B05F0A1F909
:1056E000E86BFBF732FF20464FF40961BDE87040DC
:1056F000FAF7BCBD70BD10B504000CD0E06D20B150
:1057000006F0EFFDE06D05F08CF9606E05F089F9AB
:1057100020467C2100E010BDBDE81040FAF7A6BD90
:10572000F8B504005CD0DFF8FC530FF2D0460096C9
:1057300041F6B0432A46FEF787FD04F1AC0644F279
:105740004D17306828B13946FAF790FD306805F0FA
:1057500068F9E06D28B13946FAF788FDE06D05F08B
:1057600060F9A06C20B1FFF770FFA06C05F059F94B
:10577000E06B80B1FFF780FFE06CFFF766FFA06B86
:10578000FFF7B9FFE06B05F04CF9E06C05F049F963
:10579000A06B05F046F9606B20B1FFF7ACFF606BC2
:1057A00005F03FF9F76A4FB1384600F0ADFB01460E
:1057B0003846FAF75BFDF06A05F033F9706B05F0D7
:1057C00030F90FF2404041F6F14300902A46FFF7CE
:1057D00030FE20464FF48471BDE8F440FAF746BD30
:1057E000F1BD00003C000020D02106F04BBF2DE9A8
:1057F000F04105460C4617469846FFF743FA3946EE
:105800002846FFF744FA05F1AC063CB9306A20F0AF
:105810000C0040F4803040F008003062306ADFF85D
:105820001413DFF8142340F43150306240F4822026
:1058300069644EF66021AA64102230624FF47A70D7
:10584000306005F1B80071600221B26006F01AFF05
:10585000FF22062105F1BA0005F0F6F8012C06D169
:10586000B649284601F50172FFF757FAA8BBB8F10F
:10587000020FB34C17D1032004F11801B07704F1E3
:105880001802F077AF4B3077707704F11800E960B9
:10589000AA6004F12402686004F1300029606B669C
:1058A0006A67A86718E003210122012FB177F27718
:1058B0003177717704BF0220F07701F0EDF9E860ED
:1058C000A86068602860A04868666C670FF0FEF802
:1058D000A8674FF48060B0610020BDE8F08100004F
:1058E0000094FFFF38B5044604F17C0008F04CF941
:1058F00004F1880004F1680508F046F9E86A78B117
:10590000296BFAF7B3FCA96B686BFAF7AFFCE86A8E
:1059100005F087F8686B05F084F800202863A86319
:105920002868002803E0856805F07BF82800FAD194
:105930002046D021BDE83440FAF798BC10B50446A3
:10594000012106F07EFD08B1012010BD0421204692
:1059500006F077FD00B1032010BD012806D0022813
:1059600018BF042801D10320704700207047012888
:1059700004D0032801D1042070470020704701297A
:1059800002D0042902D003E00078704740787047C5
:1059900000207047012902D0042904D07047037801
:1059A00023B902707047417801B9427070470170A5
:1059B00041707047401E052810D8DFE800F003054D
:1059C00007090B0D0320704704207047052070471E
:1059D0000620704707207047082070470020704756
:1059E000C01E052810D8DFE800F0030507090B0DDD
:1059F0000120704702207047032070470420704741
:105A00000520704706207047002070470268926F9B
:105A10003AB1107828B112F8013B8B42F9D100203D
:105A200070474FF0FF3070470268526F3AB110680C
:105A300028B152F8043B8B42F9D100207047F0E7BF
:105A40002DE9F0410446174600260020012F1D468F
:105A50000ED1897A491E09D0491E022908D9491F49
:105A600004D0891E012998BF082002E0202000E010
:105A70008020014620464FF0FF3805F0CFFF20B1CF
:105A80002A68464642F400622A60012F20460CBF75
:105A90000FF278110FF28011082205F0D9FF20B122
:105AA0002868464640F4805028603046BDE8F081C2
:105AB000012A07D10229C0F10100187008BF012195
:105AC000494200E0187059707047012A10B51C78DF
:105AD0000AD140F20112141B04605878C0F580709E
