:020000040800F2
:100000007804012099910308B98B0308BB8B03087E
:10001000BD8B0308BF8B0308C18B030800000000E1
:100020000000000000000000000000009D440208E5
:10003000C38B03080000000041440208C58B03087D
:10004000699703086D97030871970308759703086C
:10005000799703087D97030881970308859703081C
:10006000899703088D9703089197030895970308CC
:10007000999703089D970308A1970308A59703087C
:10008000A9970308AD970308B1970308B59703082C
:10009000B9970308BD970308C1970308C5970308DC
:1000A000C9970308CD970308D1970308D59703088C
:1000B000D9970308DD970308E1970308E59703083C
:1000C000E9970308ED970308F1970308F5970308EC
:1000D000F9970308FD97030801980308059803089A
:1000E000099803080D980308119803081598030848
:1000F000199803081D9803082198030825980308F8
:10010000299803082D9803083198030835980308A7
:10011000399803083D9803084F5502084198030891
:1001200045980308499803084D9803085198030817
:1001300055980308C98B0308599803085D9803086C
:100140006198030865980308699803086D98030887
:100150007198030875980308799803087D98030837
:100160008198030885980308899803088D980308E7
:1001700091980308959803089998030800000000D7
:100180009D980308A1980308A5980308A998030857
:10019000AD980308B1980308B5980308B998030807
:1001A000BD980308C1980308C5980308C9980308B7
:1001B000CD980308D1980308D5980308D998030867
:1001C000DD980308E198030800000000E5980308A3
:1001D000E9980308ED980308F1980308F5980308D7
:1001E000F9980308FD980308019903080599030885
:1001F000099903080D99030800281CBF006800280E
:1002000001D10020704740787047C16B00291CBFA6
:10021000D1F8C011002901D0086870470068816ECC
:100220000029F9D1002070470068D0F8CC10C1F344
:10023000400008B10D207047052070470068D0F8D5
:10024000CC10C1F3400008B10C2070470420704767
:1002500078B500238DF8003008E0C45CCD5C9DF8D3
:1002600000605B1C6C4034438DF800409342F4D333
:100270009DF8000072BD0068D0F8CC10C1F34000BA
:1002800000B102207047436D1BB1006D0A4689081A
:100290001847704780B5816D31B1006D88470228DD
:1002A00002D14FF0FF3002BD002002BD10B5D0F8E2
:1002B000D04002F0B6FF44F24D1108B1884200D997
:1002C0000846A04202D2DFF8000A10BD001B10BD94
:1002D00038B50446FFF7EAFF00280FD4054620464C
:1002E00002F075FF002809D4A84201D3002032BDD6
:1002F000281AB0F5804F28BF4FF4804032BD2DE959
:10030000F047A8B007460E4614469846DDF8C09060
:10031000684603F06CFD204603F0AAFE4844143002
:10032000802888BFDFF8A40960D8751C6D08B8194B
:1003300069424618204603F09BFE824652462146FB
:100340000DA803F09FFE0DA84A464146504403F015
:1003500099FE0320D14403F031FD002844D003F07E
:10036000FEFC002842D12A46394668464FF0000A72
:1003700003F0A3FD4A460DA968460DF10C0803F0F1
:10038000F5FD09A900F007F9319C329F09E018F842
:10039000003000EB0A0C401C04F80C308842F6D305
:1003A0009246BA45684619D203F01DFE09F11002C3
:1003B00000F0ECF800F0EEF8684603F014FE1022AE
:1003C00000F0E4F809A900F0E6F80AF110029742FB
:1003D00034BF07F00F0110210020DFE703F00DFD0F
:1003E000042003F0EBFC10B9DFF8DC084AE003F06E
:1003F000B6FC002846D12A4631466846002503F05F
:100400005CFD4A460DA900F0C2F808A900F0C3F847
:100410000AE0431918F800C0E65C401C8CEA0606A6
:10042000E6548842F5D31546BD42684620D203F013
:10043000DAFD09F1140208A900F0A9F800F0AAF801
:10044000684603F0D0FD142208A900F0A0F808A91E
:1004500000F0A1F805F11402974206D214211420ED
:10046000B7FBF1F100FB117100E014210020D8E787
:1004700003F0C3FC802108A803F010FE142102F051
:10048000ACFA002028B0BDE8F0872DE9F04FB3B0FA
:100490000446884691469A46684603F0A8FC2046E2
:1004A00003F08CFC040008BFDFF81C086BD03D9DF6
:1004B00003F0CDFD0646504603F0DAFD80192818FA
:1004C000802888BFDFF804085DD8504603F0D0FDCF
:1004D000834613A887195A465146384603F0D2FD81
:1004E0003C992A4607EB0B005D4403F0CBFD01224B
:1004F000214603F036FC002845D14A46414668466D
:1005000003F0DBFC2A4639466846002703F02EFD3F
:1005100013A900F040F8DDF8F8803F9C09E013F8DB
:1005200000C000EB070E401C08F80EC08842F6D34E
:100530001746A74268461CD203F055FDAA1913A915
:1005400000F025F800F026F8684603F04CFD32462E
:1005500013A900F01CF813A900F01DF8F219944239
:1005600003AB3ABFB4FBF6F106FB11413146002064
:10057000DCE703F042FC802113A803F08FFD40214B
:1005800002F02BFA002033B0BDE8F08F09A96846CD
:1005900003F0ECBC03A9684603F0F8BC7FB500F09B
:1005A0000BF8062003E07FB500F006F8072001965F
:1005B000FFF76BFF04B070BD009313460A460A9C18
:1005C000099D089E01460394029570472DE9F04F5E
:1005D000DFB00646F56CD6F838A0D6F83C9029680E
:1005E000087A03F07CFD040006D02968487A03F0FD
:1005F000E5FB5FEA000802D1DFF8D00688E1706908
:1006000009F24C47032809DADFF8F40A0FF2413106
:10061000B860DFF8F02A39607A6016E040F04B816C
:100620002868417A072907D1DFF8DC2A0FF29D30CC
:10063000BA60DFF8D81A06E0DFF8D42A0FF261308A
:10064000BA60DFF8D01A38607960D9F8C00809F2CA
:100650005C4B00283FD1F26BD2F8D408012822D19C
:10066000D2F84C2403A9304690477069032807D17B
:10067000F16C0A68507A072814BF2020302000E06F
:1006800024203021009002910AF130020192F96891
:10069000D7F808C003AB0FF2802209F29C40E04774
:1006A0000028ABD111E030200AF130020290402343
:1006B00001920FF27C220093F968D7F808C05B46DC
:1006C00009F29C40E047002898D140F2244109F209
:1006D0009C4003F0E3FC402259464FA803F0D2FCB3
:1006E000202257A9584603F0CDFC20224FA909F239
:1006F0007C4003F0C7FC40214FA803F0CFFC4FF42F
:1007000080710FAA4023029101920FF234220093CC
:10071000D7F808C05B4630210AF13000E0470028D6
:1007200031D14021584603F0B9FC6068C0086860C8
:10073000607806281CBF08280A2815D100200C2143
:1007400068618046E96060780A280EBF296104204C
:10075000286129680A7F296990074CBF082010206A
:10076000C1F10C01401822E00122414605F1380098
:1007700003F05EFB002806D10122414605F144004A
:1007800003F056FB002840F0C380404603F05FFCB6
:100790008046C5F81480DAF87400012804BF0A21E5
:1007A0006961E168E96062786869072A01D1A86037
:1007B00018E0DAF878306269012B02D11018A860CD
:1007C00004E0B0FBF2F002FB0022AA60706900288E
:1007D00018BF012806D0022818BF03286BD1A868CB
:1007E0000918A9600FA901EB08076B6801EB480223
:1007F0003168286991F8CC1002EB030EC90719D4AF
:1008000000280392CDF808E00EEB03010DF13C093E
:1008100014BF8346D5F80CB05A4605F1180003F012
:1008200031FC029B68685A46184400EB0B0105F145
:10083000280018E00028CDF80CE00292B9460FAF6E
:1008400014BF8346D5F80CB003985A46C11805F179
:10085000280003F017FC039968685A46084400EB27
:100860000B0105F1180003F00DFC7169002922DD70
:10087000B8F1000F0BD04246494605F1380003F0AD
:100880001CFB4246394605F1440003F016FB306874
:10089000C66D4EB1CDF804B069680091006E434654
:1008A0000FAA0AF13001B047214605F1500003F0CC
:1008B0004AFC18B12CE0DFF8600829E005F1900649
:1008C0002146304603F03FFC10BB626803990123C8
:1008D00005F1500003F050FCD0B962680299002382
:1008E000304603F049FC98B9607802280AD1042107
:1008F00005F1500003F0D6FE50B90421304603F054
:10090000D1FE28B94FF480710FA803F0C7FB002077
:100910005FB0BDE8F08F0000657874656E64656453
:10092000206D617374657220736563726574000075
:100930006D61737465722073656372657400000085
:100940006B657920657870616E73696F6E00000069
:1009500030B5ADB004460D4617A803F08DFF6846CC
:1009600004F0ACFCE06B00F5147117A803F08DFFE8
:10097000E06B00F52A71684604F0A9FC294617A827
:1009800004F084FB05F11001684605F009FC17A886
:1009900003F075FF684604F094FC2DB030BD0000F4
:1009A00030B59BB004460D46684605F099FCE16BF6
:1009B000684601F5417105F09CFC2946684606F041
:1009C0001BF9684605F08FFC1BB030BD38B5B6B0DA
:1009D00004460D46684606F0F3F9E16B684601F5FA
:1009E0005C7106F0F6F92946684607F0A2F86846F9
:1009F00006F0E9F937B030BD2DE9FE438046D8F85E
:100A00000030D8F83CC003F19400D0F8009047685B
:100A10000CF5DC720CF29C45106805F2244608B116
:100A200081465768701B3C0A052905F1020EA6EBAA
:100A30000E021BD1022817DB2C706F70AD1C76459F
:100A400028BFBA4210D33946284607F0F3F9E8190F
:100A5000311A022908DB0470851C4770284686423B
:100A600024BF361ABE4233D298483EE0072908D147
:100A70000228F9DB00203021287005F1320069706E
:100A8000E6E7062913D1D86901909969009102AB74
:100A9000A91C0CF1040007F051FB30BB0298AA1C02
:100AA000000A28700299697002981044D0E708295A
:100AB0000BD1D9690191986900901346AA1C02A92B
:100AC0000CF1800007F088FDE7E7DFF82C0B0CE065
:100AD0003A46494603F0D6FAD8F83C10EA1901F232
:100AE0009C40121AC1F858240020BDE8FE83002261
:100AF00081B0002903E010F8013B5A40491EFAD1A9
:100B00008DF800209DF8000001B070470168AC31FD
:100B10008A68002A12D54B6809684FF00102B3FBBE
:100B2000F1F1491C01E0521C4908FCD1C168D2B264
:100B3000491C8A42C16001DA0020704702F0DBBB29
:100B40002DE9F04107460E46396A002904BF786A4C
:100B5000002814D0796E44F24D15F86D691A4118C9
:100B6000B1420CD33968DFF8988A00F0D7FA00F068
:100B70008680796D00291CBFB86D002801D15348CB
:100B800073E0D7F8880078B1D7F88020824270D31C
:100B9000121AC7F8802004D07B6E1918184607F087
:100BA0004FFD0020C7F88800D7F88000B0425BD224
:100BB000002840F086803846FFF76CFB08B14446B9
:100BC00019E0796EF86D7A687C6A6D1A4519102AF9
:100BD00019BFF86BD0F8E4313A68D2F8A830002C8D
:100BE000B86A2A4601D0A04701E03B6A9847040052
:100BF00064D0444534D100213846FFF744FB3868BF
:100C00007968DFF8005AAC3010291CD0F96B4368C2
:100C1000D1F8E4219A4228BF404626D20468A24275
:100C20001CBF4FF4FE72A1F84C22D1F8E4314068A9
:100C30005A009A422CBF90420246C1F8E42138463D
:100C400000F0A2F809E090F82000C1072ED5BA689C
:100C5000032A2BD13846FFF759FF30B9284604E064
:100C6000002C23D4C7F880400020BDE8F0811DD4BB
:100C7000A54226D3D7F880002418C7F88040D7F8BB
:100C80008050B542F0D23846751BFFF703FB60B9C0
:100C9000786ED7F880107C6A0144B86A44B13A682B
:100CA000D2F8A8302A46A04705E044462046DCE7B3
:100CB0003B6A2A4698470446002CD8D1DFF84809F9
:100CC000D3E70148D1E700000094FFFF008FFFFF4A
:100CD00038B50446E06908B902F012BA04F1B0056B
:100CE000286A28B932BD296A81420DD3091A2962BE
:100CF000286A58B1A96802464042E3690144A06AE3
:100D000098470028EFDC32BD02F088BA01F0C4FD3C
:100D100010B12868A86003E0296801F10802AA6000
:100D2000616C204602F0BAF8002032BD38B50400EC
:100D300007E02068E56807F092FC204607F08FFC8A
:100D40002C00F6D131BD3EB5C16B436CD1F8FC210E
:100D5000934218D0426400F1D402C1F8FC3101F58D
:100D60000071D2E90045CDE90045D1E90034C2E97E
:100D70000034C36B03F50071DDE90034C1E90034D0
:100D8000416C02F08BF837BD00BF2DE9F84F0746E4
:100D9000F86B00F5F470017801290DD041684268C4
:100DA00082600B6803F10C04C4603846FFF7CBFF88
:100DB000FA6B012182F8E811F86B00F5F87006680B
:100DC000002E00F09C80317A07F1AC0516292978B5
:100DD00002BF32681378142B0CBF012400240129B0
:100DE0000CBF4FF001084FF0000844B13168406873
:100DF00001F10C02904204BF3846FFF7A4FF3846C9
:100E0000FFF766FA030079D4307A142811D123B39E
:100E100072683168A86903F035F970682862317A20
:100E2000E961F86B7168D0F8F4211144C0F8F4114D
:100E300048E0F86B3168D0F8F4A1706801F10C0259
:100E40000C380C2BAAEB020BA0EB0B0201D308D140
:100E500038B114B13846FFF776FF3846FFF738FF50
:100E600049E0A3F10C099145A86988BF9146062283
:100E700003F008F9A9694FEA1B404FEA1B22887169
:100E8000A869C271A9694FEA194281F808B0A86936
:100E90004FEA19214272AA699172A8694A465146DD
:100EA00080F80B90AB6903F10C0003F0EBF809F14B
:100EB0000C002862317AE961F86BD0F8F4214A44D9
:100EC000C0F8F421F86B336800F5F87170684A686F
:100ED000184482420BD3F06830B10860F0680268B1
:100EE00002F10C034B6002E0002448600C604146B4
:100EF000384600F01FF900283FF45EAF16E0384690
:100F0000FFF7E6FE90B97868102804D1FA6B032148
:100F100082F8E81109E0F96B022081F8E801FA6B28
:100F20003846D2F8E411FFF7AEF90020BDE8F28FA1
:100F300038B50446E16BD1F8EC01FFF7F7FEE06B42
:100F4000002200F5EC710D684A618A610D6280F83B
:100F50000C22204602F0DDFB00F011F8A06F1628ED
:100F600002BF216F0A78142A04D1E16B032081F8B3
:100F7000E80131BDE06B002280F8E82131BD00219D
:100F80002046FFF780B910B504462068E26BD0F820
:100F9000AC102046C2F8E411E36BD3F8E411FFF77C
:100FA00072F9A26F162A02BF206F0178142904D1AA
:100FB000E06B032280F8E82110BDE26B022182F889
:100FC000E81110BDF8B5054605F1C4063068B268F1
:100FD00004787068121F162802D0142812D102E07B
:100FE0000CB1E86B70B1296800F098F81CBFE86B91
:100FF000002803D090F8E801012803D0B168B1F5CA
:10100000804F02D9DFF8F005F2BD7068162840D194
:101010003368110C100A59703768B8703168CA709B
:1010200000F082F868B3B068C0F58040082801D2AB
:1010300002F0BEB83068011D0C3007F001FBB0684B
:101040000830B060306884B1E96BD1F8D421120A5D
:101050000271E86B3268D0F8D4115171E86BD0F8A6
:10106000D411491CC0F8D41103E000220271316888
:101070004A7130680321801D06F0DCFE306801F003
:1010800041F934B1EB6BB26831682846D3F8487443
:10109000B84700F049F858B37068162808BF002C0C
:1010A00026D0102102F04BF8040007D0B16802F0FE
:1010B00046F8206020B9204607F0D1FA01F0E5BEDD
:1010C000B268316802F0DEFFB068002260607168CB
:1010D0002172E260E86BD0F8EC1121B9C0F8EC4164
:1010E0000020F2BD0146C8680028FBD1CC60F7E7BC
:1010F0000121284600F01EF80028F1D0F2BD0000C2
:10110000FF02000873290008A7050008532A0008F9
:101110009D050008E12900080094FFFFD1F8CC00EC
:10112000C0F34000002870472868D0F8CC10C1F305
:10113000400070472DE9F84F044698B004F1B4061A
:10114000DFF8B484B5698DF81C1071687069087097
:10115000726820686169531CD0F8CC202069C2F302
:10116000400202F017FD326804F1D40100F0ADF93D
:10117000B368280A1870B1684D70616C002900F0DE
:101180005281206B0025002849D001F15000FFF763
:1011900033F80746072F05D0022F41D1216B886F06
:1011A000002845D16169002939DD606C3168082269
:1011B000012500F087F9606C7168032200F082F964
:1011C000606CB168022200F07DF9606CB26931692F
:1011D00000F078F9606C08A9383002F0D7FE00F012
:1011E00079F9606C336908A900F079F9626CB1692A
:1011F00050694118072FB16112D100210391336961
:10120000606C03A902910193B269009200F054F955
:1012100000284BD1B0690399884200F0FE800FE1AD
:10122000062F1CBF082F0A2F00F08080022FF6D156
:1012300000200390616CB069C968401C0A1AB0FBB9
:10124000F1F701FB07278F4208BF00270020B26992
:1012500031698218401C87428F54F8D2B0697F1CD4
:101260003F18B76160693369012817DD606C236836
:10127000C26800F11801D8699B699847002815D108
:10128000606CC26800F11801F06802F0FBFE626C4D
:10129000B1693369D0680F464118B161606C03A928
:1012A00002910193009700F007F9002840F0F780C1
:1012B00003988742B3D16169012906DC606CC2687A
:1012C00000F17801183002F0DDFE002D40F0A3801F
:1012D000306808A902680A6042684A60716803229F
:1012E0000AA802F0CFFEB16908A8090AC172B26962
:1012F0000273606C0D2208A9383002F037FE606C72
:10130000B269F16800F0DEF8606C0CA9383002F0C8
:101310003DFE00F0DFF8606CF3680CA900F0DFF828
:10132000626CB16950694118B16176E0D4F844A0AB
:101330000DF130090DF13903DAF80010087FDAF801
:1013400010108207DAF80C000CAAA0EB010B316830
:101350004CBF0827102700F0B8F8706989F808001A
:1013600000F0BAFFB069000A89F80B00B16989F88A
:101370000C10DAF80C000C2862D1DAF810000428FE
:101380000FD10AF1180009A902680AA80A60326898
:1013900011680160516841603168F26800F095F8A9
:1013A00016E00C284CD10AF1180009A990E80C109D
:1013B00081E80C10002009AAD6F800C011180B799A
:1013C0001CF800E0401C08288EEA03030B71F3DBD5
:1013D000D6F81890306908AA0CABCB44C6F818B000
:1013E00000EB09010697039001900D20059109A9D2
:1013F0000492CDF808900090DAF80C200AF1500021
:1014000003F096F900284AD10898484518D1B169E7
:101410006D1C7F18B761012D12D1B569B168280A1A
:101420000870B268557000F075FF451901F034FA84
:1014300040B12046FEF73AFF002830D4A84201D23E
:1014400040462CE0F06971682818F0612046294474
:1014500008257160616C01F021FD00E06D1E00F057
:1014600056FFA84208D2601990F8D310491C80F8A2
:10147000D310C9B20029F1D000F049FF854208BF5E
:1014800062480CD001F008FA60B19DF81C0048B920
:101490002046FEF71DFF002801D407D0002019B018
:1014A000BDE8F08F9DF81C000128F7D12046FFF71A
:1014B0000FFC0028F2D0F2E7C26800F118015030AA
:1014C00003F015B9383002F051BD08681060486863
:1014D00050607047616C01F1380002F084BD4269D0
:1014E000B069184402F0CEBD10B5C16FD0F8A0307D
:1014F00099420DD3046F032240A1A01D07F0B2F85A
:1015000030B90322611C04F1090007F0ABF800B107
:10151000012010BD016F887A4A7AC97A03E0016F11
:10152000C8798A79097A000240EA02400843704784
:10153000016F88784A78C978F5E7F8B50446FEF770
:101540007DFEE16F814235D32046FEF777FE0546EA
:101550002046FFF7EDFF4519C4F8A05000F0C5FE86
:1015600041D0206F45790179204645EA0125FFF7F2
:10157000DFFF06462046FFF7D2FF07462046FFF76B
:10158000C9FFBE4224BFF61B864222BFE16F0C306A
:1015900081420FD3E06B30B1616810290CD0D0F8D4
:1015A000D82195420CD12046FFF79EFF012820D17B
:1015B0001748F2BD1748F2BD216F0A78012AF2D010
:1015C00000F5EC700368AB42F2D3006A401E85421E
:1015D00007D1216F0A78032A03D02046FFF7D4FBF6
:1015E00040B90D48F2BDE06FA84202D2DFF8BC0C52
:1015F000F2BD0020F2BD00000094FFFF00000000DB
:101600000098FFFF0097FFFF808DFFFF8094FFFF92
:10161000809BFFFF008EFFFF809AFFFF38B50546D5
:10162000EB6B68681C46102818BF002C06D0D5F854
:10163000A020296FD3F848342846984701F093FA40
:101640001CBFE86B002816D0D4F8D8112846491CD6
:10165000C4F8D811002102F06CF804F504710320DD
:1016600001F10C02401E92E8380038C1F8D1002286
:10167000002381E80D0031BD90300022C0E9002236
:10168000C0E902227047F0B545780278C47845EA8F
:10169000022182781706027947EA0446407946EA31
:1016A00002273843F0BD10B50446216E881CFFF7B1
:1016B000EAFF2268D2F8CC30C3F34022B2B19034B2
:1016C000D4E900238B4202D828BF82420ED3121ADB
:1016D0008B41002B07D8402A05D2D4E9020106F03D
:1016E000D1FFC10702D54FF0FF3010BD002010BD63
:1016F00070B50646316E881CFFF7C5FF0D46316890
:101700000446D1F8CC00C0F3402068B39036D6E947
:101710000001A94217D828BFA04214D2221A65EBB3
:101720000103002B01D8402A02D30120002105E04B
:10173000D6E9020106F0B6FF40F00100C6E9020159
:10174000C6E9004570BD021B61EB0503002B0BD8F9
:10175000402A09D201200021D6E9024506F0A2FF65
:1017600020432943C6E9020170BD2DE9F34F044629
:1017700095B004F18409D9F8240058B10021C9F8C2
:101780002410002017B0BDE8F08F0020C9F8040035
:10179000C4F88000D9F81C00DFF85C8C00284AD01F
:1017A000616F11B1DFF8546C2AE2E26F904207D208
:1017B000236F121AE2671918184606F041FF01E07C
:1017C0000020E0670023C9F81C30E06F002830D10A
:1017D000206844F24D1AD0F8CC10C1F34000002824
:1017E0006BD0204600F099FD002839D1E06BB8B3EA
:1017F00000F5037160680A2818BF0C2821D0087909
:1018000000F0050005282BD1886882784378C078DD
:10181000120242EA034202430C32B2F5804F1FD853
:101820001623A367C9F81C20206FE267896802F0BD
:1018300029FC00F005BC606F0028C6D10021E167DB
:10184000C6E7087860B114220123A267226FE3671C
:1018500000271370C4F88070C9F804700F70E1E3BA
:101860002068E16B01F087FB18BF002925D001F546
:101870001070076845688668FFB1204600F04DFD8E
:1018800001281AD0B9F80000864216D1606EE16DC9
:10189000AAEB00028A18AA4238BFDFF8606BC0F0DA
:1018A000C9832A46394602F0EDFBC4F88050002077
:1018B000C9F80400204600F037FD00F02BFD01467A
:1018C0002046FFF73DF9060040F0B483606EDFF874
:1018D000347CDFF8345C0178431CA167A16E0A7880
:1018E000497841EA0221E1672068D0F8CC1006A8C7
:1018F000C1F3400205A902F05AF9A06F162818BFDB
:1019000015280CD0142818BF172808D000F0EDFCBB
:1019100004D10A220221204600F072FDFAE0069866
:1019200021698842FAD12268059B92F8C900984241
:10193000F4DB216FE06DE36FAAEB010A504498429B
:10194000ECD3D2F8CC00C0F34000002800F0C680F1
:10195000206EB9F800200178407840EA01209042DA
:1019600000F0AB80216891F8CC30DB0740F1A0801B
:101970006368102B02BF0028A36F162B09D1D4F87F
:1019800080300D2B40F29480D4F85CA09AF80D6062
:10199000012E40F08D80D9F82C60D9F86C2004928B
:1019A000D9F868000390CA6C0292D1F844B0D1F81B
:1019B00048C0BBF1000F18BFBCF1000F75D03D2B24
:1019C00070D39AF80010162904BF9AF80300002873
:1019D00068D19AF80410002904BF9AF8130000286F
:1019E00060D19AF81410002904BF9AF81500002855
:1019F00058D19AF83B00A3F13D01814221BF0AF181
:101A00003C02125C3C3B93424CD3049B50440093F9
:101A100000F13D01039B0298E04738B901212046BF
:101A200001F0E8FA060077D12E4603E31922514669
:101A3000304602F027FB0320FE217073FF227176EF
:101A400006F11C00B27604990190039B0298009164
:101A500006F5804201A9D84710B1DFF8A0695BE024
:101A6000019A921BA2F11C01A2F11900F176030C5C
:101A7000000AB375B17DA2F10D031B0AB173A2F187
:101A80000D01F075F07DF073A2F11900307630741D
:101A9000F3723173D9F82C10A06AE369DFF86C6A2D
:101AA000984739E0DFF8686A36E0DFF8686A33E0C3
:101AB000521C904210D146462EE02046FFF7F3FD1F
:101AC00050B9A06F172809D16068102806D0A16806
:101AD000012908BF022801D03E461DE0206C70B9E4
:101AE000E06FB8B1B0F5804F14D800F013FCE16F8F
:101AF00009182046FFF724F8060042D09AE28168D0
:101B0000E06F884206D36269002AEEDD01F582416A
:101B10008142EAD2DFF8006A00F0E7FB18BFAE426C
:101B2000ECD0464523D1E16FE06B0D31884608B318
:101B3000A26F162A02BF00F50277B86B002819D1F0
:101B40003A68C2F50042424514D3B9F80000C7F81C
:101B50003C80401C386401F0F2FAB86350B1616E09
:101B6000424602F08FFA38684044386002E0BE42D4
:101B70007FF40BAE00F0CEFBE16F4018C9F8040013
:101B800008E600F089FE30B100F0C4FBE16F4018B8
:101B9000C9F8040001E0C4F88000216C002900F0BD
:101BA0003B82E06A00270125DFF854AC00283BD0D7
:101BB00001F19000FEF720FB0246206CE16F836884
:101BC00099421ED2564600F090FB08D016F5E44F1D
:101BD00018BF564592D160680B2818BF0D2800F039
:101BE00022822168D1F8C00000283FF4CEADA06960
:101BF000401CA061D1F8C0108842FFF4C6AD564623
:101C000045E3072A13D10397236F03A90193029198
:101C1000E26F009200F052FB08B10646D3E7E06F96
:101C20000399884200F0D980DFF8D067CBE7062A15
:101C30001CBF082A0A2A00F0E980022AF4D10021F8
:101C400003916369C268E66F012BC8BFC16852186F
:101C5000964221BF40694118491C8E42B2D3D4F844
:101C600070B0CDF810B0E16A8A6F012A2FD105A9B2
:101C7000371A206EE7673E463F0A02680A604268EC
:101C80004A60616E032207A802F0FCF905A80D2244
:101C9000C772E16F0173206C05A9443002F066F948
:101CA000206CE26FE16E00F00FFB206C09A944305C
:101CB00002F06CF9216C01F1440002F094F9206CFF
:101CC000E36E09A900F003FB002808D10127226C6C
:101CD000E16FD268B1FBF2F002FB101000287FF434
:101CE00071AF6369012B0DDD891AB61AE16705E052
:101CF000E26E2831135C0B54401CC0B2216CCA68E0
:101D00009042F5D3206C03A90291CDF804B000965F
:101D1000049B00F0D3FA00287FF47FAF039886423B
:101D20008CD16169012906DC206CC26800F1B80120
:101D3000283002F0A7F9E26F206F0090431E206C5C
:101D40009E5CD0F814C0761C06EB0C018A4202D2CD
:101D50000FB900260025606900287FF765AF0021D4
:101D60000120931B6EEB0E0E0CF5804C6FEA0E0EED
:101D70009C4505EADE756CEB0C0C6FEA0C0C05EA71
:101D8000DC750195DDF804E00EFB03FC0023B34293
:101D90006EEB0E0E00EADE70DDF800E003EB0C05E2
:101DA0001EF80550A6F1010E75450CBF4FF0010E4F
:101DB0004FF0000E5B1CFF2B1EFB0011E7D9B14258
:101DC000019D0CBF012000200540C5EB45200640C9
:101DD000921B002FE26740F0E580206CE16F4069C4
:101DE000081AA16EE067000A0870A26EE06F5070DA
:101DF0006169002975DDE06F06EB000B5F46B7F502
:101E0000807F8CBFA7F5807100216BE005462868B4
:101E1000027F28699307EA684CBF08261026101A2B
:101E20003318994259D3091A8F1B216F0DA80891B5
:101E30000DF1340B0C91216EE7670DF13D030A683B
:101E400002604A684260A26F8BF8082000F044FAF2
:101E5000E16F090A8BF80B10E06F8BF80C00E96852
:101E60000C293ED1286904280BD105F1280009A9C5
:101E700002680AA80A60E26E116801605168416058
:101E800012E00C282DD105F1280109A891E80C10C9
:101E900080E80C1000200AA9236E0A5C1B5C5A40E3
:101EA0000A54401C0828F7DB0696089807A90C9AE4
:101EB0000491089B3844039205900D20029709A9CC
:101EC00000900193206CEA680DAB903002F06BFC3F
:101ED00020B110F5C64F7FF4A0AE73E60798B84264
:101EE00064D0A1E60091236C1A68517A03291CBFC3
:101EF0000429062908D00729F3D10BF11D01C909CE
:101F00001D30A1EBD01B05E00BF11501890915303F
:101F1000A1EB901BC5EB0520216E082200EA0B0BFC
:101F200003F1440002F022F8206C616E032200F0FD
:101F3000CBF9206CA16E022200F0C6F9206CE26F92
:101F4000216F00F0C1F9226F3146E06F0026104486
:101F5000FEF7CDFD226C01A902F1440002F016F853
:101F600005E0206C216F761C443002F067F80BF11D
:101F700001008642F5D3226C02F1440002F033F8EE
:101F8000226C0099236F5069009A7F1AC119981822
:101F9000FEF7ADFD206C236F01A900F098F9002831
:101FA00013D10127002D10D0002F9AD0E06F68B90F
:101FB0006169032902D1A06F17282AD1D9F820001E
:101FC000401C0428C9F8200003DBFBE50020C9F809
:101FD000200000F091F9C0B9082701E07F1EFFB290
:101FE00000F095F9B84209D2206E401EC15D491C2F
:101FF000C155226E531ED85D0028EFD000F087F93E
:10200000874208BFDFF8686C05D0E06FB0F5804FFD
:1020100002D9DFF80465D6E500F03EFC80B1204629
:10202000FFF766FB0CE0564504D11422022120463E
:1020300000F0E6F916F5CB4F0DD0002E40F02781C9
:10204000204600F083F90646464540F01881E26BD1
:102050004FF0000810003FF49DABA16F00F5027730
:10206000142900F00681162960D1216F4D790B7972
:1020700045EA0323D9F81C50A5F10C060096D2F8C6
:10208000D8219342FFF48EABA3EB020ABAF1040FFE
:102090004CD20C22F30802FB0AF20193024402F52F
:1020A0000475009A02F0070202922B78D8075AD4DE
:1020B0002046FFF719FA012829680CBF02200020EA
:1020C00021F0020108432860009E0C36B6F5804FCF
:1020D0002CD83968B1F5004F3FF664ABC0F340002F
:1020E00030B1029800B10120019A52FA80F08619AD
:1020F000C1F50041B1421AD2BAF1000F16D1D4F89D
:102100003CA0204600F010F900F0D2F80FD24FF0BA
:10211000030B5FFA8BF1204601F00BFB00F0C8F8CF
:1021200005D2BBF1010BF4D5DFF8048CA3E000F07D
:10213000A8FE686010B9DFF8FC8B9CE0AE60216FF0
:10214000062201F09FFF68680321801D05F072FEE2
:10215000686800F0D7F8286840F001002860396806
:1021600076183E6005E06868042206F07BFA0028D5
:1021700003D12868C0F3800000287CD1696820461C
:1021800001F10C07FFF7CBF906462046FFF7C2F92D
:102190008246206F524600F10C01B81901F072FF1F
:1021A0002968C1F3400000285FD0334603F00700E0
:1021B000C0F10800009A01260828514617441DD096
:1021C000DA0888420AD389B3BB5CA0EB010C06FA9B
:1021D0000CFC491E4CEA0303BB54F4E7C318091A6C
:1021E00000280AE017F802E0A0F1010B06FA0BFB49
:1021F000401E4BEA0E0E07F802E0F3D111F0070083
:102200000ED0CA18D208091A17F802C0C0F1080E79
:1022100006FA0EFE401E4EEA0C0C07F802C0F3D17F
:1022200007EBD300FF22C90806F04EFA002003E0B6
:10223000395CFF2911D1401C01998842F8D3002153
:1022400000E0491C0298814209D2019AC1F1070CB1
:1022500006FA0CF0BB5C0342F3D1002000E004203E
:10226000296821F00401084301E041F004002860DE
:1022700001E0012139715FEA080608D180E416F512
:10228000CD4F18BF16F5CB4F3FF484AA16B1304698
:10229000FFF778BAA06F162804BF1698012802D15C
:1022A0002046FFF7BBF9FFF76CBA0000808FFFFFF5
:1022B000DAF80802C0F50040B0427047C26800F189
:1022C0002801903002F013BA443001F04FBE426949
:1022D000E06F1844FDF7BCBF2068D0F8CC1020692F
:1022E000C1F34002616901F055BC2068D0F8CC1000
:1022F000C1F34000002870472168D1F8CC00C0F33A
:10230000400070470322411C093001F0BBBE20464B
:10231000FDF7B1BF2046FDF787BF803081680068B8
:1023200081428041C00F7047C06B002800D17047C8
:1023300010B500F50274A06B38B12268E16B521A37
:10234000226006F08CF90023A36310BD10B504468B
:10235000A06F162804D12046FFF7EFF800284AD1D5
:10236000A06F142818D1E06F012802BF216F0A78EE
:10237000012A16D12068D0F8CC10C1F34000002803
:1023800038D060680A2818BF0C2823D0E06B08B941
:102390005C4810BD184810BD15281BD1E06F0228FD
:1023A00001D05D4810BD216F0A78022A02D1DFF802
:1023B000380C10BD012A04BF4878002802D1DFF88C
:1023C0002C0C10BD012A04BF4878642812D0DFF815
:1023D000200C10BD2068D0F8CC10C1F340000028BC
:1023E0001CBFE06B002805D06168102904BF20469F
:1023F00000F06CFB002010BD809BFFFF0094FFFFEE
:10240000002870B51CBF0368002B01D100F0ACBEE2
:1024100000F1C40315241E6802255C609D603170C4
:102420001B6801215A70BDE87040FEF783BE2DE99C
:10243000F0410646F06C0068807A052818BF06282F
:102440000ED0082818BF0B280AD0306806F1C40740
:1024500090F8CC0010F0010004BFF969002904D104
:102460007068401C7060002049E030B13046FDF7D4
:10247000CCFE10B9DFF8900C41E030460725FDF79F
:10248000C4FE804616E03968200C220A48553B6895
:102490005B195A70D7F800C02246AC44ED1C8CF88A
:1024A00002403868D8F808104019651901F0EAFDB3
:1024B000D8F83081B8F1000F09D0D8F8044043F6BD
:1024C000FD70401BA042DED2DFF8800C17E03A68B6
:1024D000E81F010C000A11713B68E91F58713A6846
:1024E00016230B209171BD6039687B60087072689B
:1024F0003046521C7260BDE8F041FEF763BDBDE896
:10250000F08100000099FFFF8098FFFF8095FFFF9A
:102510000087FFFF008FFFFF008EFFFF2DE9F04FC8
:1025200085B00546E96BE86CD1F8C461032ED0F89C
:10253000008004D12868D0F8CC10C1F3810698F847
:102540000A00052818BF06280AD0082818BF0B283B
:1025500006D0296891F8CC20D3070BD5072804D1E1
:102560006868401C6860002046E11EB9AA6B8020A4
:102570005066F5E701212846FFF7F7F80028F3D168
:10258000286805F1A007DFF8C89B90F8CC10CA07AF
:102590001CD56869D0B100F03AF93968C01C814295
:1025A00004BFA86F162811D1296F0A780B2A16D1FB
:1025B00000F02DF92B6F0322B6A1184406F052F853
:1025C00020B9A96B40204C464866A5E0A86F1628A4
:1025D00005D00A2202212846DFF8844B06E1286F45
:1025E000DFF880AB01780B2911D100F010F93A68BF
:1025F000801D8242C0F0898000F009F98346286F6F
:102600005844847841780078002844EA01247CD139
:1026100000F0FDF839680419E41CA14275D1A86BDB
:10262000006E28B106F064FFA86B006E06F017F884
:1026300000F0E8F8A96B086628B950220221284664
:10264000DFF8F046D2E006F04FFF0BF1030B2C460B
:102650003B689B453DD20BF103018B4254D3256F60
:1026600005EB0B02107800284ED15078927842EAA0
:102670000022802A24BF02EB010B5B4544D3A06BF0
:102680002944006E06F0D3F80100E1D0DFF8E02A1B
:10269000811A1CD040F25222891AD9D0AE3914BF07
:1026A0002A222B222546044601F018FB002C31D1AA
:1026B000002E2ED0E86B296800F5E672106800281D
:1026C00019BF81465268D1F86C900A6F27E05022FA
:1026D000E8E72546286890F8CC10CA0712D4A86805
:1026E00001280FD1696B086E50B1A96B4268096E61
:1026F0004B689A4204D18968806805F0B3FF08B13D
:10270000312203E00024D3E72546322201F0E6FA25
:1027100054466DE04C456BD1012E69D13FE0A86B6A
:10272000002304938C6B03944B6B029300F16403BE
:1027300001937B6C00934B6E006E494606F0BCFC27
:102740000446A86B016E01F1BC070221384606F071
:102750007CFF60B178680178284601F0C9F930B192
:10276000A86B416E41F48031416604B95446296832
:10277000A86BD1F8CC20414600F16403006E82F0D2
:10278000010202F0010201F0CDF908B104B954468A
:10279000012E06D114F51C5F18BF544508D1002442
:1027A00026E0B9F1000F04BF022EDFF80C4A00D07A
:1027B000F4B1A86B406EC10548BF312214D4420762
:1027C00048BF2A2210D410F4DC3F18BF2B220BD1B3
:1027D000C10748BF2D2207D4820748BF2C2203D44B
:1027E00000074CBF30222E2202212846FFF708FEA8
:1027F0006868401C6860204605B0BDE8F08F0000A6
:10280000808EFFFF4FF49A71012008F085BA2846A8
:10281000FDF714BD00F1C401142201234A608B604E
:1028200009680B704268521C4260FEF7CBBB10B5C2
:1028300004460121FEF799FF58BBA06F142804D06D
:1028400000F07AFADFF8180910BDE06CA16B206483
:10285000E16200F021F880B104F190000022C0E9AB
:102860000022C0E90222B4F88400401CA4F88400CD
:1028700080B230B9DFF8F80310BD206E082105F0F2
:10288000D9FAE16C204600F030FB6068401C6060C3
:10289000002010BD000000002068D0F8CC10C1F36B
:1028A00040007047C26B40690328B8BF0FF2850132
:1028B00004DB487A072804D10FF2AD01C2F84814AE
:1028C00070470FF29900C2F84804704710B50446EB
:1028D000E16B01F5147001F0DBFFE26B02F52A7089
:1028E00002F0F8FCE06B002100F5417003F004FDFC
:1028F000E06B0121BDE8104000F55C7004F06CBA9B
:10290000F8B500F023F8E76B3246294607F52A7040
:1029100003F00AFCE06B3246294600F5417004F0F2
:102920002FF9E36B3246294603F55C70BDE8F840A9
:1029300005F0BCB870B500F009F8E46B32462946E2
:1029400004F52A70BDE8704003F0EEBB04460D4666
:10295000E36B164603F5147002F05CBBC06B00F528
:10296000417004F00DB90000C06B00F55C7005F01B
:102970009DB8F0B5B9B000F065F823A801F07CFF70
:102980000CA802F09BFCF06B00F5147123A801F079
:102990007CFFF06B00F52A710CA802F098FC002D6A
:1029A00003A923A80CBF0FF204150FF2101502F0B3
:1029B0006DFB07A90CA803F0F3FB00F035F8242108
:1029C00000F039F823A801F05AFF0CA802F079FCB6
:1029D000242100F002F839B0F0BD03A801F05EBB7D
:1029E000F8B5A6B000F02EF80BA803F079FCF16B57
:1029F0000BA801F5417103F07CFC002D03A90BA885
:102A00000CBF0FF2A8050FF2B40504F0F5F800F0C2
:102A10000BF8202100F00FF80BA803F064FC202134
:102A2000FFF7DBFF27B0F0BD0C200197029004F107
:102A300030002A4670470091F46B03AB3021D4F884
:102A4000545428470646B46B0F46154604B9746BB8
:102A50007047F8B5C6B0FFF7F5FF10A804F0B0F95D
:102A6000F16B10A801F55C7104F0B3F9002D03A916
:102A700010A80CBF0FF234050FF2400505F059F80D
:102A80000C203021029004F1300001972A46009179
:102A9000F46B03ABD4F85454A84710A804F093F98E
:102AA0003021FFF79AFF47B0F0BD0000636C696505
:102AB0006E742066696E697368656400736572760A
:102AC00065722066696E69736865640010B50446B6
:102AD00000F04FFEE06B05F0C2FD0020E063A06C4B
:102AE00020B100F0FFFDA06C05F0B9FDE06C002105
:102AF000A064E16410BD38B50546A968E86B0129FA
:102B0000D0F8C04803D102200022A860EA60686BB8
:102B100038B1AA6B816F916700F06CFE686B05F0AD
:102B20009EFDA96B00206963A8632B685A6A002A7E
:102B30001CBFC868002802D00CB9986A904700F002
:102B400012F81EBFEA6BD2F8EC01002804D0002175
:102B50002846FDF798FB02E02846FFF7B7FF6868B4
:102B6000401C686031BD2868D0F8CC10C1F340002B
:102B70000028704770B5044604F1C405E16C00F00C
:102B80008DF92268E36B286892F8CC20D3F8506462
:102B9000011D204602F00102B04760690028286844
:102BA0000CBF24260C266E633246011D04F1FC0086
:102BB00001F068FA2A68361D1620AE60686014219C
:102BC0001170E36BD3F8C00870B1216891F8CC2084
:102BD000D0075CBF0F216160226892F8CC00C1076A
:102BE00005D50A22626002E06068401C60602068CF
:102BF00004F1D401D0F8CC20C2F34000F0B1606CF5
:102C0000C3F8FC01E06B00F50073D1E90002C3E9F1
:102C10000002062104F1D60005F00CF9022021186B
:102C2000221891F8D310491C82F8D310C9B241B9C7
:102C3000401EC0B20028F2D10D4870BD0022C1E98B
:102C40000002E06CA16B60642163FFF725FE10B108
:102C50002046FEF798F92046FEF7B4F938B9FFF799
:102C60001BFE18B12046FEF790F800B9002070BD99
:102C70008094FFFF3EB504466946236893F8CC2054
:102C8000E36BD3F8505402F0010282F00102A8472E
:102C900000F098FC002849D1A06F162804D000F05D
:102CA0004BF8DFF8BC043EBD206F0178142912D127
:102CB000204604F1A005FDF7C1FA29680C308142D5
:102CC00009D12046FDF7BAFA236F0C226946184451
:102CD000FDF7BEFA28B1322200F02FF8DFF8B40673
:102CE0003EBD0C206946A86504F5847291E8290070
:102CF00082E82900E36B2168D3F8C00860B191F83D
:102D0000CC20D0075CBF0A23636091F8CC00C207D7
:102D100005D50F23636002E06068401C6060FFF728
:102D2000ECFA10B12046FEF703F900203EBD00008A
:102D30000096FFFF0081FFFF0A2202212046FFF7D5
:102D40005FBB7C2108F00AB8F8B50446E06C08B116
:102D500000F0C8FCA06B08B100F04CFDE06B10B1B6
:102D6000204600F006FDE06C18B9D02100F0E7F92C
:102D7000E064A06B18B97C2100F0E1F9A063E06B7E
:102D800040F6D80610B900F07CF8E063E16B00294A
:102D90001CBFE06C002801D0A06B68B9084605F0A4
:102DA0005EFCE06C05F05BFCA06B05F058FC0020BD
:102DB000E063E064A06368E0FFF7C3FFE56CD02147
:102DC000284607F0CBFF05F1500001F0A9F905F105
:102DD000900001F0A5F905F1380001F008F805F1BF
:102DE000440001F004F8E56B3146284607F0B6FFD1
:102DF00005F51476304601F03FFD05F52A77384693
:102E000002F05CFA304605F5417601F041FD3846A6
:102E100002F060FA304603F063FA0021304603F016
:102E20006BFA05F55C76304603F0CAFF01213046A7
:102E300003F0D2FFDFF880070021C5F848042846D8
:102E400000F027FE281D05F045F805F1800005F08B
:102E5000DFFA0320C5F8C401FFF74EFA78B1E16B41
:102E6000626C01F5F4704261236893F8CC10CA07D4
:102E700059BF0023037002210170FEF780F8002083
:102E8000F2BD3146012007F047BFDFF83007F2BD41
:102E900001E0000000BFDFF82807704730B5026886
:102EA00000F1B403D2F8CC40C4F34002002A5A68BF
:102EB00005D0D41C02F10B051C600D3204E0A2F118
:102EC0000804D51C1C60521D9D60DA6051B1406938
:102ED000022807DBDA68C8680969104449420144DE
:102EE000196130BDD868186130BD10B50268D2F8DC
:102EF000CC30C3F34002002A426E05D0D31C02F14D
:102F00000B0403660D3204E0A2F10803D41C03662F
:102F1000521D8466C26651B14269022A07DBC36E44
:102F2000CA6809691A4449421144016710BDC26E5A
:102F3000026710BD4FF48C7107F010BF38B504461E
:102F400004F1B001206800F016F8086803D088602A
:102F5000E16D616606E000F108028A60E36D03F14D
:102F60000805656600212046FFF798FF20460021EE
:102F7000BDE83440B9E7D0F8CC20C2F340000028C7
:102F8000704770B5054605F1B0062960002244F28D
:102F90004D14326000F0D2F8E86518B100F0CEF8B8
:102FA0003060B8B9DFF81446E86D05F058FB3068BA
:102FB00005F055FB00202860E865306068662866EB
:102FC000A866E8662867B0607060F0603061706184
:102FD000204670BD2846FFF7B1FF2846FFF7B4FE34
:102FE0000400E1D1002070BD8088FFFF8087FFFFD3
:102FF0008099FFFF2DE9F04105460C460022002193
:103000006A6005F1E806FDF73EF900230022AB6097
:103010000020EA6005F1FC01306105F1840781E8D8
:103020000D0005F58470002180E80E00F16028464F
:103030006A67FFF783FF0020A867E8677860388039
:103040002846FEF719FB0021F9613962796279643B
:10305000B964F96495F9DE0008B185F8DE1005F170
:10306000D40044F24D18C0E9001129646964E96292
:103070002963F86A414604F0DDFE34B90020414678
:10308000C5F88000E86D04F0D5FEA86C30B100F002
:1030900029FBA86C05F0E3FA0020A864686B30B146
:1030A00000F0A8FB686B05F0DAFA002068630021E5
:1030B00031602CB9706805F0D2FA00207060B06001
:1030C0002846BDE8F0413FE6002193E7D0F8CC2048
:1030D00061F3000203E0D0F8CC2061F34102C0F8B4
:1030E000CC2070478161C261704710B5029C81623B
:1030F000C2610362446210BD816202624362704732
:10310000DFF8DC0532BD0000808AFFFF70B50446A1
:103110000D4616460C2100F012F800B912E00560C9
:10312000002146608160226812B9206004E00A46EE
:1031300091680029FBD19060002070BD21460120DC
:1031400007F0EABDDFF8740470BD0000008BFFFFDC
:10315000808BFFFF6830D9E7C166026770470000C7
:103160000089FFFF0086FFFFDFF8500870BD0000F8
:1031700080D7FFFFF8B505461E4605F17C0005F136
:10318000880708F028F8040006D1069A3146384628
:1031900008F021F8040000D001E00020F2BD05F1A4
:1031A0007C0007F0E9FD384607F0E6FD2046F2BD59
:1031B000DFF80808F2BD00008089FFFF00281FBF6C
:1031C000406B0028406809F08BBB0020704738B581
:1031D00005466C6C1CB9BDE83240FDF725B804F11A
:1031E0005000FDF709F8801E0AD0001F022801D9FF
:1031F000001F13D1A4682846FDF716F8201832BD29
:1032000014F1500069691DBF206D0028406900203D
:10321000646904190229EEDB0419ECE7DFF8E80918
:1032200032BD0146086890F8CC20D30706D4486820
:10323000012818BF022801D100207047CA6B002A5C
:103240001CBFB2F84C02002802D1B1F8DC00704774
:10325000B1F8DC1011B1814238BF0846704770B533
:1032600004464FF48045FFF7DCFF90B12046FFF79E
:10327000D8FF06462046FFF7AAFF00280AD4B0422E
:1032800002D3DFF83C0370BD361AB6F5804F38BF65
:103290003546284670BD10B50400DFF824031CBF76
:1032A0002168002900D111E091F8CC10CA075CBF59
:1032B000204609F01DFC216891F8CC20D30704D5E5
:1032C0002046BDE810400AF001BF10BDDFF8EC0653
:1032D00010BD10B504460020002C1CBF2168002939
:1032E00000D1F3E76168102904D02046FFF7D3FF2F
:1032F0000028F7D010BD10B500F1C4010422162338
:103300008A604B60096800240C70BDE81040FDF72E
:1033100059BE10B50446FFF717FDC8B9FFF7BCFA50
:1033200070B1A06803280BD12268E16B92F8CC3011
:1033300001F5EA70D90747BF01220260012343600B
:103340000020012160602046A160BDE81040C0E778
:1033500010BD00281CBF0168002915D091F8CC10C1
:10336000CA070BD54368102B0ED1D0F8D01003221A
:103370008260002918BFFDF7ABBCBCE7816801295A
:1033800006D04268102A02D0DFF830067047C0E746
:103390009FE700008081FFFF2DE9F0410446FCF724
:1033A0006AFF05466068102820D1A16803291FBF65
:1033B0002068D0F8CC10C1F3C020002816D02068B7
:1033C000C5F10808236E4246284400F1B80631468C
:1033D000581905F047F90746601942463146D4307E
:1033E00005F040F9002FD8BF002801DC002003E0E1
:1033F0002046BDE8F041ACE7BDE8F0812DE9F041A1
:1034000004000D4616461ABF20680028B44865D04F
:10341000D0F8CC00C0F3400078B12046FDF758FC4E
:1034200000285BD1E06B40B190F8E801012804D19D
:103430002046FDF7AAFC002850D12046DFF8CC87B3
:10344000FFF7AAFF404518BF002847D16068102841
:1034500006D02046FFF73DFF404518BF00283DD16C
:10346000616F04F1A007002940F09080A16D49B17F
:10347000206D884710F1010F04D12068D0F8A81002
:10348000FDF77EFD00F09EF848BBE06F002804BF0A
:10349000A16F172902D100F095F800BBA06F162884
:1034A00048D1206800F1B4010A7ED30708D4216F07
:1034B000087870B92046FCF7C1FE3968814208D10E
:1034C0002068D0F8CC00C1070ED5226F1378012BED
:1034D0000AD0FEF70AFFC3D1DFF834076AE010F51F
:1034E000E54F67D1002065E0C0F3C020B8B1786D2A
:1034F0002168002802BFD1F8CC00C0F301100028D9
:103500000DD091F8CC1001F00301022904BF032073
:10351000A0602046FFF7FDFE4045A1D030E0606985
:10352000002804DD64220121FFF708FC28E0DFF811
:10353000D8063FE0A16803290BD1226802F1B4014B
:103540000B68002B05D4E268521CE26009689142C6
:10355000C2DB152817D01728BED16168206F6067BD
:10356000102901D1FDF70BFD206890F8CC10CA0797
:103570007FF576AFA0680328ADD12046FDF7C6FAE7
:103580000028CAD016E0DFF88C0613E0E06F864210
:1035900088BF06463246284600F074FDE06F801B67
:1035A000E06703D160670021B96002E0606F3044DA
:1035B00060673046BDE8F081012900080081FFFF07
:1035C000808FFFFF01212046FEF7CFB870B504467B
:1035D0000D461646FFF743FE002820D4B04207D21E
:1035E0002168D1F8CC20C2F3400101B1BCE5064608
:1035F00004F1C403D86820B12046FDF769FB68B127
:1036000070BD17209E60586018683246294600F049
:1036100039FD01212046FDF78DFD00B9304670BD12
:1036200070B504000D4616461CBF2068002800D166
:103630009AE52046FFF7B0FEB8BB6068102803D0BB
:103640002046FFF746FE80BB2068D0F8CC10C1F3BF
:10365000802020B3012E22D9606902281FDA616C14
:1036600001F15000FCF7C8FD022818D194F9DE00E2
:1036700048B9012229462046FFF7A8FF002814DD9B
:10368000012084F8DE00721E691C2046FFF79EFFB1
:1036900000280ADD0021401C84F8DE1070BD32468F
:1036A00029462046BDE8704090E770BD002880B5EF
:1036B0001CBF0168002901D1C04802BDD0F8D0105C
:1036C00019B1BDE80240FDF703BB4168102904D1E0
:1036D00000220121FEF794FE00B9002002BD000087
:1036E000008FFFFF10B5040012D004F1500000F06D
:1036F0001AFD04F1900000F016FD04F1380000F00E
:103700007CFB04F1440000F078FB2046D02182E0ED
:1037100010BD38B50446E06B50B120460025FEF7D9
:1037200003FEE9B2204600F004F86D1C042DF8D326
:1037300031BD38B50C22C06B12FB01F204290244E2
:1037400002F5047414DA2178CB0711D5D0F80852A9
:10375000A268AD1AC0F80852A168606800F09EFC2B
:10376000606804F07CFF00200021002284E807004C
:1037700031BDF8B50546EC6B002C3AD004F5147059
:1037800004F5DA7601F07BF804F52A7001F099FD72
:1037900004F5417002F0A7FD04F55C7003F013FB23
:1037A000201D04F0C0FD04F1800004F056FE3068D6
:1037B00004F055FF706828B1B16800F06FFC7068C4
:1037C00004F04DFF706920B1876804F048FF3800AD
:1037D000FAD1B06A04F043FFB06BFDF7A7FA2846B0
:1037E000FFF797FF204640F6D801BDE8F44000F00F
:1037F00055BCF1BD10B504000CD0206E20B105F011
:1038000077FE206E04F02BFFA06E04F028FF204608
:103810007C2100E010BDBDE8104000F03FBC70B559
:1038200004004BD004F1B00644F24D15306828B1C5
:10383000294600F033FC306804F011FFE06D28B138
:10384000294600F02BFCE06D04F009FFA06C20B1CC
:10385000FFF748FFA06C04F002FFE06B88B1204640
:10386000FFF787FFE06CFFF73DFFA06BFFF7C2FF9C
:10387000E06B04F0F4FEE06C04F0F1FEA06B04F0E9
:10388000EEFE606B20B1FFF7B5FF606B04F0E7FE62
:10389000756B4DB1284600F0EBFB0146284600F061
:1038A000FDFB706B04F0DBFEF06B04F0D8FE2046ED
:1038B0004FF48C71BDE8704000F0F0BB70BDD021BA
:1038C00007F04CBA2DE9FC4105460C4617469846D0
:1038D000FFF7FCFB39462846FFF7FDFB05F1AC0678
:1038E0003CB9306A20F00C0040F4005040F0080071
:1038F0003062306ADFF82013DFF8202340F4B8602C
:10390000306240F4024069644EF66021AA641022DD
:1039100030624FF47A70306005F1B80071600221B6
:10392000B26007F01BFAFF22062105F1BA0004F08D
:10393000CBFE012C0AD101200FF2444300904FF43A
:103940008072B7492846FFF715FCA8BBB8F1020FF3
:10395000B44C17D1032004F11401B07704F1140220
:10396000F077B14B3077707704F11400E960AA600A
:1039700004F12002686004F12C0029606B666A671C
:10398000A86718E003210122012FB177F277317780
:10399000717704BF0220F07708F074FFE860A86038
:1039A00068602860A14868666C670BF0B3FDA86783
:1039B0004FF48060B0610020BDE8F681008FFFFF0A
:1039C00038B5044604F17C0007F0D6F904F188000C
:1039D00004F1680507F0D0F9E86A40B1296B00F0FE
:1039E0005DFBE86A04F03BFE0020E8622863686B38
:1039F00040B1A96B00F052FB686B04F030FE002070
:103A00006863A8632868002803E0856804F027FE3F
:103A10002800FAD12046D021BDE8344000F03EBB5A
:103A200010B50446012105F010FE08B1012010BDBB
:103A30000421204605F009FE00B1032010BD012835
:103A400006D0022818BF042801D1032070470020A7
:103A50007047012804D0032801D1042070470020BA
:103A60007047012902D0042902D003E00078704792
:103A70004078704700207047012902D0042904D003
:103A80007047037823B902707047417801B94270DA
:103A90007047017041707047401E052810D8DFE85C
:103AA00000F0030507090B0D032070470420704741
:103AB0000520704706207047072070470820704790
:103AC00000207047C01E052810D8DFE800F003056D
:103AD00007090B0D01207047022070470320704733
:103AE000042070470520704706207047002070476B
:103AF0000268926F3AB1107828B112F8013B8B42FC
:103B0000F9D1002070474FF0FF3070470268526FC4
:103B10003AB1106828B152F8043B8B42F9D1002029
:103B20007047F0E72DE9F0410446174600260020D3
:103B3000012F1D460ED1897A491E09D0491E02293E
:103B400008D9491F04D0891E012998BF082002E026
:103B5000202000E08020014620464FF0FF3805F08D
:103B60000BFA20B12A68464642F400622A60012F0F
:103B700020460CBF0FF2F0110FF2F811082205F0E9
:103B800015FA20B12868464640F480502860304637
:103B9000BDE8F081012A07D10229C0F101001870A7
:103BA00008BF0121494200E0187059707047012A8E
:103BB00010B51C780AD140F20112141B0460587829
:103BC000C0F58070012803D1022001E0046058781C
:103BD000086010BD4269032A13D1022904D00429C8
:103BE0000AD0052906D00CE01149C06BC0F84C146E
:103BF000002070470F49F8E7C16B0F4AC1F84C2409
:103C0000F6E70E48704700000094FFFF0095FFFFA5
:103C10000089FFFF0097FFFF912E0008952E0008F6
:103C2000805403084000002088910308BC950008D8
:103C300051090008CD090008A1090008009AFFFFFA
:103C40002DE9F841ADB005460E461746984617A82F
:103C500000F012FE684601F031FB17A800F018FED4
:103C600004002DD1E86B402200F25C4117A801F05E
:103C7000D1F9040024D14246394617A801F0CAF907
:103C800004001DD1314617A801F000FA040017D135
:103C9000684601F01FFB040012D100F05AF802F050
:103CA00043FA04000CD142463946684602F03CFA19
:103CB000040005D106F11001684602F071FA0446CD
:103CC00017A800F0DCFD684601F0FBFA0CB100F02B
:103CD00004F820462EB0BDE8F0815022022128468B
:103CE000FEF78EBB2DE9FF4105460B980E461446A4
:103CF0001F4600F063F8804600F0A9F9206068468E
:103D000000F075F80022414600F02BF8040016D1AF
:103D1000684600F0AAF8040011D100F01AF800F08B
:103D2000ADF804000BD10A9A3946684600F0A6F8AF
:103D3000040004D13146684600F0ABF804466846FA
:103D400000F05BF80CB1FFF7C8FF204604B0BDE8F7
:103D5000F081E86B402200F25C4168467047014602
:103D60000122684600F064B82B060105050703012F
:103D7000000000002B0601050507030200000000FB
:103D8000020030B4002513E050F8042BD30744BFE1
:103D9000A9F101039A18091F042942F8045BFAD219
:103DA00013468C0744BF15809B1CC90748BF1D7074
:103DB00050F8041B0029E7D130BC7047C01E06280C
:103DC00013D8DFE800F004080A0C0E100600924831
:103DD000704792487047924870479248704792489F
:103DE0007047924870479248704700207047002102
:103DF0000022002380E80E00704710B504001CBFAD
:103E00002168002913D0606808B1496A8847A06812
:103E100038B12168C968490000F040F9A06804F091
:103E20001EFC20460C21BDE8104000F037B910BD43
:103E3000F8B505460C00164618BF002D01D17D4887
:103E4000F2BD206A7C4F8047686048B156B1E16896
:103E5000022006F061FFA86020B96868616A88479F
:103E60003846F2BD2C600020F2BD00281CBF01685E
:103E7000002900D10BE040680969084700281CBFF1
:103E80000368002B00D102E040685B69184769486D
:103E9000704700281CBF0268002A00D1F7E740687D
:103EA0009269104710B50400084611461A4600D121
:103EB0006AE0E369BDE8104018472DE9F0410500CC
:103EC00090B00E4690461CBF2968002901D0A86812
:103ED00008B9584847E0C868404517D2686809697A
:103EE000884704003AD12B686868424631465C69CD
:103EF000A047040032D12A686868694693699847E8
:103F000004002BD128686E46D0F808802868AF6876
:103F10003622C16838467C1804F0D6FB28685C223B
:103F2000C168204604F0D0FB002008E0395C325C18
:103F300051403954235C315C4B402354401C404574
:103F4000F4D3296868680A699047040006D12B6891
:103F500068683946DA685B699847044640216846D4
:103F600000F09CF8204610B0BDE8F081002810B5A4
:103F70001CBF0368002B01D0846804B904E04068CA
:103F80005B69BDE8104018472A4810BD70B50400B1
:103F900090B00D461CBF2268002A01D0A06808B965
:103FA00024481EE0D36892696946C6186068904745
:103FB000B8B9216860680A69904790B92368606859
:103FC0003146DA685B69984758B923686068694682
:103FD0009A685B69984720B92268606829469369A6
:103FE000984710B070BD38B505001CBF296800297E
:103FF00001D0AC680CB90F4832BD686809698847C0
:1040000040B92B6868682146DA685B6901B0BDE891
:104010003040184732BD0000D86C0308086D030813
:10402000386D0308686D0308986D0308C86D0308B0
:10403000F86D030800AFFFFF80AEFFFF00281CBF34
:104040000268002A00D122E74068D26A104708B10E
:104050008068C0B270478268521C8260426832B188
:104060000268531C036011704168491E416070472B
:1040700000F1010310F8011B11B110F8011BFBE75F
:10408000C01A70474AB1000011F8013B521E00F8F7
:10409000013B1CBF11F8013BF8E7704710B5034B1B
:1040A0000A461C680021A04710BD00003000002017
:1040B00010B50C460DF0EEF828B101462C22204632
:1040C000FFF7E0FF00E00024204610BD00281CBFE1
:1040D0000068002801D1002070474069704710B582
:1040E000DFF83827044600E00832506800281CBF7B
:1040F0001378A342F8D110BD70B5DFF8204700E077
:104100000834636853B19D692E78864201BF5D68AB
:104110008D425B789342F3D1606870BD002070BD22
:10412000402106F01BBE10B504000BD0E06B18B1A7
:1041300021688A69536A984720464021BDE81040AB
:10414000FFF7ACBF10BD38B505460C0018BF002DF9
:1041500000D157E0402106F001FEA069026A9047B5
:10416000E86310B9DFF8B80632BD2C60002128469C
:1041700000F098FA002032BDF8B51D460400DFF8C3
:10418000A4061CBF2368002B1CD01E7CB70702D4DA
:104190005E68964216D1012D626025721CBF5A7866
:1041A000032A03D0042A18BF052A05D19B69626837
:1041B000E06B9C69A047F2BD25B99B696268E06B22
:1041C000DC69A047F2BD38B505001CBF286800288F
:1041D00018D079B9B2B90023AB63047CE3070ED5DC
:1041E00014462CB1224605F12800FFF74BFFAC63C3
:1041F000002032BD112AF0D3DFF82C0632BDC4688E
:10420000A242EED2DFF81C0632BD00281CBF0168B6
:10421000002900D1D3E100224262002070472DE93D
:10422000FE4F06008946144698461CBF3068002899
:1042300037D00C9DADB3002028603046FFF746FF15
:10424000D6F800C007469CF8010001280FD1BC42F7
:1042500018BFDFF8D80509D12C60DCF8184096F9B2
:104260000810F06B43464A466568A847D5E0062823
:1042700009D12C60F06B43464A46214603B0BDE8A5
:10428000F04F0DF0FCB9002F00F08880C1450BD134
:10429000706A002802BFB4FBF7F007FB104000284B
:1042A00002D0DFF88005B8E09CF8010002287BD13D
:1042B00096F9080028BB716AF068791A98B3A14290
:1042C00025D2706A00283AD0A7EB000A06F1140341
:1042D000524649461844FFF7D5FECDF8048006F152
:1042E00014000090D6F800E096F90810F06B06F183
:1042F00028033A46DEF818B0DBF808C0E047A8B15A
:104300008BE00128DDD1706A381A8442D9D2756AEF
:1043100006F11403224649465819FFF7B3FE706AA6
:104320002418746275E08C42F1D3CAE72968002230
:10433000B844D144A4EB0A04791829607262002CB5
:1043400067D0B4FBF7FA07FB1A4ABAF1000F04BFB3
:1043500096F90810002902D1F06800B1BA46A4EB22
:104360000A04524609EB040106F11400FFF78AFE25
:10437000706A002C504470624BD0CDF8048006F176
:104380002803CDF8009096F90810F06B36682246A5
:10439000B769D7F808C0E04718B13EE0DFF89004ED
:1043A0003BE02868241833E0032811D106F12800E7
:1043B000CDF80880CDF8049006F12403009096F91A
:1043C0000810F06BDCF818602246F768B84712E076
:1043D000052812D106F11400CDF80880CDF804901C
:1043E00006F12803009006F12402F06BDCF8186057
:1043F00021463769B84758B10FE007280BD1F06B59
:10440000DCF8186043464A4621467769B84720B928
:104410002C60002001E0DFF81004BDE8FE8F134699
:10442000C91A03D00A46184404F04EB97047002355
:104430000028F0B518BF002A00D14EE000F088F83F
:1044400038BF012300F07EF809E0875CAA42B6413C
:10445000F643F60F521C674016FB07F633438A42B9
:10446000F3D3DBB203B13BE00020F0BD891A802317
:104470000229835404D30244491E501C03F0DABCC1
:10448000704700230028F0B518BF002A00D124E0AF
:10449000802413600FE0491ED2F800C04F4347EA62
:1044A0000C071760AB4216F8016C0CBF0025012504
:1044B00015FB06F56C4059B146181D4616F8017CEF
:1044C00007B101273B43AB4214BF01270027E2E7B6
:1044D000E4B204B104E00020F0BDDFF84803F0BD11
:1044E000DFF85003F0BD70B50D46AE1A022E04463B
:1044F00003D3711EA01803F09DFC601900F8016C35
:1045000070BD0023002870B518BF002A00D14BE011
:1045100000F01EF838BF012300F014F808E0AA42AA
:10452000A441865CE443E40F521C14FB06F42343CD
:104530004C1EA242F3D3DBB213B1DFF8F80270BD18
:10454000002070BD621E924143EAD2730022704780
:10455000441814F8014C0D1B156070478A4203D2B1
:10456000891A104403F066BC70470023002870B518
:1045700018BF002A00D117E01360002911E0451888
:104580001C4615F8015C05B101252B43DEB2E4B2EF
:10459000A64215680CBF002401244C432C43491E3D
:1045A0001460ECD1002070BDDFF8780270BD0028E7
:1045B00018BF002A00D102E011600020704799481E
:1045C00070472DE9FC4104000E4615461CBF2068CB
:1045D000002800D00DB9934860E00021296041789F
:1045E000032918BF042956D0052918BF062952D01F
:1045F000092918BF07294ED00278482A18BF492A2E
:1046000049D00129894F07D0022946D194F90810D1
:10461000012920D1E3681BB9606A00283ED026E05A
:10462000A16B01B9C168626A04F114009847204681
:10463000FFF74CFD019604F114030246009327682E
:1046400094F90810E06B04F12803BF69D7F80880DB
:10465000C04770B122E02046FFF738FD0146606A8E
:104660008142E4D0E168002908BF002816D038460E
:1046700014E094F908000028204609D1FFF726FD30
:10468000014623692A46304602B0BDE8F04118478A
:10469000FFF71CFD2860002000E06348BDE8F681BC
:1046A0000000000018B102685378022B00D086E7A2
:1046B00004291AD8DFE801F003090C1116005E493D
:1046C0005E4AC1600261002070475D495D4AF8E7BB
:1046D0005D4B5E49C3600161F5E75D4A5D4BC260B9
:1046E0000361F0E700215C4AEBE74F487047FEB5F5
:1046F00004461D46FFF767FDC8B92046FFF785FD54
:10470000A8B9099F089A0A9E2946009620463B466A
:10471000FFF785FD58B9306801AA39182046FFF720
:1047200050FF20B931680198411800203160FEBD6A
:104730002DE9F04387B004680E9D0F9EDDF8409090
:10474000119F6478DDF848C0DDF84CE0DDF850805A
:10475000062C11D1CCF80090CDF818E0CDF81480DB
:1047600004970396029501930B460092C06B4A464C
:1047700001210DF06EF813E0082C10D1CCF8009058
:10478000CDF81480CDF810E00397029601950093C0
:104790001346C06B0A4649460DF02DFA00E0224848
:1047A00007B0BDE8F0832DE9F04786B0D0F800905F
:1047B0000E9E0F9FDDF84080DDF844C099F801A0FF
:1047C000DDF848E0139C149DDFF89090BAF1060FD5
:1047D0000DD1CEF80080CDF814C004970395029453
:1047E00000F03EF80DF051F810F1120F0FE0BAF1A1
:1047F000080F0FD1CEF8008005950494CDF80CC0B9
:10480000029700F02DF80DF030FA10F10F0F02D1E1
:10481000484600E0044806B0BDE8F087644103085C
:10482000809EFFFF009FFFFF809FFFFF809DFFFF97
:10483000809CFFFF009EFFFF1F4400082F440008DC
:104840006D44000883440008E7440008034500085D
:104850005D4500086B450008AF450008009DFFFF5F
:10486000019600931346C06B0A46414670470268A2
:10487000531C036011707047582106F06FBA00286E
:104880001CBF5821FFF70ABC70475822FFF7FABB3C
:1048900010B50021DFF814390160DFF814494160D8
:1048A000DFF81019DFF810298360C46001614261EC
:1048B000002010BD2DE9F14F8CB008784A788B7834
:1048C00040EA0220CA7840EA034040EA02600790CA
:1048D00008794A798B7940EA0220CA7940EA034094
:1048E00040EA026006900A7A487A8B7A4C7B42EA68
:1048F0000022C87A42EA03420B7B42EA0062887BCC
:1049000043EA0423CC7B43EA004343EA0463059370
:104910000B7C487C8C7C0D7E43EA0023C87C43EAF8
:1049200004430C7D43EA0063487D44EA0024887D0B
:1049300044EA0044C87D44EA0064487E45EA002019
:104940008D7E40EA0545C87E45EA0069087F4D7FB7
:1049500040EA0525887F45EA0040CD7F40EA056AA8
:1049600001F1210091F820500178867B45EA012170
:10497000457841EA0545817845EA016BC1780579BA
:1049800041EA0525417945EA0141857941EA056E0B
:10499000C579017A45EA0121457A41EA0545817ADE
:1049A00045EA0168C57A017B45EA0125417B45EA74
:1049B000014545EA06650495C17B057C467C41EAD4
:1049C0000521857C41EA064141EA05610391C17CEC
:1049D000057D467D41EA0521857D41EA064141EAA2
:1049E00005610291C17D057E467E41EA0521857EF5
:1049F00041EA064141EA05610191C17E057F41EA34
:104A00000521457F41EA0541857F41EA0561009125
:104A10000C99CD680B950C98294605690A950C9E52
:104A20002846756909950C9F2E46BD6886EA0007E1
:104A30000F4087EA060C08950CEB0507079DDDF88B
:104A400018C02F44DFF87457EF1901EB776580EA3F
:104A500001072F4047406744DFF864C76744BE1929
:104A600005EB365C81EA0507DFF8586707EA0C07B3
:104A70004F40D719F719381885EA0C070CEBF030BE
:104A8000059E07406F40F719DFF83C67F719791862
:104A900000EBB1218CEA0006DFF830770E4086EAA1
:104AA0000C069E19BE19751980EA010701EB7565A0
:104AB000DFF81C672F404740E719F719BC4481EA2B
:104AC000050605EB3C5CDFF80C7706EA0C064E4069
:104AD0004E44BE19301885EA0C070CEBF030DFF8B5
:104AE000F86607406F405744F71979188CEA0006BA
:104AF00000EBB121DFF8E4760E4086EA0C065E4456
:104B0000BE19751980EA010701EB7565DFF8D066FB
:104B10002F4047407744F719BC4481EA050705EB6D
:104B20003C5CDFF8C06607EA0C074F404744F719C2
:104B3000381885EA0C070CEBF030049E07406F40F4
:104B4000F719DFF8A466F719791800EBB1218CEAA0
:104B50000007039E0F4087EA0C07F719DFF88C6601
:104B6000F7197D1901EB756580EA0107029E2F4058
:104B70004740F719DFF87866F719BC4405EB3C5C51
:104B800081EA050707EA0C07019E4F40F719DFF895
:104B90006466F71938180CEBF03085EA0C07009EB4
:104BA00007406F40F719DFF85066F719791800EBE6
:104BB000B121069E80EA010707EA0C074740F71972
:104BC000DFF83866F7197D1901EBF565DFF8306617
:104BD00081EA050707404F404F44F719BC4405EBF5
:104BE000FC5C049E85EA0C070F406F40F719DFF864
:104BF0001466F71938180CEBB040079E8CEA0007D2
:104C00002F4087EA0C07F719DFF8FC65F7197918C8
:104C100000EB3131DFF8F46580EA010707EA0C07A1
:104C20004740E719F7197D1901EBF565DFF8E065F5
:104C300081EA050707404F404744F719BC4405EB9C
:104C4000FC5C009E85EA0C070F406F40F719DFF807
:104C5000C465F71938180CEBB040DFF8BC658CEA76
:104C600000072F4087EA0C07DF19F719791800EBC6
:104C70003131DFF8A86580EA010707EA0C074740F1
:104C80007744F7197D1901EBF565019E81EA050767
:104C900007404F40F719DFF88865F719BC4405EB6A
:104CA000FC5C059E85EA0C070F406F40F719DFF8A2
:104CB0007465F71938180CEBB040DFF86C658CEAB6
:104CC00000072F4087EA0C075F44F719791800EBBB
:104CD0003131029E80EA010707EA0C074740F719C5
:104CE000DFF84865F7197D1901EBF565DFF84065D8
:104CF00081EA050707404F40D719F719BC4405EB77
:104D0000FC5CDFF8306585EA0C070F406F405744C4
:104D1000F71938180CEBB040039E8CEA00072F40BF
:104D200087EA0C07F719DFF81065F719791800EB17
:104D30003131DFF8086580EA01078CEA0707E719D7
:104D4000F7197D19DFF8F86401EB357581EA05077D
:104D500047405F44F719BC44049E05EB7C5C85EA40
:104D60000C074F40F719DFF8DC64F71938180CEB23
:104D70003040019E8CEA00076F40F719DFF8C864E5
:104D8000F719791800EB7121069E80EA01078CEA79
:104D90000707F719DFF8B464F7197D1901EB3575CA
:104DA000DFF8AC7481EA050646409E19BE196644D8
:104DB00005EB765CDFF89C6485EA0C074F405744AE
:104DC000F7193818DFF890640CEB30408CEA0007D4
:104DD0006F404744F7197918029E00EB712180EA71
:104DE00001078CEA0707F719DFF87064F7197D19D6
:104DF00001EB3575079E81EA05074740F719DFF893
:104E00006064F719BC4405EB7C5C059E85EA0C07E1
:104E10004F40F719DFF84C64F71938180CEB3040A5
:104E2000DFF844648CEA00076F404F44F7197918A3
:104E3000DFF8386400EB712180EA01078CEA07078C
:104E40007744F7197D19039E01EB357581EA050753
:104E50004740F719DFF81864F719BC4405EB7C5C90
:104E6000009E85EA0C074F40F719DFF80864F71930
:104E700038180CEB3040DFF800648CEA00076F4014
:104E8000D719F7197918079E00EB712161EA0C0711
:104E90004740F719DFF8E463F7197D1901EBB565B1
:104EA000DFF8DC7365EA00064E40B244BA44E244DF
:104EB000019E05EBBA5A6AEA01076F40F719DFF85D
:104EC000C463374438180AEB704C6CEA050080EA7A
:104ED0000A002418DFF8B003041964180CEBF4205E
:104EE000039CDFF8A81360EA0A0686EA0C06A619F6
:104EF0008E197519DFF8984300EBB566059D66EAD3
:104F00000C074740EF19E719BA44DFF8884306EB6E
:104F1000BA5A6AEA000171408844DFF87C13884479
:104F2000E0440AEB7847069967EA060585EA0A0530
:104F30000D4465192818009C07EBF02CDFF85C0382
:104F40006CEA0A0179408B448344B344DFF8501380
:104F50000CEBBB6BDFF84C036BEA070585EA0C052D
:104F600065194D19AA44029C0BEBBA5ADFF83813A5
:104F70006AEA0C0686EA0B06B1448144B9440AEB9E
:104F8000794565EA0B0888EA0A08A0448844C444C5
:104F9000DFF8181305EBFC2464EA0A0C8CEA050020
:104FA0000344DFF80C03C3185B4404EBB36B049BAE
:104FB0006BEA050888EA040898448844C2440BEB6D
:104FC000BA5363EA040A8AEA0B000244B948821819
:104FD0002A4403EB7242B84962EA0B0989EA0300EA
:104FE00086448E44A644089C0C98A344C0F808B09C
:104FF0000B9902EBFE200C9C4118E1600A990C9879
:1050000052180261099A0C9900209B184B610DB04F
:10501000BDE8F08F2DE9F041140007460E4632D06E
:10502000386800F03F052018A042C5F140083860FC
:1050300002D27868401C7860A5B1444512D307F1CC
:10504000180042462844FFF71DF807F118013846BA
:10505000FFF730FCC0B94644A4EB0804002501E08A
:105060004036403C402C06D331463846FFF722FC00
:105070000028F5D008E034B107F118002246314687
:105080002844FEF7FFFF0020BDE8F08170B504461C
:105090000D462178802004F1180204F1180301F074
:1050A0003F015054491C5818382904D8C1F138011F
:1050B00002F0C0FE0FE0C1F1400102F0BBFE04F1BE
:1050C00018012046FFF7F6FB00284DD1382104F1E6
:1050D000180005F043FE6168206804F15002C90021
:1050E00041EA5071C0001070030A1171060C000EE5
:1050F0005370D070080A50710B0C090E9670D17164
:1051000004F1180193712046FFF7D4FB60BBA0683F
:105110002870A168090A6970A068000CA870A168CD
:10512000090EE970E0682871E168090A6971E068B0
:10513000000CA871E168090EE971206928722169E3
:10514000090A69722069000CA8722169090EE972C6
:10515000606928736169090A69736069000CA87342
:1051600061690020090EE97370BDF8B596B0054677
:105170000E4617465821684605F0F0FD6846FFF7D1
:1051800087FB04000BD1324629466846FFF742FFF1
:10519000040004D139466846FFF778FF04465821D9
:1051A0006846FEF77BFF204617B0F0BD0123456738
:1051B00089ABCDEFFEDCBA987654321078A46AD76A
:1051C00056B7C7E8DB702024EECEBDC1AF0F7CF52B
:1051D0002AC68747134630A8019546FDD8988069AE
:1051E000AFF7448BB15BFFFFBED75C892211906B98
:1051F000937198FD8E4379A62108B44962251EF665
:1052000040B340C0515A5E26AAC7B6E95D102FD6FA
:105210005314440281E6A1D8C8FBD3E7E6CDE121CF
:10522000D60737C3870DD5F4ED145A4505E9E3A930
:10523000F8A3EFFCD9026F678A4C2A8D4239FAFF36
:1052400081F6718722619D6D0C38E5FD44EABEA4AC
:10525000A9CFDE4B604BBBF670BCBFBEC67E9B28A1
:10526000FA27A1EA8530EFD4051D880439D0D4D9B6
:10527000E599DBE6F87CA21F6556ACC4442229F40C
:1052800097FF2A43A72394AB39A093FCC3595B65CE
:1052900092CC0C8FD15D84857DF4EFFF4F7EA86F9B
:1052A000E0E62CFE144301A3A111084E35F23ABDED
:1052B000827E53F7BBD2D72A91D386EB5C2105F0CF
:1052C0004DBD00281CBF5C21FEF7E8BE70475C2284
:1052D000FEF7D8BE10B50021DFF8243E0160DFF8EC
:1052E000244E4160DFF8201E8360DFF8202EDFF8B7
:1052F000203EC460016142618361002010BD2DE940
:10530000F14F92B0084641780278837800F1210687
:10531000090441EA0261C27841EA03214379114359
:1053200002791B0443EA0263827943EA0223C279C9
:1053300013430A93427A037A120442EA0362837A9D
:1053400042EA0323C27A1A430892427B037B120487
:1053500042EA0362837B42EA0323C27B1A4306923A
:10536000427C037C047D457E120442EA0362837C16
:1053700042EA0322C37C2D041A43437D1B0443EA03
:105380000463847D43EA0423C47D2343047E45EA09
:105390000464857E44EA0524C57E45EA0408457F09
:1053A000047F2D0445EA0464857F44EA0524C57F13
:1053B00090F8200045EA04093478357A240444EA58
:1053C0000060747840EA0424B0782D0440EA040AAE
:1053D0003479F078240444EA0060747940EA0424C3
:1053E000B07940EA040BF47945EA0465747AB07A3E
:1053F00000F096FE0595357BF47AB07B00F08CFECC
:10540000747B00F08DFE0495357CF47BB07C00F05D
:1054100083FE747C00F084FE0395357DF47CB07DC2
:1054200000F07AFE747D00F07BFE0295357EF47DFF
:1054300000F072FE747EB07E00F072FE0195357F42
:10544000F47EB07F00F068FE747F00F069FE0B957B
:105450001298846811941298C068109007461298A8
:1054600000690F9005461298D0F814E01298CDF814
:1054700038E08669DFF89C0C0D968EEA050C06EB89
:10548000F4660CEA070C8CEA0E0CCDF800E0DDF8AF
:1054900028E066444FEAB70C85EA0C078E192740CE
:1054A00086196F4007EBF667BE44009F864400955F
:1054B000089DBE448CEAB407374087EA0C0707EB27
:1054C000FE674FEAB606ED19009F4519CDF800C0FA
:1054D000DDF818C0ED1986EAB40707EA0E0797EA67
:1054E000B40707EBF567BC44009F8444BC4486EADC
:1054F000BE072F40774007EBFC674FEAB505D71989
:10550000C71917EBB40485EABE0707EA0C0787EA58
:10551000BE0707EBF467DF19C719BE1985EABC0798
:1055200027406F4007EBF6674FEAB4044744C719BA
:1055300007EBBE0E84EABC0737404FEAB60687EA9F
:10554000BC07009607EBFE674F44C7197D1984EA34
:10555000060707EA0E07674007EBF5674FEABE0E3E
:105560005744C71907EBBC0C86EA0E072F4077405B
:1055700007EBFC674FEAB505059E5F44C7193C1968
:105580008EEA050707EA0C0787EA0E0707EBF467C0
:105590004FEABC0CF619009F8619F61985EA0C072C
:1055A0002740CDF800E06F4007EBF667DDF810E02C
:1055B0004FEAB404BE44009F86440095039DBE4458
:1055C0008CEA0407374087EA0C0707EBFE674FEACF
:1055D000B606ED19009F4519CDF800C0DDF808C0EA
:1055E000ED1984EA060707EA0E07674007EBF5673F
:1055F000BC44009F84440094019CBC4486EABE07DE
:105600002F40774007EBFC674FEAB505E419009F90
:10561000041900960B9EE41985EABE0707EA0C07F9
:1056200087EABE0707EBF467F619009F8619F6199B
:105630004FEABC070997029F8AEA070C089F87EA8E
:105640000C0779404FEAF1710091099F6F402740A4
:105650006F4007EBF667CF19C7194FEAB40107EBA4
:10566000BE0E019C069F8BEA040467400A9C6740BB
:105670004FEAF7740A94099F87EA010434406740AF
:105680000A9C07EBFE672744C7197D194FEAB60449
:105690000B9E059F7E4082EA0607089E77404FEAF0
:1056A000F77681EA040707EA0E074F40089607EBF2
:1056B000F567DDF820C0099E6744C719DDF810C002
:1056C000BE19009F8CEA0707DDF818C05F408CEA1E
:1056D00007074FEAF777069784EABE07DDF818C098
:1056E0002F40674007EBF6676744C71979184FEA00
:1056F000B5000A9F039D6F4088EA07077A4080EA59
:1057000006074FEAF2724FEAB60C0C9287EABE0720
:10571000089E0C9DDFF8BC2B07EBF167EF19D7193A
:10572000029D3C19069F6E4089EA060673408CEA8A
:1057300001064640019D06EBF46616EBF3766F40DA
:105740008AEA070788EA07080C9F96190B9D06EB63
:10575000BE0E84EAB1066F408BEA070789EA0709A3
:10576000009F8CEA0606059D06EBFE6697EAF37736
:1057700006EBF876961930188EEAB4066F408AEA7E
:10578000070A0A9F96EAB106049D87EAF87706EBB6
:10579000F06606EBF9766F408BEA07059619B4447C
:1057A00080EABE064FEABC0B8CEAB00796EAB40664
:1057B00087EABE0706EBFC6606EBFA76961916EB4F
:1057C000B1014FEAF5760796089D07EBF16785EA88
:1057D000F975F719D719039E17EBB4046E40059DB0
:1057E00075408BEA010696EAB0064FEAF577059711
:1057F000069D06EBF4664FEAB40C85EAFA75BE190D
:10580000961906EBBE0E029E6E40049D75404FEA4F
:10581000F57784EAB10604970C9C039D8BEA060693
:1058200006EBFE66BE19961916EBB000079F019EA7
:10583000674077408CEA0E0696EAB1066F404FEA61
:10584000F77706EBF0660397059C029DBE19961943
:10585000B34494EAF3740B9E74406C4080EABE0635
:105860004FEAF4770297049C8CEA060606EBFB6687
:10587000BE19961916EBB10184EAF874009E019DD9
:1058800074408BEAB00686EABE066C404FEAF477B5
:1058900006EBF16601970A9D0B9CBE199619B4445C
:1058A000039E089F86EAF9766E40664081EABB0552
:1058B0004FEAF674009E95EAB00505EBFC656519A4
:1058C000551905EBBE0E029D85EAFA757D407540BF
:1058D0008CEAB1074FEAF57600964FEABC0587EAF5
:1058E000BB0707EBFE67F719D71917EBB000019F4D
:1058F000079E7740069E77400A9E77404FEAF776EC
:1059000085EA0E0797EAB10707EBF067F719D71991
:1059100007EBBB0B059F87EA040C0C9F87EA0C0C76
:10592000089F87EA0C0C4FEAFC7780EABE0C0897C8
:1059300085EA0C0C0CEBFB6CBC4494440CEBB10101
:10594000DDF800C0049F87EA0C0787EAF37C069F16
:1059500087EA0C0C4FEAFC7706978BEAB00C4FEA0B
:10596000BB0BCDF824B0DDF830B08CEABE0C0CEBEC
:10597000F16CBC449444039F6544774087EAF87710
:105980008BEA07074FEAF77B099F4F4097EAB0077A
:1059900007EBF56C089FDC4494440CEBBE0EDDF87D
:1059A00008C08CEA0707DDF824C087EAF97797EA90
:1059B000F37385EAB1078CEA07074FEAB50C07EBEA
:1059C000FE67019D17EBF377D71917EBB000069F21
:1059D0006F4087EAFA7787EAF8774FEAF7750B9511
:1059E0008CEA0E0595EAB1050B9FDDF8248005EBE6
:1059F000F0657D195519A84484EA0B07079D6F408F
:105A000087EAF9774FEAF77580EABE070A958CEACC
:105A1000070707EBF867EF19D219009F12EBB101E6
:105A200008EAB005059A97EAF37741EAB8095740C2
:105A3000DFF8A42887EAFA7A48EAB00709EAB00949
:105A400007EABE074FEAFA7ACDF824A03D4305EBFA
:105A5000F16555445519AC440B9D86EA0507049D34
:105A60007D40079F7D404FEAF57701EAB80507972B
:105A700049EA05054CEAB10905EBFC6509EAB809F4
:105A80007D19551905EBBE0E0A9F089D6F40039DB9
:105A90006F40059D6F404FEAF7770CEAB105059717
:105AA00049EA05054FEABC0905EBFE6549EA0E0A1D
:105AB0000AEAB10A7D19551915EBB000099F069D38
:105AC00040EABE0C6F40029D6F40049D0CEA090C39
:105AD0006F4009EA0E054AEA05054FEAF77705EB3C
