:020000040800F2
:1000000088CC0020FDA3050809A305080BA305085B
:100010000DA305080FA3050811A3050800000000A3
:10002000000000000000000000000000A90A050810
:1000300013A30508000000004D0A050815A30508D4
:10004000F1A40508F5A40508F9A40508FDA4050810
:1000500001A5050805A5050809A505080DA50508BC
:1000600011A5050815A5050819A505081DA505086C
:1000700021A5050825A5050829A505082DA505081C
:1000800031A5050835A5050839A505083DA50508CC
:1000900041A5050845A5050849A505084DA505087C
:1000A00051A5050855A5050859A505085DA505082C
:1000B00061A5050865A5050869A505086DA50508DC
:1000C00071A5050875A5050879A505087DA505088C
:1000D00081A5050885A5050889A505088DA505083C
:1000E00091A5050895A5050899A505089DA50508EC
:1000F000A1A50508A5A50508A9A50508ADA505089C
:10010000B1A50508B5A50508B9A50508BDA505084B
:10011000C1A50508C5A505087F1B0508C9A50508D3
:10012000CDA50508D1A50508D5A50508D9A50508BB
:10013000DDA5050819A30508E1A50508E5A505083D
:10014000E9A50508EDA50508F1A50508F5A505082B
:10015000F9A50508FDA5050801A6050805A60508D9
:1001600009A605080DA6050811A6050815A6050887
:1001700019A605081DA6050821A60508000000000F
:1001800025A6050829A605082DA6050831A60508F7
:1001900035A6050839A605083DA6050841A60508A7
:1001A00045A6050849A605084DA6050851A6050857
:1001B00055A6050859A605085DA6050861A6050807
:1001C00065A6050869A60508000000006DA60508DB
:1001D00071A6050875A6050879A605087DA6050877
:1001E00081A6050885A6050889A605088DA6050827
:1001F00091A6050895A605082F626F6F7473747237
:1002000061702F626F6F7473747261702E63737399
:1002100000406368617273657420225554462D381E
:10022000223B2F2A210A202A20426F6F7473747296
:1002300061702076352E302E302D6265746132204B
:100240002868747470733A2F2F676574626F6F74C7
:1002500073747261702E636F6D2F290A202A2043F8
:100260006F7079726967687420323031312D3230A5
:1002700032312054686520426F6F747374726170FC
:1002800020417574686F72730A202A20436F707959
:10029000726967687420323031312D32303231204A
:1002A000547769747465722C20496E632E0A202A73
:1002B000204C6963656E73656420756E6465722099
:1002C0004D4954202868747470733A2F2F676974ED
:1002D0006875622E636F6D2F747762732F626F6F14
:1002E0007473747261702F626C6F622F6D61696ECE
:1002F0002F4C4943454E5345290A202A2F3A726F05
:100300006F747B2D2D62732D626C75653A2330649A
:10031000366566643B2D2D62732D696E6469676F67
:100320003A233636313066323B2D2D62732D70758F
:1003300072706C653A233666343263313B2D2D6220
:10034000732D70696E6B3A236436333338343B2D2A
:100350002D62732D7265643A236463333534353B03
:100360002D2D62732D6F72616E67653A2366643757
:100370006531343B2D2D62732D79656C6C6F773A46
:10038000236666633130373B2D2D62732D677265AE
:10039000656E3A233139383735343B2D2D62732D54
:1003A0007465616C3A233230633939373B2D2D62E5
:1003B000732D6379616E3A233064636166303B2D3F
:1003C0002D62732D77686974653A236666663B2DE6
:1003D0002D62732D677261793A233663373537643E
:1003E0003B2D2D62732D677261792D6461726B3ABA
:1003F000233334336134303B2D2D62732D70726999
:100400006D6172793A233064366566643B2D2D62E6
:10041000732D7365636F6E646172793A2336633747
:100420003537643B2D2D62732D737563636573736C
:100430003A233139383735343B2D2D62732D696EAF
:10044000666F3A233064636166303B2D2D62732DF5
:100450007761726E696E673A236666633130373B47
:100460002D2D62732D64616E6765723A2364633368
:100470003534353B2D2D62732D6C696768743A23D2
:100480006638663966613B2D2D62732D6461726B2F
:100490003A233231323532393B2D2D62732D666F5E
:1004A0006E742D73616E732D73657269663A73791C
:1004B0007374656D2D75692C2D6170706C652D736D
:1004C000797374656D2C225365676F6520554922D9
:1004D0002C526F626F746F2C2248656C766574695C
:1004E0006361204E657565222C417269616C2C2216
:1004F0004E6F746F2053616E73222C224C696265BB
:10050000726174696F6E2053616E73222C73616E19
:10051000732D73657269662C224170706C6520437F
:100520006F6C6F7220456D6F6A69222C225365676C
:100530006F6520554920456D6F6A69222C225365ED
:10054000676F652055492053796D626F6C222C22AC
:100550004E6F746F20436F6C6F7220456D6F6A69C8
:10056000223B2D2D62732D666F6E742D6D6F6E6F35
:1005700073706163653A53464D6F6E6F2D526567B8
:10058000756C61722C4D656E6C6F2C4D6F6E616376
:100590006F2C436F6E736F6C61732C224C696265B4
:1005A000726174696F6E204D6F6E6F222C22436FE3
:1005B0007572696572204E6577222C6D6F6E6F7350
:1005C000706163653B2D2D62732D6772616469658F
:1005D0006E743A6C696E6561722D677261646965EB
:1005E0006E74283138306465672C20726762612828
:1005F0003235352C203235352C203235352C203013
:100600002E3135292C2072676261283235352C2035
:100610003235352C203235352C203029297D2A2CB5
:100620003A3A61667465722C3A3A6265666F726531
:100630007B626F782D73697A696E673A626F726454
:1006400065722D626F787D406D65646961202870E8
:100650007265666572732D726564756365642D6D70
:100660006F74696F6E3A6E6F2D7072656665726534
:100670006E6365297B3A726F6F747B7363726F6C04
:100680006C2D6265686176696F723A736D6F6F7415
:10069000687D7D626F64797B6D617267696E3A30E7
:1006A0003B666F6E742D66616D696C793A76617226
:1006B000282D2D62732D666F6E742D73616E732DF0
:1006C0007365726966293B666F6E742D73697A650E
:1006D0003A3172656D3B666F6E742D776569676838
:1006E000743A3430303B6C696E652D6865696768B3
:1006F000743A312E353B636F6C6F723A233231326C
:100700003532393B6261636B67726F756E642D635E
:100710006F6C6F723A236666663B2D7765626B6914
:10072000742D746578742D73697A652D61646A75AA
:1007300073743A313030253B2D7765626B69742DC7
:100740007461702D686967686C696768742D636F80
:100750006C6F723A7472616E73706172656E747DE3
:100760005B746162696E6465783D222D31225D3A69
:10077000666F6375733A6E6F74283A666F6375734C
:100780002D76697369626C65297B6F75746C696E0F
:10079000653A3021696D706F7274616E747D687234
:1007A0007B6D617267696E3A3172656D20303B63B3
:1007B0006F6C6F723A696E68657269743B626163EF
:1007C0006B67726F756E642D636F6C6F723A6375D1
:1007D0007272656E74436F6C6F723B626F726465A8
:1007E000723A303B6F7061636974793A2E32357DAD
:1007F00068723A6E6F74285B73697A655D297B68ED
:1008000065696768743A3170787D2E68312C2E687E
:10081000322C2E68332C2E68342C2E68352C2E6802
:10082000362C68312C68322C68332C68342C6835AF
:100830002C68367B6D617267696E2D746F703A300B
:100840003B6D617267696E2D626F74746F6D3A2EC5
:100850003572656D3B666F6E742D77656967687478
:100860003A3530303B6C696E652D68656967687430
:100870003A312E327D2E68312C68317B666F6E7472
:100880002D73697A653A63616C6328312E3337358D
:1008900072656D202B20312E357677297D406D6570
:1008A00064696120286D696E2D77696474683A31D6
:1008B0003230307078297B2E68312C68317B666F3E
:1008C0006E742D73697A653A322E3572656D7D7D51
:1008D0002E68322C68327B666F6E742D73697A6570
:1008E0003A63616C6328312E33323572656D202B8B
:1008F000202E397677297D406D6564696120286DE9
:10090000696E2D77696474683A31323030707829B5
:100910007B2E68322C68327B666F6E742D73697A19
:10092000653A3272656D7D7D2E68332C68337B6647
:100930006F6E742D73697A653A63616C6328312E2A
:100940003372656D202B202E367677297D406D65BC
:1009500064696120286D696E2D77696474683A3125
:100960003230307078297B2E68332C68337B666F89
:100970006E742D73697A653A312E373572656D7DE7
:100980007D2E68342C68347B666F6E742D73697AA3
:10099000653A63616C6328312E32373572656D209C
:1009A0002B202E337677297D406D65646961202880
:1009B0006D696E2D77696474683A313230307078C1
:1009C000297B2E68342C68347B666F6E742D7369B6
:1009D0007A653A312E3572656D7D7D2E68352C68CD
:1009E000357B666F6E742D73697A653A312E3235B8
:1009F00072656D7D2E68362C68367B666F6E742D41
:100A000073697A653A3172656D7D707B6D6172676D
:100A1000696E2D746F703A303B6D617267696E2D2F
:100A2000626F74746F6D3A3172656D7D616262726E
:100A30005B646174612D62732D6F726967696E61A9
:100A40006C2D7469746C655D2C616262725B746993
:100A5000746C655D7B746578742D6465636F726119
:100A600074696F6E3A756E6465726C696E653B2D64
:100A70007765626B69742D746578742D6465636F36
:100A8000726174696F6E3A756E6465726C696E65D9
:100A900020646F747465643B746578742D64656359
:100AA0006F726174696F6E3A756E6465726C696EAF
:100AB0006520646F747465643B637572736F723A1A
:100AC00068656C703B2D7765626B69742D74657811
:100AD000742D6465636F726174696F6E2D736B69D9
:100AE000702D696E6B3A6E6F6E653B746578742D10
:100AF0006465636F726174696F6E2D736B69702DBD
:100B0000696E6B3A6E6F6E657D6164647265737356
:100B10007B6D617267696E2D626F74746F6D3A31AF
:100B200072656D3B666F6E742D7374796C653A6E89
:100B30006F726D616C3B6C696E652D686569676885
:100B4000743A696E68657269747D6F6C2C756C7B24
:100B500070616464696E672D6C6566743A327265A3
:100B60006D7D646C2C6F6C2C756C7B6D617267692C
:100B70006E2D746F703A303B6D617267696E2D62D5
:100B80006F74746F6D3A3172656D7D6F6C206F6C30
:100B90002C6F6C20756C2C756C206F6C2C756C2018
:100BA000756C7B6D617267696E2D626F74746F6DA9
:100BB0003A307D64747B666F6E742D776569676803
:100BC000743A3730307D64647B6D617267696E2D75
:100BD000626F74746F6D3A2E3572656D3B6D617224
:100BE00067696E2D6C6566743A307D626C6F636BFD
:100BF00071756F74657B6D617267696E3A30203014
:100C0000203172656D7D622C7374726F6E677B66C6
:100C10006F6E742D7765696768743A626F6C64658E
:100C2000727D2E736D616C6C2C736D616C6C7B6668
:100C30006F6E742D73697A653A2E383735656D7D20
:100C40002E6D61726B2C6D61726B7B706164646977
:100C50006E673A2E32656D3B6261636B67726F75CA
:100C60006E642D636F6C6F723A236663663865330A
:100C70007D7375622C7375707B706F736974696FA7
:100C80006E3A72656C61746976653B666F6E742D41
:100C900073697A653A2E3735656D3B6C696E652DE3
:100CA0006865696768743A303B7665727469636138
:100CB0006C2D616C69676E3A626173656C696E6513
:100CC0007D7375627B626F74746F6D3A2D2E323551
:100CD000656D7D7375707B746F703A2D2E35656D03
:100CE0007D617B636F6C6F723A2330643665666436
:100CF0003B746578742D6465636F726174696F6E9F
:100D00003A756E6465726C696E657D613A686F767E
:100D100065727B636F6C6F723A2330613538636143
:100D20007D613A6E6F74285B687265665D293A6E04
:100D30006F74285B636C6173735D292C613A6E6F0D
:100D400074285B687265665D293A6E6F74285B6310
:100D50006C6173735D293A686F7665727B636F6C43
:100D60006F723A696E68657269743B746578742D48
:100D70006465636F726174696F6E3A6E6F6E657DE4
:100D8000636F64652C6B62642C7072652C73616D8B
:100D9000707B666F6E742D66616D696C793A7661F1
:100DA00072282D2D62732D666F6E742D6D6F6E6FB0
:100DB0007370616365293B666F6E742D73697A6524
:100DC0003A31656D3B646972656374696F6E3A6C44
:100DD00074723B756E69636F64652D626964693A0C
:100DE000626964692D6F766572726964657D70727F
:100DF000657B646973706C61793A626C6F636B3B9D
:100E00006D617267696E2D746F703A303B6D6172FF
:100E100067696E2D626F74746F6D3A3172656D3BE8
:100E20006F766572666C6F773A6175746F3B666F4B
:100E30006E742D73697A653A2E383735656D7D701D
:100E4000726520636F64657B666F6E742D73697A5B
:100E5000653A696E68657269743B636F6C6F723A6C
:100E6000696E68657269743B776F72642D62726532
:100E7000616B3A6E6F726D616C7D636F64657B66EA
:100E80006F6E742D73697A653A2E383735656D3B10
:100E9000636F6C6F723A236436333338343B776F49
:100EA00072642D777261703A627265616B2D776F33
:100EB00072647D613E636F64657B636F6C6F723AD1
:100EC000696E68657269747D6B62647B706164646D
:100ED000696E673A2E3272656D202E3472656D3BF5
:100EE000666F6E742D73697A653A2E383735656D85
:100EF0003B636F6C6F723A236666663B6261636B3D
:100F000067726F756E642D636F6C6F723A23323146
:100F1000323532393B626F726465722D7261646979
:100F200075733A2E3272656D7D6B6264206B6264FC
:100F30007B70616464696E673A303B666F6E742DD6
:100F400073697A653A31656D3B666F6E742D7765AE
:100F5000696768743A3730307D6669677572657B9A
:100F60006D617267696E3A302030203172656D7D37
:100F7000696D672C7376677B766572746963616CE3
:100F80002D616C69676E3A6D6964646C657D74612E
:100F9000626C657B63617074696F6E2D73696465E3
:100FA0003A626F74746F6D3B626F726465722D6329
:100FB0006F6C6C617073653A636F6C6C61707365B4
:100FC0007D63617074696F6E7B70616464696E6764
:100FD0002D746F703A2E3572656D3B706164646973
:100FE0006E672D626F74746F6D3A2E3572656D3B4E
:100FF000636F6C6F723A233663373537643B7465C1
:1010000078742D616C69676E3A6C6566747D74687E
:101010007B746578742D616C69676E3A696E68657A
:101020007269743B746578742D616C69676E3A2DD2
:101030007765626B69742D6D617463682D70617280
:10104000656E747D74626F64792C74642C74666F41
:101050006F742C74682C74686561642C74727B6284
:101060006F726465722D636F6C6F723A696E68653A
:101070007269743B626F726465722D7374796C650A
:101080003A736F6C69643B626F726465722D776945
:101090006474683A307D6C6162656C7B64697370FE
:1010A0006C61793A696E6C696E652D626C6F636B09
:1010B0007D627574746F6E7B626F726465722D727F
:1010C00061646975733A307D627574746F6E3A66E7
:1010D0006F6375733A6E6F74283A666F6375732D1C
:1010E00076697369626C65297B6F75746C696E656E
:1010F0003A307D627574746F6E2C696E7075742CE5
:101100006F707467726F75702C73656C6563742C87
:1011100074657874617265617B6D617267696E3A3E
:10112000303B666F6E742D66616D696C793A696EDD
:1011300068657269743B666F6E742D73697A653A7F
:10114000696E68657269743B6C696E652D68656966
:101150006768743A696E68657269747D62757474E3
:101160006F6E2C73656C6563747B746578742D7415
:1011700072616E73666F726D3A6E6F6E657D5B72D3
:101180006F6C653D627574746F6E5D7B63757273B1
:101190006F723A706F696E7465727D73656C6563AA
:1011A000747B776F72642D777261703A6E6F726DB7
:1011B000616C7D5B6C6973745D3A3A2D7765626B27
:1011C00069742D63616C656E6461722D7069636B07
:1011D00065722D696E64696361746F727B64697393
:1011E000706C61793A6E6F6E657D5B747970653D88
:1011F000627574746F6E5D2C5B747970653D726599
:101200007365745D2C5B747970653D7375626D698F
:10121000745D2C627574746F6E7B2D7765626B697B
:10122000742D617070656172616E63653A62757488
:10123000746F6E7D5B747970653D627574746F6EEA
:101240005D3A6E6F74283A64697361626C656429F3
:101250002C5B747970653D72657365745D3A6E6F71
:1012600074283A64697361626C6564292C5B7479D3
:1012700070653D7375626D69745D3A6E6F74283A7E
:1012800064697361626C6564292C627574746F6E35
:101290003A6E6F74283A64697361626C6564297B85
:1012A000637572736F723A706F696E7465727D3AAE
:1012B0003A2D6D6F7A2D666F6375732D696E6E654D
:1012C000727B70616464696E673A303B626F72640E
:1012D00065722D7374796C653A6E6F6E657D746599
:1012E0007874617265617B726573697A653A766557
:1012F00072746963616C7D6669656C647365747B27
:101300006D696E2D77696474683A303B706164640E
:10131000696E673A303B6D617267696E3A303B6265
:101320006F726465723A307D6C6567656E647B666A
:101330006C6F61743A6C6566743B77696474683A83
:10134000313030253B70616464696E673A303B6DC3
:10135000617267696E2D626F74746F6D3A2E3572AB
:10136000656D3B666F6E742D73697A653A63616C67
:101370006328312E32373572656D202B202E33765F
:1013800077293B6C696E652D6865696768743A6991
:101390006E68657269747D406D6564696120286D51
:1013A000696E2D77696474683A313230307078290B
:1013B0007B6C6567656E647B666F6E742D73697A8E
:1013C000653A312E3572656D7D7D6C6567656E643D
:1013D0002B2A7B636C6561723A6C6566747D3A3A60
:1013E0002D7765626B69742D6461746574696D65D0
:1013F0002D656469742D6461792D6669656C642C52
:101400003A3A2D7765626B69742D6461746574690D
:101410006D652D656469742D6669656C64732D77DF
:101420007261707065722C3A3A2D7765626B6974DF
:101430002D6461746574696D652D656469742D68CA
:101440006F75722D6669656C642C3A3A2D7765620A
:101450006B69742D6461746574696D652D6564696B
:10146000742D6D696E7574652C3A3A2D7765626BD3
:1014700069742D6461746574696D652D6564697442
:101480002D6D6F6E74682D6669656C642C3A3A2D0B
:101490007765626B69742D6461746574696D652D1F
:1014A000656469742D746578742C3A3A2D77656299
:1014B0006B69742D6461746574696D652D6564690B
:1014C000742D796561722D6669656C647B706164E9
:1014D00064696E673A307D3A3A2D7765626B69745C
:1014E0002D696E6E65722D7370696E2D62757474E0
:1014F0006F6E7B6865696768743A6175746F7D5B50
:10150000747970653D7365617263685D7B6F757436
:101510006C696E652D6F66667365743A2D327078EE
:101520003B2D7765626B69742D61707065617261C6
:101530006E63653A746578746669656C647D3A3A81
:101540002D7765626B69742D7365617263682D64B4
:1015500065636F726174696F6E7B2D7765626B690D
:10156000742D617070656172616E63653A6E6F6E45
:10157000657D3A3A2D7765626B69742D636F6C6F88
:10158000722D7377617463682D7772617070657204
:101590007B70616464696E673A307D3A3A66696C63
:1015A000652D73656C6563746F722D627574746FED
:1015B0006E7B666F6E743A696E68657269747D3AA7
:1015C0003A2D7765626B69742D66696C652D75704F
:1015D0006C6F61642D627574746F6E7B666F6E7470
:1015E0003A696E68657269743B2D7765626B6974E0
:1015F0002D617070656172616E63653A62757474B5
:101600006F6E7D6F75747075747B646973706C61D7
:10161000793A696E6C696E652D626C6F636B7D697A
:101620006672616D657B626F726465723A307D735C
:10163000756D6D6172797B646973706C61793A6CF8
:101640006973742D6974656D3B637572736F723A5B
:10165000706F696E7465727D70726F677265737397
:101660007B766572746963616C2D616C69676E3A33
:10167000626173656C696E657D5B68696464656EE3
:101680005D7B646973706C61793A6E6F6E65216918
:101690006D706F7274616E747D2E6C6561647B66B3
:1016A0006F6E742D73697A653A312E323572656DBD
:1016B0003B666F6E742D7765696768743A333030B6
:1016C0007D2E646973706C61792D317B666F6E74E9
:1016D0002D73697A653A63616C6328312E36323531
:1016E00072656D202B20342E357677293B666F6E20
:1016F000742D7765696768743A3330303B6C696E76
:10170000652D6865696768743A312E327D406D6574
:1017100064696120286D696E2D77696474683A3157
:101720003230307078297B2E646973706C61792D4A
:10173000317B666F6E742D73697A653A3572656DAB
:101740007D7D2E646973706C61792D327B666F6E5E
:10175000742D73697A653A63616C6328312E35376D
:101760003572656D202B20332E397677293B666FD5
:101770006E742D7765696768743A3330303B6C69F5
:101780006E652D6865696768743A312E327D406DEB
:101790006564696120286D696E2D77696474683AA3
:1017A000313230307078297B2E646973706C6179C6
:1017B0002D327B666F6E742D73697A653A342E35DF
:1017C00072656D7D7D2E646973706C61792D337BDC
:1017D000666F6E742D73697A653A63616C63283144
:1017E0002E35323572656D202B20332E33767729D6
:1017F0003B666F6E742D7765696768743A33303075
:101800003B6C696E652D6865696768743A312E3284
:101810007D406D6564696120286D696E2D7769640E
:1018200074683A313230307078297B2E6469737075
:101830006C61792D337B666F6E742D73697A653AAE
:101840003472656D7D7D2E646973706C61792D34A1
:101850007B666F6E742D73697A653A63616C632879
:10186000312E34373572656D202B20322E37767746
:10187000293B666F6E742D7765696768743A3330FB
:10188000303B6C696E652D6865696768743A312E06
:10189000327D406D6564696120286D696E2D7769C0
:1018A0006474683A313230307078297B2E64697301
:1018B000706C61792D347B666F6E742D73697A65F7
:1018C0003A332E3572656D7D7D2E646973706C615F
:1018D000792D357B666F6E742D73697A653A636115
:1018E0006C6328312E34323572656D202B20322EF8
:1018F000317677293B666F6E742D776569676874FA
:101900003A3330303B6C696E652D68656967687481
:101910003A312E327D406D6564696120286D696EB3
:101920002D77696474683A313230307078297B2EB3
:10193000646973706C61792D357B666F6E742D737D
:10194000697A653A3372656D7D7D2E646973706C5A
:1019500061792D367B666F6E742D73697A653A6393
:10196000616C6328312E33373572656D202B203141
:101970002E357677293B666F6E742D7765696768BB
:10198000743A3330303B6C696E652D686569676801
:10199000743A312E327D406D6564696120286D692D
:1019A0006E2D77696474683A313230307078297BF3
:1019B0002E646973706C61792D367B666F6E742D41
:1019C00073697A653A322E3572656D7D7D2E6C694C
:1019D00073742D756E7374796C65647B7061646467
:1019E000696E672D6C6566743A303B6C6973742D53
:1019F0007374796C653A6E6F6E657D2E6C69737465
:101A00002D696E6C696E657B70616464696E672DAB
:101A10006C6566743A303B6C6973742D7374796CC1
:101A2000653A6E6F6E657D2E6C6973742D696E6C90
:101A3000696E652D6974656D7B646973706C61791D
:101A40003A696E6C696E652D626C6F636B7D2E6C8E
:101A50006973742D696E6C696E652D6974656D3A74
:101A60006E6F74283A6C6173742D6368696C6429B5
:101A70007B6D617267696E2D72696768743A2E3585
:101A800072656D7D2E696E697469616C69736D7BB9
:101A9000666F6E742D73697A653A2E383735656DC9
:101AA0003B746578742D7472616E73666F726D3AF3
:101AB0007570706572636173657D2E626C6F636BA8
:101AC00071756F74657B6D617267696E2D626F747D
:101AD000746F6D3A3172656D3B666F6E742D73690C
:101AE0007A653A312E323572656D7D2E626C6F6388
:101AF0006B71756F74653E3A6C6173742D636869C0
:101B00006C647B6D617267696E2D626F74746F6D4A
:101B10003A307D2E626C6F636B71756F74652D66E4
:101B20006F6F7465727B6D617267696E2D746F7013
:101B30003A2D3172656D3B6D617267696E2D626F12
:101B400074746F6D3A3172656D3B666F6E742D7390
:101B5000697A653A2E383735656D3B636F6C6F7205
:101B60003A233663373537647D2E626C6F636B7151
:101B7000756F74652D666F6F7465723A3A6265664B
:101B80006F72657B636F6E74656E743A22E2809447
:101B9000C2A0227D2E696D672D666C7569647B6DB0
:101BA00061782D77696474683A313030253B686517
:101BB000696768743A6175746F7D2E696D672D74FD
:101BC00068756D626E61696C7B70616464696E6773
:101BD0003A2E323572656D3B6261636B67726F7569
:101BE0006E642D636F6C6F723A236666663B626F3C
:101BF000726465723A31707820736F6C6964202367
:101C00006465653265363B626F726465722D726120
:101C1000646975733A2E323572656D3B6D61782D4E
:101C200077696474683A313030253B686569676864
:101C3000743A6175746F7D2E6669677572657B6431
:101C40006973706C61793A696E6C696E652D626C4E
:101C50006F636B7D2E6669677572652D696D677B35
:101C60006D617267696E2D626F74746F6D3A2E3597
:101C700072656D3B6C696E652D6865696768743A5D
:101C8000317D2E6669677572652D63617074696F49
:101C90006E7B666F6E742D73697A653A2E383735B0
:101CA000656D3B636F6C6F723A233663373537640B
:101CB0007D2E636F6E7461696E65722C2E636F6E1C
:101CC0007461696E65722D666C7569642C2E636F24
:101CD0006E7461696E65722D6C672C2E636F6E7405
:101CE00061696E65722D6D642C2E636F6E7461690F
:101CF0006E65722D736D2C2E636F6E7461696E65E7
:101D0000722D786C2C2E636F6E7461696E65722D06
:101D100078786C7B77696474683A313030253B7031
:101D2000616464696E672D72696768743A7661727E
:101D3000282D2D62732D6775747465722D782C2E85
:101D4000373572656D293B70616464696E672D6C0F
:101D50006566743A766172282D2D62732D677574ED
:101D60007465722D782C2E373572656D293B6D6147
:101D70007267696E2D72696768743A6175746F3B3A
:101D80006D617267696E2D6C6566743A6175746F0A
:101D90007D406D6564696120286D696E2D77696489
:101DA00074683A3537367078297B2E636F6E7461AC
:101DB000696E65722C2E636F6E7461696E65722D2B
:101DC000736D7B6D61782D77696474683A35343052
:101DD00070787D7D406D6564696120286D696E2D28
:101DE00077696474683A3736387078297B2E636F68
:101DF0006E7461696E65722C2E636F6E7461696EAC
:101E000065722D6D642C2E636F6E7461696E6572E0
:101E10002D736D7B6D61782D77696474683A373204
:101E20003070787D7D406D6564696120286D696ED4
:101E30002D77696474683A3939327078297B2E635A
:101E40006F6E7461696E65722C2E636F6E7461695A
:101E50006E65722D6C672C2E636F6E7461696E6592
:101E6000722D6D642C2E636F6E7461696E65722DB8
:101E7000736D7B6D61782D77696474683A3936309B
:101E800070787D7D406D6564696120286D696E2D77
:101E900077696474683A313230307078297B2E6308
:101EA0006F6E7461696E65722C2E636F6E746169FA
:101EB0006E65722D6C672C2E636F6E7461696E6532
:101EC000722D6D642C2E636F6E7461696E65722D58
:101ED000736D2C2E636F6E7461696E65722D786CF4
:101EE0007B6D61782D77696474683A313134307074
:101EF000787D7D406D6564696120286D696E2D7700
:101F0000696474683A313430307078297B2E636F9D
:101F10006E7461696E65722C2E636F6E7461696E8A
:101F200065722D6C672C2E636F6E7461696E6572BD
:101F30002D6D642C2E636F6E7461696E65722D73E6
:101F40006D2C2E636F6E7461696E65722D786C2CCA
:101F50002E636F6E7461696E65722D78786C7B6D1F
:101F600061782D77696474683A3133323070787DE6
:101F70007D2E726F777B2D2D62732D67757474655E
:101F8000722D783A312E3572656D3B2D2D62732D91
:101F90006775747465722D793A303B646973706C3F
:101FA00061793A666C65783B666C65782D7772610D
:101FB000703A777261703B6D617267696E2D746FF4
:101FC000703A63616C6328766172282D2D62732DDF
:101FD0006775747465722D7929202A202D31293B6B
:101FE0006D617267696E2D72696768743A63616CBE
:101FF0006328766172282D2D62732D677574746560
:10200000722D78292F202D32293B6D617267696E00
:102010002D6C6566743A63616C6328766172282D55
:102020002D62732D6775747465722D78292F202D9C
:1020300032297D2E726F773E2A7B666C65782D7310
:102040006872696E6B3A303B77696474683A313014
:1020500030253B6D61782D77696474683A31303092
:10206000253B70616464696E672D72696768743AB4
:1020700063616C6328766172282D2D62732D6775FC
:10208000747465722D78292F2032293B7061646445
:10209000696E672D6C6566743A63616C632876615E
:1020A00072282D2D62732D6775747465722D7829D1
:1020B0002F2032293B6D617267696E2D746F703A03
:1020C000766172282D2D62732D6775747465722D7B
:1020D00079297D2E636F6C7B666C65783A31203090
:1020E0002030257D2E726F772D636F6C732D617597
:1020F000746F3E2A7B666C65783A302030206175BB
:10210000746F3B77696474683A6175746F7D2E7281
:102110006F772D636F6C732D313E2A7B666C65780B
:102120003A302030206175746F3B77696474683A87
:10213000313030257D2E726F772D636F6C732D32A9
:102140003E2A7B666C65783A302030206175746F6A
:102150003B77696474683A3530257D2E726F772D30
:10216000636F6C732D333E2A7B666C65783A302042
:1021700030206175746F3B77696474683A33332E2D
:1021800033333333333333333333257D2E726F7729
:102190002D636F6C732D343E2A7B666C65783A3004
:1021A0002030206175746F3B77696474683A32350A
:1021B000257D2E726F772D636F6C732D353E2A7BD4
:1021C000666C65783A302030206175746F3B7769B2
:1021D0006474683A3230257D2E726F772D636F6C90
:1021E000732D363E2A7B666C65783A30203020614C
:1021F00075746F3B77696474683A31362E363636BB
:1022000036363636363637257D2E636F6C2D617542
:10221000746F7B666C65783A302030206175746F1E
:102220003B77696474683A6175746F7D2E636F6C77
:102230002D317B666C65783A302030206175746F83
:102240003B77696474683A382E333333333333332E
:10225000333333257D2E636F6C2D327B666C65784E
:102260003A302030206175746F3B77696474683A46
:1022700031362E36363636363636363637257D2EDC
:10228000636F6C2D337B666C65783A30203020614B
:1022900075746F3B77696474683A3235257D2E63B7
:1022A0006F6C2D347B666C65783A30203020617518
:1022B000746F3B77696474683A33332E3333333346
:1022C000333333333333257D2E636F6C2D357B668B
:1022D0006C65783A302030206175746F3B776964A3
:1022E00074683A34312E3636363636363636363728
:1022F000257D2E636F6C2D367B666C65783A3020B9
:1023000030206175746F3B77696474683A353025A5
:102310007D2E636F6C2D377B666C65783A3020308C
:10232000206175746F3B77696474683A35382E3371
:10233000333333333333333333257D2E636F6C2D97
:10234000387B666C65783A302030206175746F3B5D
:1023500077696474683A36362E363636363636360F
:10236000363637257D2E636F6C2D397B666C65782C
:102370003A302030206175746F3B77696474683A35
:102380003735257D2E636F6C2D31307B666C65781B
:102390003A302030206175746F3B77696474683A15
:1023A00038332E33333333333333333333257D2EC6
:1023B000636F6C2D31317B666C65783A302030204C
:1023C0006175746F3B77696474683A39312E3636BB
:1023D0003636363636363637257D2E636F6C2D31E0
:1023E000327B666C65783A302030206175746F3BC3
:1023F00077696474683A313030257D2E6F66667374
:1024000065742D317B6D617267696E2D6C656674C4
:102410003A382E33333333333333333333257D2E4E
:102420006F66667365742D327B6D617267696E2DA0
:102430006C6566743A31362E363636363636363672
:102440003637257D2E6F66667365742D337B6D611F
:102450007267696E2D6C6566743A3235257D2E6F14
:1024600066667365742D347B6D617267696E2D6C61
:102470006566743A33332E33333333333333333384
:1024800033257D2E6F66667365742D357B6D6172A5
:1024900067696E2D6C6566743A34312E3636363681
:1024A000363636363637257D2E6F66667365742D63
:1024B000367B6D617267696E2D6C6566743A353076
:1024C000257D2E6F66667365742D377B6D6172672F
:1024D000696E2D6C6566743A35382E333333333379
:1024E0003333333333257D2E6F66667365742D3831
:1024F0007B6D617267696E2D6C6566743A36362E37
:1025000036363636363636363637257D2E6F6666A3
:102510007365742D397B6D617267696E2D6C6566AC
:10252000743A3735257D2E6F66667365742D3130AC
:102530007B6D617267696E2D6C6566743A38332EF7
:1025400033333333333333333333257D2E6F666682
:102550007365742D31317B6D617267696E2D6C65A9
:1025600066743A39312E36363636363636363637A2
:10257000257D2E672D302C2E67782D307B2D2D62FA
:10258000732D6775747465722D783A307D2E672DC2
:10259000302C2E67792D307B2D2D62732D6775744D
:1025A0007465722D793A307D2E672D312C2E677827
:1025B0002D317B2D2D62732D6775747465722D78A6
:1025C0003A302E323572656D7D2E672D312C2E6797
:1025D000792D317B2D2D62732D6775747465722D85
:1025E000793A302E323572656D7D2E672D322C2E64
:1025F00067782D327B2D2D62732D6775747465722B
:102600002D783A302E3572656D7D2E672D322C2E49
:1026100067792D327B2D2D62732D67757474657209
:102620002D793A302E3572656D7D2E672D332C2E27
:1026300067782D337B2D2D62732D677574746572E9
:102640002D783A3172656D7D2E672D332C2E67798A
:102650002D337B2D2D62732D6775747465722D7902
:102660003A3172656D7D2E672D342C2E67782D34AE
:102670007B2D2D62732D6775747465722D783A31D8
:102680002E3572656D7D2E672D342C2E67792D3495
:102690007B2D2D62732D6775747465722D793A31B7
:1026A0002E3572656D7D2E672D352C2E67782D3574
:1026B0007B2D2D62732D6775747465722D783A3396
:1026C00072656D7D2E672D352C2E67792D357B2D0E
:1026D0002D62732D6775747465722D793A33726546
:1026E0006D7D406D6564696120286D696E2D776927
:1026F0006474683A3537367078297B2E636F6C2D99
:10270000736D7B666C65783A3120302030257D2EE4
:10271000726F772D636F6C732D736D2D6175746F90
:102720003E2A7B666C65783A302030206175746F84
:102730003B77696474683A6175746F7D2E726F7748
:102740002D636F6C732D736D2D313E2A7B666C6526
:10275000783A302030206175746F3B776964746813
:102760003A313030257D2E726F772D636F6C732D6B
:10277000736D2D323E2A7B666C65783A30203020AE
:102780006175746F3B77696474683A3530257D2EC6
:10279000726F772D636F6C732D736D2D333E2A7BB3
:1027A000666C65783A302030206175746F3B7769CC
:1027B0006474683A33332E33333333333333333340
:1027C00033257D2E726F772D636F6C732D736D2D96
:1027D000343E2A7B666C65783A302030206175740F
:1027E0006F3B77696474683A3235257D2E726F7756
:1027F0002D636F6C732D736D2D353E2A7B666C6572
:10280000783A302030206175746F3B776964746862
:102810003A3230257D2E726F772D636F6C732D7376
:102820006D2D363E2A7B666C65783A30203020610B
:1028300075746F3B77696474683A31362E36363674
:1028400036363636363637257D2E636F6C2D736DF2
:102850002D6175746F7B666C65783A30203020612D
:1028600075746F3B77696474683A6175746F7D2E17
:10287000636F6C2D736D2D317B666C65783A3020FB
:1028800030206175746F3B77696474683A382E3311
:10289000333333333333333333257D2E636F6C2D32
:1028A000736D2D327B666C65783A3020302061750F
:1028B000746F3B77696474683A31362E3636363633
:1028C000363636363637257D2E636F6C2D736D2D7B
:1028D000337B666C65783A302030206175746F3BCD
:1028E00077696474683A3235257D2E636F6C2D7379
:1028F0006D2D347B666C65783A30203020617574BC
:102900006F3B77696474683A33332E333333333330
:102910003333333333257D2E636F6C2D736D2D353B
:102920007B666C65783A302030206175746F3B7738
:10293000696474683A34312E363636363636363671
:102940003637257D2E636F6C2D736D2D367B666C4F
:1029500065783A302030206175746F3B7769647414
:10296000683A3530257D2E636F6C2D736D2D377B66
:10297000666C65783A302030206175746F3B7769FA
:102980006474683A35382E33333333333333333367
:1029900033257D2E636F6C2D736D2D387B666C65D2
:1029A000783A302030206175746F3B7769647468C1
:1029B0003A36362E36363636363636363637257D84
:1029C0002E636F6C2D736D2D397B666C65783A3094
:1029D0002030206175746F3B77696474683A3735CD
:1029E000257D2E636F6C2D736D2D31307B666C658C
:1029F000783A302030206175746F3B776964746871
:102A00003A38332E33333333333333333333257D53
:102A10002E636F6C2D736D2D31317B666C65783A4A
:102A2000302030206175746F3B77696474683A397F
:102A3000312E36363636363636363637257D2E63E7
:102A40006F6C2D736D2D31327B666C65783A30205A
:102A500030206175746F3B77696474683A31303047
:102A6000257D2E6F66667365742D736D2D307B6DBD
:102A7000617267696E2D6C6566743A307D2E6F6683
:102A8000667365742D736D2D317B6D617267696E30
:102A90002D6C6566743A382E333333333333333326
:102AA0003333257D2E6F66667365742D736D2D32FD
:102AB0007B6D617267696E2D6C6566743A31362E76
:102AC00036363636363636363637257D2E6F6666DE
:102AD0007365742D736D2D337B6D617267696E2D17
:102AE0006C6566743A3235257D2E6F666673657443
:102AF0002D736D2D347B6D617267696E2D6C65660B
:102B0000743A33332E333333333333333333332560
:102B10007D2E6F66667365742D736D2D357B6D61CB
:102B20007267696E2D6C6566743A34312E363636AE
:102B300036363636363637257D2E6F6666736574C3
:102B40002D736D2D367B6D617267696E2D6C6566B8
:102B5000743A3530257D2E6F66667365742D736DFE
:102B60002D377B6D617267696E2D6C6566743A35C1
:102B7000382E33333333333333333333257D2E6FB2
:102B800066667365742D736D2D387B6D6172676930
:102B90006E2D6C6566743A36362E363636363636D7
:102BA00036363637257D2E6F66667365742D736DE8
:102BB0002D397B6D617267696E2D6C6566743A376D
:102BC00035257D2E6F66667365742D736D2D3130DE
:102BD0007B6D617267696E2D6C6566743A38332E51
:102BE00033333333333333333333257D2E6F6666DC
:102BF0007365742D736D2D31317B6D617267696EF4
:102C00002D6C6566743A39312E36363636363636A0
:102C1000363637257D2E672D736D2D302C2E677837
:102C20002D736D2D307B2D2D62732D67757474653A
:102C3000722D783A307D2E672D736D2D302C2E67D6
:102C4000792D736D2D307B2D2D62732D6775747406
:102C500065722D793A307D2E672D736D2D312C2EB6
:102C600067782D736D2D317B2D2D62732D677574F3
:102C70007465722D783A302E323572656D7D2E670F
:102C80002D736D2D312C2E67792D736D2D317B2D8C
:102C90002D62732D6775747465722D793A302E32FA
:102CA0003572656D7D2E672D736D2D322C2E6778F4
:102CB0002D736D2D327B2D2D62732D6775747465A8
:102CC000722D783A302E3572656D7D2E672D736DBD
:102CD0002D322C2E67792D736D2D327B2D2D627345
:102CE0002D6775747465722D793A302E3572656D65
:102CF0007D2E672D736D2D332C2E67782D736D2DE2
:102D0000337B2D2D62732D6775747465722D783A3F
:102D10003172656D7D2E672D736D2D332C2E677985
:102D20002D736D2D337B2D2D62732D677574746536
:102D3000722D793A3172656D7D2E672D736D2D344C
:102D40002C2E67782D736D2D347B2D2D62732D679E
:102D500075747465722D783A312E3572656D7D2EDD
:102D6000672D736D2D342C2E67792D736D2D347B6B
:102D70002D2D62732D6775747465722D793A312E1D
:102D80003572656D7D2E672D736D2D352C2E677810
:102D90002D736D2D357B2D2D62732D6775747465C4
:102DA000722D783A3372656D7D2E672D736D2D35DA
:102DB0002C2E67792D736D2D357B2D2D62732D672C
:102DC00075747465722D793A3372656D7D7D406DD1
:102DD0006564696120286D696E2D77696474683A4D
:102DE0003736387078297B2E636F6C2D6D647B6667
:102DF0006C65783A3120302030257D2E726F772D2A
:102E0000636F6C732D6D642D6175746F3E2A7B66E4
:102E10006C65783A302030206175746F3B77696457
:102E200074683A6175746F7D2E726F772D636F6C65
:102E3000732D6D642D313E2A7B666C65783A3020A7
:102E400030206175746F3B77696474683A31303053
:102E5000257D2E726F772D636F6C732D6D642D320F
:102E60003E2A7B666C65783A302030206175746F3D
:102E70003B77696474683A3530257D2E726F772D03
:102E8000636F6C732D6D642D333E2A7B666C6578A1
:102E90003A302030206175746F3B77696474683A0A
:102EA00033332E33333333333333333333257D2EC0
:102EB000726F772D636F6C732D6D642D343E2A7B9A
:102EC000666C65783A302030206175746F3B7769A5
:102ED0006474683A3235257D2E726F772D636F6C7E
:102EE000732D6D642D353E2A7B666C65783A3020F3
:102EF00030206175746F3B77696474683A323025AD
:102F00007D2E726F772D636F6C732D6D642D363E41
:102F10002A7B666C65783A302030206175746F3B8F
:102F200077696474683A31362E3636363636363638
:102F3000363637257D2E636F6C2D6D642D6175746B
:102F40006F7B666C65783A302030206175746F3B1A
:102F500077696474683A6175746F7D2E636F6C2D48
:102F60006D642D317B666C65783A30203020617558
:102F7000746F3B77696474683A382E333333333374
:102F80003333333333257D2E636F6C2D6D642D32D7
:102F90007B666C65783A302030206175746F3B77C2
:102FA000696474683A31362E3636363636363636F9
:102FB0003637257D2E636F6C2D6D642D337B666CEB
:102FC00065783A302030206175746F3B776964749E
:102FD000683A3235257D2E636F6C2D6D642D347B00
:102FE000666C65783A302030206175746F3B776984
:102FF0006474683A33332E333333333333333333F8
:1030000033257D2E636F6C2D6D642D357B666C656D
:10301000783A302030206175746F3B77696474684A
:103020003A34312E36363636363636363637257D14
:103030002E636F6C2D6D642D367B666C65783A302F
:103040002030206175746F3B77696474683A35305D
:10305000257D2E636F6C2D6D642D377B666C6578D6
:103060003A302030206175746F3B77696474683A38
:1030700035382E33333333333333333333257D2EE7
:10308000636F6C2D6D642D387B666C65783A3020EB
:1030900030206175746F3B77696474683A36362EF8
:1030A00036363636363636363637257D2E636F6CF5
:1030B0002D6D642D397B666C65783A302030206147
:1030C00075746F3B77696474683A3735257D2E6374
:1030D0006F6C2D6D642D31307B666C65783A3020D5
:1030E00030206175746F3B77696474683A38332EA9
:1030F00033333333333333333333257D2E636F6CC4
:103100002D6D642D31317B666C65783A302030202E
:103110006175746F3B77696474683A39312E36365D
:103120003636363636363637257D2E636F6C2D6D46
:10313000642D31327B666C65783A302030206175C1
:10314000746F3B77696474683A313030257D2E6F37
:1031500066667365742D6D642D307B6D6172676971
:103160006E2D6C6566743A307D2E6F66667365747D
:103170002D6D642D317B6D617267696E2D6C656696
:10318000743A382E33333333333333333333257D8B
:103190002E6F66667365742D6D642D327B6D617262
:1031A00067696E2D6C6566743A31362E3636363662
:1031B000363636363637257D2E6F66667365742D46
:1031C0006D642D337B6D617267696E2D6C656674FD
:1031D0003A3235257D2E6F66667365742D6D642DCC
:1031E000347B6D617267696E2D6C6566743A33333A
:1031F0002E33333333333333333333257D2E6F66FE
:10320000667365742D6D642D357B6D617267696EB3
:103210002D6C6566743A34312E363636363636368F
:10322000363637257D2E6F66667365742D6D642D79
:10323000367B6D617267696E2D6C6566743A3530E8
:10324000257D2E6F66667365742D6D642D377B6DDD
:10325000617267696E2D6C6566743A35382E33334A
:103260003333333333333333257D2E6F66667365E3
:10327000742D6D642D387B6D617267696E2D6C6580
:1032800066743A36362E3636363636363636363773
:10329000257D2E6F66667365742D6D642D397B6D8B
:1032A000617267696E2D6C6566743A3735257D2EBF
:1032B0006F66667365742D6D642D31307B6D617240
:1032C00067696E2D6C6566743A38332E3333333349
:1032D000333333333333257D2E6F66667365742D38
:1032E0006D642D31317B6D617267696E2D6C656621
:1032F000743A39312E363636363636363636372546
:103300007D2E672D6D642D302C2E67782D6D642DEC
:10331000307B2D2D62732D6775747465722D783A2C
:10332000307D2E672D6D642D302C2E67792D6D64C8
:103330002D307B2D2D62732D6775747465722D7918
:103340003A307D2E672D6D642D312C2E67782D6DD2
:10335000642D317B2D2D62732D6775747465722D0C
:10336000783A302E323572656D7D2E672D6D642D65
:10337000312C2E67792D6D642D317B2D2D62732DAF
:103380006775747465722D793A302E323572656DB9
:103390007D2E672D6D642D322C2E67782D6D642D5A
:1033A000327B2D2D62732D6775747465722D783A9A
:1033B000302E3572656D7D2E672D6D642D322C2E6D
:1033C00067792D6D642D327B2D2D62732D67757499
:1033D0007465722D793A302E3572656D7D2E672DAC
:1033E0006D642D332C2E67782D6D642D337B2D2D40
:1033F00062732D6775747465722D783A3172656DDC
:103400007D2E672D6D642D332C2E67792D6D642DE7
:10341000337B2D2D62732D6775747465722D793A27
:103420003172656D7D2E672D6D642D342C2E67787D
:103430002D6D642D347B2D2D62732D67757474652D
:10344000722D783A312E3572656D7D2E672D6D6443
:103450002D342C2E67792D6D642D347B2D2D6273C8
:103460002D6775747465722D793A312E3572656DDC
:103470007D2E672D6D642D352C2E67782D6D642D76
:10348000357B2D2D62732D6775747465722D783AB6
:103490003372656D7D2E672D6D642D352C2E677909
:1034A0002D6D642D357B2D2D62732D6775747465BC
:1034B000722D793A3372656D7D7D406D6564696109
:1034C00020286D696E2D77696474683A39393270D5
:1034D00078297B2E636F6C2D6C677B666C65783A00
:1034E0003120302030257D2E726F772D636F6C7305
:1034F0002D6C672D6175746F3E2A7B666C65783A1A
:10350000302030206175746F3B77696474683A616C
:1035100075746F7D2E726F772D636F6C732D6C6772
:103520002D313E2A7B666C65783A302030206175FB
:10353000746F3B77696474683A313030257D2E7240
:103540006F772D636F6C732D6C672D323E2A7B660F
:103550006C65783A302030206175746F3B77696410
:1035600074683A3530257D2E726F772D636F6C73DA
:103570002D6C672D333E2A7B666C65783A3020309F
:10358000206175746F3B77696474683A33332E3306
:10359000333333333333333333257D2E726F772D0B
:1035A000636F6C732D6C672D343E2A7B666C657877
:1035B0003A302030206175746F3B77696474683AE3
:1035C0003235257D2E726F772D636F6C732D6C678E
:1035D0002D353E2A7B666C65783A30203020617547
:1035E000746F3B77696474683A3230257D2E726F50
:1035F000772D636F6C732D6C672D363E2A7B666C5E
:1036000065783A302030206175746F3B7769647457
:10361000683A31362E363636363636363636372531
:103620007D2E636F6C2D6C672D6175746F7B666C7E
:1036300065783A302030206175746F3B7769647427
:10364000683A6175746F7D2E636F6C2D6C672D31D8
:103650007B666C65783A302030206175746F3B77FB
:10366000696474683A382E33333333333333333346
:1036700033257D2E636F6C2D6C672D327B666C65F8
:10368000783A302030206175746F3B7769647468D4
:103690003A31362E36363636363636363637257D9C
:1036A0002E636F6C2D6C672D337B666C65783A30BA
:1036B0002030206175746F3B77696474683A3235E5
:1036C000257D2E636F6C2D6C672D347B666C657861
:1036D0003A302030206175746F3B77696474683AC2
:1036E00033332E33333333333333333333257D2E78
:1036F000636F6C2D6C672D357B666C65783A302076
:1037000030206175746F3B77696474683A34312E88
:1037100036363636363636363637257D2E636F6C7E
:103720002D6C672D367B666C65783A3020302061D1
:1037300075746F3B77696474683A3530257D2E6304
:103740006F6C2D6C672D377B666C65783A30203056
:10375000206175746F3B77696474683A35382E332D
:10376000333333333333333333257D2E636F6C2D53
:103770006C672D387B666C65783A30203020617537
:10378000746F3B77696474683A36362E363636364F
:10379000363636363637257D2E636F6C2D6C672DA9
:1037A000397B666C65783A302030206175746F3BE8
:1037B00077696474683A3735257D2E636F6C2D6C9C
:1037C000672D31307B666C65783A3020302061752A
:1037D000746F3B77696474683A38332E333333330C
:1037E000333333333333257D2E636F6C2D6C672D6C
:1037F00031317B666C65783A302030206175746FAA
:103800003B77696474683A39312E36363636363647
:1038100036363637257D2E636F6C2D6C672D313231
:103820007B666C65783A302030206175746F3B7729
:10383000696474683A313030257D2E6F6666736531
:10384000742D6C672D307B6D617267696E2D6C65B0
:1038500066743A307D2E6F66667365742D6C672DC5
:10386000317B6D617267696E2D6C6566743A382EB6
:1038700033333333333333333333257D2E6F66663F
:103880007365742D6C672D327B6D617267696E2D67
:103890006C6566743A31362E3636363636363636FE
:1038A0003637257D2E6F66667365742D6C672D33F4
:1038B0007B6D617267696E2D6C6566743A32352571
:1038C0007D2E6F66667365742D6C672D347B6D611C
:1038D0007267696E2D6C6566743A33332E333333F9
:1038E00033333333333333257D2E6F66667365741C
:1038F0002D6C672D357B6D617267696E2D6C656609
:10390000743A34312E363636363636363636372534
:103910007D2E6F66667365742D6C672D367B6D61C9
:103920007267696E2D6C6566743A3530257D2E6F31
:1039300066667365742D6C672D377B6D6172676980
:103940006E2D6C6566743A35382E3333333333332A
:1039500033333333257D2E6F66667365742D6C6744
:103960002D387B6D617267696E2D6C6566743A36B1
:10397000362E36363636363636363637257D2E6F87
:1039800066667365742D6C672D397B6D617267692E
:103990006E2D6C6566743A3735257D2E6F666673BD
:1039A00065742D6C672D31307B6D617267696E2D8A
:1039B0006C6566743A38332E3333333333333333F1
:1039C0003333257D2E6F66667365742D6C672D31DC
:1039D000317B6D617267696E2D6C6566743A393141
:1039E0002E36363636363636363637257D2E672D28
:1039F0006C672D302C2E67782D6C672D307B2D2D2C
:103A000062732D6775747465722D783A307D2E67F8
:103A10002D6C672D302C2E67792D6C672D307B2D0A
:103A20002D62732D6775747465722D793A307D2E11
:103A3000672D6C672D312C2E67782D6C672D317BAF
:103A40002D2D62732D6775747465722D783A302E42
:103A5000323572656D7D2E672D6C672D312C2E678A
:103A6000792D6C672D317B2D2D62732D67757474E4
:103A700065722D793A302E323572656D7D2E672D47
:103A80006C672D322C2E67782D6C672D327B2D2D97
:103A900062732D6775747465722D783A302E3572A5
:103AA000656D7D2E672D6C672D322C2E67792D6C00
:103AB000672D327B2D2D62732D6775747465722DA1
:103AC000793A302E3572656D7D2E672D6C672D33FA
:103AD0002C2E67782D6C672D337B2D2D62732D670F
:103AE00075747465722D783A3172656D7D2E672D0F
:103AF0006C672D332C2E67792D6C672D337B2D2D24
:103B000062732D6775747465722D793A3172656DC3
:103B10007D2E672D6C672D342C2E67782D6C672DCC
:103B2000347B2D2D62732D6775747465722D783A10
:103B3000312E3572656D7D2E672D6C672D342C2EE0
:103B400067792D6C672D347B2D2D62732D6775740D
:103B50007465722D793A312E3572656D7D2E672D23
:103B60006C672D352C2E67782D6C672D357B2D2DB0
:103B700062732D6775747465722D783A3372656D52
:103B80007D2E672D6C672D352C2E67792D6C672D5A
:103B9000357B2D2D62732D6775747465722D793A9E
:103BA0003372656D7D7D406D6564696120286D6946
:103BB0006E2D77696474683A313230307078297BC1
:103BC0002E636F6C2D786C7B666C65783A31203093
:103BD0002030257D2E726F772D636F6C732D786C7E
:103BE0002D6175746F3E2A7B666C65783A302030A3
:103BF000206175746F3B77696474683A6175746F9E
:103C00007D2E726F772D636F6C732D786C2D313E26
:103C10002A7B666C65783A302030206175746F3B82
:103C200077696474683A313030257D2E726F772D54
:103C3000636F6C732D786C2D323E2A7B666C6578D1
:103C40003A302030206175746F3B77696474683A4C
:103C50003530257D2E726F772D636F6C732D786CE8
:103C60002D333E2A7B666C65783A302030206175B2
:103C7000746F3B77696474683A33332E333333336C
:103C8000333333333333257D2E726F772D636F6C6F
:103C9000732D786C2D343E2A7B666C65783A302023
:103CA00030206175746F3B77696474683A323525EA
:103CB0007D2E726F772D636F6C732D786C2D353E72
:103CC0002A7B666C65783A302030206175746F3BD2
:103CD00077696474683A3230257D2E726F772D6370
:103CE0006F6C732D786C2D363E2A7B666C65783A46
:103CF000302030206175746F3B77696474683A31A5
:103D0000362E36363636363636363637257D2E63FF
:103D10006F6C2D786C2D6175746F7B666C65783A6D
:103D2000302030206175746F3B77696474683A6144
:103D300075746F7D2E636F6C2D786C2D317B666C86
:103D400065783A302030206175746F3B7769647410
:103D5000683A382E33333333333333333333257DBB
:103D60002E636F6C2D786C2D327B666C65783A30E3
:103D70002030206175746F3B77696474683A31361E
:103D80002E36363636363636363637257D2E636F46
:103D90006C2D786C2D337B666C65783A3020302042
:103DA0006175746F3B77696474683A3235257D2E8E
:103DB000636F6C2D786C2D347B666C65783A30209F
:103DC00030206175746F3B77696474683A33332EC1
:103DD00033333333333333333333257D2E636F6CD7
:103DE0002D786C2D357B666C65783A3020302061FB
:103DF00075746F3B77696474683A34312E363636A1
:103E000036363636363637257D2E636F6C2D786C18
:103E10002D367B666C65783A302030206175746F82
:103E20003B77696474683A3530257D2E636F6C2D5D
:103E3000786C2D377B666C65783A30203020617560
:103E4000746F3B77696474683A35382E3333333393
:103E5000333333333333257D2E636F6C2D786C2DE4
:103E6000387B666C65783A302030206175746F3B22
:103E700077696474683A36362E36363636363636D4
:103E8000363637257D2E636F6C2D786C2D397B6629
:103E90006C65783A302030206175746F3B776964C7
:103EA00074683A3735257D2E636F6C2D786C2D3113
:103EB000307B666C65783A302030206175746F3BDA
:103EC00077696474683A38332E333333333333339A
:103ED000333333257D2E636F6C2D786C2D31317B20
:103EE000666C65783A302030206175746F3B776975
:103EF0006474683A39312E363636363636363636CA
:103F000037257D2E636F6C2D786C2D31327B666C7E
:103F100065783A302030206175746F3B776964743E
:103F2000683A313030257D2E6F66667365742D7862
:103F30006C2D307B6D617267696E2D6C6566743AAD
:103F4000307D2E6F66667365742D786C2D317B6DB8
:103F5000617267696E2D6C6566743A382E3333333F
:103F600033333333333333257D2E6F666673657495
:103F70002D786C2D327B6D617267696E2D6C656674
:103F8000743A31362E3636363636363636363725AC
:103F90007D2E6F66667365742D786C2D337B6D6135
:103FA0007267696E2D6C6566743A3235257D2E6FA9
:103FB00066667365742D786C2D347B6D61726769EC
:103FC0006E2D6C6566743A33332E333333333333AB
:103FD00033333333257D2E6F66667365742D786CAD
:103FE0002D357B6D617267696E2D6C6566743A3430
:103FF000312E36363636363636363637257D2E6F06
:1040000066667365742D786C2D367B6D6172676999
:104010006E2D6C6566743A3530257D2E6F6666733D
:1040200065742D786C2D377B6D617267696E2D6CB0
:104030006566743A35382E333333333333333333A1
:1040400033257D2E6F66667365742D786C2D387BF5
:104050006D617267696E2D6C6566743A36362E3600
:10406000363636363636363637257D2E6F666673EB
:1040700065742D786C2D397B6D617267696E2D6C5E
:104080006566743A3735257D2E6F66667365742DC7
:10409000786C2D31307B6D617267696E2D6C656651
:1040A000743A38332E3333333333333333333325A6
:1040B0007D2E6F66667365742D786C2D31317B6D46
:1040C000617267696E2D6C6566743A39312E3636C9
:1040D0003636363636363637257D2E672D786C2DBA
:1040E000302C2E67782D786C2D307B2D2D62732D22
:1040F0006775747465722D783A307D2E672D786CF3
:104100002D302C2E67792D786C2D307B2D2D627300
:104110002D6775747465722D793A307D2E672D7810
:104120006C2D312C2E67782D786C2D317B2D2D62E6
:10413000732D6775747465722D783A302E3235722E
:10414000656D7D2E672D786C2D312C2E67792D783D
:104150006C2D317B2D2D62732D6775747465722DF6
:10416000793A302E323572656D7D2E672D786C2D43
:10417000322C2E67782D786C2D327B2D2D62732D8D
:104180006775747465722D783A302E3572656D7D61
:104190002E672D786C2D322C2E67792D786C2D3270
:1041A0007B2D2D62732D6775747465722D793A308D
:1041B0002E3572656D7D2E672D786C2D332C2E6714
:1041C000782D786C2D337B2D2D62732D677574746B
:1041D00065722D783A3172656D7D2E672D786C2D64
:1041E000332C2E67792D786C2D337B2D2D62732D1A
:1041F0006775747465722D793A3172656D7D2E67BD
:104200002D786C2D342C2E67782D786C2D347B2DE9
:104210002D62732D6775747465722D783A312E3561
:1042200072656D7D2E672D786C2D342C2E67792D5F
:10423000786C2D347B2D2D62732D677574746572C7
:104240002D793A312E3572656D7D2E672D786C2D66
:10425000352C2E67782D786C2D357B2D2D62732DA6
:104260006775747465722D783A3372656D7D2E674B
:104270002D786C2D352C2E67792D786C2D357B2D76
:104280002D62732D6775747465722D793A3372657A
:104290006D7D7D406D6564696120286D696E2D7747
:1042A000696474683A313430307078297B2E636FDA
:1042B0006C2D78786C7B666C65783A3120302030D4
:1042C000257D2E726F772D636F6C732D78786C2D32
:1042D0006175746F3E2A7B666C65783A30203020B9
:1042E0006175746F3B77696474683A6175746F7D4A
:1042F0002E726F772D636F6C732D78786C2D313E35
:104300002A7B666C65783A302030206175746F3B8B
:1043100077696474683A313030257D2E726F772D5D
:10432000636F6C732D78786C2D323E2A7B666C65DA
:10433000783A302030206175746F3B776964746817
:104340003A3530257D2E726F772D636F6C732D7823
:10435000786C2D333E2A7B666C65783A30203020AD
:104360006175746F3B77696474683A33332E333305
:104370003333333333333333257D2E726F772D63ED
:104380006F6C732D78786C2D343E2A7B666C657863
:104390003A302030206175746F3B77696474683AF5
:1043A0003235257D2E726F772D636F6C732D787883
:1043B0006C2D353E2A7B666C65783A302030206162
:1043C00075746F3B77696474683A3230257D2E725C
:1043D0006F772D636F6C732D78786C2D363E2A7B4A
:1043E000666C65783A302030206175746F3B776970
:1043F0006474683A31362E363636363636363636C8
:1044000037257D2E636F6C2D78786C2D6175746FF8
:104410007B666C65783A302030206175746F3B772D
:10442000696474683A6175746F7D2E636F6C2D7862
:10443000786C2D317B666C65783A30203020617560
:10444000746F3B77696474683A382E33333333338F
:104450003333333333257D2E636F6C2D78786C2D99
:10446000327B666C65783A302030206175746F3B22
:1044700077696474683A31362E36363636363636D3
:10448000363637257D2E636F6C2D78786C2D337B17
:10449000666C65783A302030206175746F3B7769BF
:1044A0006474683A3235257D2E636F6C2D78786C94
:1044B0002D347B666C65783A302030206175746FDE
:1044C0003B77696474683A33332E33333333333391
:1044D00033333333257D2E636F6C2D78786C2D3517
:1044E0007B666C65783A302030206175746F3B775D
:1044F000696474683A34312E363636363636363696
:104500003637257D2E636F6C2D78786C2D367B6663
:104510006C65783A302030206175746F3B77696440
:1045200074683A3530257D2E636F6C2D78786C2D4C
:10453000377B666C65783A302030206175746F3B4C
:1045400077696474683A35382E3333333333333311
:10455000333333257D2E636F6C2D78786C2D387B4B
:10456000666C65783A302030206175746F3B7769EE
:104570006474683A36362E36363636363636363641
:1045800037257D2E636F6C2D78786C2D397B666CAA
:1045900065783A302030206175746F3B77696474B8
:1045A000683A3735257D2E636F6C2D78786C2D3108
:1045B000307B666C65783A302030206175746F3BD3
:1045C00077696474683A38332E3333333333333393
:1045D000333333257D2E636F6C2D78786C2D31311C
:1045E0007B666C65783A302030206175746F3B775C
:1045F000696474683A39312E363636363636363690
:104600003637257D2E636F6C2D78786C2D31327B9B
:10461000666C65783A302030206175746F3B77693D
:104620006474683A313030257D2E6F666673657428
:104630002D78786C2D307B6D617267696E2D6C659D
:1046400066743A307D2E6F66667365742D78786C6B
:104650002D317B6D617267696E2D6C6566743A38B9
:104660002E33333333333333333333257D2E6F6679
:10467000667365742D78786C2D327B6D6172676915
:104680006E2D6C6566743A31362E363636363636D1
:1046900036363637257D2E6F66667365742D7878CD
:1046A0006C2D337B6D617267696E2D6C6566743A33
:1046B0003235257D2E6F66667365742D78786C2D86
:1046C000347B6D617267696E2D6C6566743A333345
:1046D0002E33333333333333333333257D2E6F6609
:1046E000667365742D78786C2D357B6D61726769A2
:1046F0006E2D6C6566743A34312E36363636363663
:1047000036363637257D2E6F66667365742D78785C
:104710006C2D367B6D617267696E2D6C6566743ABF
:104720003530257D2E6F66667365742D78786C2D17
:10473000377B6D617267696E2D6C6566743A3538CA
:104740002E33333333333333333333257D2E6F6698
:10475000667365742D78786C2D387B6D617267692E
:104760006E2D6C6566743A36362E363636363636EB
:1047700036363637257D2E6F66667365742D7878EC
:104780006C2D397B6D617267696E2D6C6566743A4C
:104790003735257D2E6F66667365742D78786C2DA0
:1047A00031307B6D617267696E2D6C6566743A3865
:1047B000332E33333333333333333333257D2E6F5B
:1047C00066667365742D78786C2D31317B6D6172FE
:1047D00067696E2D6C6566743A39312E3636363619
:1047E000363636363637257D2E672D78786C2D3067
:1047F0002C2E67782D78786C2D307B2D2D62732DC3
:104800006775747465722D783A307D2E672D7878CF
:104810006C2D302C2E67792D78786C2D307B2D2DDA
:1048200062732D6775747465722D793A307D2E67C9
:104830002D78786C2D312C2E67782D78786C2D3171
:104840007B2D2D62732D6775747465722D783A30E7
:104850002E323572656D7D2E672D78786C2D312C5A
:104860002E67792D78786C2D317B2D2D62732D6715
:1048700075747465722D793A302E323572656D7D9E
:104880002E672D78786C2D322C2E67782D78786CE9
:104890002D327B2D2D62732D6775747465722D78A2
:1048A0003A302E3572656D7D2E672D78786C2D32FD
:1048B0002C2E67792D78786C2D327B2D2D62732DFF
:1048C0006775747465722D793A302E3572656D7D19
:1048D0002E672D78786C2D332C2E67782D78786C98
:1048E0002D337B2D2D62732D6775747465722D7851
:1048F0003A3172656D7D2E672D78786C2D332C2EB4
:1049000067792D78786C2D337B2D2D62732D67752B
:10491000747465722D793A3172656D7D2E672D78CC
:10492000786C2D342C2E67782D78786C2D347B2D77
:104930002D62732D6775747465722D783A312E353A
:1049400072656D7D2E672D78786C2D342C2E6779ED
:104950002D78786C2D347B2D2D62732D67757474D2
:1049600065722D793A312E3572656D7D2E672D7801
:10497000786C2D352C2E67782D78786C2D357B2D25
:104980002D62732D6775747465722D783A33726574
:104990006D7D2E672D78786C2D352C2E67792D78CE
:1049A000786C2D357B2D2D62732D6775747465724F
:1049B0002D793A3372656D7D7D2E7461626C657BF5
:1049C0002D2D62732D7461626C652D62673A74726D
:1049D000616E73706172656E743B2D2D62732D7400
:1049E00061626C652D737472697065642D636F6CA0
:1049F0006F723A233231323532393B2D2D62732DAD
:104A00007461626C652D737472697065642D626780
:104A10003A7267626128302C20302C20302C2030F4
:104A20002E3035293B2D2D62732D7461626C652DFE
:104A30006163746976652D636F6C6F723A233231EE
:104A4000323532393B2D2D62732D7461626C652DC8
:104A50006163746976652D62673A726762612830B6
:104A60002C20302C20302C20302E31293B2D2D6253
:104A7000732D7461626C652D686F7665722D636F3E
:104A80006C6F723A233231323532393B2D2D6273DD
:104A90002D7461626C652D686F7665722D62673A60
:104AA0007267626128302C20302C20302C20302E70
:104AB000303735293B77696474683A313030253BAB
:104AC0006D617267696E2D626F74746F6D3A3172C9
:104AD000656D3B636F6C6F723A2332313235323918
:104AE0003B766572746963616C2D616C69676E3ABF
:104AF000746F703B626F726465722D636F6C6F725E
:104B00003A236465653265367D2E7461626C653E5C
:104B10003A6E6F742863617074696F6E293E2A3E25
:104B20002A7B70616464696E673A2E3572656D2008
:104B30002E3572656D3B6261636B67726F756E6473
:104B40002D636F6C6F723A766172282D2D62732D12
:104B50007461626C652D6267293B626F7264657275
:104B60002D626F74746F6D2D77696474683A31705B
:104B7000783B626F782D736861646F773A696E7302
:104B80006574203020302030203939393970782050
:104B9000766172282D2D62732D7461626C652D61B2
:104BA0006363656E742D6267297D2E7461626C6526
:104BB0003E74626F64797B766572746963616C2D93
:104BC000616C69676E3A696E68657269747D2E748E
:104BD00061626C653E74686561647B766572746958
:104BE00063616C2D616C69676E3A626F74746F6D8E
:104BF0007D2E7461626C653E3A6E6F74283A6C610A
:104C000073742D6368696C64293E3A6C6173742D0A
:104C10006368696C643E2A7B626F726465722D62A0
:104C20006F74746F6D2D636F6C6F723A637572720F
:104C3000656E74436F6C6F727D2E63617074696F03
:104C40006E2D746F707B63617074696F6E2D736904
:104C500064653A746F707D2E7461626C652D736D3E
:104C60003E3A6E6F742863617074696F6E293E2AD4
:104C70003E2A7B70616464696E673A2E32357265D4
:104C80006D202E323572656D7D2E7461626C652DDE
:104C9000626F7264657265643E3A6E6F7428636118
:104CA0007074696F6E293E2A7B626F726465722D23
:104CB00077696474683A31707820307D2E7461624F
:104CC0006C652D626F7264657265643E3A6E6F74D6
:104CD0002863617074696F6E293E2A3E2A7B626F79
:104CE000726465722D77696474683A302031707827
:104CF0007D2E7461626C652D626F726465726C6585
:104D000073733E3A6E6F742863617074696F6E29B5
:104D10003E2A3E2A7B626F726465722D626F7474E4
:104D20006F6D2D77696474683A307D2E7461626CA2
:104D3000652D737472697065643E74626F64793E48
:104D400074723A6E74682D6F662D74797065286F71
:104D50006464297B2D2D62732D7461626C652D61F5
:104D60006363656E742D62673A766172282D2D62D9
:104D7000732D7461626C652D737472697065642D36
:104D80006267293B636F6C6F723A766172282D2DD2
:104D900062732D7461626C652D73747269706564E1
:104DA0002D636F6C6F72297D2E7461626C652D614D
:104DB00063746976657B2D2D62732D7461626C65F9
:104DC0002D616363656E742D62673A766172282D7A
:104DD0002D62732D7461626C652D616374697665F3
:104DE0002D6267293B636F6C6F723A766172282D72
:104DF0002D62732D7461626C652D616374697665D3
:104E00002D636F6C6F72297D2E7461626C652D68E5
:104E10006F7665723E74626F64793E74723A686F41
:104E20007665727B2D2D62732D7461626C652D61C8
:104E30006363656E742D62673A766172282D2D6208
:104E4000732D7461626C652D686F7665722D626773
:104E5000293B636F6C6F723A766172282D2D6273F5
:104E60002D7461626C652D686F7665722D636F6C51
:104E70006F72297D2E7461626C652D7072696D612F
:104E800072797B2D2D62732D7461626C652D626762
:104E90003A236366653266663B2D2D62732D74611D
:104EA000626C652D737472697065642D62673A2354
:104EB0006335643766323B2D2D62732D7461626CED
:104EC000652D737472697065642D636F6C6F723ACF
:104ED000233030303B2D2D62732D7461626C652D53
:104EE0006163746976652D62673A23626163626506
:104EF000363B2D2D62732D7461626C652D61637478
:104F00006976652D636F6C6F723A233030303B2DBC
:104F10002D62732D7461626C652D686F7665722DDC
:104F200062673A236266643165633B2D2D62732D9F
:104F30007461626C652D686F7665722D636F6C6F3E
:104F4000723A233030303B636F6C6F723A233030EB
:104F5000303B626F726465722D636F6C6F723A23BF
:104F60006261636265367D2E7461626C652D736566
:104F7000636F6E646172797B2D2D62732D74616233
:104F80006C652D62673A236532653365353B2D2D9F
:104F900062732D7461626C652D73747269706564DF
:104FA0002D62673A236437643864613B2D2D627348
:104FB0002D7461626C652D737472697065642D6304
:104FC0006F6C6F723A233030303B2D2D62732D742D
:104FD00061626C652D6163746976652D62673A2341
:104FE0006362636363653B2D2D62732D7461626C34
:104FF000652D6163746976652D636F6C6F723A23FA
:105000003030303B2D2D62732D7461626C652D68DC
:105010006F7665722D62673A236431643264343B83
:105020002D2D62732D7461626C652D686F766572CB
:105030002D636F6C6F723A233030303B636F6C6F4F
:10504000723A233030303B626F726465722D636F49
:105050006C6F723A236362636363657D2E74616271
:105060006C652D737563636573737B2D2D62732D72
:105070007461626C652D62673A23643165376464DC
:105080003B2D2D62732D7461626C652D7374726992
:105090007065642D62673A236337646264323B2D26
:1050A0002D62732D7461626C652D73747269706505
:1050B000642D636F6C6F723A233030303B2D2D625C
:1050C000732D7461626C652D6163746976652D6200
:1050D000673A236263643063373B2D2D62732D740E
:1050E00061626C652D6163746976652D636F6C6FA9
:1050F000723A233030303B2D2D62732D7461626C17
:10510000652D686F7665722D62673A236331643668
:1051100063633B2D2D62732D7461626C652D686F26
:105120007665722D636F6C6F723A233030303B635B
:105130006F6C6F723A233030303B626F726465720D
:105140002D636F6C6F723A236263643063377D2E18
:105150007461626C652D696E666F7B2D2D62732D97
:105160007461626C652D62673A23636666346663B8
:105170003B2D2D62732D7461626C652D73747269A1
:105180007065642D62673A236335653865663B2D2B
:105190002D62732D7461626C652D73747269706514
:1051A000642D636F6C6F723A233030303B2D2D626B
:1051B000732D7461626C652D6163746976652D620F
:1051C000673A236261646365333B2D2D62732D74EE
:1051D00061626C652D6163746976652D636F6C6FB8
:1051E000723A233030303B2D2D62732D7461626C26
:1051F000652D686F7665722D62673A236266653247
:1052000065393B2D2D62732D7461626C652D686F5D
:105210007665722D636F6C6F723A233030303B636A
:105220006F6C6F723A233030303B626F726465721C
:105230002D636F6C6F723A236261646365337D2EF8
:105240007461626C652D7761726E696E677B2D2D5E
:1052500062732D7461626C652D62673A23666666BF
:105260003363643B2D2D62732D7461626C652D7305
:105270007472697065642D62673A236632653763BC
:10528000333B2D2D62732D7461626C652D737472C6
:10529000697065642D636F6C6F723A233030303BF8
:1052A0002D2D62732D7461626C652D616374697656
:1052B000652D62673A236536646262393B2D2D6243
:1052C000732D7461626C652D6163746976652D63FD
:1052D0006F6C6F723A233030303B2D2D62732D741A
:1052E00061626C652D686F7665722D62673A236521
:1052F00063653162653B2D2D62732D7461626C654F
:105300002D686F7665722D636F6C6F723A23303043
:10531000303B636F6C6F723A233030303B626F7298
:105320006465722D636F6C6F723A236536646262D6
:10533000397D2E7461626C652D64616E6765727B68
:105340002D2D62732D7461626C652D62673A236640
:1053500038643764613B2D2D62732D7461626C6516
:105360002D737472697065642D62673A2365636397
:105370006363663B2D2D62732D7461626C652D73C2
:105380007472697065642D636F6C6F723A2330308C
:10539000303B2D2D62732D7461626C652D616374D9
:1053A0006976652D62673A236466633263343B2D08
:1053B0002D62732D7461626C652D6163746976650D
:1053C0002D636F6C6F723A233030303B2D2D62733A
:1053D0002D7461626C652D686F7665722D62673A17
:1053E000236535633763613B2D2D62732D746162D4
:1053F0006C652D686F7665722D636F6C6F723A23E2
:105400003030303B636F6C6F723A233030303B6228
:105410006F726465722D636F6C6F723A236466639A
:105420003263347D2E7461626C652D6C69676874BB
:105430007B2D2D62732D7461626C652D62673A233A
:105440006638663966613B2D2D62732D7461626C1E
:10545000652D737472697065642D62673A236563A4
:10546000656465653B2D2D62732D7461626C652DDD
:10547000737472697065642D636F6C6F723A233058
:1054800030303B2D2D62732D7461626C652D61632C
:10549000746976652D62673A236466653065313BD1
:1054A0002D2D62732D7461626C652D616374697654
:1054B000652D636F6C6F723A233030303B2D2D6257
:1054C000732D7461626C652D686F7665722D6267ED
:1054D0003A236535653665373B2D2D62732D746132
:1054E000626C652D686F7665722D636F6C6F723AB2
:1054F000233030303B636F6C6F723A233030303B77
:10550000626F726465722D636F6C6F723A236466AA
:10551000653065317D2E7461626C652D6461726BDE
:105520007B2D2D62732D7461626C652D62673A2349
:105530003231323532393B2D2D62732D7461626CFC
:10554000652D737472697065642D62673A233263E6
:10555000333033343B2D2D62732D7461626C652DB5
:10556000737472697065642D636F6C6F723A236631
:1055700066663B2D2D62732D7461626C652D6163CF
:10558000746976652D62673A233337336233653B3E
:105590002D2D62732D7461626C652D616374697663
:1055A000652D636F6C6F723A236666663B2D2D62C4
:1055B000732D7461626C652D686F7665722D6267FC
:1055C0003A233332333533393B2D2D62732D7461D9
:1055D000626C652D686F7665722D636F6C6F723AC1
:1055E000236666663B636F6C6F723A236666663B42
:1055F000626F726465722D636F6C6F723A2333371A
:10560000336233657D2E7461626C652D72657370D3
:105610006F6E736976657B6F766572666C6F772DDA
:10562000783A6175746F3B2D7765626B69742D6F85
:10563000766572666C6F772D7363726F6C6C696ED2
:10564000673A746F7563687D406D65646961202891
:105650006D61782D77696474683A3537352E39383D
:105660007078297B2E7461626C652D726573706F22
:105670006E736976652D736D7B6F766572666C6F80
:10568000772D783A6175746F3B2D7765626B69741D
:105690002D6F766572666C6F772D7363726F6C6CAD
:1056A000696E673A746F7563687D7D406D65646986
:1056B0006120286D61782D77696474683A373637D0
:1056C0002E39387078297B2E7461626C652D726575
:1056D00073706F6E736976652D6D647B6F7665721E
:1056E000666C6F772D783A6175746F3B2D776562C4
:1056F0006B69742D6F766572666C6F772D7363724C
:105700006F6C6C696E673A746F7563687D7D406D10
:105710006564696120286D61782D77696474683AE1
:105720003939312E39387078297B2E7461626C6575
:105730002D726573706F6E736976652D6C677B6F04
:10574000766572666C6F772D783A6175746F3B2D54
:105750007765626B69742D6F766572666C6F772DF5
:105760007363726F6C6C696E673A746F7563687D92
:105770007D406D6564696120286D61782D7769646D
:1057800074683A313139392E39387078297B2E7462
:1057900061626C652D726573706F6E736976652DCD
:1057A000786C7B6F766572666C6F772D783A617571
:1057B000746F3B2D7765626B69742D6F76657266C9
:1057C0006C6F772D7363726F6C6C696E673A746F70
:1057D0007563687D7D406D6564696120286D6178C1
:1057E0002D77696474683A313339392E39387078D5
:1057F000297B2E7461626C652D726573706F6E7398
:105800006976652D78786C7B6F766572666C6F77DC
:105810002D783A6175746F3B2D7765626B69742DD5
:105820006F766572666C6F772D7363726F6C6C69DF
:105830006E673A746F7563687D7D2E666F726D2D2D
:105840006C6162656C7B6D617267696E2D626F74ED
:10585000746F6D3A2E3572656D7D2E636F6C2D669B
:105860006F726D2D6C6162656C7B70616464696ED2
:10587000672D746F703A63616C63282E333735720D
:10588000656D202B20317078293B70616464696EEE
:10589000672D626F74746F6D3A63616C63282E3389
:1058A000373572656D202B20317078293B6D617220
:1058B00067696E2D626F74746F6D3A303B666F6E00
:1058C000742D73697A653A696E68657269743B6CA8
:1058D000696E652D6865696768743A312E357D2E6D
:1058E000636F6C2D666F726D2D6C6162656C2D6CD3
:1058F000677B70616464696E672D746F703A636171
:105900006C63282E3572656D202B20317078293B11
:1059100070616464696E672D626F74746F6D3A6351
:10592000616C63282E3572656D202B2031707829CB
:105930003B666F6E742D73697A653A312E3235721B
:10594000656D7D2E636F6C2D666F726D2D6C61625F
:10595000656C2D736D7B70616464696E672D746F07
:10596000703A63616C63282E323572656D202B208E
:10597000317078293B70616464696E672D626F7461
:10598000746F6D3A63616C63282E323572656D20D9
:105990002B20317078293B666F6E742D73697A65A0
:1059A0003A2E38373572656D7D2E666F726D2D74A7
:1059B0006578747B6D617267696E2D746F703A2EB5
:1059C000323572656D3B666F6E742D73697A653A18
:1059D0002E383735656D3B636F6C6F723A233663D3
:1059E000373537647D2E666F726D2D636F6E7472FE
:1059F0006F6C7B646973706C61793A626C6F636B16
:105A00003B77696474683A313030253B7061646477
:105A1000696E673A2E33373572656D202E373572D1
:105A2000656D3B666F6E742D73697A653A31726588
:105A30006D3B666F6E742D7765696768743A3430B4
:105A4000303B6C696E652D6865696768743A312E04
:105A5000353B636F6C6F723A233231323532393BEA
:105A60006261636B67726F756E642D636F6C6F72CA
:105A70003A236666663B6261636B67726F756E643C
:105A80002D636C69703A70616464696E672D626F32
:105A9000783B626F726465723A31707820736F6C14
:105AA000696420236365643464613B2D7765626BB0
:105AB00069742D617070656172616E63653A6E6FB5
:105AC0006E653B2D6D6F7A2D617070656172616ED0
:105AD00063653A6E6F6E653B617070656172616E91
