:020000040800F2
:1000000090CC0020B1CB0508BDCA0508BFCA0508C1
:10001000C1CA0508C3CA0508C5CA05080000000012
:10002000000000000000000000000000153405087A
:10003000C7CA050800000000B9330508C9CA050889
:10004000A5CC0508A9CC0508ADCC0508B1CC0508A0
:10005000B5CC0508B9CC0508BDCC0508C1CC050850
:10006000C5CC0508C9CC0508CDCC0508D1CC050800
:10007000D5CC0508D9CC0508DDCC0508E1CC0508B0
:10008000E5CC0508E9CC0508EDCC0508F1CC050860
:10009000F5CC0508F9CC0508FDCC050801CD05080F
:1000A00005CD050809CD05080DCD050811CD0508BC
:1000B00015CD050819CD05081DCD050821CD05086C
:1000C00025CD050829CD05082DCD050831CD05081C
:1000D00035CD050839CD05083DCD050841CD0508CC
:1000E00045CD050849CD05084DCD050851CD05087C
:1000F00055CD050859CD05085DCD050861CD05082C
:1001000065CD050869CD05086DCD050871CD0508DB
:1001100075CD050879CD0508EB4405087DCD0508AA
:1001200081CD050885CD050889CD05088DCD05084B
:1001300091CD0508CDCA050895CD050899CD0508CE
:100140009DCD0508A1CD0508A5CD0508A9CD0508BB
:10015000ADCD0508B1CD0508B5CD0508B9CD05086B
:10016000BDCD0508C1CD0508C5CD0508C9CD05081B
:10017000CDCD0508D1CD0508D5CD0508000000007E
:10018000D9CD0508DDCD0508E1CD0508E5CD05088B
:10019000E9CD0508EDCD0508F1CD0508F5CD05083B
:1001A000F9CD0508FDCD050801CE050805CE0508E9
:1001B00009CE05080DCE050811CE050815CE050897
:1001C00019CE05081DCE05080000000021CE050847
:1001D00025CE050829CE05082DCE050831CE050807
:1001E00035CE050839CE05083DCE050841CE0508B7
:1001F00045CE050849CE05082F626F6F747374727F
:1002000061702F626F6F7473747261702E63737399
:1002100000406368617273657420225554462D381E
:10022000223B2F2A210D0A202A20426F6F747374FB
:100230007261702076352E302E302D6265746132F9
:10024000202868747470733A2F2F676574626F6F1B
:100250007473747261702E636F6D2F290D0A202ADA
:1002600020436F7079726967687420323031312DA4
:10027000323032312054686520426F6F747374726B
:10028000617020417574686F72730D0A202A2043D3
:100290006F7079726967687420323031312D323075
:1002A000323120547769747465722C20496E632E44
:1002B0000D0A202A204C6963656E73656420756E93
:1002C000646572204D4954202868747470733A2F05
:1002D0002F6769746875622E636F6D2F7477627310
:1002E0002F626F6F7473747261702F626C6F622F04
:1002F0006D61696E2F4C4943454E5345290D0A20C7
:100300002A2F3A726F6F747B2D2D62732D626C757C
:10031000653A233064366566643B2D2D62732D6922
:100320006E6469676F3A233636313066323B2D2D65
:1003300062732D707572706C653A23366634326361
:10034000313B2D2D62732D70696E6B3A2364363309
:100350003338343B2D2D62732D7265643A23646308
:10036000333534353B2D2D62732D6F72616E6765A9
:100370003A236664376531343B2D2D62732D7965E0
:100380006C6C6F773A236666633130373B2D2D6294
:10039000732D677265656E3A233139383735343BD2
:1003A0002D2D62732D7465616C3A233230633939B7
:1003B000373B2D2D62732D6379616E3A2330646370
:1003C0006166303B2D2D62732D77686974653A2321
:1003D0006666663B2D2D62732D677261793A23360E
:1003E00063373537643B2D2D62732D677261792D2C
:1003F0006461726B3A233334336134303B2D2D62A8
:10040000732D7072696D6172793A23306436656656
:10041000643B2D2D62732D7365636F6E6461727919
:100420003A233663373537643B2D2D62732D737550
:1004300063636573733A233139383735343B2D2D77
:1004400062732D696E666F3A233064636166303B78
:100450002D2D62732D7761726E696E673A23666621
:10046000633130373B2D2D62732D64616E67657289
:100470003A236463333534353B2D2D62732D6C691B
:100480006768743A236638663966613B2D2D62735E
:100490002D6461726B3A233231323532393B2D2D66
:1004A00062732D666F6E742D73616E732D7365723A
:1004B00069663A73797374656D2D75692C2D617059
:1004C000706C652D73797374656D2C225365676F3D
:1004D00065205549222C526F626F746F2C2248653B
:1004E0006C766574696361204E657565222C417276
:1004F00069616C2C224E6F746F2053616E73222CD5
:10050000224C696265726174696F6E2053616E730B
:10051000222C73616E732D73657269662C22417093
:10052000706C6520436F6C6F7220456D6F6A692235
:100530002C225365676F6520554920456D6F6A69A8
:10054000222C225365676F652055492053796D62CF
:100550006F6C222C224E6F746F20436F6C6F722071
:10056000456D6F6A69223B2D2D62732D666F6E7427
:100570002D6D6F6E6F73706163653A53464D6F6E8C
:100580006F2D526567756C61722C4D656E6C6F2CAA
:100590004D6F6E61636F2C436F6E736F6C61732C64
:1005A000224C696265726174696F6E204D6F6E6F67
:1005B000222C22436F7572696572204E6577222C5A
:1005C0006D6F6E6F73706163653B2D2D62732D6768
:1005D00072616469656E743A6C696E6561722D67EB
:1005E00072616469656E74283138306465672C20E7
:1005F00072676261283235352C203235352C203235
:1006000035352C20302E3135292C20726762612837
:100610003235352C203235352C203235352C2030F2
:1006200029297D2A2C3A3A61667465722C3A3A621D
:1006300065666F72657B626F782D73697A696E6724
:100640003A626F726465722D626F787D406D656489
:1006500069612028707265666572732D72656475B4
:100660006365642D6D6F74696F6E3A6E6F2D707275
:1006700065666572656E6365297B3A726F6F747B20
:100680007363726F6C6C2D6265686176696F723A24
:10069000736D6F6F74687D7D626F64797B6D61725D
:1006A00067696E3A303B666F6E742D66616D696C7A
:1006B000793A766172282D2D62732D666F6E742DD6
:1006C00073616E732D7365726966293B666F6E7414
:1006D0002D73697A653A3172656D3B666F6E742D64
:1006E0007765696768743A3430303B6C696E652DA4
:1006F0006865696768743A312E353B636F6C6F7259
:100700003A233231323532393B6261636B67726F43
:10071000756E642D636F6C6F723A236666663B2D4F
:100720007765626B69742D746578742D73697A6569
:100730002D61646A7573743A313030253B2D7765CD
:10074000626B69742D7461702D686967686C696784
:1007500068742D636F6C6F723A7472616E7370613E
:1007600072656E747D5B746162696E6465783D224A
:100770002D31225D3A666F6375733A6E6F74283A55
:10078000666F6375732D76697369626C65297B6F1B
:1007900075746C696E653A3021696D706F72746141
:1007A0006E747D68727B6D617267696E3A317265D5
:1007B0006D20303B636F6C6F723A696E6865726969
:1007C000743B6261636B67726F756E642D636F6CEF
:1007D0006F723A63757272656E74436F6C6F723BC1
:1007E000626F726465723A303B6F706163697479ED
:1007F0003A2E32357D68723A6E6F74285B73697A6F
:10080000655D297B6865696768743A3170787D2E0B
:1008100068312C2E68322C2E68332C2E68342C2E06
:1008200068352C2E68362C68312C68322C68332CB5
:1008300068342C68352C68367B6D617267696E2D63
:10084000746F703A303B6D617267696E2D626F74C0
:10085000746F6D3A2E3572656D3B666F6E742D77D1
:1008600065696768743A3530303B6C696E652D6830
:1008700065696768743A312E327D2E68312C683193
:100880007B666F6E742D73697A653A63616C632859
:10089000312E33373572656D202B20312E3576772A
:1008A000297D406D6564696120286D696E2D7769C9
:1008B0006474683A313230307078297B2E68312C7C
:1008C00068317B666F6E742D73697A653A322E35A6
:1008D00072656D7D7D2E68322C68327B666F6E741A
:1008E0002D73697A653A63616C6328312E33323532
:1008F00072656D202B202E397677297D406D6564D9
:10090000696120286D696E2D77696474683A3132A7
:1009100030307078297B2E68322C68327B666F6E9F
:10092000742D73697A653A3272656D7D7D2E6833F8
:100930002C68337B666F6E742D73697A653A6361D8
:100940006C6328312E3372656D202B202E3676771E
:10095000297D406D6564696120286D696E2D776918
:100960006474683A313230307078297B2E68332CC9
:1009700068337B666F6E742D73697A653A312E37F2
:100980003572656D7D7D2E68342C68347B666F6EA4
:10099000742D73697A653A63616C6328312E32373E
:1009A0003572656D202B202E337677297D406D655D
:1009B00064696120286D696E2D77696474683A31C5
:1009C0003230307078297B2E68342C68347B666F27
:1009D0006E742D73697A653A312E3572656D7D7D41
:1009E0002E68352C68357B666F6E742D73697A6559
:1009F0003A312E323572656D7D2E68362C68367B25
:100A0000666F6E742D73697A653A3172656D7D70AB
:100A10007B6D617267696E2D746F703A303B6D61EA
:100A20007267696E2D626F74746F6D3A3172656DA5
:100A30007D616262725B646174612D62732D6F729D
:100A40006967696E616C2D7469746C655D2C616297
:100A500062725B7469746C655D7B746578742D6417
:100A600065636F726174696F6E3A756E6465726CFE
:100A7000696E653B2D7765626B69742D746578745A
:100A80002D6465636F726174696F6E3A756E64652B
:100A9000726C696E6520646F747465643B7465780C
:100AA000742D6465636F726174696F6E3A756E64FC
:100AB00065726C696E6520646F747465643B637500
:100AC00072736F723A68656C703B2D7765626B6903
:100AD000742D746578742D6465636F726174696FC9
:100AE0006E2D736B69702D696E6B3A6E6F6E653B20
:100AF000746578742D6465636F726174696F6E2DAF
:100B0000736B69702D696E6B3A6E6F6E657D616493
:100B100064726573737B6D617267696E2D626F7449
:100B2000746F6D3A3172656D3B666F6E742D7374C0
:100B3000796C653A6E6F726D616C3B6C696E652D98
:100B40006865696768743A696E68657269747D6F13
:100B50006C2C756C7B70616464696E672D6C656666
:100B6000743A3272656D7D646C2C6F6C2C756C7B85
:100B70006D617267696E2D746F703A303B6D617292
:100B800067696E2D626F74746F6D3A3172656D7D39
:100B90006F6C206F6C2C6F6C20756C2C756C206FDB
:100BA0006C2C756C20756C7B6D617267696E2D6243
:100BB0006F74746F6D3A307D64747B666F6E742DE4
:100BC0007765696768743A3730307D64647B6D613E
:100BD0007267696E2D626F74746F6D3A2E3572652F
:100BE0006D3B6D617267696E2D6C6566743A307D20
:100BF000626C6F636B71756F74657B6D6172676931
:100C00006E3A302030203172656D7D622C737472C3
:100C10006F6E677B666F6E742D7765696768743A6F
:100C2000626F6C6465727D2E736D616C6C2C736D7C
:100C3000616C6C7B666F6E742D73697A653A2E38C1
:100C40003735656D7D2E6D61726B2C6D61726B7BBE
:100C500070616464696E673A2E32656D3B626163F0
:100C60006B67726F756E642D636F6C6F723A23667B
:100C700063663865337D7375622C7375707B706F36
:100C8000736974696F6E3A72656C61746976653BFD
:100C9000666F6E742D73697A653A2E3735656D3BD4
:100CA0006C696E652D6865696768743A303B766576
:100CB00072746963616C2D616C69676E3A6261730D
:100CC000656C696E657D7375627B626F74746F6D40
:100CD0003A2D2E3235656D7D7375707B746F703A69
:100CE0002D2E35656D7D617B636F6C6F723A23309D
:100CF00064366566643B746578742D6465636F72F1
:100D00006174696F6E3A756E6465726C696E657D4B
:100D1000613A686F7665727B636F6C6F723A2330ED
:100D200061353863617D613A6E6F74285B68726506
:100D3000665D293A6E6F74285B636C6173735D291D
:100D40002C613A6E6F74285B687265665D293A6E35
:100D50006F74285B636C6173735D293A686F7665A5
:100D6000727B636F6C6F723A696E68657269743B0F
:100D7000746578742D6465636F726174696F6E3A1F
:100D80006E6F6E657D636F64652C6B62642C707230
:100D9000652C73616D707B666F6E742D66616D6915
:100DA0006C793A766172282D2D62732D666F6E74A0
:100DB0002D6D6F6E6F7370616365293B666F6E7426
:100DC0002D73697A653A31656D3B64697265637448
:100DD000696F6E3A6C74723B756E69636F64652DF2
:100DE000626964693A626964692D6F7665727269D5
:100DF00064657D7072657B646973706C61793A6259
:100E00006C6F636B3B6D617267696E2D746F703AC6
:100E1000303B6D617267696E2D626F74746F6D3AED
:100E20003172656D3B6F766572666C6F773A61758E
:100E3000746F3B666F6E742D73697A653A2E38371E
:100E400035656D7D70726520636F64657B666F6E5E
:100E5000742D73697A653A696E68657269743B636B
:100E60006F6C6F723A696E68657269743B776F7206
:100E7000642D627265616B3A6E6F726D616C7D6339
:100E80006F64657B666F6E742D73697A653A2E3870
:100E90003735656D3B636F6C6F723A23643633335D
:100EA00038343B776F72642D777261703A62726585
:100EB000616B2D776F72647D613E636F64657B63E8
:100EC0006F6C6F723A696E68657269747D6B62648B
:100ED0007B70616464696E673A2E3272656D202E94
:100EE0003472656D3B666F6E742D73697A653A2E48
:100EF000383735656D3B636F6C6F723A2366666693
:100F00003B6261636B67726F756E642D636F6C6FAC
:100F1000723A233231323532393B626F7264657214
:100F20002D7261646975733A2E3272656D7D6B62E4
:100F300064206B62647B70616464696E673A303B05
:100F4000666F6E742D73697A653A31656D3B666FB5
:100F50006E742D7765696768743A3730307D6669DD
:100F6000677572657B6D617267696E3A30203020FB
:100F70003172656D7D696D672C7376677B766572FE
:100F8000746963616C2D616C69676E3A6D69646444
:100F90006C657D7461626C657B63617074696F6E92
:100FA0002D736964653A626F74746F6D3B626F7222
:100FB0006465722D636F6C6C617073653A636F6CFE
:100FC0006C617073657D63617074696F6E7B706155
:100FD0006464696E672D746F703A2E3572656D3B6F
:100FE00070616464696E672D626F74746F6D3A2E00
:100FF0003572656D3B636F6C6F723A2336633735BC
:1010000037643B746578742D616C69676E3A6C6502
:1010100066747D74687B746578742D616C69676E25
:101020003A696E68657269743B746578742D616C99
:1010300069676E3A2D7765626B69742D6D617463B3
:10104000682D706172656E747D74626F64792C7442
:10105000642C74666F6F742C74682C74686561649A
:101060002C74727B626F726465722D636F6C6F7229
:101070003A696E68657269743B626F726465722D5D
:101080007374796C653A736F6C69643B626F7264F8
:1010900065722D77696474683A307D6C6162656C45
:1010A0007B646973706C61793A696E6C696E652DE9
:1010B000626C6F636B7D627574746F6E7B626F724E
:1010C0006465722D7261646975733A307D627574FE
:1010D000746F6E3A666F6375733A6E6F74283A6612
:1010E0006F6375732D76697369626C65297B6F75A3
:1010F000746C696E653A307D627574746F6E2C69BC
:101100006E7075742C6F707467726F75702C736568
:101110006C6563742C74657874617265617B6D6154
:101120007267696E3A303B666F6E742D66616D69E9
:101130006C793A696E68657269743B666F6E742D7E
:1011400073697A653A696E68657269743B6C696E39
:10115000652D6865696768743A696E686572697457
:101160007D627574746F6E2C73656C6563747B74CB
:101170006578742D7472616E73666F726D3A6E6FFE
:101180006E657D5B726F6C653D627574746F6E5DCC
:101190007B637572736F723A706F696E7465727D7E
:1011A00073656C6563747B776F72642D77726170A1
:1011B0003A6E6F726D616C7D5B6C6973745D3A3A07
:1011C0002D7765626B69742D63616C656E64617205
:1011D0002D7069636B65722D696E64696361746FEC
:1011E000727B646973706C61793A6E6F6E657D5B5A
:1011F000747970653D627574746F6E5D2C5B747983
:1012000070653D72657365745D2C5B747970653DC6
:101210007375626D69745D2C627574746F6E7B2D6D
:101220007765626B69742D617070656172616E6360
:10123000653A627574746F6E7D5B747970653D623A
:101240007574746F6E5D3A6E6F74283A6469736179
:10125000626C6564292C5B747970653D7265736599
:10126000745D3A6E6F74283A64697361626C656488
:10127000292C5B747970653D7375626D69745D3A94
:101280006E6F74283A64697361626C6564292C62BC
:101290007574746F6E3A6E6F74283A646973616224
:1012A0006C6564297B637572736F723A706F696ED7
:1012B0007465727D3A3A2D6D6F7A2D666F63757322
:1012C0002D696E6E65727B70616464696E673A3019
:1012D0003B626F726465722D7374796C653A6E6FE0
:1012E0006E657D74657874617265617B7265736922
:1012F0007A653A766572746963616C7D6669656C5E
:10130000647365747B6D696E2D77696474683A30B7
:101310003B70616464696E673A303B6D6172676906
:101320006E3A303B626F726465723A307D6C65670D
:10133000656E647B666C6F61743A6C6566743B774E
:10134000696474683A313030253B70616464696E59
:10135000673A303B6D617267696E2D626F74746FAE
:101360006D3A2E3572656D3B666F6E742D73697ABA
:10137000653A63616C6328312E32373572656D20B2
:101380002B202E337677293B6C696E652D68656955
:101390006768743A696E68657269747D406D6564EA
:1013A000696120286D696E2D77696474683A3132FD
:1013B00030307078297B6C6567656E647B666F6E14
:1013C000742D73697A653A312E3572656D7D7D6C49
:1013D0006567656E642B2A7B636C6561723A6C6528
:1013E00066747D3A3A2D7765626B69742D64617419
:1013F0006574696D652D656469742D6461792D6608
:1014000069656C642C3A3A2D7765626B69742D645A
:1014100061746574696D652D656469742D666965AF
:101420006C64732D777261707065722C3A3A2D7707
:1014300065626B69742D6461746574696D652D6591
:101440006469742D686F75722D6669656C642C3AD9
:101450003A2D7765626B69742D6461746574696D8A
:10146000652D656469742D6D696E7574652C3A3AE5
:101470002D7765626B69742D6461746574696D653F
:101480002D656469742D6D6F6E74682D6669656C69
:10149000642C3A3A2D7765626B69742D64617465CA
:1014A00074696D652D656469742D746578742C3A62
:1014B0003A2D7765626B69742D6461746574696D2A
:1014C000652D656469742D796561722D6669656C39
:1014D000647B70616464696E673A307D3A3A2D7757
:1014E00065626B69742D696E6E65722D7370696EBD
:1014F0002D627574746F6E7B6865696768743A6194
:1015000075746F7D5B747970653D73656172636836
:101510005D7B6F75746C696E652D6F66667365743F
:101520003A2D3270783B2D7765626B69742D61704E
:1015300070656172616E63653A7465787466696539
:101540006C647D3A3A2D7765626B69742D736561C1
:101550007263682D6465636F726174696F6E7B2D51
:101560007765626B69742D617070656172616E631D
:10157000653A6E6F6E657D3A3A2D7765626B697478
:101580002D636F6C6F722D7377617463682D777242
:1015900061707065727B70616464696E673A307DFA
:1015A0003A3A66696C652D73656C6563746F722D6C
:1015B000627574746F6E7B666F6E743A696E68657F
:1015C0007269747D3A3A2D7765626B69742D66692C
:1015D0006C652D75706C6F61642D627574746F6EBF
:1015E0007B666F6E743A696E68657269743B2D77BD
:1015F00065626B69742D617070656172616E63659F
:101600003A627574746F6E7D6F75747075747B64F7
:101610006973706C61793A696E6C696E652D626C84
:101620006F636B7D696672616D657B626F72646505
:10163000723A307D73756D6D6172797B6469737018
:101640006C61793A6C6973742D6974656D3B63756F
:1016500072736F723A706F696E7465727D70726FBB
:1016600067726573737B766572746963616C2D61F3
:101670006C69676E3A626173656C696E657D5B6803
:10168000696464656E5D7B646973706C61793A6EE0
:101690006F6E6521696D706F7274616E747D2E6CF2
:1016A0006561647B666F6E742D73697A653A312E5D
:1016B000323572656D3B666F6E742D77656967684C
:1016C000743A3330307D2E646973706C61792D31DA
:1016D0007B666F6E742D73697A653A63616C6328FB
:1016E000312E36323572656D202B20342E357677CB
:1016F000293B666F6E742D7765696768743A33307D
:10170000303B6C696E652D6865696768743A312E87
:10171000327D406D6564696120286D696E2D776941
:101720006474683A313230307078297B2E64697382
:10173000706C61792D317B666F6E742D73697A657B
:101740003A3572656D7D7D2E646973706C61792D9B
:10175000327B666F6E742D73697A653A63616C6370
:1017600028312E35373572656D202B20332E397692
:1017700077293B666F6E742D7765696768743A33B5
:1017800030303B6C696E652D6865696768743A3105
:101790002E327D406D6564696120286D696E2D77FC
:1017A000696474683A313230307078297B2E64690C
:1017B00073706C61792D327B666F6E742D73697AEC
:1017C000653A342E3572656D7D7D2E646973706C5B
:1017D00061792D337B666F6E742D73697A653A6318
:1017E000616C6328312E35323572656D202B2033C4
:1017F0002E337677293B666F6E742D77656967683F
:10180000743A3330303B6C696E652D686569676882
:10181000743A312E327D406D6564696120286D69AE
:101820006E2D77696474683A313230307078297B74
:101830002E646973706C61792D337B666F6E742DC5
:1018400073697A653A3472656D7D7D2E6469737053
:101850006C61792D347B666F6E742D73697A653A8D
:1018600063616C6328312E34373572656D202B200F
:10187000322E377677293B666F6E742D77656967F0
:1018800068743A3330303B6C696E652D6865696702
:1018900068743A312E327D406D6564696120286D2F
:1018A000696E2D77696474683A3132303070782906
:1018B0007B2E646973706C61792D347B666F6E74F6
:1018C0002D73697A653A332E3572656D7D7D2E6490
:1018D0006973706C61792D357B666F6E742D7369D9
:1018E0007A653A63616C6328312E34323572656DE6
:1018F000202B20322E317677293B666F6E742D7740
:1019000065696768743A3330303B6C696E652D6881
:1019100065696768743A312E327D406D656469612E
:1019200020286D696E2D77696474683A31323030E1
:101930007078297B2E646973706C61792D357B66B4
:101940006F6E742D73697A653A3372656D7D7D2E85
:10195000646973706C61792D367B666F6E742D735C
:10196000697A653A63616C6328312E333735726565
:101970006D202B20312E357677293B666F6E742DC6
:101980007765696768743A3330303B6C696E652DF2
:101990006865696768743A312E327D406D656469A7
:1019A0006120286D696E2D77696474683A31323030
:1019B000307078297B2E646973706C61792D367B69
:1019C000666F6E742D73697A653A322E3572656D65
:1019D0007D7D2E6C6973742D756E7374796C65647E
:1019E0007B70616464696E672D6C6566743A303B28
:1019F0006C6973742D7374796C653A6E6F6E657D66
:101A00002E6C6973742D696E6C696E657B70616490
:101A100064696E672D6C6566743A303B6C697374EB
:101A20002D7374796C653A6E6F6E657D2E6C69737B
:101A3000742D696E6C696E652D6974656D7B646962
:101A400073706C61793A696E6C696E652D626C6F4A
:101A5000636B7D2E6C6973742D696E6C696E652D78
:101A60006974656D3A6E6F74283A6C6173742D6396
:101A700068696C64297B6D617267696E2D72696734
:101A800068743A2E3572656D7D2E696E6974696170
:101A90006C69736D7B666F6E742D73697A653A2E0F
:101AA000383735656D3B746578742D7472616E736B
:101AB000666F726D3A7570706572636173657D2EC5
:101AC000626C6F636B71756F74657B6D6172676952
:101AD0006E2D626F74746F6D3A3172656D3B666F17
:101AE0006E742D73697A653A312E323572656D7D6B
:101AF0002E626C6F636B71756F74653E3A6C6173C7
:101B0000742D6368696C647B6D617267696E2D62A8
:101B10006F74746F6D3A307D2E626C6F636B71758C
:101B20006F74652D666F6F7465727B6D6172676926
:101B30006E2D746F703A2D3172656D3B6D617267F9
:101B4000696E2D626F74746F6D3A3172656D3B66AC
:101B50006F6E742D73697A653A2E383735656D3B33
:101B6000636F6C6F723A233663373537647D2E624C
:101B70006C6F636B71756F74652D666F6F746572D2
:101B80003A3A6265666F72657B636F6E74656E74F8
:101B90003A22E28094C2A0227D2E696D672D666C88
:101BA0007569647B6D61782D77696474683A31304A
:101BB00030253B6865696768743A6175746F7D2E7E
:101BC000696D672D7468756D626E61696C7B70619B
:101BD0006464696E673A2E323572656D3B6261638B
:101BE0006B67726F756E642D636F6C6F723A2366EC
:101BF00066663B626F726465723A31707820736F0B
:101C00006C696420236465653265363B626F72647B
:101C100065722D7261646975733A2E323572656D25
:101C20003B6D61782D77696474683A313030253BBB
:101C30006865696768743A6175746F7D2E66696757
:101C40007572657B646973706C61793A696E6C69F1
:101C50006E652D626C6F636B7D2E6669677572654C
:101C60002D696D677B6D617267696E2D626F74742B
:101C70006F6D3A2E3572656D3B6C696E652D6865CA
:101C8000696768743A317D2E6669677572652D6380
:101C9000617074696F6E7B666F6E742D73697A659F
:101CA0003A2E383735656D3B636F6C6F723A233669
:101CB00063373537647D2E636F6E7461696E65724C
:101CC0002C2E636F6E7461696E65722D666C75691A
:101CD000642C2E636F6E7461696E65722D6C672C57
:101CE0002E636F6E7461696E65722D6D642C2E6348
:101CF0006F6E7461696E65722D736D2C2E636F6EDD
:101D00007461696E65722D786C2C2E636F6E7461D0
:101D1000696E65722D78786C7B77696474683A3186
:101D20003030253B70616464696E672D7269676845
:101D3000743A766172282D2D62732D6775747465FF
:101D4000722D782C2E373572656D293B7061646475
:101D5000696E672D6C6566743A766172282D2D6206
:101D6000732D6775747465722D782C2E37357265F6
:101D70006D293B6D617267696E2D72696768743A8F
:101D80006175746F3B6D617267696E2D6C65667409
:101D90003A6175746F7D406D6564696120286D6975
:101DA0006E2D77696474683A3537367078297B2EE2
:101DB000636F6E7461696E65722C2E636F6E7461F1
:101DC000696E65722D736D7B6D61782D77696474B2
:101DD000683A35343070787D7D406D656469612086
:101DE000286D696E2D77696474683A373638707873
:101DF000297B2E636F6E7461696E65722C2E636F22
:101E00006E7461696E65722D6D642C2E636F6E74D5
:101E100061696E65722D736D7B6D61782D77696474
:101E200074683A37323070787D7D406D65646961E1
:101E300020286D696E2D77696474683A393932707B
:101E400078297B2E636F6E7461696E65722C2E63C8
:101E50006F6E7461696E65722D6C672C2E636F6E88
:101E60007461696E65722D6D642C2E636F6E746182
:101E7000696E65722D736D7B6D61782D7769647401
:101E8000683A39363070787D7D406D6564696120CF
:101E9000286D696E2D77696474683A31323030701C
:101EA00078297B2E636F6E7461696E65722C2E6368
:101EB0006F6E7461696E65722D6C672C2E636F6E28
:101EC0007461696E65722D6D642C2E636F6E746122
:101ED000696E65722D736D2C2E636F6E7461696E01
:101EE00065722D786C7B6D61782D77696474683AC2
:101EF0003131343070787D7D406D656469612028B2
:101F00006D696E2D77696474683A31343030707859
:101F1000297B2E636F6E7461696E65722C2E636F00
:101F20006E7461696E65722D6C672C2E636F6E74B2
:101F300061696E65722D6D642C2E636F6E746169BC
:101F40006E65722D736D2C2E636F6E7461696E6594
:101F5000722D786C2C2E636F6E7461696E65722DB4
:101F600078786C7B6D61782D77696474683A313369
:101F7000323070787D7D2E726F777B2D2D62732DC0
:101F80006775747465722D783A312E3572656D3BC4
:101F90002D2D62732D6775747465722D793A303BFF
:101FA000646973706C61793A666C65783B666C65E0
:101FB000782D777261703A777261703B6D617267EC
:101FC000696E2D746F703A63616C63287661722854
:101FD0002D2D62732D6775747465722D7929202AF1
:101FE000202D31293B6D617267696E2D72696768BA
:101FF000743A63616C6328766172282D2D62732DAB
:102000006775747465722D78292F202D32293B6DE8
:10201000617267696E2D6C6566743A63616C6328E2
:10202000766172282D2D62732D6775747465722D1B
:1020300078292F202D32297D2E726F773E2A7B66DC
:102040006C65782D736872696E6B3A303B776964A2
:1020500074683A313030253B6D61782D776964744E
:10206000683A313030253B70616464696E672D7267
:10207000696768743A63616C6328766172282D2DF4
:1020800062732D6775747465722D78292F2032293B
:102090003B70616464696E672D6C6566743A636158
:1020A0006C6328766172282D2D62732D67757474A8
:1020B00065722D78292F2032293B6D617267696E18
:1020C0002D746F703A766172282D2D62732D6775AD
:1020D000747465722D79297D2E636F6C7B666C65D7
:1020E000783A3120302030257D2E726F772D636F46
:1020F0006C732D6175746F3E2A7B666C65783A301F
:102100002030206175746F3B77696474683A61753B
:10211000746F7D2E726F772D636F6C732D313E2A35
:102120007B666C65783A302030206175746F3B7740
:10213000696474683A313030257D2E726F772D6373
:102140006F6C732D323E2A7B666C65783A30203096
:10215000206175746F3B77696474683A3530257D0A
:102160002E726F772D636F6C732D333E2A7B666CF6
:1021700065783A302030206175746F3B77696474FC
:10218000683A33332E3333333333333333333325F6
:102190007D2E726F772D636F6C732D343E2A7B66B4
:1021A0006C65783A302030206175746F3B776964D4
:1021B00074683A3235257D2E726F772D636F6C739C
:1021C0002D353E2A7B666C65783A3020302061756B
:1021D000746F3B77696474683A3230257D2E726F74
:1021E000772D636F6C732D363E2A7B666C65783A6B
:1021F000302030206175746F3B77696474683A31C0
:10220000362E36363636363636363637257D2E631A
:102210006F6C2D6175746F7B666C65783A30203019
:10222000206175746F3B77696474683A6175746F87
:102230007D2E636F6C2D317B666C65783A30203073
:10224000206175746F3B77696474683A382E333354
:102250003333333333333333257D2E636F6C2D3279
:102260007B666C65783A302030206175746F3B77FF
:10227000696474683A31362E363636363636363636
:102280003637257D2E636F6C2D337B666C65783A0F
:10229000302030206175746F3B77696474683A321E
:1022A00035257D2E636F6C2D347B666C65783A30F6
:1022B0002030206175746F3B77696474683A3333FA
:1022C0002E33333333333333333333257D2E636F40
:1022D0006C2D357B666C65783A30203020617574E2
:1022E0006F3B77696474683A34312E363636363649
:1022F0003636363637257D2E636F6C2D367B666C11
:1023000065783A302030206175746F3B776964746A
:10231000683A3530257D2E636F6C2D377B666C6592
:10232000783A302030206175746F3B776964746847
:102330003A35382E33333333333333333333257D28
:102340002E636F6C2D387B666C65783A30203020B8
:102350006175746F3B77696474683A36362E363629
:102360003636363636363637257D2E636F6C2D3948
:102370007B666C65783A302030206175746F3B77EE
:10238000696474683A3735257D2E636F6C2D313062
:102390007B666C65783A302030206175746F3B77CE
:1023A000696474683A38332E333333333333333319
:1023B0003333257D2E636F6C2D31317B666C6578F0
:1023C0003A302030206175746F3B77696474683AE5
:1023D00039312E36363636363636363637257D2E78
:1023E000636F6C2D31327B666C65783A302030201B
:1023F0006175746F3B77696474683A313030257D5C
:102400002E6F66667365742D317B6D617267696EC0
:102410002D6C6566743A382E3333333333333333AC
:102420003333257D2E6F66667365742D327B6D6147
:102430007267696E2D6C6566743A31362E363636A3
:1024400036363636363637257D2E6F6666736574BA
:102450002D337B6D617267696E2D6C6566743A32DF
:1024600035257D2E6F66667365742D347B6D6172C4
:1024700067696E2D6C6566743A33332E33333333AC
:10248000333333333333257D2E6F66667365742D96
:10249000357B6D617267696E2D6C6566743A343197
:1024A0002E36363636363636363637257D2E6F663C
:1024B000667365742D367B6D617267696E2D6C6510
:1024C00066743A3530257D2E6F66667365742D37D8
:1024D0007B6D617267696E2D6C6566743A35382E56
:1024E00033333333333333333333257D2E6F6666E3
:1024F0007365742D387B6D617267696E2D6C6566CE
:10250000743A36362E363636363636363636372541
:102510007D2E6F66667365742D397B6D6172676998
:102520006E2D6C6566743A3735257D2E6F66667341
:1025300065742D31307B6D617267696E2D6C6566D7
:10254000743A38332E333333333333333333332521
:102550007D2E6F66667365742D31317B6D61726798
:10256000696E2D6C6566743A39312E3636363636DC
:102570003636363637257D2E672D302C2E67782D52
:10258000307B2D2D62732D6775747465722D783ACA
:10259000307D2E672D302C2E67792D307B2D2D62CE
:1025A000732D6775747465722D793A307D2E672DA1
:1025B000312C2E67782D317B2D2D62732D6775742C
:1025C0007465722D783A302E323572656D7D2E67C6
:1025D0002D312C2E67792D317B2D2D62732D677552
:1025E000747465722D793A302E323572656D7D2E98
:1025F000672D322C2E67782D327B2D2D62732D673F
:1026000075747465722D783A302E3572656D7D2E35
:10261000672D322C2E67792D327B2D2D62732D671D
:1026200075747465722D793A302E3572656D7D2E14
:10263000672D332C2E67782D337B2D2D62732D67FC
:1026400075747465722D783A3172656D7D2E672DC3
:10265000332C2E67792D337B2D2D62732D67757486
:102660007465722D793A3172656D7D2E672D342C2B
:102670002E67782D347B2D2D62732D6775747465EC
:10268000722D783A312E3572656D7D2E672D342C82
:102690002E67792D347B2D2D62732D6775747465CB
:1026A000722D793A312E3572656D7D2E672D352C60
:1026B0002E67782D357B2D2D62732D6775747465AB
:1026C000722D783A3372656D7D2E672D352C2E670D
:1026D000792D357B2D2D62732D6775747465722D80
:1026E000793A3372656D7D406D6564696120286D4E
:1026F000696E2D77696474683A3537367078297B4E
:102700002E636F6C2D736D7B666C65783A3120306B
:102710002030257D2E726F772D636F6C732D736D56
:102720002D6175746F3E2A7B666C65783A30203077
:10273000206175746F3B77696474683A6175746F72
:102740007D2E726F772D636F6C732D736D2D313EFF
:102750002A7B666C65783A302030206175746F3B57
:1027600077696474683A313030257D2E726F772D29
:10277000636F6C732D736D2D323E2A7B666C6578AA
:102780003A302030206175746F3B77696474683A21
:102790003530257D2E726F772D636F6C732D736DC1
:1027A0002D333E2A7B666C65783A30203020617587
:1027B000746F3B77696474683A33332E3333333341
:1027C000333333333333257D2E726F772D636F6C44
:1027D000732D736D2D343E2A7B666C65783A3020FC
:1027E00030206175746F3B77696474683A323525BF
:1027F0007D2E726F772D636F6C732D736D2D353E4B
:102800002A7B666C65783A302030206175746F3BA6
:1028100077696474683A3230257D2E726F772D6344
:102820006F6C732D736D2D363E2A7B666C65783A1E
:10283000302030206175746F3B77696474683A3179
:10284000362E36363636363636363637257D2E63D4
:102850006F6C2D736D2D6175746F7B666C65783A46
:10286000302030206175746F3B77696474683A6119
:1028700075746F7D2E636F6C2D736D2D317B666C5F
:1028800065783A302030206175746F3B77696474E5
:10289000683A382E33333333333333333333257D90
:1028A0002E636F6C2D736D2D327B666C65783A30BC
:1028B0002030206175746F3B77696474683A3136F3
:1028C0002E36363636363636363637257D2E636F1B
:1028D0006C2D736D2D337B666C65783A302030201B
:1028E0006175746F3B77696474683A3235257D2E63
:1028F000636F6C2D736D2D347B666C65783A302078
:1029000030206175746F3B77696474683A33332E95
:1029100033333333333333333333257D2E636F6CAB
:102920002D736D2D357B666C65783A3020302061D3
:1029300075746F3B77696474683A34312E36363675
:1029400036363636363637257D2E636F6C2D736DF1
:102950002D367B666C65783A302030206175746F57
:102960003B77696474683A3530257D2E636F6C2D32
:10297000736D2D377B666C65783A30203020617539
:10298000746F3B77696474683A35382E3333333368
:10299000333333333333257D2E636F6C2D736D2DBD
:1029A000387B666C65783A302030206175746F3BF7
:1029B00077696474683A36362E36363636363636A9
:1029C000363637257D2E636F6C2D736D2D397B6602
:1029D0006C65783A302030206175746F3B7769649C
:1029E00074683A3735257D2E636F6C2D736D2D31EC
:1029F000307B666C65783A302030206175746F3BAF
:102A000077696474683A38332E333333333333336E
:102A1000333333257D2E636F6C2D736D2D31317BF8
:102A2000666C65783A302030206175746F3B776949
:102A30006474683A39312E3636363636363636369E
:102A400037257D2E636F6C2D736D2D31327B666C57
:102A500065783A302030206175746F3B7769647413
:102A6000683A313030257D2E6F66667365742D733C
:102A70006D2D307B6D617267696E2D6C6566743A81
:102A8000307D2E6F66667365742D736D2D317B6D91
:102A9000617267696E2D6C6566743A382E33333314
:102AA00033333333333333257D2E6F66667365746A
:102AB0002D736D2D327B6D617267696E2D6C65664D
:102AC000743A31362E363636363636363636372581
:102AD0007D2E6F66667365742D736D2D337B6D610E
:102AE0007267696E2D6C6566743A3235257D2E6F7E
:102AF00066667365742D736D2D347B6D61726769C5
:102B00006E2D6C6566743A33332E3333333333337F
:102B100033333333257D2E6F66667365742D736D85
:102B20002D357B6D617267696E2D6C6566743A3404
:102B3000312E36363636363636363637257D2E6FDA
:102B400066667365742D736D2D367B6D6172676972
:102B50006E2D6C6566743A3530257D2E6F66667312
:102B600065742D736D2D377B6D617267696E2D6C89
:102B70006566743A35382E33333333333333333376
:102B800033257D2E6F66667365742D736D2D387BCE
:102B90006D617267696E2D6C6566743A36362E36D5
:102BA000363636363636363637257D2E6F666673C0
:102BB00065742D736D2D397B6D617267696E2D6C37
:102BC0006566743A3735257D2E6F66667365742D9C
:102BD000736D2D31307B6D617267696E2D6C65662A
:102BE000743A38332E33333333333333333333257B
:102BF0007D2E6F66667365742D736D2D31317B6D1F
:102C0000617267696E2D6C6566743A39312E36369D
:102C10003636363636363637257D2E672D736D2D92
:102C2000302C2E67782D736D2D307B2D2D62732DFA
:102C30006775747465722D783A307D2E672D736DCB
:102C40002D302C2E67792D736D2D307B2D2D6273D9
:102C50002D6775747465722D793A307D2E672D73EA
:102C60006D2D312C2E67782D736D2D317B2D2D62BE
:102C7000732D6775747465722D783A302E32357203
:102C8000656D7D2E672D736D2D312C2E67792D731B
:102C90006D2D317B2D2D62732D6775747465722DCA
:102CA000793A302E323572656D7D2E672D736D2D1C
:102CB000322C2E67782D736D2D327B2D2D62732D66
:102CC0006775747465722D783A302E3572656D7D36
:102CD0002E672D736D2D322C2E67792D736D2D324D
:102CE0007B2D2D62732D6775747465722D793A3062
:102CF0002E3572656D7D2E672D736D2D332C2E67ED
:102D0000782D736D2D337B2D2D62732D6775747443
:102D100065722D783A3172656D7D2E672D736D2D3C
:102D2000332C2E67792D736D2D337B2D2D62732DF2
:102D30006775747465722D793A3172656D7D2E6791
:102D40002D736D2D342C2E67782D736D2D347B2DC6
:102D50002D62732D6775747465722D783A312E3536
:102D600072656D7D2E672D736D2D342C2E67792D38
:102D7000736D2D347B2D2D62732D677574746572A0
:102D80002D793A312E3572656D7D2E672D736D2D3F
:102D9000352C2E67782D736D2D357B2D2D62732D7F
:102DA0006775747465722D783A3372656D7D2E6720
:102DB0002D736D2D352C2E67792D736D2D357B2D53
:102DC0002D62732D6775747465722D793A3372654F
:102DD0006D7D7D406D6564696120286D696E2D771C
:102DE000696474683A3736387078297B2E636F6C63
:102DF0002D6D647B666C65783A3120302030257DFE
:102E00002E726F772D636F6C732D6D642D617574E9
:102E10006F3E2A7B666C65783A302030206175748D
:102E20006F3B77696474683A6175746F7D2E726F59
:102E3000772D636F6C732D6D642D313E2A7B666C2C
:102E400065783A302030206175746F3B776964741F
:102E5000683A313030257D2E726F772D636F6C7339
:102E60002D6D642D323E2A7B666C65783A302030B9
:102E7000206175746F3B77696474683A3530257DDD
:102E80002E726F772D636F6C732D6D642D333E2A18
:102E90007B666C65783A302030206175746F3B77C3
:102EA000696474683A33332E333333333333333313
:102EB0003333257D2E726F772D636F6C732D6D64A8
:102EC0002D343E2A7B666C65783A3020302061755F
:102ED000746F3B77696474683A3235257D2E726F62
:102EE000772D636F6C732D6D642D353E2A7B666C78
:102EF00065783A302030206175746F3B776964746F
:102F0000683A3230257D2E726F772D636F6C732D8A
:102F10006D642D363E2A7B666C65783A3020302011
:102F20006175746F3B77696474683A31362E363652
:102F30003636363636363637257D2E636F6C2D6D38
:102F4000642D6175746F7B666C65783A3020302033
:102F50006175746F3B77696474683A6175746F7DED
:102F60002E636F6C2D6D642D317B666C65783A3005
:102F70002030206175746F3B77696474683A382E2D
:102F800033333333333333333333257D2E636F6C35
:102F90002D6D642D327B666C65783A30203020616F
:102FA00075746F3B77696474683A31362E363636FD
:102FB00036363636363637257D2E636F6C2D6D648A
:102FC0002D337B666C65783A302030206175746FE4
:102FD0003B77696474683A3235257D2E636F6C2DBA
:102FE0006D642D347B666C65783A302030206175D5
:102FF000746F3B77696474683A33332E33333333F9
:10300000333333333333257D2E636F6C2D6D642D55
:10301000357B666C65783A302030206175746F3B83
:1030200077696474683A34312E3636363636363639
:10303000363637257D2E636F6C2D6D642D367B669D
:103040006C65783A302030206175746F3B77696425
:1030500074683A3530257D2E636F6C2D6D642D3785
:103060007B666C65783A302030206175746F3B77F1
:10307000696474683A35382E33333333333333333A
:103080003333257D2E636F6C2D6D642D387B666C1C
:1030900065783A302030206175746F3B77696474CD
:1030A000683A36362E3636363636363636363725A2
:1030B0007D2E636F6C2D6D642D397B666C65783A5F
:1030C000302030206175746F3B77696474683A37DB
:1030D00035257D2E636F6C2D6D642D31307B666CD4
:1030E00065783A302030206175746F3B776964747D
:1030F000683A38332E333333333333333333332572
:103100007D2E636F6C2D6D642D31317B666C65781F
:103110003A302030206175746F3B77696474683A87
:1031200039312E36363636363636363637257D2E1A
:10313000636F6C2D6D642D31327B666C65783A302F
:103140002030206175746F3B77696474683A313060
:1031500030257D2E6F66667365742D6D642D307B12
:103160006D617267696E2D6C6566743A307D2E6F85
:1031700066667365742D6D642D317B6D6172676950
:103180006E2D6C6566743A382E33333333333333F4
:10319000333333257D2E6F66667365742D6D642D14
:1031A000327B6D617267696E2D6C6566743A31367B
:1031B0002E36363636363636363637257D2E6F661F
:1031C000667365742D6D642D337B6D617267696EF6
:1031D0002D6C6566743A3235257D2E6F6666736593
:1031E000742D6D642D347B6D617267696E2D6C6515
:1031F00066743A33332E3333333333333333333329
:10320000257D2E6F66667365742D6D642D357B6D1F
:10321000617267696E2D6C6566743A34312E36368C
:103220003636363636363637257D2E6F666673650A
:10323000742D6D642D367B6D617267696E2D6C65C2
:1032400066743A3530257D2E6F66667365742D6D14
:10325000642D377B6D617267696E2D6C6566743A9B
:1032600035382E33333333333333333333257D2EF5
:103270006F66667365742D6D642D387B6D61726742
:10328000696E2D6C6566743A36362E3636363636AD
:103290003636363637257D2E6F66667365742D6D2E
:1032A000642D397B6D617267696E2D6C6566743A49
:1032B0003735257D2E6F66667365742D6D642D31EF
:1032C000307B6D617267696E2D6C6566743A383358
:1032D0002E33333333333333333333257D2E6F661D
:1032E000667365742D6D642D31317B6D6172676914
:1032F0006E2D6C6566743A39312E36363636363672
:1033000036363637257D2E672D6D642D302C2E6791
:10331000782D6D642D307B2D2D62732D677574743F
:1033200065722D783A307D2E672D6D642D302C2EF0
:1033300067792D6D642D307B2D2D62732D6775742B
:103340007465722D793A307D2E672D6D642D312C88
:103350002E67782D6D642D317B2D2D62732D677551
:10336000747465722D783A302E323572656D7D2E0B
:10337000672D6D642D312C2E67792D6D642D317B79
:103380002D2D62732D6775747465722D793A302E08
:10339000323572656D7D2E672D6D642D322C2E6752
:1033A000782D6D642D327B2D2D62732D67757474AD
:1033B00065722D783A302E3572656D7D2E672D6DD4
:1033C000642D322C2E67792D6D642D327B2D2D626C
:1033D000732D6775747465722D793A302E35726568
:1033E0006D7D2E672D6D642D332C2E67782D6D64C9
:1033F0002D337B2D2D62732D6775747465722D7856
:103400003A3172656D7D2E672D6D642D332C2E67DC
:10341000792D6D642D337B2D2D62732D677574743A
:1034200065722D793A3172656D7D2E672D6D642D33
:10343000342C2E67782D6D642D347B2D2D62732DE9
:103440006775747465722D783A312E3572656D7DAD
:103450002E672D6D642D342C2E67792D6D642D34DF
:103460007B2D2D62732D6775747465722D793A31D9
:103470002E3572656D7D2E672D6D642D352C2E6772
:10348000782D6D642D357B2D2D62732D67757474C9
:1034900065722D783A3372656D7D2E672D6D642DC2
:1034A000352C2E67792D6D642D357B2D2D62732D76
:1034B0006775747465722D793A3372656D7D7D40E0
:1034C0006D6564696120286D696E2D776964746823
:1034D0003A3939327078297B2E636F6C2D6C677B9B
:1034E000666C65783A3120302030257D2E726F77FA
:1034F0002D636F6C732D6C672D6175746F3E2A7B25
:10350000666C65783A302030206175746F3B77695E
:103510006474683A6175746F7D2E726F772D636F76
:103520006C732D6C672D313E2A7B666C65783A3062
:103530002030206175746F3B77696474683A31306C
:1035400030257D2E726F772D636F6C732D6C672D18
:10355000323E2A7B666C65783A3020302061757483
:103560006F3B77696474683A3530257D2E726F77CA
:103570002D636F6C732D6C672D333E2A7B666C65F3
:10358000783A302030206175746F3B7769647468D5
:103590003A33332E33333333333333333333257DBD
:1035A0002E726F772D636F6C732D6C672D343E2AEE
:1035B0007B666C65783A302030206175746F3B779C
:1035C000696474683A3235257D2E726F772D636F8A
:1035D0006C732D6C672D353E2A7B666C65783A30AE
:1035E0002030206175746F3B77696474683A3230BB
:1035F000257D2E726F772D636F6C732D6C672D3662
:103600003E2A7B666C65783A302030206175746F95
:103610003B77696474683A31362E3636363636363C
:1036200036363637257D2E636F6C2D6C672D6175B0
:10363000746F7B666C65783A302030206175746FEA
:103640003B77696474683A6175746F7D2E636F6C43
:103650002D6C672D317B666C65783A3020302061A7
:1036600075746F3B77696474683A382E333333333B
:10367000333333333333257D2E636F6C2D6C672DDD
:10368000327B666C65783A302030206175746F3B10
:1036900077696474683A31362E36363636363636C1
:1036A000363637257D2E636F6C2D6C672D337B6628
:1036B0006C65783A302030206175746F3B776964AF
:1036C00074683A3235257D2E636F6C2D6C672D340E
:1036D0007B666C65783A302030206175746F3B777B
:1036E000696474683A33332E3333333333333333CB
:1036F0003333257D2E636F6C2D6C672D357B666CA7
:1037000065783A302030206175746F3B7769647456
:10371000683A34312E363636363636363636372532
:103720007D2E636F6C2D6C672D367B666C65783AE9
:10373000302030206175746F3B77696474683A3566
:1037400030257D2E636F6C2D6C672D377B666C6525
:10375000783A302030206175746F3B776964746803
:103760003A35382E33333333333333333333257DE4
:103770002E636F6C2D6C672D387B666C65783A30E4
:103780002030206175746F3B77696474683A36360F
:103790002E36363636363636363637257D2E636F3C
:1037A0006C2D6C672D397B666C65783A3020302043
:1037B0006175746F3B77696474683A3735257D2E7F
:1037C000636F6C2D6C672D31307B666C65783A3099
:1037D0002030206175746F3B77696474683A3833C0
:1037E0002E33333333333333333333257D2E636F0B
:1037F0006C2D6C672D31317B666C65783A302030EA
:10380000206175746F3B77696474683A39312E367C
:10381000363636363636363637257D2E636F6C2D86
:103820006C672D31327B666C65783A3020302061D0
:1038300075746F3B77696474683A313030257D2E3A
:103840006F66667365742D6C672D307B6D61726772
:10385000696E2D6C6566743A307D2E6F6666736591
:10386000742D6C672D317B6D617267696E2D6C658F
:1038700066743A382E3333333333333333333325AB
:103880007D2E6F66667365742D6C672D327B6D615E
:103890007267696E2D6C6566743A31362E3636362F
:1038A00036363636363637257D2E6F666673657446
:1038B0002D6C672D337B6D617267696E2D6C65664B
:1038C000743A3235257D2E6F66667365742D6C678C
:1038D0002D347B6D617267696E2D6C6566743A3349
:1038E000332E33333333333333333333257D2E6F3A
:1038F00066667365742D6C672D357B6D61726769C3
:103900006E2D6C6566743A34312E36363636363660
:1039100036363637257D2E6F66667365742D6C6777
:103920002D367B6D617267696E2D6C6566743A35F4
:1039300030257D2E6F66667365742D6C672D377B21
:103940006D617267696E2D6C6566743A35382E3319
:10395000333333333333333333257D2E6F6666731E
:1039600065742D6C672D387B6D617267696E2D6C87
:103970006566743A36362E3636363636363636364E
:1039800037257D2E6F66667365742D6C672D397BC8
:103990006D617267696E2D6C6566743A3735257D89
:1039A0002E6F66667365742D6C672D31307B6D618B
:1039B0007267696E2D6C6566743A38332E33333313
:1039C00033333333333333257D2E6F66667365743B
:1039D0002D6C672D31317B6D617267696E2D6C6561
:1039E00066743A39312E363636363636363636370E
:1039F000257D2E672D6C672D302C2E67782D6C67FA
:103A00002D307B2D2D62732D6775747465722D7842
:103A10003A307D2E672D6C672D302C2E67792D6CFA
:103A2000672D307B2D2D62732D6775747465722D33
:103A3000793A307D2E672D6C672D312C2E67782DCD
:103A40006C672D317B2D2D62732D677574746572D3
:103A50002D783A302E323572656D7D2E672D6C676C
:103A60002D312C2E67792D6C672D317B2D2D6273B6
:103A70002D6775747465722D793A302E3235726502
:103A80006D7D2E672D6C672D322C2E67782D6C671F
:103A90002D327B2D2D62732D6775747465722D78B0
:103AA0003A302E3572656D7D2E672D6C672D322C68
:103AB0002E67792D6C672D327B2D2D62732D6775E6
:103AC000747465722D793A302E3572656D7D2E676E
:103AD0002D6C672D332C2E67782D6C672D337B2D45
:103AE0002D62732D6775747465722D783A31726525
:103AF0006D7D2E672D6C672D332C2E67792D6C67AD
:103B00002D337B2D2D62732D6775747465722D793D
:103B10003A3172656D7D2E672D6C672D342C2E67C2
:103B2000782D6C672D347B2D2D62732D6775747421
:103B300065722D783A312E3572656D7D2E672D6C4C
:103B4000672D342C2E67792D6C672D347B2D2D62DB
:103B5000732D6775747465722D793A312E357265DF
:103B60006D7D2E672D6C672D352C2E67782D6C673B
:103B70002D357B2D2D62732D6775747465722D78CC
:103B80003A3372656D7D2E672D6C672D352C2E674F
:103B9000792D6C672D357B2D2D62732D67757474AF
:103BA00065722D793A3372656D7D7D406D6564690E
:103BB0006120286D696E2D77696474683A313230FE
:103BC000307078297B2E636F6C2D786C7B666C650A
:103BD000783A3120302030257D2E726F772D636F3B
:103BE0006C732D786C2D6175746F3E2A7B666C65E5
:103BF000783A302030206175746F3B77696474685F
:103C00003A6175746F7D2E726F772D636F6C732DB3
:103C1000786C2D313E2A7B666C65783A30203020F6
:103C20006175746F3B77696474683A313030257D13
:103C30002E726F772D636F6C732D786C2D323E2A48
:103C40007B666C65783A302030206175746F3B7705
:103C5000696474683A3530257D2E726F772D636FF5
:103C60006C732D786C2D333E2A7B666C65783A3008
:103C70002030206175746F3B77696474683A333320
:103C80002E33333333333333333333257D2E726F57
:103C9000772D636F6C732D786C2D343E2A7B666CA8
:103CA00065783A302030206175746F3B77696474B1
:103CB000683A3235257D2E726F772D636F6C732DC8
:103CC000786C2D353E2A7B666C65783A3020302042
:103CD0006175746F3B77696474683A3230257D2E64
:103CE000726F772D636F6C732D786C2D363E2A7B47
:103CF000666C65783A302030206175746F3B776967
:103D00006474683A31362E363636363636363636BE
:103D100037257D2E636F6C2D786C2D6175746F7BEC
:103D2000666C65783A302030206175746F3B776936
:103D30006474683A6175746F7D2E636F6C2D786C56
:103D40002D317B666C65783A302030206175746F58
:103D50003B77696474683A382E3333333333333303
:103D6000333333257D2E636F6C2D786C2D327B665B
:103D70006C65783A302030206175746F3B776964E8
:103D800074683A31362E363636363636363636376B
:103D9000257D2E636F6C2D786C2D337B666C65787A
:103DA0003A302030206175746F3B77696474683AEB
:103DB0003235257D2E636F6C2D786C2D347B666CCF
:103DC00065783A302030206175746F3B7769647490
:103DD000683A33332E33333333333333333333258A
:103DE0007D2E636F6C2D786C2D357B666C65783A13
:103DF000302030206175746F3B77696474683A34A1
:103E0000312E36363636363636363637257D2E6303
:103E10006F6C2D786C2D367B666C65783A3020306F
:103E2000206175746F3B77696474683A3530257D1D
:103E30002E636F6C2D786C2D377B666C65783A300D
:103E40002030206175746F3B77696474683A353847
:103E50002E33333333333333333333257D2E636F94
:103E60006C2D786C2D387B666C65783A302030206C
:103E70006175746F3B77696474683A36362E3636EE
:103E80003636363636363637257D2E636F6C2D78CE
:103E90006C2D397B666C65783A3020302061757402
:103EA0006F3B77696474683A3735257D2E636F6C94
:103EB0002D786C2D31307B666C65783A302030205F
:103EC0006175746F3B77696474683A38332E3333A5
:103ED0003333333333333333257D2E636F6C2D7897
:103EE0006C2D31317B666C65783A302030206175FD
:103EF000746F3B77696474683A39312E36363636DA
:103F0000363636363637257D2E636F6C2D786C2D20
:103F100031327B666C65783A302030206175746F81
:103F20003B77696474683A313030257D2E6F666660
:103F30007365742D786C2D307B6D617267696E2DA1
:103F40006C6566743A307D2E6F66667365742D7885
:103F50006C2D317B6D617267696E2D6C6566743A8C
:103F6000382E33333333333333333333257D2E6FAE
:103F700066667365742D786C2D327B6D617267692E
:103F80006E2D6C6566743A31362E363636363636D8
:103F900036363637257D2E6F66667365742D786CE0
:103FA0002D337B6D617267696E2D6C6566743A3274
:103FB00035257D2E6F66667365742D786C2D347B88
:103FC0006D617267696E2D6C6566743A33332E339A
:103FD000333333333333333333257D2E6F66667398
:103FE00065742D786C2D357B6D617267696E2D6CF3
:103FF0006566743A34312E363636363636363636CF
:1040000037257D2E6F66667365742D786C2D367B33
:104010006D617267696E2D6C6566743A3530257D09
:104020002E6F66667365742D786C2D377B6D6172AB
:1040300067696E2D6C6566743A35382E33333333C9
:10404000333333333333257D2E6F66667365742DBA
:10405000786C2D387B6D617267696E2D6C65667446
:104060003A36362E36363636363636363637257DBD
:104070002E6F66667365742D786C2D397B6D617259
:1040800067696E2D6C6566743A3735257D2E6F66CF
:10409000667365742D786C2D31307B6D6172676944
:1040A0006E2D6C6566743A38332E333333333333C5
:1040B00033333333257D2E6F66667365742D786CCC
:1040C0002D31317B6D617267696E2D6C6566743A56
:1040D00039312E36363636363636363637257D2E5B
:1040E000672D786C2D302C2E67782D786C2D307BD9
:1040F0002D2D62732D6775747465722D783A307D3D
:104100002E672D786C2D302C2E67792D786C2D3004
:104110007B2D2D62732D6775747465722D793A301D
:104120007D2E672D786C2D312C2E67782D786C2D97
:10413000317B2D2D62732D6775747465722D783AFD
:10414000302E323572656D7D2E672D786C2D312CB9
:104150002E67792D786C2D317B2D2D62732D67752F
:10416000747465722D793A302E323572656D7D2EFC
:10417000672D786C2D322C2E67782D786C2D327B44
:104180002D2D62732D6775747465722D783A302EFB
:104190003572656D7D2E672D786C2D322C2E6779EA
:1041A0002D786C2D327B2D2D62732D67757474659F
:1041B000722D793A302E3572656D7D2E672D786CB3
:1041C0002D332C2E67782D786C2D337B2D2D62733B
:1041D0002D6775747465722D783A3172656D7D2E18
:1041E000672D786C2D332C2E67792D786C2D337BD1
:1041F0002D2D62732D6775747465722D793A317245
:10420000656D7D2E672D786C2D342C2E67782D787A
:104210006C2D347B2D2D62732D6775747465722D32
:10422000783A312E3572656D7D2E672D786C2D3480
:104230002C2E67792D786C2D347B2D2D62732D6794
:1042400075747465722D793A312E3572656D7D2ED7
:10425000672D786C2D352C2E67782D786C2D357B5D
:104260002D2D62732D6775747465722D783A3372D3
:10427000656D7D2E672D786C2D352C2E67792D7808
:104280006C2D357B2D2D62732D6775747465722DC1
:10429000793A3372656D7D7D406D65646961202872
:1042A0006D696E2D77696474683A31343030707896
:1042B000297B2E636F6C2D78786C7B666C65783A01
:1042C0003120302030257D2E726F772D636F6C7317
:1042D0002D78786C2D6175746F3E2A7B666C6578DD
:1042E0003A302030206175746F3B77696474683AA6
:1042F0006175746F7D2E726F772D636F6C732D787F
:10430000786C2D313E2A7B666C65783A30203020FF
:104310006175746F3B77696474683A313030257D1C
:104320002E726F772D636F6C732D78786C2D323E03
:104330002A7B666C65783A302030206175746F3B5B
:1043400077696474683A3530257D2E726F772D63F6
:104350006F6C732D78786C2D333E2A7B666C657894
:104360003A302030206175746F3B77696474683A25
:1043700033332E33333333333333333333257D2EDB
:10438000726F772D636F6C732D78786C2D343E2AA5
:104390007B666C65783A302030206175746F3B77AE
:1043A000696474683A3235257D2E726F772D636F9C
:1043B0006C732D78786C2D353E2A7B666C65783A67
:1043C000302030206175746F3B77696474683A32CD
:1043D00030257D2E726F772D636F6C732D78786C1E
:1043E0002D363E2A7B666C65783A30203020617528
:1043F000746F3B77696474683A31362E36363636D8
:10440000363636363637257D2E636F6C2D78786CD0
:104410002D6175746F7B666C65783A302030206151
:1044200075746F3B77696474683A6175746F7D2E3B
:10443000636F6C2D78786C2D317B666C65783A30C3
:104440002030206175746F3B77696474683A382E48
:1044500033333333333333333333257D2E636F6C50
:104460002D78786C2D327B666C65783A3020302060
:104470006175746F3B77696474683A31362E3636ED
:104480003636363636363637257D2E636F6C2D78C8
:10449000786C2D337B666C65783A302030206175FE
:1044A000746F3B77696474683A3235257D2E636F8B
:1044B0006C2D78786C2D347B666C65783A302030C2
:1044C000206175746F3B77696474683A33332E33B7
:1044D000333333333333333333257D2E636F6C2DD6
:1044E00078786C2D357B666C65783A3020302061A9
:1044F00075746F3B77696474683A34312E3636369A
:1045000036363636363637257D2E636F6C2D787805
:104510006C2D367B666C65783A302030206175747E
:104520006F3B77696474683A3530257D2E636F6C14
:104530002D78786C2D377B666C65783A302030208A
:104540006175746F3B77696474683A35382E33331C
:104550003333333333333333257D2E636F6C2D7810
:10456000786C2D387B666C65783A30203020617528
:10457000746F3B77696474683A36362E3636363651
:10458000363636363637257D2E636F6C2D78786C4F
:104590002D397B666C65783A302030206175746FF8
:1045A0003B77696474683A3735257D2E636F6C2DCF
:1045B00078786C2D31307B666C65783A302030200D
:1045C0006175746F3B77696474683A38332E33339E
:1045D0003333333333333333257D2E636F6C2D7890
:1045E000786C2D31317B666C65783A3020302061F3
:1045F00075746F3B77696474683A39312E36363694
:1046000036363636363637257D2E636F6C2D787804
:104610006C2D31327B666C65783A302030206175C4
:10462000746F3B77696474683A313030257D2E6F42
:1046300066667365742D78786C2D307B6D6172675A
:10464000696E2D6C6566743A307D2E6F6666736593
:10465000742D78786C2D317B6D617267696E2D6C6D
:104660006566743A382E333333333333333333336D
:10467000257D2E6F66667365742D78786C2D327B80
:104680006D617267696E2D6C6566743A31362E36CF
:10469000363636363636363637257D2E6F666673B5
:1046A00065742D78786C2D337B6D617267696E2D22
:1046B0006C6566743A3235257D2E6F666673657457
:1046C0002D78786C2D347B6D617267696E2D6C6509
:1046D00066743A33332E3333333333333333333334
:1046E000257D2E6F66667365742D78786C2D357B0D
:1046F0006D617267696E2D6C6566743A34312E3661
:10470000363636363636363637257D2E6F66667344
:1047100065742D78786C2D367B6D617267696E2DAE
:104720006C6566743A3530257D2E6F6666736574E8
:104730002D78786C2D377B6D617267696E2D6C6595
:1047400066743A35382E33333333333333333333BC
:10475000257D2E6F66667365742D78786C2D387B99
:104760006D617267696E2D6C6566743A36362E36E9
:10477000363636363636363637257D2E6F666673D4
:1047800065742D78786C2D397B6D617267696E2D3B
:104790006C6566743A3735257D2E6F666673657471
:1047A0002D78786C2D31307B6D617267696E2D6C60
:1047B0006566743A38332E3333333333333333331C
:1047C00033257D2E6F66667365742D78786C2D3178
:1047D000317B6D617267696E2D6C6566743A393133
:1047E0002E36363636363636363637257D2E672D1A
:1047F00078786C2D302C2E67782D78786C2D307B66
:104800002D2D62732D6775747465722D783A307D25
:104810002E672D78786C2D302C2E67792D78786C5A
:104820002D307B2D2D62732D6775747465722D7913
:104830003A307D2E672D78786C2D312C2E67782DAF
:1048400078786C2D317B2D2D62732D6775747465AE
:10485000722D783A302E323572656D7D2E672D7847
:10486000786C2D312C2E67792D78786C2D317B2D3D
:104870002D62732D6775747465722D793A302E32FE
:104880003572656D7D2E672D78786C2D322C2E67F4
:10489000782D78786C2D327B2D2D62732D67757491
:1048A0007465722D783A302E3572656D7D2E672DC8
:1048B00078786C2D322C2E67792D78786C2D327BA0
:1048C0002D2D62732D6775747465722D793A302EB3
:1048D0003572656D7D2E672D78786C2D332C2E67A3
:1048E000782D78786C2D337B2D2D62732D67757440
:1048F0007465722D783A3172656D7D2E672D7878EA
:104900006C2D332C2E67792D78786C2D337B2D2DE3
:1049100062732D6775747465722D793A3172656DA5
:104920007D2E672D78786C2D342C2E67782D787835
:104930006C2D347B2D2D62732D6775747465722D0B
:10494000783A312E3572656D7D2E672D78786C2D15
:10495000342C2E67792D78786C2D347B2D2D627355
:104960002D6775747465722D793A312E3572656DC7
:104970007D2E672D78786C2D352C2E67782D7878E4
:104980006C2D357B2D2D62732D6775747465722DBA
:10499000783A3372656D7D2E672D78786C2D352CC5
:1049A0002E67792D78786C2D357B2D2D62732D67D0
:1049B00075747465722D793A3372656D7D7D2E74D0
:1049C00061626C657B2D2D62732D7461626C652D47
:1049D00062673A7472616E73706172656E743B2DBA
:1049E0002D62732D7461626C652D737472697065CC
:1049F000642D636F6C6F723A233231323532393B3A
:104A00002D2D62732D7461626C652D7374726970E3
:104A100065642D62673A7267626128302C20302C01
:104A200020302C20302E3035293B2D2D62732D74F3
:104A300061626C652D6163746976652D636F6C6F5F
:104A4000723A233231323532393B2D2D62732D7457
:104A500061626C652D6163746976652D62673A7277
:104A600067626128302C20302C20302C20302E31F1
:104A7000293B2D2D62732D7461626C652D686F76F4
:104A800065722D636F6C6F723A2332313235323971
:104A90003B2D2D62732D7461626C652D686F766598
:104AA000722D62673A7267626128302C20302C20A8
:104AB000302C20302E303735293B77696474683AC2
:104AC000313030253B6D617267696E2D626F747491
:104AD0006F6D3A3172656D3B636F6C6F723A233262
:104AE00031323532393B766572746963616C2D61A0
:104AF0006C69676E3A746F703B626F726465722D99
:104B0000636F6C6F723A236465653265367D2E740F
:104B100061626C653E3A6E6F742863617074696F90
:104B20006E293E2A3E2A7B70616464696E673A2E64
:104B30003572656D202E3572656D3B6261636B6702
:104B4000726F756E642D636F6C6F723A7661722846
:104B50002D2D62732D7461626C652D6267293B6235
:104B60006F726465722D626F74746F6D2D776964F6
:104B700074683A3170783B626F782D736861646F46
:104B8000773A696E736574203020302030203939CF
:104B90003939707820766172282D2D62732D7461F9
:104BA000626C652D616363656E742D6267297D2E6D
:104BB0007461626C653E74626F64797B7665727451
:104BC0006963616C2D616C69676E3A696E686572C4
:104BD00069747D2E7461626C653E74686561647B86
:104BE000766572746963616C2D616C69676E3A6297
:104BF0006F74746F6D7D2E7461626C653E3A6E6F7A
:104C000074283A6C6173742D6368696C64293E3A48
:104C10006C6173742D6368696C643E2A7B626F7289
:104C20006465722D626F74746F6D2D636F6C6F723B
:104C30003A63757272656E74436F6C6F727D2E632A
:104C4000617074696F6E2D746F707B6361707469CD
:104C50006F6E2D736964653A746F707D2E74616236
:104C60006C652D736D3E3A6E6F7428636170746964
:104C70006F6E293E2A3E2A7B70616464696E673AD2
:104C80002E323572656D202E323572656D7D2E7433
:104C900061626C652D626F7264657265643E3A6E26
:104CA0006F742863617074696F6E293E2A7B626F2E
:104CB000726465722D77696474683A317078203057
:104CC0007D2E7461626C652D626F726465726564BD
:104CD0003E3A6E6F742863617074696F6E293E2A64
:104CE0003E2A7B626F726465722D77696474683ADC
:104CF00030203170787D2E7461626C652D626F7228
:104D00006465726C6573733E3A6E6F74286361708C
:104D100074696F6E293E2A3E2A7B626F72646572E7
:104D20002D626F74746F6D2D77696474683A307D8D
:104D30002E7461626C652D737472697065643E7463
:104D4000626F64793E74723A6E74682D6F662D746A
:104D5000797065286F6464297B2D2D62732D7461D1
:104D6000626C652D616363656E742D62673A76616E
:104D700072282D2D62732D7461626C652D737472AF
:104D8000697065642D6267293B636F6C6F723A7658
:104D90006172282D2D62732D7461626C652D7374A0
:104DA00072697065642D636F6C6F72297D2E7461FA
:104DB000626C652D6163746976657B2D2D62732D40
:104DC0007461626C652D616363656E742D62673A10
:104DD000766172282D2D62732D7461626C652D6170
:104DE00063746976652D6267293B636F6C6F723AF5
:104DF000766172282D2D62732D7461626C652D6150
:104E000063746976652D636F6C6F72297D2E746192
:104E1000626C652D686F7665723E74626F64793E70
:104E200074723A686F7665727B2D2D62732D746192
:104E3000626C652D616363656E742D62673A76619D
:104E400072282D2D62732D7461626C652D686F76EA
:104E500065722D6267293B636F6C6F723A7661727F
:104E6000282D2D62732D7461626C652D686F7665D7
:104E7000722D636F6C6F72297D2E7461626C652D6B
:104E80007072696D6172797B2D2D62732D74616210
:104E90006C652D62673A236366653266663B2D2D2D
:104EA00062732D7461626C652D73747269706564D0
:104EB0002D62673A236335643766323B2D2D62736A
:104EC0002D7461626C652D737472697065642D63F5
:104ED0006F6C6F723A233030303B2D2D62732D741E
:104EE00061626C652D6163746976652D62673A2332
:104EF0006261636265363B2D2D62732D7461626C55
:104F0000652D6163746976652D636F6C6F723A23EA
:104F10003030303B2D2D62732D7461626C652D68CD
:104F20006F7665722D62673A236266643165633B12
:104F30002D2D62732D7461626C652D686F766572BC
:104F40002D636F6C6F723A233030303B636F6C6F40
:104F5000723A233030303B626F726465722D636F3A
:104F60006C6F723A236261636265367D2E74616292
:104F70006C652D7365636F6E646172797B2D2D6234
:104F8000732D7461626C652D62673A2365326533F7
:104F900065353B2D2D62732D7461626C652D7374C4
:104FA00072697065642D62673A236437643864619E
:104FB0003B2D2D62732D7461626C652D7374726963
:104FC0007065642D636F6C6F723A233030303B2D07
:104FD0002D62732D7461626C652D616374697665F1
:104FE0002D62673A236362636363653B2D2D6273B1
:104FF0002D7461626C652D6163746976652D636FD4
:105000006C6F723A233030303B2D2D62732D7461FA
:10501000626C652D686F7665722D62673A23643124
:10502000643264343B2D2D62732D7461626C652D86
:10503000686F7665722D636F6C6F723A2330303013
:105040003B636F6C6F723A233030303B626F726437
:1050500065722D636F6C6F723A236362636363657D
:105060007D2E7461626C652D737563636573737BEC
:105070002D2D62732D7461626C652D62673A236415
:1050800031653764643B2D2D62732D7461626C65EC
:105090002D737472697065642D62673A2363376497
:1050A0006264323B2D2D62732D7461626C652D73C9
:1050B0007472697065642D636F6C6F723A2330305F
:1050C000303B2D2D62732D7461626C652D616374AC
:1050D0006976652D62673A236263643063373B2DDE
:1050E0002D62732D7461626C652D616374697665E0
:1050F0002D636F6C6F723A233030303B2D2D62730D
:105100002D7461626C652D686F7665722D62673AE9
:10511000236331643663633B2D2D62732D746162AA
:105120006C652D686F7665722D636F6C6F723A23B4
:105130003030303B636F6C6F723A233030303B62FB
:105140006F726465722D636F6C6F723A2362636471
:105150003063377D2E7461626C652D696E666F7B7E
:105160002D2D62732D7461626C652D62673A236325
:1051700066663466633B2D2D62732D7461626C65C7
:105180002D737472697065642D62673A23633565A7
:105190003865663B2D2D62732D7461626C652D73CD
:1051A0007472697065642D636F6C6F723A2330306E
:1051B000303B2D2D62732D7461626C652D616374BB
:1051C0006976652D62673A236261646365333B2DBE
:1051D0002D62732D7461626C652D616374697665EF
:1051E0002D636F6C6F723A233030303B2D2D62731C
:1051F0002D7461626C652D686F7665722D62673AF9
:10520000236266653265393B2D2D62732D746162B0
:105210006C652D686F7665722D636F6C6F723A23C3
:105220003030303B636F6C6F723A233030303B620A
:105230006F726465722D636F6C6F723A2362616482
:105240006365337D2E7461626C652D7761726E6962
:105250006E677B2D2D62732D7461626C652D6267A4
:105260003A236666663363643B2D2D62732D746149
:10527000626C652D737472697065642D62673A2380
:105280006632653763333B2D2D62732D7461626C1A
:10529000652D737472697065642D636F6C6F723AFB
:1052A000233030303B2D2D62732D7461626C652D7F
:1052B0006163746976652D62673A2365366462625C
:1052C000393B2D2D62732D7461626C652D616374A1
:1052D0006976652D636F6C6F723A233030303B2DE9
:1052E0002D62732D7461626C652D686F7665722D09
:1052F00062673A236563653162653B2D2D62732DCC
:105300007461626C652D686F7665722D636F6C6F6A
:10531000723A233030303B636F6C6F723A23303017
:10532000303B626F726465722D636F6C6F723A23EB
:105330006536646262397D2E7461626C652D6461CC
:105340006E6765727B2D2D62732D7461626C652DA5
:1053500062673A236638643764613B2D2D62732D92
:105360007461626C652D737472697065642D626717
:105370003A236563636363663B2D2D62732D74610D
:10538000626C652D737472697065642D636F6C6FE8
:10539000723A233030303B2D2D62732D7461626C74
:1053A000652D6163746976652D62673A236466636F
:1053B0003263343B2D2D62732D7461626C652D61F7
:1053C00063746976652D636F6C6F723A2330303089
:1053D0003B2D2D62732D7461626C652D686F76654F
:1053E000722D62673A236535633763613B2D2D6209
:1053F000732D7461626C652D686F7665722D636FB5
:105400006C6F723A233030303B636F6C6F723A23AB
:105410003030303B626F726465722D636F6C6F72F7
:105420003A236466633263347D2E7461626C652D49
:105430006C696768747B2D2D62732D7461626C6575
:105440002D62673A236638663966613B2D2D62739B
:105450002D7461626C652D737472697065642D6260
:10546000673A236563656465653B2D2D62732D7412
:1054700061626C652D737472697065642D636F6C05
:105480006F723A233030303B2D2D62732D74616280
:105490006C652D6163746976652D62673A23646675
:1054A000653065313B2D2D62732D7461626C652D05
:1054B0006163746976652D636F6C6F723A23303067
:1054C000303B2D2D62732D7461626C652D686F7693
:1054D00065722D62673A236535653665373B2D2D3C
:1054E00062732D7461626C652D686F7665722D63D1
:1054F0006F6C6F723A233030303B636F6C6F723A6F
:10550000233030303B626F726465722D636F6C6F55
:10551000723A236466653065317D2E7461626C6514
:105520002D6461726B7B2D2D62732D7461626C65CD
:105530002D62673A233231323532393B2D2D627379
:105540002D7461626C652D737472697065642D626F
:10555000673A233263333033343B2D2D62732D741D
:1055600061626C652D737472697065642D636F6C14
:105570006F723A236666663B2D2D62732D746162ED
:105580006C652D6163746976652D62673A233337E4
:10559000336233653B2D2D62732D7461626C652D12
:1055A0006163746976652D636F6C6F723A2366660A
:1055B000663B2D2D62732D7461626C652D686F766C
:1055C00065722D62673A233332333533393B2D2DE3
:1055D00062732D7461626C652D686F7665722D63E0
:1055E0006F6C6F723A236666663B636F6C6F723ADC
:1055F000236666663B626F726465722D636F6C6FC3
:10560000723A233337336233657D2E7461626C6581
:105610002D726573706F6E736976657B6F766572D8
:10562000666C6F772D783A6175746F3B2D77656284
:105630006B69742D6F766572666C6F772D7363720C
:105640006F6C6C696E673A746F7563687D406D65E9
:1056500064696120286D61782D77696474683A35D2
:1056600037352E39387078297B2E7461626C652D40
:10567000726573706F6E736976652D736D7B6F766F
:105680006572666C6F772D783A6175746F3B2D7714
:1056900065626B69742D6F766572666C6F772D73BA
:1056A00063726F6C6C696E673A746F7563687D7D49
:1056B000406D6564696120286D61782D7769647437
:1056C000683A3736372E39387078297B2E74616204
:1056D0006C652D726573706F6E736976652D6D6480
:1056E0007B6F766572666C6F772D783A6175746F33
:1056F0003B2D7765626B69742D6F766572666C6F92
:10570000772D7363726F6C6C696E673A746F756333
:10571000687D7D406D6564696120286D61782D77B5
:10572000696474683A3939312E39387078297B2E9A
:105730007461626C652D726573706F6E73697665E6
:105740002D6C677B6F766572666C6F772D783A612A
:1057500075746F3B2D7765626B69742D6F7665721A
:10576000666C6F772D7363726F6C6C696E673A74D9
:105770006F7563687D7D406D6564696120286D612A
:10578000782D77696474683A313139392E39387037
:1057900078297B2E7461626C652D726573706F6EF3
:1057A000736976652D786C7B6F766572666C6F7742
:1057B0002D783A6175746F3B2D7765626B69742D36
:1057C0006F766572666C6F772D7363726F6C6C6940
:1057D0006E673A746F7563687D7D406D656469615D
:1057E00020286D61782D77696474683A31333939CE
:1057F0002E39387078297B2E7461626C652D726544
:1058000073706F6E736976652D78786C7B6F7665D3
:1058100072666C6F772D783A6175746F3B2D776582
:10582000626B69742D6F766572666C6F772D73632A
:10583000726F6C6C696E673A746F7563687D7D2EEC
:10584000666F726D2D6C6162656C7B6D61726769EC
:105850006E2D626F74746F6D3A2E3572656D7D2E8C
:10586000636F6C2D666F726D2D6C6162656C7B7001
:10587000616464696E672D746F703A63616C63284C
:105880002E33373572656D202B20317078293B70AF
:10589000616464696E672D626F74746F6D3A6361E1
:1058A0006C63282E33373572656D202B203170786C
:1058B000293B6D617267696E2D626F74746F6D3A0A
:1058C000303B666F6E742D73697A653A696E6865F0
:1058D0007269743B6C696E652D6865696768743AB6
:1058E000312E357D2E636F6C2D666F726D2D6C6160
:1058F00062656C2D6C677B70616464696E672D7482
:105900006F703A63616C63282E3572656D202B20B1
:10591000317078293B70616464696E672D626F74C1
:10592000746F6D3A63616C63282E3572656D202B40
:1059300020317078293B666F6E742D73697A653AF1
:10594000312E323572656D7D2E636F6C2D666F72F0
:105950006D2D6C6162656C2D736D7B706164646923
:105960006E672D746F703A63616C63282E323572E6
:10597000656D202B20317078293B70616464696EFD
:10598000672D626F74746F6D3A63616C63282E3299
:105990003572656D202B20317078293B666F6E74EF
:1059A0002D73697A653A2E38373572656D7D2E66AE
:1059B0006F726D2D746578747B6D617267696E2D81
:1059C000746F703A2E323572656D3B666F6E742D52
:1059D00073697A653A2E383735656D3B636F6C6F46
:1059E000723A233663373537647D2E666F726D2DBC
:1059F000636F6E74726F6C7B646973706C61793AFB
:105A0000626C6F636B3B77696474683A3130302540
:105A10003B70616464696E673A2E33373572656D29
:105A2000202E373572656D3B666F6E742D73697A03
:105A3000653A3172656D3B666F6E742D7765696787
:105A400068743A3430303B6C696E652D68656967FF
:105A500068743A312E353B636F6C6F723A23323182
:105A6000323532393B6261636B67726F756E642DDC
:105A7000636F6C6F723A236666663B6261636B6745
:105A8000726F756E642D636C69703A7061646469DD
:105A90006E672D626F783B626F726465723A317027
:105AA0007820736F6C696420236365643464613BA0
:105AB0002D7765626B69742D617070656172616EBE
:105AC00063653A6E6F6E653B2D6D6F7A2D617070F8
:105AD000656172616E63653A6E6F6E653B61707091
