:020000040800F2
:100000006004012095B204080589040807890408E2
:10001000098904080B8904080D8904080000000000
:10002000000000000000000000000000FD0C0308BC
:100030000F89040800000000A10C030811890408BE
:1000400001BA040805BA040809BA04080DBA04087C
:1000500011BA040815BA040819BA04081DBA04082C
:1000600021BA040825BA040829BA04082DBA0408DC
:1000700031BA040835BA040839BA04083DBA04088C
:1000800041BA040845BA040849BA04084DBA04083C
:1000900051BA040855BA040859BA04085DBA0408EC
:1000A00061BA040865BA040869BA04086DBA04089C
:1000B00071BA040875BA040879BA04087DBA04084C
:1000C00081BA040885BA040889BA04088DBA0408FC
:1000D00091BA040895BA040899BA04089DBA0408AC
:1000E000A1BA0408A5BA0408A9BA0408ADBA04085C
:1000F000B1BA0408B5BA0408B9BA0408BDBA04080C
:10010000C1BA0408C5BA0408C9BA0408CDBA0408BB
:10011000D1BA0408D5BA0408AD230308D9BA040833
:10012000DDBA0408E1BA0408E5BA0408E9BA04082B
:10013000EDBA040819890408F1BA0408F5BA0408EC
:10014000F9BA0408FDBA040801BB040805BB040899
:1001500009BB04080DBB040811BB040815BB040847
:1001600019BB04081DBB040821BB040825BB0408F7
:1001700029BB04082DBB040831BB040800000000A3
:1001800035BB040839BB04083DBB040841BB040867
:1001900045BB040849BB04084DBB040851BB040817
:1001A00055BB040859BB04085DBB040861BB0408C7
:1001B00065BB040869BB04086DBB040871BB040877
:1001C00075BB040879BB0408000000007DBB04086F
:1001D00081BB040885BB040889BB04088DBB0408E7
:1001E00091BB040895BB040899BB04089DBB040897
:1001F000A1BB0408A5BB0408080070470100002942
:1002000002D00868002801D1002001E00868406998
:1002100070470100002902D00868002801D10020A1
:1002200001E008684078704710B504000021200004
:1002300005F0C4F810BDC16B002908D0C16BD1F81E
:10024000C011002903D0C16BD1F8C01101E00168D1
:10025000896E002901D1002000E008687047010084
:100260000868D0F8CC00C0F34000002801D00D2071
:1002700000E00520704701000868D0F8CC00C0F30A
:100280004000002801D00C2000E004207047F8B4A2
:1002900003001D000E0000208DF800000024944291
:1002A0000AD2285D375D9DF800C0784050EA0C0006
:1002B0008DF80000641CF2E79DF80000F2BC704766
:1002C00001000868D0F8CC00C0F34000002801D03D
:1002D000022000E00020704738B504000D00606D7A
:1002E000002805D02A0029008908206D636D9847F1
:1002F00031BD10B50400A06D002801D1002008E038
:10030000206DA16D8847022802D15FF0FF3000E028
:10031000002010BD10B50400200004F075FA0100A3
:10032000002905D044F24D10814201D2080001E0BD
:1003300044F24D1010BD38B50400D4F8D050200060
:10034000FFF7E8FF0100A94202D2DFF8680B01E0E5
:100350004D1B280032BDF8B504004FF48047200043
:10036000FFF7E9FF0500002D01D5280012E02E005F
:10037000200004F017FA0100002901D5080009E067
:100380000A00B24201D3002004E0B61ABE4200D3F4
:100390003E003000F2BD0100C86BD0F8E4010A68ED
:1003A000D2F8B020904202D35FF0FF3022E0C86B59
:1003B000D0F8E4010A68D2F8AC20904204D04FF49F
:1003C000FE70CA6BA2F84C02C86BD0F8E401420080
:1003D000C86BD0F8E401824204D30868D0F8B000BA
:1003E000904203D20868D0F8B0000200C86BC0F891
:1003F000E421002070470168D1F8AC10C26BC2F84C
:10040000E41170472DE9FF4FB1B03E9C3F9D409EE7
:10041000684605F004FA339805F0BAFB201814304A
:10042000812802D3DFF8900AEDE0329F7F1C7F081D
:1004300031980A90319832990844794208440990D9
:10044000339805F0A5FB8046CDF8208033980790BF
:100450000DF1540B089A0799584605F0C1FB069414
:100460003498059010A8404410F1140B069A059991
:10047000584605F0B5FB14EB0808CDF80C800320B6
:1004800005F0A6F90490002802D1DFF8280ABAE0A6
:1004900001220499684605F0EDF98046002801D054
:1004A0004046B0E03A000A99684605F04AFA039AD5
:1004B00015A9684605F0C6FA11A9684605F0D7FAED
:1004C0005FF0000BB34531D2684605F017FB039A85
:1004D000103211A9684605F0B5FA0BA9684605F077
:1004E000C6FA684605F00AFB102211A9684605F015
:1004F000A9FA11A9684605F0BAFA1BF11000864264
:1005000002D216F00F0901E05FF0100900208246C8
:10051000CA4508D20BA810F80A001AEB0B01685460
:100520001AF1010AF4E71BF1100BCBE7684605F05E
:1005300081F9042005F04CF90490002802D1DFF87D
:10054000740960E001220499684605F093F905906A
:10055000002801D0059856E03A000999684605F050
:10056000F0F9039A15A9684605F06CFA10A96846D7
:1005700005F07DFA5FF00008B04538D2684605F016
:10058000BDFA039A143210A9684605F05BFA0BA96C
:10059000684605F06CFA684605F0B0FA142210A916
:1005A000684605F04FFA10A9684605F060FA18F1A0
:1005B0001400864205D21420B6FBF0F900FB19693D
:1005C00001E05FF0140900208246CA450CD21AEB04
:1005D0000800295C0BA810F80A0041401AEB08003B
:1005E00029541AF1010AF0E718F11408C4E7684623
:1005F00005F020F9802110A805F04AFB14210BA872
:1006000005F046FB002035B0BDE8F08F2DE9FF4F27
:10061000B9B0479C489D499E684605F000F99DF891
:10062000E40005F0D5F80390002802D1DFF8840833
:100630008AE0039805F0A4FA81463C9805F0A8FAF0
:1006400010EB09002018812802D3DFF86C087BE04A
:100650003C9805F09DFA8246CDF820A03C98079082
:1006600019A800EB090B089A0799584605F0B8FA43
:1006700006944698059019A8484400EB0A0B069A80
:100680000599584605F0ACFA14EB0A0ACDF810A00B
:1006900001220399684605F0EDF88246002801D052
:1006A000504651E03B9A3A99684605F04AF9049A57
:1006B00019A800EB0901684605F0C4F919A96846B4
:1006C00005F0D5F95FF0000BB34531D2684605F06F
:1006D00015FA049A12EB090219A9684605F0B2F955
:1006E00009A9684605F0C3F9684605F007FA4A46C5
:1006F00019A9684605F0A6F919A9684605F0B7F9E1
:1007000019EB0B00864204D2B6FBF9F809FB186816
:1007100000E0C84600200700474506D209A8C05D92
:1007200017EB0B0168547F1CF6E719EB0B0BCBE7BB
:10073000684605F07FF8802119A805F0A9FA402144
:1007400009A805F0A5FA00203DB0BDE8F08FF8B586
:1007500084B004000D0016001F000C9803900B9845
:1007600002900A980190009733002A002100062089
:10077000FFF74CFF05B0F0BDF8B584B004000D00E4
:1007800016001F000C9803900B9802900A98019095
:10079000009733002A0021000720FFF737FF05B03C
:1007A000F0BD2DE9F84FE6B007000024B86B0390C8
:1007B000D7F84C80D7F83C90D8F80000007A05F0C4
:1007C000A8FA0500002D02D1DFF8EC0649E2D8F8BE
:1007D0000000407A04F0FCFF04900498002802D145
:1007E000DFF8D4063DE2786903280CDADFF8680BFD
:1007F000C9F854040FF27140C9F84C04DFF85C0BDF
:10080000C9F8500427E07869032811D1D8F800000E
:10081000407A07280CD1DFF8480BC9F854040FF2CE
:10082000C540C9F84C04DFF83C0BC9F8500412E08D
:10083000786903280CD1DFF8300BC9F854040FF2A3
:100840007940C9F84C04DFF8240BC9F8500402E0E1
:10085000DFF8600605E2D9F8C00800284AD1F86B35
:10086000D0F8D408012827D10AA93800FA6BD2F8A9
:100870004C2490477869032808D1F86C0068407AC6
:10088000072801D1302602E0202600E0242630206F
:10089000029003983030019000960AABDFF8D02A1E
:1008A000D9F8581409F29C40D9F854C4E047040020
:1008B000002C14D02000D4E1302002900398303076
:1008C00001904020009009F25C43DFF8A82AD9F893
:1008D000581409F29C40D9F85464B0470400002C25
:1008E00001D02000BDE140F2244109F29C4005F016
:1008F000CFF9FFE74020089009F25C40079056AE20
:10090000089A0799300005F06BF9202006905EA840
:10091000059009F25C46069A0599300005F060F9E9
:100920005FF0200A0DF5AC7B09F27C465246594631
:10093000300005F055F9402156A805F0A9F94FF40B
:100940008070029016A801904020009009F25C434C
:10095000DFF8242A302103983030D9F85464B047A6
:100960000600002E01D030007BE1402109F25C40FE
:1009700005F08EF96868C008C8F804006878062891
:1009800005D06878082802D068780A2821D100208C
:10099000C8F8140000240C20C8F80C0068780A2855
:1009A00003D10C20C8F8100002E00420C8F81000A1
:1009B000D8F80000007F800701D5082000E0102053
:1009C000D8F80C20D8F81010511A4018C8F80800B0
:1009D0005BE00122049918F1380004F04BFF060097
:1009E000002808D10122049918F1440004F042FFC4
:1009F0000600002801D0300033E1049805F0C0F86B
:100A00000400C8F814400398406F012802D10A205E
:100A1000C8F81400E868C8F80C006878072804D102
:100A2000D8F81400C8F808002FE00398806F012858
:100A300006D1D8F8141068694118C8F808100DE0FC
:100A4000D8F814106A69D8F814306869C3185B1AAA
:100A5000B1FBF2F002FB0032C8F8082078690028E8
:100A600013D07869012810D07869022802D07869FB
:100A7000032807D1D8F80810D8F80C004118C8F896
:100A8000081002E0DFF82C04EBE0386890F8CC00A6
:100A9000C00736D416A800EB4400059016A800EB5A
:100AA0004400D8F804100844029016A8079016A82D
:100AB00020440690D8F81000002802D0D8F810A0E2
:100AC00001E0D8F80CA0CDF824A00298D8F80410C2
:100AD0000844089018F1180B099A0899584605F02F
:100AE0007FF8CDF804A00298D8F8041008445044C8
:100AF000009018F1280B019A0099584605F070F8FB
:100B00003DE0386890F8CC00C00736D516A800EB59
:100B10004400D8F804100844059016A800EB4400DF
:100B2000029016A82044079016A80690D8F8100046
:100B3000002802D0D8F810A001E0D8F80CA0CDF819
:100B400024A00598D8F804100844089018F1280B40
:100B5000099A0899584605F043F8CDF804A005987D
:100B6000D8F8041008445044009018F1180B019A6A
:100B70000099584605F034F801E0CE4871E07869F4
:100B8000012812DB002C0BD02200079918F1380045
:100B900004F0D7FE2200069918F1440004F0D1FEBB
:100BA0003868C06D002813D001E0C24859E0CDF884
:100BB00004A0D8F804000090230016AA039810F1AE
:100BC00030013868006ED7F800C0DCF85CC0E04740
:100BD000290018F1500005F0E8F88346002801D0FC
:100BE00058463EE0290018F1900005F0DEF80600B6
:100BF000002801D0300034E001236A68059918F11B
:100C0000500005F0F6F88346002801D0584628E049
:100C100000236A68029918F1900005F0EAF80600CE
:100C2000002801D030001CE06878022813D104218C
:100C300018F1500005F0B2FC8346002801D0584658
:100C40000FE0042118F1900005F0A8FC0600002830
:100C500001D0300005E04FF4807116A805F018F8B7
:100C6000002067B0BDE8F08F30B5ADB004000D00D6
:100C700017A805F0B7FD684606F06AFCE06B10F5B2
:100C8000147117A805F0C2FDE06B10F52A716846D3
:100C900006F072FC290017A806F017FB15F11001E9
:100CA000684608F03EF917A805F0A7FD684606F06B
:100CB0005AFC2DB030BD000030B59BB004000D00D3
:100CC000684608F0FBF9E06B10F54171684608F0E2
:100CD00009FA2900684609F059FB684608F0F9F955
:100CE0001BB030BD38B5B6B004000D00684609F041
:100CF00043FCE06B10F55C71684609F051FC29007B
:100D000068460AF037FE684609F041FC37B030BD4E
:100D10002DE9F84F84B004000D00E06B00F29C490F
:100D200009F224462068D0F894702068D0F89880A2
:100D3000E06BD0F8B801002807D0E06BD0F8B8011C
:100D40000700E06BD0F8BC0180462800C0B205283F
:100D500024D1B6EB0900022801DA5748A7E0404643
:100D6000000A89F8000019F1010080F8008010F1F4
:100D700001094E4503D3B6EB0900404501D24E4868
:100D800095E0CDF800805FF0000ACB46524600990E
:100D900058460BF00FF809EB080260E02800C0B2DB
:100DA000072810D1B6EB0900022801DA42487EE09C
:100DB000002089F8000019F1010030210170401C69
:100DC00010F130024BE02800C0B2062820D1206884
:100DD000C069019020688069009003AB19F102029C
:100DE000B21A19F10201E06B001D0BF0BEFA01000E
:100DF000002801D008005AE00398000A89F8000092
:100E000019F10100039A0270401C039A024426E083
:100E10002800C0B2082820D12068C069019020684D
:100E20008069009019F10203F31A19F1020202A974
:100E3000E06B80300BF0F2FC0100002801D00800CC
:100E400035E00298000A89F8000019F10100029AC1
:100E50000270401C029A024401E0164827E0B01AD2
:100E6000022801DA144822E04046000A1070501CA3
:100E700080F8008010F101094E4503D3B6EB09005C
:100E8000404501D20C4812E0CDF80080BA46CB466E
:100E9000009A5146584604F0A3FE09EB0801E06BA6
:100EA00000F29C40081AE26BC2F85804002005B01A
:100EB000BDE8F08F0094FFFF008FFFFF81B000239B
:100EC000002904D002785340401C491EF8E78DF8F1
:100ED00000309DF8002001B070472DE9F04FADB013
:100EE00005000024286B002802D0686C002802D17D
:100EF000DFF8FC0A2DE2686C5030FFF78AF9060033
:100F00003000C0B2072807D03000C0B2022847D155
:100F1000286B806F002843D1686901283DDB0822D7
:100F2000D5F8B410686C383004F08CFD0322D5F885
:100F3000B810686C383004F085FD0222D5F8BC107A
:100F4000686C383004F07EFDD5F8CC20D5F8C4109C
:100F5000686C383004F076FD21A9686C383004F0F4
:100F600086FD686C383004F0C9FD686C47690DF186
:100F70008408D5F8C400D5F8CC1000EB01093A007C
:100F80004146484604F02CFED5F8CC10686C406908
:100F90004118C5F8CC10641C02E0DFF8540AD8E10F
:100FA0003000C0B2072822D10020069006A8029087
:100FB000D5F8C4000190D5F8CC000090D5F8C43025
:100FC000686CC268686C10F11801686C503005F0EC
:100FD00019FB0100002801D00800BAE1D5F8CC00C7
:100FE000069A904200F0AF81DFF8040AB1E13000C8
:100FF000C0B2062808D03000C0B2082804D03000A3
:10100000C0B20A2840F0BF806F6C3868007F80074C
:1010100002D55FF0080801E05FF01008F968386950
:10102000091A08915FF00809D5F8B4A00DF1440B36
:101030004A465146584604F0D3FD0DF1440BD5F80D
:10104000C8008BF808000DF14D032868D0F8CC00DB
:10105000C0F340026969286904F079FAD5F8CC0038
:10106000000A8BF80B00D5F8CC008BF80C00F86860
:101070000C2829D13869042826D13869049017F141
:10108000180002900DF12809049A0299484604F0CC
:10109000A7FD5FF00809D5F8B40001900AA83969E6
:1010A00000EB010A4A460199504604F099FD5FF0B1
:1010B000080AD5F8B4000090D5F8C0B0524600999F
:1010C000584604F08DFD2AE0F8680C2824D13869D0
:1010D0000C2821D1D7F8109017F1180A0DF1280B20
:1010E0004A465146584604F07BFD00210800C0B234
:1010F000082814DA0AA80A00D2B210440279D5F8F6
:10110000B4000B00DBB2C05C42400AA80B00DBB2AB
:1011100018440271491CE9E7DFF8D40819E1D5F851
:10112000C490D5F8CCA0D5F8CC1008984118C5F8D3
:10113000CC104046C0B2069009EB0A00059007A803
:101140000490CDF80C90CDF808A0CDF804900D20B7
:10115000009011ABFA680AA917F1500005F093FA54
:101160000100002801D00800F3E00798504502D0A4
:10117000DFF87C08EDE0D5F8CC0050FA88F0C5F82F
:10118000CC00641CDFE03000C0B2022840F0D88000
:1011900000200390D5F8CC00401C696CC9686A6CCB
:1011A000D268121AB0FBF1F801FB0828686CC0681D
:1011B000804501D1002080465FF00009C8450AD370
:1011C000D5F8C400D5F8CC1019EB010100F8018066
:1011D00019F10109F2E7D5F8CC1018F10100411816
:1011E000C5F8CC10D5F8CC000490D5F8C400059013
:1011F0006869022828DB686CC268686C10F1180105
:101200002868C0692B689B6998470700002F01D0A8
:1012100038009EE0686CC0680090686C10F1180A95
:10122000D5F8C0B0009A5146584604F0D9FCD5F81C
:10123000C4000590D5F8CC000490D5F8CC10686CAB
:10124000C0684118C5F8CC1003A802900598019019
:1012500004980090059B686CC268686C10F11801D6
:10126000686C503005F0CEF90990002801D009983B
:101270006FE004980399884202D0DFF8740768E0B1
:10128000686902280CDA686CC768686C10F1780A23
:10129000686C10F1180B3A005146584604F0A0FC57
:1012A000002C50D108200890D5F8B40002900DAF62
:1012B000089A0299380004F093FC0327D5F8B80087
:1012C00001900DF13C0A3A000199504604F088FC67
:1012D0000DA8D5F8CC10090AC172D5F8CC1001734D
:1012E0000D220DA9686C383004F0ACFBD5F8CC2089
:1012F000D5F8C010686C383004F0A4FB15A9686CF0
:10130000383004F0B4FB686C383004F0F7FB686CDC
:10131000406900900DF1540AD5F8C000D5F8CC1002
:1013200000EB010B009A5146584604F059FCD5F8E1
:10133000CC10686C40694118C5F8CC10641C02E000
:10134000DFF8AC0605E0012C02D0DFF8A40600E0CF
:1013500000202DB0BDE8F08F05040008B53C000862
:1013600079070008C13D00084F0700084B3D000801
:1013700074A9040894B10408A4B104082DE9F84F35
:10138000AEB00600002400270125F06A002802D034
:10139000306C002802D1DFF8580625E3306C90301D
:1013A000FEF737FF8DF81C00F06F316C89688842BA
:1013B00002D2DFF8B80917E39DF81C00072820D1F6
:1013C000002004900020070004A80290306F0190D4
:1013D000F06F0090336F306CC268306C10F12801F0
:1013E000306C903005F00EF90100002801D00800A3
:1013F000FAE2F06F049A904200F00282DFF8F00502
:10140000F2E29DF81C00062808D09DF81C00082870
:1014100004D09DF81C000A2840F0C880D6F840800F
:10142000D8F80000007F800702D55FF0080901E0CE
:101430005FF01009D8F80C10D8F81000091A0891BC
:10144000F06F089951FA89F1884202D2DFF81C093D
:10145000CAE2F16F0898091ACA465FFA8AFAB1EB34
:101460000A0A306F0990306F0E90C6F87CA00820F1
:101470000190306E00900DF1480B019A009958468A
:1014800004F0AEFB0DF1480BB06F8BF808000DF1C6
:1014900051033068D0F8CC00C0F340027169306964
:1014A00004F055F8F06F000A8BF80B00F06F8BF822
:1014B0000C00D8F80C000C281FD1D8F81000042814
:1014C0001BD1D8F81000059018F1280002900DF1FA
:1014D0002C0B059A0299584604F082FB08200190D3
:1014E000F06E00900BA8D8F8101000EB010B019AD9
:1014F0000099584604F074FB2DE0D8F80C000C2835
:1015000026D1D8F810000C2822D1D8F8100001906C
:1015100018F1280000900DF12C0B019A0099584603
:1015200004F05EFB00210800C0B2082813DA0BA803
:101530000A00D2B210440279306E0B00DBB2C05CFC
:1015400042400BA80B00DBB218440271491CEAE7C9
:10155000DFF89C0448E24846C0B20690099850441F
:1015600005900AA804900E980390CDF808A0099859
:1015700001900D20009012ABD8F80C200BA9306C14
:10158000903005F0C3F80100002807D011F5C64FD0
:1015900002D1DFF8D80727E2080025E2641C0A9888
:1015A000504500F02D81DFF848041DE29DF81C0035
:1015B000022840F023815FF000080020039070694A
:1015C000022803DB306CC06810EB0808F06F316C48
:1015D000C96811EB0801884207D3F06F316C496983
:1015E00011EB0801491C884202D2DFF88007FBE1B9
:1015F000D6F87C90306F0690306F0590F06A806F5F
:10160000012847D1306C4069B9EB0009F16F306CAB
:101610004069091AF16708200290306E01900DF1BF
:10162000380A029A0199504604F0DAFA5FF0030A88
:10163000706E00900DF1400B52460099584604F030
:10164000CFFA0EA8F16F090AC172F16F01730D2272
:101650000EA9306C443004F0F5F9F26FF16E306C85
:10166000443004F0EFF916A9306C443004F0FFF96F
:10167000306C443004F042FA306C426916A9F06EC6
:10168000F36F1844FEF703FE002802D0DFF8DC06F3
:10169000AAE1641CF06F316CC968B0FBF1F201FB88
:1016A0001200002802D0DFF8C4069DE1706902280C
:1016B0001BDB306CC068B9EB0009F16F306CC0689F
:1016C000091AF16700200100C9B2326CD268914258
:1016D0000BD2F16E0200D2B2895C326C0300DBB235
:1016E0001A4482F82810401CEDE703A802900598E0
:1016F0000190CDF80090069B306CC268306C10F100
:101700002801306C903004F07DFF8246002801D023
:10171000504669E10398814501D0B54864E170699C
:1017200002280DDA306CC0680190306CB83000903F
:10173000306C10F1280B019A0099584604F050FAC9
:10174000306FF16F084410F8011C491CF06F326CC7
:1017500052698A18904205D2002C03D10020010062
:10176000002005007069012846DB00200122F36F8C
:101770005B1AF76F8F4201D3012700E00027FFB209
:101780003D40376C7F6917F580479F4201D30127A1
:1017900000E00027FFB23D406B435FF0000CBCF55A
:1017A000807F18D28C4501D2012700E00027FFB2CC
:1017B0003A40376F1CEB030E17F80E70B1F1010EB3
:1017C000774501D1012700E00027FFB207FB0200A7
:1017D0001CF1010CE3E7884201D1012700E000275A
:1017E000FFB23D400F0040F2FF1101FB05F10F4039
:1017F000F16FC91BF16703E07D48F5E07C48F3E039
:10180000002C40F09980F16F306C4069091AF16743
:10181000F06F000AB16E0870F06FB16E48707069B9
:101820000128C0F284800021D6F87C9017EB0909CA
:1018300040F20110814502D3B9F5807A01E05FF0F2
:10184000000A306C0068407A032806D0042804D0CF
:10185000062802D007280DD019E0D6F87C8017EBB7
:10186000080818F115085FEA9818F06F1530B8EB02
:1018700090180EE0D6F87C8017EB080818F11D08C8
:101880005FEAD818F06F1D30B8EBD01801E0584867
:10189000AAE0FF2000FB05F010EA08080822316EDC
:1018A000306C443004F0CEF80322716E306C44305A
:1018B00004F0C8F80222B16E306C443004F0C2F873
:1018C000F26F316F306C443004F0BCF83900306F87
:1018D000F26F1044FFF7F2FA22A9306C443004F0A2
:1018E000C6F85FF0000B18F10100834507D2316F95
:1018F000306C443004F020F91BF1010BF3E7306C3D
:10190000443004F0FBF8B9EB0A01306C406941182F
:10191000306F5044FFF7D2FA306C426922A9306F21
:10192000F36F1844FEF7B3FC002802D103E03048FF
:101930005AE000200500641C002D02D1DFF82C04C1
:1019400052E0012C01D02A484EE0F06F002814D15B
:101950007069032805D1B06F172802D0DFF81C0B7F
:1019600042E0D6F8A400401CC6F8A400D6F8A400B3
:10197000042805DBDFF8F40336E00020C6F8A400F5
:101980003068D0F8CC00C0F3400000282BD15FF0C5
:1019900008083000FEF794FC4146C9B2884217D2CD
:1019A000306E4146C9B2084410F8010C401C316E3B
:1019B0004246D2B2114401F8010C306E4146C9B220
:1019C000084410F8010C002802D1B8F10108E0E742
:1019D000C1465FFA89F93000FEF772FC814502D1F9
:1019E000DFF89C0A00E000202FB0BDE8F08F000077
:1019F0000094FFFF10B504002068D0F8B400002860
:101A000018D52068D0F8B0002168D1F8AC10B0FB30
:101A1000F1F1491C0122002902D0521C4908FAE7C1
:101A2000E068401CE0601000C0B2E368984201DA50
:101A3000002002E0200002F075FF10BD2DE9F84FF4
:101A400005000E00286A002805D1686A002802D126
:101A5000DFF8980CFBE044F24D18696EB8EB010119
:101A6000E86D4118B14202D2DFF8800CEFE028683F
:101A7000D0F8CC00C0F34000002800F0A880686DCA
:101A8000002802D0A86D002802D1DFF8600CDEE04B
:101A9000D5F88800002824D0D5F88000D5F8881023
:101AA000884202D2DFF8480CD1E0D5F88010D5F892
:101AB0008800091AC5F88010D5F8800000280DD0DC
:101AC000D5F88090686ED5F8881000EB010AD5F83B
:101AD00064B04A46514658460AF0DEFE0020C5F87A
:101AE0008800D5F88000B04201D30020AFE0D5F8DF
:101AF0008000002802D0DFF8F80BA8E02800FEF7ED
:101B0000F8FB002803D0DFF8F00B040028E0696E32
:101B1000E86D091AB8EB010847466868102804D038
:101B2000E86BD0F8E401009003E02868D0F8A80042
:101B30000090686A002808D0009B3A00696EA86A85
:101B4000D5F824C0E047040005E03A00696EA86AB1
:101B50002B6A98470400002C02D1DFF8A00B76E036
:101B6000DFF8948B44452BD100212800FEF7B4FB0D
:101B70006868102811D02800FEF70DFC002801D05D
:101B8000404664E0280000F03CF90100002801D044
:101B900008005CE0DFF8680B59E0286890F8CC009A
:101BA000C0070DD5A86803280AD12800FFF722FF37
:101BB0000100002801D0080049E0DFF8440B46E0AE
:101BC000002C01D5200042E0C5F880403EE0D5F869
:101BD0008000B0423AD2D5F88000301A07002800C1
:101BE000FEF787FB002803D0DFF80C0B040019E098
:101BF000686A00280DD02868D0F8A8303A00686ECE
:101C0000D5F880100144A86AD5F824C0E047040044
:101C100008E03A00686ED5F880100144A86A2B6A83
:101C200098470400002C02D1DFF8D00A0FE0002C06
:101C300001D520000BE0A74202D2DFF8B40A06E08B
:101C4000D5F880002018C5F88000C0E70020BDE866
:101C5000F28F70B50400E069002802D1DFF88C0A29
:101C60003EE0D4F8D000002801D1002038E0D4F8BC
:101C7000D00000281ED0D4F8B800D4F8D0104942C3
:101C800008440600D4F8D0203100A06AE3699847E0
:101C90000500012D01DA280022E0D4F8D000A84286
:101CA00002D2DFF84C0A1BE0D4F8D000401BC4F885
:101CB000D000DCE72068D0F8CC00C0F3400000285A
:101CC00004D0D4F8B000C4F8B80004E0D4F8B000F0
:101CD0000830C4F8B800616C200002F03DFB002021
:101CE00070BD2DE9F0410500102101200CF06CF8C9
:101CF0000400002C02D1DFF80C0A34E0D5F8CC1037
:101D000001200CF061F820602068002805D1200037
:101D10000CF07CF8DFF8EC0925E0D5F8CC60D5F8BC
:101D2000C470D4F8008032003900404603F058FFF8
:101D3000D5F8CC006060D5F8C80020720020E060C3
:101D4000E86BD0F8EC01002803D1E86BC0F8EC4157
:101D500008E0E86BD0F8EC11C868002801D0C96829
:101D6000FAE7CC600020BDE8F0810000808EFFFF24
:101D700070B505002C00002C09D0E0680600206832
:101D80000CF044F820000CF041F83400F3E770BD8B
:101D90002DE9FE4F0400606CE16BD1F8FC11884224
:101DA0002DD0606C0090E06BD0F8FC01606400986E
:101DB000E16BC1F8FC01082514F1D40601AF2A003B
:101DC0003100380003F00CFF0827E06B10F50078B5
:101DD00014F1D4093A004146484603F001FF5FF090
:101DE00008090DF1040AE06B10F5007B4A465146E4
:101DF000584603F0F5FE616C200002F0ADFABDE834
:101E0000F78F38B504000025200000F001F832BD3E
:101E10002DE9F04F89B00600F06B90F8E801012839
:101E200014D0F06BD0F8EC01F16BC1F8F001F06B5D
:101E3000D0F8EC0100680C30F16BC1F8F40130000F
:101E4000FFF7A6FF0120F16B81F8E801F06BD0F8F5
:101E5000F001002800F0F480F06BD0F8F071387ACF
:101E6000162805D138680078142801D1012400E033
:101E7000002496F8AC00012802D15FF0010801E0CF
:101E80005FF00008002C09D0F06BD0F8F40139683D
:101E90000C31884202D13000FFF77AFF3000FEF7A4
:101EA0005AFA8246BAF1000F01D55046E3E0CDF868
:101EB00004A0387A142824D10198002808D13000D1
:101EC000FFF7C7FE8346002801D05846D3E0BDE7A0
:101ED000786800903D68D6F8C4B0009A290058464A
:101EE00003F07EFE7868C6F8CC00387AC6F8C800E1
:101EF000F06BD0F8F40179680844F16BC1F8F40193
:101F000075E0F06BD0F8F40104907D680C3D049905
:101F100038680C30091A00910098281A039001982B
:101F20000C2804D301980C280FD1002D0DD0002CC3
:101F300002D03000FFF72CFF3000FFF78AFE834607
:101F4000002801D0584696E080E701980C380290AE
:101F500002980399884202D2DDF8089001E0DDF88A
:101F60000C900098002800D1A945062008903868F8
:101F70000790D6F8C4B0089A0799584603F030FE87
:101F80000098000CD6F8C41088710098000AD6F8A2
:101F9000C410C8710098D6F8C41008724846000CE6
:101FA000D6F8C41048724846000AD6F8C4108872A1
:101FB000D6F8C40080F80B90CDF8189004980590DE
:101FC000D6F8C40010F10C0B069A0599584603F098
:101FD00007FE19F10C00C6F8CC00387AC6F8C80024
:101FE000F06BD0F8F4014844F16BC1F8F401F06BE8
:101FF000D0F8F40139687A681144884215D3F8683A
:1020000000280AD0F868F16BC1F8F001F8680068A0
:102010000C30F16BC1F8F40107E00020F16BC1F85E
:10202000F0010020F16BC1F8F4014146C9B2300063
:1020300000F04EF9834600283FF408AF58461AE0F6
:102040003000FFF706FE0400002801D0200012E057
:102050007068102804D10320F16B81F8E80109E0D1
:102060000220F16B81F8E801F06BD0F8E411300048
:10207000FEF732F9002009B0BDE8F08F10B504007A
:10208000E06BD0F8EC01FFF773FE0020E16BC1F8C4
:10209000EC010020E16BC1F8F001E06BD0F8D80151
:1020A000E16BC1F8F8010020E16B81F80C0220001F
:1020B00002F01DFF00212000FEF70EF9A06F162888
:1020C00008D1206F0078142804D10320E16B81F837
:1020D000E80103E00020E16B81F8E80110BD10B5D4
:1020E00004002000FEF787F9E06BD0F8E41120002F
:1020F000FEF7F2F8A06F162808D1206F0078142898
:1021000004D10320E16B81F8E80103E00220E16BD8
:1021100081F8E80110BD2DE9F84F0400D4F8CC5047
:102120002D1FD4F8C4000678D4F8C800162806D0AD
:10213000D4F8C800142802D0DFF8B405C6E0D4F8FB
:10214000C800162809D13000C0B2002805D0E06BC5
:10215000002802D1DFF89805B8E02068D0F8CC005C
:10216000C0F3400000280AD0E06B002807D0E06BE5
:1021700090F8E801012802D1DFF87405A6E0D4F850
:10218000CC0044F20101884202D3DFF864059DE0EF
:10219000D4F8C800162878D12800000CD4F8C41050
:1021A00048702800000AD4F8C4108870D4F8C4001D
:1021B000C5702068D0F8CC00C0F34000002857D08C
:1021C000D4F8CC00D0F58040082802D2DFF81C05F6
:1021D0007CE02F00D4F8C40010F10408D4F8C40047
:1021E00010F10C093A00414648460AF055FBD4F874
:1021F000CC000830C4F8CC003000C0B2002814D0A5
:10220000E06BD0F8D401000AD4F8C4100871E06B78
:10221000D0F8D401D4F8C4104871E06BD0F8D401E0
:10222000401CE16BC1F8D40107E00020D4F8C410D1
:1022300008710020D4F8C410487103275FF000082B
:10224000D4F8C40010F1060942463900484609F0A6
:10225000B1FD5FF00309D4F8C40010F1010AD4F80D
:10226000C40010F1090B4A465146584603F0B8FC29
:102270003000C0B2002808D0D4F8CC20D4F8C41064
:102280002000E36BD3F8483498472068D0F8CC009E
:10229000C0F3400000280FD0D4F8C800162803D19E
:1022A0003000C0B2002807D02000FFF71AFD01005F
:1022B00000280AD0080009E00121200000F008F8F9
:1022C0000100002801D0080000E00020BDE8F28FE6
:1022D0002DE9F84F05000E000024D5F8CC70B0466B
:1022E000002C40F08580D5F8C800D5F8B8100870EB
:1022F000D5F8B800431C2868D0F8CC00C0F34002E1
:102300006969286903F023F95FF0080915F1D40021
:102310000090D5F8B4B04A460099584603F060FCE6
:102320003800000AD5F8BC100870D5F8BC0047701A
:10233000686C002812D02800FEF7CFFD82460028E6
:1023400001D050467BE0D5F8CC0007003800000AE9
:10235000D5F8BC100870D5F8BC0047702800FDF710
:102360007EFF814619EB07092868D0F8CC00C0F33E
:10237000400000280DD02800FDF7DDFF8246BAF1AD
:10238000000F01D550465AE0CA4502D2DFF860037B
:1023900055E0D5F8D00019EB0000C5F8D000D5F80D
:1023A000B8004844C5F8B800696C280001F0D4FFB3
:1023B0005FF0080B2800FDF783FF584511D205EBAD
:1023C0000B0090F8D300401C05EB0B0181F8D30003
:1023D00005EB0B0090F8D300002802D1BBF1010BF4
:1023E000E8E72800FDF76CFF834501D1244826E08B
:1023F0002868D0F8CC00C0F34000002812D0404636
:10240000C0B200280ED12800FDF7A5FF8246BAF120
:10241000000F01D5504612E05046002802D101219C
:102420008846FFE74046C0B2012807D12800FFF7E1
:1024300010FC8246002801D0504600E00020BDE894
:10244000F28F10B50400E06FD4F8A010884210D3CA
:102450000322A8A1206F801D0BF0DAFC002808D110
:102460000322206F411C206F09300BF0D1FC0028A3
:1024700001D0012000E0002010BD0000008EFFFF11
:102480008094FFFF0100086F427A086F807A000293
:1024900050EA0240096FC97A084370470100086F8B
:1024A0008279086FC079000250EA0240096F097A08
:1024B0000843704770B50400200000F0A0F8050044
:1024C0002000FFF7EBFF06002000FFF7DBFF010015
:1024D000B54202D25FF0FF300EE0A81B884202D264
:1024E0005FF0FF3008E0E06F11F10C02904202D281
:1024F0005FF0FF3000E0002070BD2DE9F84F0700CD
:102500008846160018F00705D5F10805082D1CD0DF
:102510004146C908B5420AD3002E07D07A5C012390
:10252000A81B83401A437A54761EF5E72EE015EB7C
:102530000808761B002D08D07A5C01232800401E75
:1025400083401A437A546D1EF4E716F00704002CFA
:102550000ED016EB0801C908361B002C08D07A5C97
:102560000123D4F1080083401A437A54641EF4E72F
:10257000B1465FEAD9094FF0FF0A4046C00807EBB1
:10258000000B52464946584609F014FCBDE8F18F4D
:1025900030B402000023B3EBD10F07D2D05CFF2888
:1025A00002D05FF0FF3015E05B1CF4E7002411F06F
:1025B000070084420DD20800C008135C0125D4F145
:1025C000070085402B4202D15FF0FF3002E0641C1F
:1025D000EDE7002030BC704710B403000C20181841
:1025E00000290AD013F0070F01D0012200E00022D9
:1025F0001C00E40854FA82F2101810BC7047010065
:10260000086F4278086F8078000250EA0240096F34
:10261000C9780843704770B504002000FDF72BFE11
:10262000E16F814202D2DFF8B40B5EE02000FDF7DB
:1026300022FE05002000FFF7E2FF4519C4F8A05074
:102640002068D0F8CC00C0F34000002844D0206FB0
:102650000079216F4E7956EA00262000FFF72AFF05
:10266000002802D0DFF8740B3FE0E06B00282BD08D
:102670006068102804D0E06BD0F8D801864206D1FB
:102680006068102820D1206F007801281CD0E06BF2
:10269000D0F8D801B04202D2DFF8440B25E0E06B5D
:1026A000D0F8F801401E86420BD1206F0078032835
:1026B00007D02000FFF7A5FB0500002801D0280067
:1026C00013E0DFF8200B10E02000FFF7BAFE01282E
:1026D0000AD1DFF80C0B08E0E06FD4F8A0108842B4
:1026E00002D2DFF8040B00E0002070BD008FFFFF76
:1026F0000094FFFF000000000098FFFF808DFFFFA7
:102700000097FFFF0081FFFF2DE9F0470500EC6B0C
:102710006868102809D0002C07D0D5F8A020296FB0
:102720002800EB6BD3F8483498472868D0F8CC00E1
:10273000C0F34000002824D0E86B002821D0D4F852
:10274000D801401CC4F8D8010021280002F0E2FBA7
:10275000002614F50477701C042808D217F10C0029
:1027600090E80E0087E80E00761C0C37F3E75FF068
:102770000C085FF00009BA464A464146504609F047
:1027800019FBBDE8F08700220023C0E924230022C2
:102790000023C0E92623704730B4047800252502C1
:1027A0000024427800231300002214431D43827842
:1027B00000231B0643EA1223120614431D43C2786A
:1027C00000231B0443EA1243120414431D430279FD
:1027D00000231B0243EA1263120222432B43407977
:1027E00000211043194330BC70472DE9F041804669
:1027F000D8F86000801CFFF7CFFF04000D00D8F868
:102800000000D0F8CC00C0F34020002801D1002007
:1028100026E0D8E92401A94204D801D3A04201D27C
:1028200000201DE0D8E92401061B71EB0507002FED
:1028300005D301D8402E02D35FF0FF3010E0D8E975
:10284000260132000BF018FB10F0010011F000011E
:10285000002901D1002802D05FF0FF3000E0002005
:10286000BDE8F0812DE9D0430400206E801CFFF705
:1028700093FF06000F002068D0F8CC00C0F3402082
:10288000002840D0D4E92401B94226D801D3B0426F
:1028900023D2D4E92401B6EB000877EB0109B9F1A2
:1028A000000F08D302D8B8F1400F04D30120002153
:1028B000C4E926010EE0D4E9260142460BF0ECFA09
:1028C000C4E92601D4E9260150F0010051F00001CD
:1028D000C4E92601C4E9246715E0D4E92401821B78
:1028E00071EB0703002B0ED801D3402A0BD2D4E999
:1028F0002689012000210BF0CFFA58EA000059EA9E
:102900000101C4E92601BDE8D0832DE9FE4F86B060
:1029100004000D00139E149FDDF85480DDF85890DC
:10292000DDF85CA02000002802D02800002802D199
:10293000DFF8CC0B98E03D2F11D3307816280ED15C
:10294000F07800280BD13079002808D1F07C0028DD
:1029500005D1307D002802D1707D002802D0DFF83B
:10296000A40B81E096F83B000290B7F13D0002997C
:10297000884202D2DFF88C0B76E00298304490F85F
:102980003C000390B7F13C000399884202D2DFF883
:10299000740B69E012980090089B039A02983044E7
:1029A00010F13D010798A847002801D100205BE005
:1029B000B9F11C0F02D2DFF8500B55E01920059039
:1029C0000496C346059A0499584603F009F9032072
:1029D00088F80D00FE2088F81900FF2088F81A00FA
:1029E00018F11C00019012980090089B08EB090256
:1029F00001A90798A047002802D0DFF86C0333E054
:102A00000198B0EB0800CAF80000DAF800001C38A2
:102A100088F81B00DAF800001938000C88F8160056
:102A200098F8160088F80E00DAF800001938000A45
:102A300088F8170098F8170088F80F00DAF80000F7
:102A4000193888F8180098F8180088F81000DAF893
:102A500000000D38000A88F80B00DAF800000D3885
:102A600088F80C00DFF8CC0B09B0BDE8F08F78B522
:102A700087B0050006A805904FF480400490D5F873
:102A8000B0000390D5F880000290E86D0190D5F871
:102A9000F0000090D5F8EC302868C26C2868816C92
:102AA0002868406CFFF731FF0400DFF8886BB44200
:102AB00007D1069AD5F8B010A86AEB69984730009C
:102AC0000EE0002C0BD10121280001F02BFD0100AC
:102AD000002801D0080003E0DFF85C0B00E02000D4
:102AE00008B070BD3EB50500686E0078A867A86E96
:102AF0000078A96E497851EA0021E967686E431CA5
:102B00002868D0F8CC00C0F34002694601A802F062
:102B100031FDA86F162817D0A86F152814D0A86FFC
:102B2000142811D0A86F17280ED02868D0F8CC0030
:102B3000C0F34000002804D10A220221280000F03E
:102B4000BDFCDFF898068FE001982969884202D021
:102B5000DFF8880688E0286890F8C9000099884264
:102B600002DADFF878067FE044F24D11286F091A87
:102B7000E86D4118E86F814202D2DFF8600673E029
:102B80002868D0F8CC00C0F34000002848D0286E58
:102B90000078296E4C7854EA0024B5F88400844209
:102BA00023D0286890F8CC00C00713D56868102897
:102BB00010D1002C0ED1A86F16280BD1D5F88000AB
:102BC0000E2807D3E86D407B012803D12800FFF7CA
:102BD0004EFF49E0B5F88400401C844202D1DFF882
:102BE000000641E0DFF8540A3EE0B5F88400844274
:102BF00007D12800FFF7F9FD002802D0DFF83C0AD2
:102C000032E0A86F17280BD16868102808D0A86890
:102C1000012802D16868022802D0DFF8200A23E0E8
:102C2000286C00280AD1E86F002804D0E86F44F22D
:102C30000101884217D3DFF8A40515E0E86F296C7D
:102C40008968884202D2DFF894050DE0686901289E
:102C500009DB286C806810F58240E96F884202D257
:102C6000DFF8780500E000203EBD70B505000024C7
:102C7000002C12D1286C00280FD02800FEF77EFB14
:102C80000600002801D0300012E0E86F44F2010194
:102C9000884202D3DFF844050AE02868D0F8CC0067
:102CA000C0F34000002802D02800FFF7DBFD002021
:102CB00070BDF8B506000F00D6F8A80000284ED168
:102CC000300000F0F4F90400002C01D020004AE0AC
:102CD000300000F01EFA002820D100253068D0F81E
:102CE000CC00C0F3400000280BD0300000F03EF8CC
:102CF000002806D1300000F044F8002801D101205E
:102D00000500002D0AD1300000F0B4FA040014F5DB
:102D1000CB4F11D0002C01D0200024E0300000F077
:102D200061FB040014F5C94F06D1300000F0B2F881
:102D3000002818D1DFF8AC4414F5CD4FC0D014F5FD
:102D4000CB4FBDD0002C01D020000CE0B06F162876
:102D500008D1012F06D13000FFF7D6FC02E0002099
:102D6000C6F8A8000020F2BD0094FFFF0100D1F8D2
:102D70008800D1F88020904201D2012000E000209C
:102D800070472DE9F84F0600F46B0027002C02D1A4
:102D90005FF0FF3057E070680A2802D070680C2896
:102DA00018D194F80C02002803D15FF0FF3007001F
:102DB00048E01420B0670120F0670120316F0870EF
:102DC0000020C6F880000020C6F88800002084F8A3
:102DD0000C0237E014F504700500287810F00500A7
:102DE00005282CD168684078696891F802805FEA0C
:102DF000082858EA00486868C07850EA080818F1BE
:102E00000C0044F20101884202D3DFF87C0A1AE088
:102E10001620B06718F10C00C6F8A00018F10C00DD
:102E2000F067D6F8A090D5F804A0D6F870B04A465E
:102E30005146584602F0D4FE0020070002E05FF041
:102E4000FF3007003800BDE8F28FF8B504000D0030
:102E5000E76B200000F065F9D7F80802D0F50040D4
:102E6000A84201D3002014E00326002E0FD4300026
:102E70000100C9B2200002F04DF8D7F80802D0F5E1
:102E80000040A84201D3002003E0761EEDE75FF08A
:102E9000FF30F2BD2DE9F04F87B005000026EC6B46
:102EA000002C01D10020FFE0A86F142802D01628C2
:102EB00004D0F8E0012084F80C02F4E0286F0079D7
:102EC000296F497951EA00210291D5F8A0700C3F91
:102ED0000298E96BD1F8D811884202D2DFF8A8092C
:102EE000E2E00299E86BD0F8D801091A0091009845
:102EF000042880F0D88000990C20414304EB0100A5
:102F000010F5047898F80000C00700F17F802800D1
:102F1000FFF797FA012801D1012000E00020C0B29C
:102F2000D8F8001060F34101C8F8001017F10C0048
:102F300044F20101884280F0B680D4F8080248F2D9
:102F40000101884202D3DFF84009ADE0D8F8000063
:102F5000C0F340013800FFF73FFB8146D4F8080278
:102F6000D0F5004048450DD20098002840F09B80E5
:102F700049462800FFF769FF002803D0DFF88805DD
:102F8000060090E0494601200AF01EFFC8F8040040
:102F9000D8F80400002803D1DFF80C0C060082E00A
:102FA000C8F8089006200690286F0590D8F804A06D
:102FB000069A0599504602F013FE03200490002063
:102FC0000390D8F8040010F1060A039A04995046B9
:102FD00008F0F0FE5FF0030AD8F80400401C0190EE
:102FE000D8F8040010F1090B52460199584602F036
:102FF000F7FDD8F8000050F00100C8F80000D4F840
:10300000080219EB0009C4F8089207E00422296FAE
:10301000D8F804000AF0FCFE002844D1D8F80000DB
:10302000C0F3800000283DD1D8F804000C30019096
:103030002800FFF733FA81462800FFF723FA82467B
:10304000CDF810A0286F0C300390019800EB090B0D
:10305000049A0399584602F0C3FDD8F80000C0F363
:103060004000002818D0019800EB070B5246494653
:103070005846FFF742FA39005846FFF789FA002808
:1030800001D1012000E00020C0B2D8F8001060F3A8
:103090008201C8F8001005E0D8F8000050F00400E4
:1030A000C8F80000FFE7300007B0BDE8F08FF8B5C2
:1030B0000400D4F8A000002822D0606F002802D0BD
:1030C000DFF8C40724E0D4F8A000E16F884211D2F1
:1030D000E16FD4F8A000091AE167E56F206FD4F81A
:1030E000A01000EB0106276F2A003100380009F01C
:1030F000D3FB01E00020E0670020C4F8A00006E058
:10310000606F002801D0002002E00020E06700206E
:10311000F2BD0100C86F002801D0012000E00020AE
:10312000704738B50500EC6B002C11D0D4F8400284
:1031300000280DD0D4F80812D4F84402091AC4F8B3
:103140000812D4F840020AF061FE0020C4F84002E0
:1031500031BD2DE9F84F0600F46B3068D0F8CC0093
:10316000C0F34000002801D1002035E0002C01D13F
:10317000002031E0D4F84052D4F84472D4F84882A8
:10318000002D01D1002027E03000FFF7EFFD0128DE
:1031900001D1002020E0B6F8840080451BD144F224
:1031A0004D11706E091AF06D4118B94202D2DFF864
:1031B000D80611E0B946AA46D6F864B04A46514648
:1031C000584602F00DFDC6F880700020C6F8880051
:1031D0003000FFF7A6FF0020BDE8F28F008EFFFF52
:1031E000809BFFFF809AFFFF808FFFFF2DE9F04754
:1031F0000500EC6B0D26EF6FBF19002C01D10020EC
:1032000036E0A86F162801D0002031E0D4F8400243
:10321000002801D000202BE0D4F80802D0F50040AF
:10322000B84201D2002023E0B5F88400401CC4F865
:103230004802C4F84472D4F8441201200AF0C4FDD4
:10324000C4F84002D4F84002002801D100200FE069
:10325000B846D5F86490D4F840A242464946504654
:1032600002F0BEFCD4F808023818C4F808020020A6
:10327000BDE8F08770B505002800FFF76AFF04007D
:10328000002C01D02000ACE02800FCF7E8FF010092
:103290002800FEF7D3FB0600002801D03000A0E094
:1032A0002800FFF71FFC040000282AD02868D0F867
:1032B000CC00C0F34000002821D014F5CF4F1ED021
:1032C00014F5C94F07D12800FFF790FF002840F000
:1032D0008880DFF8684314F5CE4F07D12800FCF74B
:1032E000BEFFE96F4018C5F8880005E00020C5F86A
:1032F00088000020C5F88000DFF83C0B71E020005A
:103300006FE02800FCF7ABFFE96F08180100280008
:10331000FEF794FB0600002801D0300061E0286829
:10332000D0F8CC00C0F3400000280DD02800FCF7F6
:1033300096FFE96F4018C5F88800D5F88800D5F8E1
:103340008010884203D202E00020C5F880002800E7
:10335000FFF78BFC0400002842D02868D0F8CC008E
:10336000C0F34000002831D014F5E44F02D014F52A
:10337000E34F29D168680B2802D068680D2809D16D
:1033800014F5E34F04D114220221280000F096F82E
:10339000200026E02868D0F8C00000280BD0A869DB
:1033A000401CA861A8692968D1F8C010884202D3DE
:1033B000DFF8880A15E00020C5F888000020C5F86D
:1033C0008000DFF8740A0CE020000AE014F5E34FF7
:1033D00004D114220221280000F070F8200000E03F
:1033E000002070BD38B50400A06F162807D120005A
:1033F000FFF711F90500002801D028005DE0A06F5B
:10340000142821D1E06F012802D0DFF8340A54E0FB
:10341000206F0078012802D0DFF8240A4DE02068F0
:10342000D0F8CC00C0F3400000280DD060680A2816
:103430000AD060680C2807D0E06B002801D17F48D3
:103440003BE0DFF8300C38E0A06F152824D1E06FA6
:10345000022802D0DFF8E8092FE0206F0078022868
:1034600002D1DFF8140C28E0206F0078012806D183
:10347000206F4078002802D1DFF8000C1DE0206F9B
:103480000078012805D1206F4078642801D1002000
:1034900013E0DFF8EC0B10E02068D0F8CC00C0F3AC
:1034A0004000002808D0E06B002805D06068102894
:1034B00002D1200000F0C6FC002032BD70B504002F
:1034C0000D001600002C02D02068002801D10C4805
:1034D00015E01520C4F8C8000220C4F8CC00D4F8C8
:1034E000C4000570D4F8C400467001212000FEF726
:1034F000EFFE0100002801D0080000E0002070BDB0
:10350000008FFFFF0087FFFF0096FFFF2DE9F84FB8
:103510000600DFF8647CF06CD0F8008098F80A00B0
:1035200005280BD098F80A00062807D098F80A005A
:10353000082803D098F80A000B2804D17068401CB2
:103540007060002074E0306890F8CC00C00708D4A8
:10355000D6F8E000002804D17068401C706000209C
:1035600066E0306890F8CC00C00707D53000FCF763
:1035700062FE002802D1DFF8840C59E05FF00709F1
:103580003000FCF758FE0400002C2DD060680500C8
:1035900043F6FD70B0EB0900A84202D2DFF8600CE0
:1035A00046E02800000CD6F8C41001F809002800F5
:1035B000000AD6F8C41049444870D6F8C4004844FC
:1035C000857019F103090095D4F808A0D6F8C40055
:1035D00000EB090B009A5146584602F001FB15EB2F
:1035E0000909D4F83041CFE7B9F10700000CD6F84B
:1035F000C4100871B9F10700000AD6F8C410487168
:103600004846C01FD6F8C4108871C6F8CC90162062
:10361000C6F8C8000B20D6F8C41008707068401CAB
:1036200070603000FEF777FD010008000029FFD12F
:10363000BDE8F28F8095FFFF8098FFFF0099FFFFA4
:103640002DE9F0410400206890F8CC00C00722D595
:10365000606900281FD02000FCF70DFED4F8A010F0
:10366000C01C814217D1A06F162814D1206F00789A
:103670000B2810D12000FCF7FEFD032281A1236F4F
:1036800018440AF0C5FB002805D14020A16B48660C
:10369000DFF8B40CF4E0A06F162807D00A2202214C
:1036A0002000FFF70BFFDFF8A40CE9E0206F0078A3
:1036B0000B2807D12000FCF7DEFDD4F8A010801DF8
:1036C000814207D2322202212000FFF7F7FEDFF805
:1036D000800CD5E02000FCF7CEFD0600206F3044C2
:1036E0004078216F31448F7857EA0027206F805D42
:1036F000002808D12000FCF7BEFDD4F8A010C019A6
:10370000C01C814207D0322202212000FFF7D6FEE2
:10371000DFF83C0CB4E0A06B006E002807D0A06B73
:10372000006E0BF07BFEA06B006E0AF06FFB4FF497
:103730009A7101200AF048FBA16B0866A06B006E2D
:10374000002807D1502202212000FFF7B7FEDFF842
:10375000580495E0A06B006E0BF054FEF61CD4F8F4
:10376000A00086425AD2D4F8A000F11C884207D2A9
:10377000322202212000FFF7A1FEDFF8D40B7FE008
:10378000206F805D002807D0322202212000FFF741
:1037900095FEDFF8BC0B73E0206F30444078216F5A
:1037A0003144897851EA00210F00F61C802F04D3A0
:1037B000D4F8A000B919884207D232220221200091
:1037C000FFF77CFEDFF8880B5AE03A00206F00EB31
:1037D0000601A06B006E0BF033F9050028000028ED
:1037E0000AD0DFF8701B401A08D040F25221401A6C
:1037F00002D0AE3805D007E0BE19B0E75FF0500840
:1038000004E05FF02B0801E05FF02A084246D2B2E4
:1038100002212000FFF752FE280031E0206890F8D6
:10382000CC00C0072BD4A068012828D1606B006EA3
:10383000002807D1312202212000FFF73FFEDFF8E8
:10384000100B1DE0606B006E4068A16B096E49684B
:1038500088420CD1606B006E4268A06B006E81687C
:10386000606B006E80680AF0D3FA002807D031221E
:1038700002212000FFF722FEDFF8D40A00E000203A
:10388000BDE8F081000000000094FFFF2DE9F04F3B
:1038900085B00700F86CD0F80080F86BD0F8C40150
:1038A000032803D0F86BD0F8C45104E03868D0F88E
:1038B000CC00C0F381055FF0000998F80A000528E4
:1038C0000BD098F80A00062807D098F80A000828B4
:1038D00003D098F80A000B2804D17868401C78605F
:1038E000002001E1386890F8CC00C00708D598F8AE
:1038F0000A00072804D17868401C78600020F3E0B3
:10390000386890F8CC00C00709D5002D07D1802079
:10391000B96B48667868401C78600020E4E00121BB
:103920003800FFF7C6F90600002801D03000DBE0C0
:103930003800FFF785FE040000280BD014F5E94F8E
:1039400003D1012D01D1002004007868401C78606B
:103950002000C9E0002D00F0C380F86BD0F8CC0146
:10396000002806D0F86BD0F8CC61F86BD0F8D0A165
:1039700004E03868C66E3868D0F870A0CDF81090B2
:103980003868806B03903868406B0290B86B643085
:103990000190D7F8E40000903868436E5246310039
:1039A000B86B006E0BF0B7FC0400002CB86B006E17
:1039B00010F1BC0B022158460BF0EAFD002814D090
:1039C000DBE90001FCF718FC0178380001F031FD5B
:1039D00000280AD0B86B406E50F48030B96B48664E
:1039E000002C02D1DFF868090400B86B10F1640301
:1039F0003868D0F8CC2092F0010212F00102414662
:103A0000B86B006E01F04BFD002804D0002C02D1F1
:103A1000DFF83C090400012D07D114F51C5F02D02A
:103A200014F5F44F01D100200400002E04D1022D22
:103A300002D1DFF8900C0400002C51D0B86B406E1E
:103A4000C00502D55FF0310B44E0B86B90F864001C
:103A5000400702D55FF02A0B3CE0B86B406E0005D2
:103A600002D55FF02B0B35E0B86B406EC00402D579
:103A70005FF02B0B2EE0B86B406E800402D55FF038
:103A80002B0B27E0B86B406E000402D55FF02B0BC8
:103A900020E0B86B406EC00302D55FF02B0B19E03D
:103AA000B86B90F86400C00702D55FF02D0B11E0F1
:103AB000B86B90F86400800702D55FF02C0B09E02A
:103AC000B86B90F86400000702D55FF0300B01E09E
:103AD0005FF02E0B5A46D2B202213800FFF7EEFCFF
:103AE0007868401C7860200005B0BDE8F08F10B504
:103AF00004001420C4F8C8000120C4F8CC00012040
:103B0000D4F8C41008706068401C60602000FEF7A4
:103B100002FB0100002801D0080000E0002010BDD9
:103B20002DE9F041040001212000FFF7C2F8050053
:103B3000002801D0280035E0A06F142807D00A2201
:103B400002212000FFF7BAFCDFF800082AE0E06C51
:103B50002064A06BE0622068D0F8CC00C0F3400085
:103B600000280ED02000FEF70EFEB4F88400401CA2
:103B7000A4F88400B4F8840000280BD1DFF88C0B83
:103B800010E008260027D4F860803A003100404653
:103B900008F010F9E16C200000F018FC6068401C8F
:103BA00060600020BDE8F0810081FFFF4269032AC8
:103BB00005DA0FF2A902C36BC3F8482412E04A7A6F
:103BC000072A05D10FF2D502C36BC3F8482409E0D8
:103BD0004A7A072A05D00FF2AD02C36BC3F8482416
:103BE00000E0FFE7704710B50400E06B10F51470BB
:103BF00002F015FEE06B10F52A7003F0C6FC002100
:103C0000E06B10F5417005F076FA0121E06B10F5DC
:103C10005C7006F0CEFC10BD70B504000D001600FF
:103C200032002900E06B10F5147003F0F9FA32004D
:103C30002900E06B10F52A7005F01EF9320029000A
:103C4000E06B10F5417006F04CFB32002900E06B90
:103C500010F55C7007F02BFE70BD000070B504001D
:103C60000D00160032002900E06B10F5147003F00F
:103C7000D7FA32002900E06B10F52A7005F0FCF845
:103C800070BD000070B504000D0016003200290060
:103C9000E06B10F5417006F024FB70BD70B50400B8
:103CA0000D00160032002900E06B10F55C7007F083
:103CB000FEFD70BD2DE9F043B9B007008846140041
:103CC0005FF00C09BD6B002D01D1786B050023A8B6
:103CD00002F088FD0CA803F03BFCF86B10F51471A2
:103CE00023A802F093FDF86B10F52A710CA803F0DD
:103CF00043FC002C02D1DFF8346A01E0DFF8306ABF
:103D000003A923A803F0E1FA07A90CA805F009F913
:103D1000CDF80890CDF804802420009003AB320049
:103D2000302115F13000D7F83CC0DCF854C4E0472E
:103D300023A802F062FD0CA803F015FC242103A8BF
:103D400001F0A6FF39B0BDE8F0832DE9F843A6B035
:103D50000700884614005FF00C09BD6B002D01D1EF
:103D6000786B05000BA805F0A9F9F86B10F5417107
:103D70000BA805F0B7F9002C02D1DFF8B06901E01B
:103D8000DFF8AC6903A90BA806F000FBCDF808909A
:103D9000CDF804802020009003AB3200302115F1D3
:103DA0003000D7F83CC0DCF854C4E0470BA805F05D
:103DB00090F9202103A801F06BFF27B0BDE8F08344
:103DC0002DE9F843C6B00700884614005FF00C09DF
:103DD000BD6B002D01D1786B050010A806F0CCFB5F
:103DE000F86B10F55C7110A806F0DAFB002C02D11C
:103DF000DFF8386901E0DFF8386903A910A807F097
:103E0000B9FDCDF80890CDF804803020009003ABC8
:103E10003200302115F13000D7F83CC0DCF854C432
:103E2000E04710A806F0B3FB302103A801F030FFF3
:103E300047B0BDE8F0830000809AFFFF808EFFFF4F
:103E4000008EFFFF10B50400200001F090F8E06B39
:103E500009F0DCFF0020E063A06C002805D0A06C16
:103E600001F01FF8A06C09F0D1FFE06CA064002005
:103E7000E06410BD38B50500E86BD0F8C048A8680C
:103E8000012803D10220A8600020E860686B0028A8
:103E900009D0686B806FA96B8867686B01F0B5F813
:103EA000686B09F0B3FFA86B68630020A8632868FB
:103EB000406A00280CD0686BC068002808D0002C2D
:103EC00006D1696B2868806A2A68526A9047002880
:103ED0002868D0F8CC00C0F34000002809D0E86B77
:103EE000D0F8EC01002804D000212800FCF7F4F9F8
:103EF00002E02800FFF7A6FF6868401C686031BD3B
:103F00002DE9F0470400E16C200000F025FA20685C
:103F100090F8CC2012F00102D4F8C400011D20005A
:103F2000E36BD3F8503498476069002801D1242509
:103F300000E00C25C4F8F8502E00D4F8C400071D8A
:103F400014F1FC0832003900404601F049FE281DFA
:103F5000C4F8CC001620C4F8C8001420D4F8C4104B
:103F60000870E06BD0F8C00800280ED0206890F8E8
:103F7000CC00C00701D40F206060206890F8CC000E
:103F8000C00705D50A20606002E06068401C6060E0
:103F90002068D0F8CC00C0F34000002839D0606C15
:103FA000E16BC1F8FC01082614F1D407E06B10F5B1
:103FB000007832003900404601F012FE5FF006083A
:103FC0005FF0000914F1D60A4A464146504607F010
:103FD000F1FE02210800C0B2002813D00800C0B2D0
:103FE000204490F8D300401C0A00D2B2224482F848
:103FF000D3000800C0B2204490F8D300002801D1BB
:10400000491EE7E70800C0B200280BD1DFF8FC0624
:104010002EE00826002714F1D4083A00310040466B
:1040200007F0C8FEE06C6064A06B20632068D0F8E5
:10403000CC00C0F34000002802D02000FEF74FF86B
:104040002000FEF768F80600002801D030000FE0DD
:104050002068D0F8CC00C0F34000002807D0200032
:10406000FDF7D6FE0600002801D0300000E0002059
:10407000BDE8F087809BFFFF8088FFFF8087FFFF00
:104080008099FFFF2DE9FE430400206890F8CC20C2
:1040900012F0010292F0010269462000E36BD3F8AE
:1040A0005034984701212000FEF703FE0500002848
:1040B00001D028005EE0A06F162806D00A22022157
:1040C0002000FFF7FBF9A14854E00C26206F007890
:1040D000142807D12000FCF7CEF8D4F8A01030182F
:1040E000814207D0322202212000FFF7E7F9DFF8F2
:1040F000B0063FE02000FCF7BEF832006946236FAF
:104100001844FCF7C4F8002807D03222022120000E
:10411000FFF7D4F9DFF888062CE0C4F8F860370020
:10412000E84614F584793A004146484601F058FDC6
:10413000E06BD0F8C00800280ED0206890F8CC00C2
:10414000C00701D40A206060206890F8CC00C00746
:1041500005D50F20606002E06068401C6060206848
:10416000D0F8CC00C0F34000002802D02000FDF7BA
:1041700085FF0020BDE8FE83808FFFFFF8B50400B7
:1041800040F6D8050026270032002900380007F045
:1041900011FE14F5147002F025FB14F52A7003F0DB
:1041A000D7F914F5147002F03AFB14F52A7003F0F5
:1041B000ECF914F5417004F081FF002114F5417011
:1041C00004F099FF14F55C7006F0D6F9012114F59E
:1041D0005C7006F0EEF9DFF8D406C4F8480420005D
:1041E000FCF722F8201D07F077FE14F1800008F09C
:1041F000EDF90320C4F8C401F1BD0000808AFFFF7F
:10420000008BFFFFF8B50400D02500262700320000
:104210002900380007F0CEFD14F1500001F0A9FD8F
:1042200014F1900001F0A5FD14F1380001F0F7FA47
:1042300014F1440001F0F3FAF1BDF8B504007C2557
:104240000026270032002900380007F0B3FDF1BD39
:1042500010B50400E06C002802D0E06C00F021FEF4
:10426000A06B002802D0A06B00F0CFFEE06B00280E
:1042700002D0200000F07BFEE06C002804D1D021A9
:10428000012009F0A1FDE064A06B002804D17C218D
:10429000012009F099FDA063E06B002805D140F6EC
:1042A000D801012009F090FDE063E06B002805D003
:1042B000E06C002802D0A06B002811D1E06B09F05F
:1042C000A5FDE06C09F0A2FDA06B09F09FFD0020A8
:1042D000E0630020E0640020A063DFF8400626E0F1
:1042E000A06BFFF7AAFFE06CFFF78CFFE06BFFF716
:1042F00045FF2068D0F8CC00C0F34000002815D05E
:10430000606CE16BC1F8FC01206890F8CC00C0073C
:1043100004D40020E16B81F8E80103E00220E16BA6
:1043200081F8E80100212000FBF7D6FF002010BD36
:1043300010B40400DFF8E80510BC704710B40400A6
:10434000DFF8DC0510BC7047808BFFFF0089FFFFA2
:104350000086FFFF80D7FFFF0268D2F8CC20C2F3AF
:104360004002002A0FD0D0F8B820D21CC0F8B420E8
:10437000D0F8B8200B32C0F8BC20D0F8B8200D32ED
:10438000C0F8C0200EE0D0F8B820083AC0F8B42039
:10439000D0F8B820D21CC0F8BC20D0F8B820521DEC
:1043A000C0F8C02000290CD04269022A09DBD0F8ED
:1043B000C020CB681A440B695B421A44C0F8C42081
:1043C00003E0D0F8C020C0F8C42070470268D2F8DB
:1043D000CC20C2F34002002A09D0426ED21C0266F1
:1043E000426E0B328266426E0D32C26608E0426E49
:1043F000083A0266426ED21C8266426E521DC26646
:1044000000290AD04269022A07DBC26ECB681A442F
:104410000B695B421A44026701E0C26E0267704793
:10442000F8B504004FF48C750026270032002900EF
:10443000380007F0BFFCF1BD10B504002068D0F8CB
:10444000CC00C0F34000002806D0D4F8B000C4F877
:10445000B800E06D606607E0D4F8B0000830C4F83A
:10446000B800E06D0830606600212000FFF774FF9F
:1044700000212000FFF7AAFF10BD70B504000D0059
:1044800025600020C4F8B00044F24D163100012030
:1044900009F09AFCE065E06D002802D1DFF87C6449
:1044A00017E03100012009F08FFCC4F8B000D4F807
:1044B000B000002802D1DFF864640AE02000FFF7B2
:1044C000BBFF2000FFF7C4FE0600002801D100203A
:1044D00027E0E06D09F09AFCD4F8B00009F096FCF2
:1044E000002020600020E0650020C4F8B00000201B
:1044F0006066002020660020A0660020E0660020A4
:1045000020670020C4F8B8000020C4F8B4000020E0
:10451000C4F8BC000020C4F8C0000020C4F8C400E7
:10452000300070BD2DE9F84F05000C0000206860D8
:1045300000212800FBF7D0FE0020A8600020E860E2
:104540000020C5F8F8000C26002715F1FC083A00F9
:104550003100404607F02EFC5FF00C085FF00009C8
:1045600015F5847A4A464146504607F023FC002060
:10457000C5F8F400002068672800FFF75DFF002001
:10458000A8670020E8670020C5F888000020A5F88B
:1045900084002800FEF7F7F80020C5F8A0000020EE
:1045A000C5F8A4000020C5F8A8000020C5F8C80080
:1045B0000020C5F8CC000020C5F8D00095F9DE0039
:1045C000002802D0002085F8DE000826002715F11B
:1045D000D4083A003100404607F0ECFB0020286484
:1045E000002068640020E8620020286344F24D182F
:1045F000C1465FF0000AD5F8B0B052464946584669
:1046000007F0D8FB002C09D10020C5F88000002657
:10461000EF6D32004146380007F0CCFBA86C002853
:1046200007D0A86C00F03DFCA86C09F0EFFB00205F
:10463000A864686B002807D0686B00F0E6FC686B24
:1046400009F0E4FB002068630020C5F8E800002CB6
:1046500009D1D5F8EC0009F0D9FB0020C5F8EC0031
:104660000020C5F8F0002800FFF7F2FD0100002847
:1046700001D0080000E00020BDE8F28F10B5040072
:1046800000212000FFF74EFF10BDD0F8CC2061F3D1
:104690000002C0F8CC207047D0F8CC2061F3410272
:1046A000C0F8CC2070478161C261704710B4019C92
:1046B0008162C2610362446210BC7047816202621F
:1046C000436270478089FFFF70B504000D0016003B
:1046D0000C21012009F078FB0100002902D1DFF84C
:1046E0003C0210E00D604E600020886020680028C9
:1046F00001D1216006E022689068002801D092680C
:10470000FAE79160002070BD000000008094FFFF78
:1047100070B504000D0016003200290014F1680085
:10472000FFF7D2FF70BDC16602677047B4B10408DD
:10473000C4B104082DE9F84304000D0016001F0061
:10474000DDF820803200290014F17C000BF0CDFB55
:104750008146002808D14246390014F188000BF048
:10476000C4FB8146002809D014F17C000BF0A1F8AD
:1047700014F188000BF09DF8484600E00020BDE8E9
:10478000F28310B50400002C02D0606B002801D128
:10479000002003E0606B40680DF03DFC10BD0000A0
:1047A0008081FFFF2DE9F041050000266C6C002C94
:1047B00003D12800FBF753FD24E014F15000FBF770
:1047C00028FD801E06D0001F022801D9001F11D12C
:1047D000A76812E014F15000FBF710FD80466069F5
:1047E000861918EB060637006869022801DB18EB0A
:1047F000070702E0DFF8A40A04E02800FBF72FFD1A
:104800003F183800BDE8F0810100086890F8CC003E
:10481000C00707D44868012802D04868022801D19F
:1048200000201FE0C86B002804D0C86BB0F84C0211
:10483000002802D1B1F8DC0014E0B1F8DC00002857
:1048400003D1C86BB0F84C020CE0B1F8DC00CA6BC5
:10485000B2F84C22904202D2B1F8DC0002E0C86B00
:10486000B0F84C02704770B504004FF4804520004A
:10487000FFF7CAFF002816D02000FFF7C5FF06008B
:104880002000FFF78FFF01000A00002901D5080072
:104890000AE0B24202D3DFF8080A05E0B01AA842E3
:1048A00001D2B61A3500280070BD0000193C00087E
:1048B00038B504001A4D002C02D02068002802D11F
:1048C000DFF8D80412E0206890F8CC00C00703D4C9
:1048D00020000FF017FC0500206890F8CC00C007FE
:1048E00003D5200011F00EFF0500280032BD38B5B9
:1048F00005000024002D02D02868002802D1DFF82E
:104900009C0409E06868102805D02800FFF7D0FF54
:104910000400002CF6D0200032BD00000081FFFF13
:10492000808FFFFF10B504000420C4F8CC001620CF
:10493000C4F8C8000020D4F8C41008702000FDF7A7
:10494000EAFB0100002801D0080000E0002010BDB3
:1049500038B504002000FFF77BFC0500002801D0DB
:10496000280024E02068D0F8CC00C0F340000028E4
:1049700010D0A06803280DD1206890F8CC00C007A3
:1049800004D50120E16BC1F8D40103E00120E16B03
:10499000C1F8D801002060600120A0602000FFF76E
:1049A000A6FF0100002801D0080000E0002032BD71
:1049B00038B50400DFF8E858002C02D02068002841
:1049C00002D1DFF8D80330E0206890F8CC00C007AF
:1049D00013D56068102802D0DFF8C00325E003205B
:1049E000A060D4F8D000002803D02000FDF731F9F2
:1049F0001BE02000FFF796FF17E0A06801280DD00C
:104A00006068102802D0DFF894030EE02000FFF762
:104A10009FFF01000800002907D006E02000FFF7F3
:104A200066FF010008000029FFD132BDF8B504007F
:104A30002000FBF745FC05006068102809D1A0683C
:104A4000032806D02068D0F8CC00C0F3C02000288E
:104A500001D100201FE0D5F108022068284410F1A0
:104A6000B801206E284409F0D3F90600D5F10802F8
:104A70002068284410F1B80104EB0500D43009F097
:104A8000C7F90700012E03DA012F01DA002002E046
:104A90002000FFF78DFFF2BD2DE9F84F05000E0055
:104AA0001700002D02D02868002801D199482FE175
:104AB0002868D0F8CC00C0F34000002817D02800A8
:104AC000FDF7C7F88146002801D0484620E1E86B91
:104AD00000280CD0E86B90F8E801012807D12800E5
:104AE000FDF796F98146002801D0484610E12800DC
:104AF000FFF79CFF0400DFF8F88A444503D0002C40
:104B000001D0200004E16868102809D02800FFF7D0
:104B1000EEFE0400444503D0002C01D02000F7E055
:104B2000686F002840F0D380A86D00280BD0286D56
:104B3000A96D884710F1010F05D12868D0F8A81099
:104B40002800FBF7C9FB01212800FEF7B2F804009A
:104B5000002806D014F5E54F01D10020D8E0200050
:104B6000D6E0E86F002810D1A86F17280DD10121D9
:104B70002800FEF79EF80400002806D014F5E54F43
:104B800001D10020C4E02000C2E0A86F162862D145
:104B9000286890F8CC00C00714D4286F007800284B
:104BA00006D12800FBF767FBD5F8A010814209D099
:104BB0002868D0F8CC00C0F340000028B0D1DFF85E
:104BC000340AA5E0286890F8CC00C0070DD5286FFE
:104BD0000078012809D02868D0F8CC00C0F3400044
:104BE00000289DD1DFF80C0A92E02868D0F8CC00AC
:104BF000C0F3C02000281DD0D5F8F400002806D14D
:104C00002868D0F8CC00C0F30110002812D0286822
:104C100090F8CC0010F00300022801D10320A86016
:104C20002800FFF795FE0400444513D0002C11D056
:104C300020006DE06869012809DB64220121280059
:104C4000FEF73CFC0400002804D0200060E0DFF800
:104C50004C065DE064E7A868032810D12868D0F806
:104C6000B40000280BD4E868401CE8602868D0F83D
:104C7000B400E968884202DADFF8780948E0A86FF2
:104C8000152802D1DFF8700942E0A86F172802D07A
:104C9000DFF860093CE0286F68676868102803D176
:104CA00000212800FBF718FB286890F8CC00C0070B
:104CB0007FF536AFA86803287FF432AF2800FCF7F1
:104CC00099FE040000283FF42BAF200020E0E86F9D
:104CD000874201D2B84601E0D5F87C80C146D5F8BC
:104CE00074A0B3464A465146584600F079FFE86F33
:104CF000B0EB0800E867E86F002805D1002068677E
:104D00000020C5F8A80002E0686F4044686740468C
:104D1000BDE8F28F008FFFFF2DE9F84F04000D0072
:104D200016002000FFF79FFD80464746B8F1000FB0
:104D300001D540462FE0B74209D22068D0F8CC0018
:104D4000C0F34000002801D0144824E03E00D4F80D
:104D5000D000002807D02000FCF77BFF01000028CE
:104D600018D0080017E0C4F8CC601720C4F8C800B9
:104D7000B146AA46D4F8C4B04A465146584600F057
:104D80002FFF01212000FDF7A3FA0100002801D028
:104D9000080000E03000BDE8F28F0000008FFFFF48
:104DA000F8B504000D0016002068D0F8CC00C0F360
:104DB000802000280AD0022E08D36069022805DA74
:104DC000606C5030FBF725FA022805D0320029002C
:104DD0002000FFF7A1FF1DE094F9DE0000280CD1B0
:104DE000012229002000FFF797FF0700012801DAC0
:104DF00038000FE0012084F8DE00721E691C2000DC
:104E0000FFF78AFF01000800012903DB002184F875
:104E1000DE10401CF2BDF8B504000D001600002C99
:104E200002D02068002802D1DFF8D00717E0200068
:104E3000FFF7FCFD0700002801D038000FE0606894
:104E4000102807D02000FFF752FD0700002801D0EE
:104E5000380004E0320029002000FFF7A1FFF2BD76
:104E600038B50400002C02D02068002802D1DFF8F9
:104E70008C0715E0D4F8D000002803D02000FCF700
:104E8000E8FE0DE06068102809D100220121200011
:104E9000FEF714FB0500002801D0280000E00020E8
:104EA00032BD10B50400002C13D014F1500000F0F6
:104EB0006BFF14F1900000F067FF14F1380000F070
:104EC000B9FC14F1440000F0B5FCD021200000F042
:104ED000DFFE10BD70B505002C00002C06D0A068C8
:104EE0000600200008F092FF3400F6E770BD70B5B0
:104EF0000500EC6B002C0CD02800FEF712F9002600
:104F0000042E06D23100C9B2280000F003F8761C46
:104F1000F6E770BD2DE9F04704000D00E66B2900AF
:104F2000C9B20C20414306EB010010F504772800BC
:104F3000C0B2042819DA3878C00716D5D6F8081296
:104F4000B868091AC6F80812B968786800F0A0FEB7
:104F5000786808F05BFF5FF00C085FF00009BA4664
:104F60004A464146504606F025FFBDE8F087F8B5B1
:104F70000600F56B002D47D015F5147001F03DFCCF
:104F800015F52A7002F0EFFA15F5417004F0A1F85A
:104F900015F55C7005F0FBFA281D07F06EFA15F1A7
:104FA000800007F038FBD5F8B40108F02FFFD5F8E2
:104FB000B801002809D0D5F8BC11D5F8B80100F027
:104FC00067FED5F8B80108F021FFD5F8C801002820
:104FD0000AD0D5F8C841002C06D0A06807002000F0
:104FE00008F014FF3C00F6E7D5F8DC0108F00EFFEE
:104FF000D5F8EC01FCF7BCFE3000FFF778FF40F677
:10500000D801280000F044FEF1BD10B50400002CCA
:105010000FD0206E002805D0206E0AF0FFF9206E18
:1050200008F0F4FEA06E08F0F1FE7C21200000F0F4
:105030002FFE10BD10B50400002C59D0D4F8B000DC
:10504000002809D044F24D11D4F8B00000F020FE41
:10505000D4F8B00008F0DAFEE06D002807D044F282
:105060004D11E06D00F014FEE06D08F0CFFEA06C75
:10507000002805D0A06CFFF714FFA06C08F0C6FE56
:10508000E06B002811D02000FFF771FFE06CFFF704
:1050900008FFA06BFFF7B9FFE06B08F0B7FEE06C0C
:1050A00008F0B4FEA06B08F0B1FE606B002805D0DC
:1050B000606BFFF7AAFF606B08F0A8FED4F8E4006D
:1050C00000280CD0D4F8E40000F062FD0100D4F810
:1050D000E40000F0DDFDD4F8E40008F097FED4F819
:1050E000EC0008F093FE4FF48C71200000F0D0FD2E
:1050F00010BDF8B50400D025002627003200290095
:10510000380006F057FEF1BD2DE9FC4FC3B0050095
:105110000C00160021002800FFF7B7FA3100280024
:10512000FFF7BAFA002C0CD10220D5F8CC1060F3AE
:105130008301C5F8CC10D5F8CC0050F40050C5F868
:10514000CC00D5F8CC0050F04000C5F8CC00D5F824
:10515000CC0050F08000C5F8CC00D5F8CC0050F45D
:105160008070C5F8CC00D5F8CC0050F48060C5F84C
:10517000CC00DFF88C046864DFF88804A864D5F8F4
:10518000CC0050F40070C5F8CC00D5F8CC0050F439
:105190000040C5F8CC004FF47A70C5F8AC004EF66C
:1051A0006020C5F8B0001020C5F8B40002275FF0F9
:1051B000000815F1B80942463900484606F0FAFDE4
:1051C0005FF006094FF0FF0A15F1BA0B5246494647
:1051D000584606F0EFFD012C19D103A8DFF828147A
:1051E0004FF4807200F00CFDDFF8200400788DF899
:1051F00004000120009001AB4FF4807203A9280045
:10520000FFF798FA0290002801D0029843E04498F2
:1052100002281BD1032085F8CA00032085F8CB00A3
:10522000032085F8C800032085F8C900DFF8E003F3
:10523000E860A86068602860DFF8D8036866DFF877
:10524000D8036867DFF8D403A86723E0032085F854
:10525000CA00012085F8CB00032085F8C800032090
:1052600085F8C900012E02D1022085F8CB000CF090
:10527000A1FEE860A86068602860DFF8A4036866A3
:10528000DFF8A003686711F0FAFAA8674FF48060AE
:10529000C5F8C400002045B0BDE8F08F0094FFFFC2
:1052A000808FFFFF10B5040014F17C000AF001FBB1
:1052B00014F188000AF0FDFAD4F8940000280FD009
:1052C000D4F89810D4F8940000F0E2FCD4F89400DC
:1052D00008F09CFD0020C4F894000020C4F8980059
:1052E000D4F89C0000280FD0D4F8A010D4F89C006B
:1052F00000F0CEFCD4F89C0008F088FD0020C4F833
:105300009C000020C4F8A000A06EFFF7E3FDD021B0
:10531000200000F0BDFC10BD10B5040001212000EC
:105320000AF036F9002801D0012008E0042120000D
:105330000AF02EF9002801D0032000E0002010BD63
:1053400001000800C0B2012804D0022804D00428BB
:1053500002D003E0012002E0032000E000207047BB
:1053600001000800C0B2012802D0032802D003E0E7
:10537000012002E0042000E0002070470200080045
:10538000C0B2012802D0042802D003E0107802E065
:10539000507800E0002070470B00DBB2012B02D0F8
:1053A000042B05D009E00378002B00D1027004E043
:1053B0004378002B00D14270FFE7704701704170C5
:1053C000704701000800C0B2012809D014D3032897
:1053D0000AD007D305280BD008D306280AD00BE043
:1053E00003200AE0042008E0052006E0062004E08F
:1053F000072002E0082000E0002070470100032998
:1054000009D014D305290AD007D307290BD008D314
:1054100008290AD00BE001200AE0022008E003205E
:1054200006E0042004E0052002E0062000E0002061
:10543000704710B402001068806F002802D15FF03E
:10544000FF300FE01068836F1878002808D01878B4
:105450000C00E4B2A04201D1002003E05B1CF3E7A2
:105460005FF0FF3010BC704710B402001068406F4E
:10547000002802D15FF0FF300FE01068436F18681A
:10548000002808D018680C00E4B2A04201D1002026
:1054900003E01B1DF3E75FF0FF3010BC70472DE900
:1054A000F84F04000D0016001F005FF000085FF0C9
:1054B0000009012E20D1A87A00281AD0022812D083
:1054C0000ED304280FD00ED3062812D011D30828EB
:1054D0000FD005D30A2809D008D30B2809D00DE036
:1054E000202081460AE08020814607E0082081468E
:1054F00004E00020814601E08020814649462000EA
:1055000009F096FB002806D0386850F40060386037
:105510005FF0FF308046012E04D1DFF80CA15FF070
:10552000080B03E0DFF804A15FF0080B5A46514670
:10553000200009F0A5FB002806D0386850F4805000
:1055400038605FF0FF3080464046BDE8F28F10B40F
:10555000012A0BD1022900D1491ED0F1FF04FE3CE3
:105560001C70D1F1FF04FF3C5C7001E018705970B1
:1055700010BC704730B4012A0FD140F201151C78DD
:105580002D1B05605C78D4F580740C600C68012CD0
:1055900007D10C68641C0C6003E01C7804605C7824
:1055A0000C6030BC704702005069032801D02048CD
:1055B0001DE00800012806D0022806D004280ED0DD
:1055C000052807D010E01A4811E01A48D36BC3F839
:1055D0004C040BE01848D36BC3F84C0406E01748A2
:1055E000D36BC3F84C0401E0114800E00020704781
:1055F0000095FFFF0089FFFF0097FFFF008FFFFF6F
:10560000314300083D430008480D0408B3BD0008BD
:105610004800002084B204085400002060000020EC
:1056200074B2040834000020A8B70408B4B7040812
:10563000009AFFFF690C0008E50C0008B90C00088F
:105640002DE9F043ADB005000E00170098465FF05D
:10565000000917A801F0C6F8684601F079FF17A8FD
:1056600001F0DDF80400002837D14022E86B00F299
:105670005C4117A801F0D4FD040000282DD142465A
:10568000390017A801F0CCFD0400002825D1310015
:1056900017A801F01AFE040000281ED1684601F088
:1056A00074FF0400002818D14022E86B00F25C412E
:1056B000684603F0E1FB040000280ED142463900A1
:1056C000684603F0D9FB0400002806D116F110014A
:1056D000684603F026FC0400002817A801F08DF8A6
:1056E000684601F040FF002C04D05022022128001F
:1056F000FDF7E4FE20002DB0BDE8F0832DE9F84F62
:1057000084B006000F0090469946DDF838A00F9D42
:10571000002003902800C0B200F05AF88346584693
:1057200000F02EFAC8F80000684600F078F8002271
:105730005946684600F09EF8040000281DD16846CE
:1057400000F0BEF80400002817D14022F06B00F2F0
:105750005C41684600F0C3F8040000280DD15246B1
:105760004946684600F0BBF80400002805D139001E
:10577000684600F0C6F804000028684600F05AF8B1
:10578000002C04D0502202213000FDF797FE2000AB
:1057900005B0BDE8F08F30B4002513E050F8042BBD
:1057A000D30744BFA9F101039A18091F042942F83D
:1057B000045BFAD213468C0744BF15809B1CC907B3
:1057C00048BF1D7050F8041B0029E7D130BC70475A
:1057D00001000800C0B203280AD01ED3052810D04B
:1057E0000CD3072813D00FD3092804D012D314E008
:1057F000DFF8680312E0DFF868030FE0DFF8640306
:105800000CE0DFF8640309E0DFF8600306E0DFF88E
:10581000600303E0DFF85C0300E000207047F8B5A8
:1058200004000C250026270032002900380006F06D
:10583000C1FAF1BD10B50400002C02D02068002888
:1058400000D116E06068002803D060682168496ACA
:105850008847A068002808D02068C0684100A06878
:1058600000F016FAA06808F0D1FA0C21200000F030
:105870000FFA10BD70B506000D001400002D01D008
:10588000002E02D1DFF8F00219E0286A804770602C
:10589000002802D1DFF8E40211E0002C0DD0E96805
:1058A000022008F091FAB060B068002805D1706855
:1058B000696A8847DFF8C40201E03560002070BDE6
:1058C00010B50400002C02D02068002802D1DFF8B7
:1058D000A80203E0606821680969884710BD70B5B7
:1058E00004000D001600002C02D02068002801D111
:1058F000A14805E032002900606823685B69984789
:1059000070BD38B504000D00002C02D020680028BE
:1059100001D1994804E029006068226892699047A3
:1059200032BDF8B504000D0016001F00002C01D197
:10593000914804E03A0031002800E3699847F2BD3D
:1059400000002DE9F84F94B004000D001600002C63
:1059500005D02068002802D0A068002801D1864820
:105960006DE02068C068B0421CD260682168096997
:105970008847070000285DD132002900606823684D
:105980005B6998470700002854D104A96068226821
:1059900092699047070000284CD120688068060073
:1059A00004A80500A0680090A0682168C9680844A0
:1059B00001902068C06803905FF03609DDF800A010
:1059C0004A460399504606F0F5F92068C0680290EF
:1059D0005FF05C0ADDF804B052460299584606F0C2
:1059E000E9F900208046B04514D2009810F808105C
:1059F00015F808004140009800F80810019810F8C8
:105A0000081015F808004140019800F8081018F136
:105A10000108E8E7606821680969884707000028ED
:105A200008D12068C2680099606823685B6998475C
:105A300007000028402104A800F02AF9380015B01A
:105A4000BDE8F08F70B504000D001600002C05D0E5
:105A50002068002802D0A068002801D1464805E04F
:105A600032002900606823685B69984770BD2DE9A2
:105A7000F04190B004000D00002C05D020680028F3
:105A800002D0A068002801D13B4834E0A06821681A
:105A9000C96800EB01066946606822689269904710
:105AA0000700002801D0380025E0606821680969F6
:105AB00088478046002801D040461CE02068C26824
:105AC0003100606823685B6998470700002801D0AF
:105AD000380010E0206882686946606823685B6966
